:020000040000FA
:0408000007EF04F00A
:0A0808005E825E92110008EF06F018
:0208160041019E
:100B2A00010E0001D16F12003F6E3FC03CF0600E13
:100B3A008FEC06F012003C6E3CC0A9FFA69EA69C54
:100B4A00A680A6B0FED7A85012004F0E0201816FF0
:100B5A004B0E826F000E3D6E030E3C6E5FEC06F08C
:100B6A001200450E0201816F520E826F520E836F80
:100B7A00000E3D6E040E3C6E5FEC06F01200C00ED5
:100B8A000001986F020E996F000E9D6F080E9C6F00
:100B9A002A0E9E6F0B0E9F6F9B8F1200010E000193
:100BAA00A627000EA723A823A923CE51D8A4120052
:100BBA00CC2BCC51D8A41200CC691200000EA4ECA4
:100BCA0007F05BEC13F0C7EC10F002EC12F0200E09
:100BDA00306001D0FAD764B2F8D721EC1CF0F5D70F
:100BEA003C503E02F3CF40F0F4CF41F03C503F027C
:100BFA00F35041263D503E02F350412640C03CF09E
:100C0A0041C03DF0120000EE60F0980EEE6AE80670
:100C1A00FDE100EE01F03B0EEE6AE806FDE15E90B2
:100C2A005E92000EF86E0001E3EF05F03CC042F060
:100C3A003DC043F008D042C0D9FF43C0DAFF3EC0EE
:100C4A00DFFF424A432A4006D8A041064028F3E182
:100C5A004128D8B41200EFD7F29CF29E8068000EA9
:100C6A00816E000E826E8968000E8A6E000E8B6E8F
:100C7A00000E7E6E000E7F6EF00E936E0F0E946E57
:100C8A000EEF00F01200608462986482010E000187
:100C9A00CE6F000ECC6F000E496E750E486E000EB8
:100CAA004A6E000E4B6E000E4D6E000E4C6E79ECC5
:100CBA0009F012003CC03EF03DC03FF03FBE06D0F6
:100CCA003F500FE13F0E3E5CD8B01200800E3E242A
:100CDA00D96E020E3F20DA6E000EDF6E3E4A3F2AC0
:100CEA00EDD712003CC03EF03DC03FF03FBE06D0FB
:100CFA003F500FE1400E3E5CD8B01200800E3E24F9
:100D0A00D96E020E3F20DA6E000EDF6E3E4A3F2A8F
:100D1A00EDD712003D6E3DC0A9FF3CC0A8FFA69EBC
:100D2A00A69CA684000EF2BE010E3E6EF29E550EE1
:100D3A00A76EAA0EA76EA6823E50D8A4F28EA1A8CC
:100D4A00FED7A198A6941200D00E9318D8A40BD05F
:100D5A0049C03CF04AC03DF012EC14F03CC049F0E6
:100D6A003DC04AF0120049C03CF04AC03DF0A2EC36
:100D7A000FF03CC049F03DC04AF01200000E0001DD
:100D8A00CE6F000E496E740E486E000E4A6E000E4B
:100D9A004B6E000E4D6E000E4C6E79EC09F06492AB
:100DAA00609401D0629462B4FDD7000E0001CC6F4A
:100DBA001200476E44A405D0000E3C6E4750FFEC6B
:100DCA000AF044A205D0010E3C6E4750FFEC0AF02F
:100DDA00530E4724456E466A0F0E462245C0D9FF78
:100DEA0046C0DAFF44C0DFFF1200A30E3C6E000EBD
:100DFA008FEC06F028C03CF0010E8FEC06F027C0FD
:100E0A003CF0020E8FEC06F026C03CF0030E8FEC8D
:100E1A0006F025C03CF0040E8FEC06F024C03CF02E
:100E2A00050E8FEC06F012003C6E3C50D8A40DD093
:100E3A002B50D8A4120011500001C65D1250C75998
:100E4A00D8B01200C64BC72B120011500001C619A8
:100E5A0007E11250C719D8A403D02950010A296EF4
:100E6A00000EC76F000EC66F12003EC044F03FC0AE
:100E7A0045F03CC042F03DC043F010D044C0D9FF19
:100E8A0045C0DAFFDF50466E444A452A42C0D9FFC0
:100E9A0043C0DAFF46C0DFFF424A432A4006D8A0D1
:100EAA0041064028EBE14128D8B41200E7D70F01E8
:100EBA0053A11DD00FC0D9FF10C0DAFF800EDE1873
:100ECA00D8A414D007C0D9FF08C0DAFF840EDE18F0
:100EDA00D8A40CD00FC0D9FF10C0DAFF0C0EDF6EF9
:100EEA000FC0D9FF10C0DAFF000EDB8E5391629A51
:100EFA001200000E0201816F000E826F020E816FD6
:100F0A00010E826F160EF66E080EF76E0800F5CF08
:100F1A0083F2160EF66E080EF76E0900F5CF40F052
:100F2A000900F5CF41F041C040F0416A4050846F5A
:100F3A00000E3D6E050E3C6E5FEC06F012003C6E34
:100F4A001DD0000E816E000E826E000E8A6E000E9B
:100F5A008B6E000E7E6E000E7F6EF00E936E0F0E7D
:100F6A00946E0F0E946EF19EF00E786E81BC03D0D3
:100F7A00D00E936E1200B00E936E12003C50000A0F
:100F8A00D8B4DFD7010AD8B41200030A1200000E3F
:100F9A00416E000E406E880E4024D96E000E41202C
:100FAA00DA6E810E4024E16E020E4120E26EDFCF3E
:100FBA00E7FF404A412A41BEEED7415004E1100EF4
:100FCA00405CD8A0E8D71EC091F213C092F2145028
:100FDA000201936F000E3D6E140E3C6E5FEC06F03C
:100FEA00120025C081F224C082F228C083F227C0F1
:100FFA0084F226C085F22FC086F235C087F236C049
:10100A0088F237C089F238C08AF231C08BF232C016
:10101A008CF233C08DF234C08EF22EC08FF22DC006
:10102A0090F211C091F212500201926F000E3D6EC1
:10103A00130E3C6E5FEC06F012003D6E400E3D60F2
:10104A000CD0400E3C6002D0070E21D0C00E3C648A
:10105A0002D0050E1CD0060E1AD0C00E3D640CD06C
:10106A00400E3C6002D0010E12D0C00E3C6402D089
:10107A00030E0DD0020E0BD0400E3C6002D0000EC3
:10108A0006D0C00E3C6402D0040E01D0080E3E6E9B
:10109A003E501200160E0001D26F030ED36F530E8C
:1010AA00D46F000ED56F4E0ED66F000ED76F2D0E71
:1010BA00D86F000ED96F2D0EDA6F000EDB6F2D0E72
:1010CA00DC6F000EDD6F2D0EDE6F000EDF6F2D0E52
:1010DA00E06F000EE16F2D0EE26F000EE36F2D0E32
:1010EA00E46F000EE56F2D0EE66F000EE76F12003B
:1010FA00010E0001D06F2F04D8A402D00F0ED06FBA
:10110A00020E2F18D8A402D0070ED06F030E2F1884
:10111A00D8A402D0030ED06F36503510FF0ABA6F2A
:10112A0037503810FF0ABB6F32503110FF0AB86FC0
:10113A0033503410FF0AB96F000EC96F000EC86F22
:10114A00000E2C6E000E2B6E000E2A6E1200020E7E
:10115A001C18D8A403D02FEC10F01200000E1C6E3D
:10116A000001CD51D8A41FD020EE01F00D50D92690
:10117A000E50DA22080EDF6E20EE02F00D50D9264C
:10118A000E50DA22300EDE6E020EDD6E0DC0D9FF71
:10119A000EC0DAFF0C0EDF6E0DC0D9FF0EC0DAFFEB
:1011AA00000EDB8E1200000ECD6F1200000E000141
:1011BA00B66F000EB76F000EB46F000EB56F000E5B
:1011CA00B26F000EB36F000ED16F000E3D6E000EAF
:1011DA003C6E77EC06F01A0E446E010EDEEC06F059
:1011EA0082BE12001E0E446E020EDEEC06F0000EE7
:1011FA003C6EC00E3D6E020E3E6E400E3F6E020EFB
:10120A0021EC0FF03CC0B2F03DC0B3F01200000177
:10121A00D0512B5CD8A02FD0000E2B6EAD0EC82556
:10122A00C86F020EC921C96F810EC85D3E0EC95929
:10123A00D8A007D0800EC825C86FC10EC921C96FB2
:10124A0012002A50D8A409D02E502C5CD8A005D060
:10125A00000E2C6E010E2A6E12002A04D8A409D0A0
:10126A002D502C5CD8A005D0000E2C6E000E2A6ED4
:10127A0012002C2A12002B2A1200200E3D6E000E9C
:10128A003C6E285080083E6E000ED8A0E82A00085E
:10129A003F6E2CEC0AF03CC0C0F03DC0C1F0200EFD
:1012AA003D6E000E3C6E275080083E6E000ED8A0A0
:1012BA00E82A00083F6E2CEC0AF03CC0BEF03DC0A4
:1012CA00BFF0200E3D6E000E3C6E265080083E6E2A
:1012DA00000ED8A0E82A00083F6E2CEC0AF03CC0A9
:1012EA00BCF03DC0BDF0120010D000F01200010E9B
:1012FA00A4EC07F01200020EA4EC07F01200DBECDB
:10130A0008F0120060EC17F0120048C04EF049C015
:10131A004FF04F50000AD8B404D07F0AD8A4120064
:10132A001AD04E50010AD8B4EAD7030AD8B4120028
:10133A00010AD8B4E7D7060AD8B41200770AD8B493
:10134A00D4D7010AD8B41200070AD8B4D4D7010AEC
:10135A00D8A41200CCD74E50FF0A1200C4C081F2A2
:10136A00000E3D6E000E3C6EE80E3C24D96E000E57
:10137A003D20DA6E820E3C24E16E020E3D20E26EC2
:10138A00DFCFE7FF3C4A3D2A3DBEEED73D5004E1A0
:10139A000D0E3C5CD8A0E8D7000E3D6E000E3C6EE8
:1013AA00400E3C24D96E020E3D20DA6E8F0E3C248C
:1013BA00E16E020E3D20E26EDFCFE7FF3C4A3D2A96
:1013CA003DBEEED73D5005E1080E3C5CD8B0120098
:1013DA00E7D7120035C03CF0610E8FEC06F036C03C
:1013EA003CF0620E8FEC06F037C03CF0630E8FECD7
:1013FA0006F038C03CF0640E8FEC06F031C03CF0C9
:10140A00650E8FEC06F032C03CF0660E8FEC06F0EB
:10141A0033C03CF0670E8FEC06F034C03CF0680E27
:10142A008FEC06F02EC03CF0690E8FEC06F02DC052
:10143A003CF06A0E8FEC06F011C03CF06B0E8FEC9C
:10144A0006F012503C6E6C0E8FEC06F01200000E85
:10145A00416E3FAE06D03E6C3F1ED8B03F2A010E09
:10146A00416E3DAE06D03C6C3D1ED8B03D2A010E01
:10147A00411A000E436E000E426E3E503F10D8B421
:10148A001CD0010E406E04D0D8903E363F36402A1A
:10149A003FAEFAD7D890423643363E503C5C3F5076
:1014AA003D58D8A005D03E503C5E3F503D5A428040
:1014BA00D8903F323E32402EEDD74150D8B404D0B6
:1014CA00426C431ED8B0432A42C03CF043C03DF0B0
:1014DA001200000E1D6E000E196E000E166E000E22
:1014EA00156E000E0001CD6F000E1C6E07C0D9FFED
:1014FA0008C0DAFF7F0EDF16040E0718076E0850C1
:10150A00086E07C0D9FF08C0DAFF7F0EDF16040E87
:10151A000718076E0850086E0DC0D9FF0EC0DAFF13
:10152A007F0EDF16000E046E000E066E000E056EAC
:10153A00000E9B6F000E9D6F000E9C6F96EC0CF0D8
:10154A00000E496E030E486E000E4A6E000E4B6E78
:10155A00000E4D6E000E4C6E79EC09F0C6EC0DF0E3
:10156A001200000E416E000E406E740E4024D96EB9
:10157A00000E4120DA6E810E4024E16E020E4120F7
:10158A00E26EDFCFE7FF404A412A41BEEED7415023
:10159A0004E1140E405CD8A0E8D7000E416E000E9C
:1015AA00406E600E4024D96E000E4120DA6E950E10
:1015BA004024E16E020E4120E26EDFCFE7FF404A8F
:1015CA00412A41BEEED7415004E1140E405CD8A036
:1015DA00E8D723C0A9F222C0AAF221C0ABF220C0E8
:1015EA00ACF21FC0ADF2000E3D6E2E0E3C6E5FECEB
:1015FA0006F01200416E000E426E020E436E3C501F
:10160A003D6E3E6AD8903D363E3641503F6E406A46
:10161A00D8903F364036D8903F3640363D503F2628
:10162A003E504022D8903F364036D8903F3640361A
:10163A003F5042264050432242C0D9FF43C0DAFFFE
:10164A00DF9E3C50D8A407D04150020DA00EF324CF
:10165A00D96E000E06D04150020D070EF324D96E42
:10166A00000EF420DA6E42C0DEFF43C0DDFF42C046
:10167A00D9FF43C0DAFFDF9C20EE04F04250D9269E
:10168A004350DA22DF8C1200000E166E000E156E21
:10169A00020E1C18D8A41FD020EE01F00D50D92636
:1016AA000E50DA22080EDF6E20EE02F00D50D92617
:1016BA000E50DA22380EDE6E020EDD6E0DC0D9FF34
:1016CA000EC0DAFF480EDF6E0DC0D9FF0EC0DAFF7A
:1016DA00000EDB8E120005500201365D06503759A6
:1016EA00D8B004D036C205F037C206F0F8EC0CF0D8
:1016FA0020EE02F00750D9260850DA22380EDE6EA4
:10170A00020EDD6E07C0D9FF08C0DAFF480EDF6E91
:10171A0007C0D9FF08C0DAFF000EDB8E12002D0EBB
:10172A001A6E39C057F0FD0E5716D8A43BD039C0EF
:10173A0057F0D89057323F0E57165750040D000EE7
:10174A00F3240F6E020EF420106E0FC00DF010C0BD
:10175A000EF0040E0D180D6E0E500E6E0FC0D9FF4E
:10176A0010C0DAFFDF30E8320F0B0D0AD8A417D009
:10177A00300E3C6E020E3D6E20EE02F00F50D9265E
:10178A001050DA22DECF3EF0DDCF3FF0000E416E80
:10179A00080E406E3AEC07F06EEC0AF01200ACEC60
:1017AA0008F012003950FD0B040AD8A4120036ECD6
:1017BA000EF01200000E0201386F000E396F3AD097
:1017CA00048E0001CF05D8A440D0020138833DD051
:1017DA00048E3BD0048E34510F0B0009D8B435D097
:1017EA0034BF0AD034510F0B3C6E3C50020DA00E90
:1017FA00F324D96E000E09D034510F0B3C6E3C50C5
:10180A00020D070EF324D96E000EF420DA6EDECF35
:10181A003DF0DDCF3EF03DC0D9FF3EC0DAFFDFAE7E
:10182A0014D03DC0D9FF3EC0DAFFDFA40ED0010EAE
:10183A00386F0BD030511F0B000AD8B4C1D7010A38
:10184A00D8B4C6D7030AD8B4C5D704AE1200380E26
:10185A00016E020E026E0480020E056E120018500E
:10186A00D8A41200010E186E1750D8A41200010E47
:10187A00176E020E1C18D8A415D020EE01F00750DE
:10188A00D9260850DA22000EDF6E07C0D9FF08C039
:10189A00DAFF480EDF6E07C0D9FF08C0DAFF000E74
:1018AA00DB8E12001C04D8A41200000E0001CD6FBA
:1018BA0020EE01F00F50D9261050DA22080EDF6E02
:1018CA0020EE02F00F50D9261050DA22300EDE6ECA
:1018DA00020EDD6E0FC0D9FF10C0DAFF040EDF6EF4
:1018EA000FC0D9FF10C0DAFF000EDB8E010ECD6FDC
:1018FA0020EE01F00D50D9260E50DA22080EDF6EC6
:10190A0020EE02F00D50D9260E50DA22300EDE6E8D
:10191A00020EDD6E0DC0D9FF0EC0DAFF800EDF6E3B
:10192A00120002013039E832030B0009D8A4120070
:10193A0039D0048E080E306E120080EC16F01200B8
:10194A005EEC0DF012003B0E016E000E026E04807A
:10195A00010E056E048E1200DFEC0BF0120050EC43
:10196A0018F012003A0E3425016E026A000E0222A5
:10197A00EED7048E3A0E3425D96EDA6A000EDA22D0
:10198A0032C2DFFF1200000E496E020E486E000ED0
:10199A004A6E000E4B6E000E4D6E000E4C6E79ECC8
:1019AA0009F012003151000AD8B4D6D7010AD8B4C6
:1019BA00D6D7020AD8B4D3D7060AD8B4BAD7030AF4
:1019CA00D8B4BBD7010AD8B4DED70F0AD8B4BBD76C
:1019DA00010AD8B4B5D7030AD8B4C4D7010AD8B40F
:1019EA00C8D7070A1200080E3C6E065010E1080E0E
:1019FA00055CD8B00CD005C03CF01D50D8A402D06C
:101A0A00010E04D01D04D8A402D0020E1D6E3C5053
:101A1A00055E000E065A20EE01F00750D92608503E
:101A2A00DA223CC0DFFF380E0001B06F020EB16F40
:101A3A0004A01CD03AD001C0F6FF02C0F7FFF86A32
:101A4A00B0C0D9FFB1C0DAFF020EF76403D00800B4
:101A5A00F55005D0F6CFE1FFF7CFE2FFE750DF6E92
:101A6A00014A022A0001B04BB12B3C063C50D8B4C3
:101A7A001200E1D701C0F6FF02C0F7FFF86AB0C052
:101A8A00D9FFB1C0DAFF020EF76403D00800F5509F
:101A9A0005D0F6CFE1FFF7CFE2FFE750DF6E014A4C
:101AAA00022A0001B04BB12B3C063C50D8B41200BC
:101ABA00E1D7048E540E3C6E0F0E3D6E000E3F6E43
:101ACA00000E3E6E000E416E020E406E1BEC06F0DA
:101ADA00000E3C6E020E3D6E000E3F6E000E3E6E14
:101AEA00000E416E300E406E1BEC06F0648C000E48
:101AFA00506EAD0E5024D96EDA6A000EDA22000E4C
:101B0A00DF6EAA0E5024D96EDA6A000EDA22000EAF
:101B1A00DF6E502A020E5064ECD73A0E3C6E000E6D
:101B2A003D6E000E3F6E000E3E6E000E416E010EBF
:101B3A00406E1BEC06F0649C080E076E020E086EDF
:101B4A00000E0F6E020E106E0FC00DF010C00EF0D8
:101B5A0032C23BF03B50D8A403D0100E306E1200B4
:101B6A00200E306E000E496E010E486E3B0E4A6E14
:101B7A00000E4B6E000E4D6E010E4C6E79EC09F0A4
:101B8A001200649804BE39D000019BAF0BD0020E3C
:101B9A001C6E1550D8B449EC0BF0000E176E000EEF
:101BAA00186E120020EE01F00D50D9260E50DA22DE
:101BBA00080EDF6E20EE02F00D50D9260E50DA2202
:101BCA00300EDE6E020EDD6E0DC0D9FF0EC0DAFFDA
:101BDA000C0EDF6E0DC0D9FF0EC0DAFF000EDB8ED1
:101BEA0007C0D9FF08C0DAFF040EDF6E07C0D9FFAD
:101BFA0008C0DAFF000EDB8E1200020130AF10D0EF
:101C0A00010E1C6E1650D8B449EC0BF0000E176E7C
:101C1A00000E186E1950D8A4120034EC0CF0120001
:101C2A00020E1C6E20EE01F00D50D9260E50DA225B
:101C3A00080EDF6E20EE02F00D50D9260E50DA2281
:101C4A00300EDE6E020EDD6E0DC0D9FF0EC0DAFF59
:101C5A00040EDF6E0DC0D9FF0EC0DAFF000EDB8E58
:101C6A00D5D707C0D9FF08C0DAFF000EDFBC010EC6
:101C7A003D6E040E0718076E0850086E080E3018DD
:101C8A00D8A40CD0020132517F0B0F015C6F5C515A
:101C9A00D8B402D0100E01D0040E306E1C04D8A4A1
:101CAA003AD020EE02F00750D9260850DA22380E30
:101CBA00DE6E020EDD6EF8EC0CF0020E1D18D8A4D2
:101CCA000DD007C0D9FF08C0DAFF040EDF6E07C0C7
:101CDA00D9FF08C0DAFF000EDB8E12003D50D8A4EF
:101CEA000DD007C0D9FF08C0DAFF480EDF6E07C063
:101CFA00D9FF08C0DAFF000EDB8E120007C0D9FF39
:101D0A0008C0DAFF080EDF6E07C0D9FF08C0DAFF85
:101D1A00000EDB8E120000019BAF14D09E519F1162
:101D2A00D8B40ED020EE9EF001D80AD00500FA6E83
:101D3A00DE50FD6EDE50FE6EF850FF6EFA50120055
:101D4A0000019B9F000E1C6E1200000E406E000EDA
:101D5A003F6E740E3F24D96E000E4020DA6EDF50BB
:101D6A003C6E3F50200F8FEC06F03F4A402A40BE9F
:101D7A00F0D7405004E1140E3F5CD8A0EAD7000E19
:101D8A00406E000E3F6E600E3F24D96E000E40205A
:101D9A00DA6EDF503C6E3F50340F8FEC06F03F4A4C
:101DAA00402A40BEF0D7405004E1140E3F5CD8A050
:101DBA00EAD7000E406E000E3F6E880E3F24D96EA1
:101DCA00000E4020DA6EDF503C6E3F50480F8FEC19
:101DDA0006F03F4A402A40BEF0D7405004E1100EB8
:101DEA003F5CD8A0EAD723C03CF0580E8FEC06F02F
:101DFA0022C03CF0590E8FEC06F01EC03CF05A0E81
:101E0A008FEC06F021C03CF05B0E8FEC06F020C090
:101E1A003CF05C0E8FEC06F01FC03CF05D0E8FECC0
:101E2A0006F013C03CF05E0E8FEC06F014503C6EC8
:101E3A005F0E8FEC06F01200446E3C50D8B407D007
:101E4A004450020D070EF324D96E000E06D04450FA
:101E5A00020DA00EF324D96E000EF420DA6EDECF46
:101E6A0045F0DDCF46F045504610D8A405D0000E07
:101E7A003C6E000E3D6E120020EE02F04550D9264F
:101E8A004650DA223DC0DEFF3EC0DDFF20EE01F003
:101E9A004550D9264650DA223FC0DFFF45C0D9FF58
:101EAA0046C0DAFF400EDF1645C0D9FF46C0DAFF4A
:101EBA00000EDB8645C0D9FF46C0DAFF000EDB8E76
:101ECA003C50D8B418D04450020D070EF324D96EF2
:101EDA00000EF420DA6EDECF40F0DDCF41F0040EC2
:101EEA004018426E4150436E4450020D070EF324CF
:101EFA00D96E000E17D04450020DA00EF324D96EED
:101F0A00000EF420DA6EDECF40F0DDCF41F0040E91
:101F1A004018426E4150436E4450020DA00EF32405
:101F2A00D96E000EF420DA6E42C0DEFF43C0DDFF38
:101F3A0045C03CF046C03DF01200818C3CC043F0E5
:101F4A003DC044F0140EE82EFED782CF3EF00F0EAD
:101F5A003E168150300B3E1043C0D9FF44C0DAFF11
:101F6A00DF6E434A442A819C140EE82EFED782CFA4
:101F7A003EF00F0E3E168150300B3E1043C0D9FF83
:101F8A0044C0DAFFDF6E434A442A818C000E426E57
:101F9A00000E416E000E406E000E3F6E81B802D0F8
:101FAA00010E01D0000E3E6E81BA02D0010E01D0A0
:101FBA00000E3E14E8B00DD0C80E3F184010D8A449
:101FCA0005D0000E3D6E010E3C6E12003F4A402ABB
:101FDA00E5D782500F0B43C0D9FF44C0DAFFDF6E4A
:101FEA00434A442A050E41184210D8A405D0000ECF
:101FFA003D6E000E3C6E1200000E406E000E3F6EEB
:10200A0081A802D0010E01D0000E3E6E81BA02D024
:10201A00010E01D0000E3E14E8B008D0C80E3F18D9
:10202A004010D8B4CED73F4A402AEAD782500F0B85
:10203A0043C0D9FF44C0DAFFDF6E434A442A414A0B
:10204A00422A42BEA7D74250BCE1060E415CD8B034
:10205A00B8D7A0D720EE01F00F50D9261050DA22B7
:10206A00DF503D6E3D5000019C5D000E9D59D8A089
:10207A009CC03DF03D509C5F000E9D5B000E3C6E87
:10208A000FD0380E3C24D96EDA6A020EDA2298C0D2
:10209A00E1FF99C0E2FFDFCFE7FF984B992B3C2A7B
:1020AA003D503C5CD8A0EDD79C519D11D8B432D09C
:1020BA0020EE01F00D50D9260E50DA22080EDF6EFE
:1020CA0020EE02F00D50D9260E50DA22380EDE6EBE
:1020DA00020EDD6E0FC0D9FF10C0DAFFDFBC0DD0D3
:1020EA000DC0D9FF0EC0DAFF480EDF6E0DC0D9FF52
:1020FA000EC0DAFF000EDB8E12000DC0D9FF0EC033
:10210A00DAFF080EDF6E0DC0D9FF0EC0DAFF000E2F
:10211A00DB8E120020EE01F00D50D9260E50DA2285
:10212A00080EDF6E20EE02F00D50D9260E50DA228C
:10213A00300EDE6E020EDD6E0DC0D9FF0EC0DAFF64
:10214A00040EDF6E0DC0D9FF0EC0DAFF000EDB8E63
:10215A009E519F11D8B40ED020EE9EF001D80AD01D
:10216A000500FA6EDE50FD6EDE50FE6EF850FF6E10
:10217A00FA50120000019B9F1950D8A4120034ECA7
:10218A000CF01200A094000E0F015F6F000E626E39
:10219A00000E536F540E3C6E0F0E3D6E000E3F6ED6
:1021AA00000E3E6E000E416E020E406E1BEC06F0F3
:1021BA00160E616E9F0E0F015B6F7B0E606E000E36
:1021CA00446E4450040D000EF324D96E020EF4201E
:1021DA00DA6EDE6ADE6ADE6ADD6A442A0B0E44645F
:1021EA00F0D7648C000E0F015C6F6498649C629651
:1021FA00000E046E000E00019B6F000E9D6F000E14
:10220A009C6F62B6F4D7010E186E010E176E000E9F
:10221A00166E000E156E000ECE6F000E446E445000
:10222A00020D070EF324D96E000EF420DA6E000EAA
:10223A00DE6E000EDD6E4450020DA00EF324D96E40
:10224A00000EF420DA6E000EDE6E000EDD6EAD0EAC
:10225A004424D96EDA6A000EDA22000EDF6EAA0E64
:10226A004424D96EDA6A000EDA22000EDF6E442A9E
:10227A00020E4464D4D7080E076E020E086E160EBC
:10228A000F01536F020E0201036F300E026F080E28
:10229A00016F040E006F008F000E3B6E000E0001EE
:1022AA00A66F000EA76F000EA86F000EA96F000E92
:1022BA00CC6F000E306E1200000E286E000E276ED4
:1022CA00000E266E020E256E020E246EFAEC06F041
:1022DA00000E416E740E4124D96EDA6A000EDA22BB
:1022EA00000EDF6E412A130E4164F4D7000E416ED0
:1022FA00600E4124D96EDA6A000EDA22000EDF6E11
:10230A00412A130E4164F4D7000E416E880E41240F
:10231A00D96EDA6A000EDA22000EDF6E412A0F0E3B
:10232A004164F4D7400E0001886F200E8A6F020EB6
:10233A008D6F800E8E6F100E906F010E936F200EB0
:10234A00956F100E976F400E606F200E626F020E2F
:10235A00656F800E666F100E686F010E6B6F200E30
:10236A006D6F100E6F6F400E706F200E726F010E40
:10237A00746F020E766F040E786F080E7A6F100E65
:10238A007C6F200E7E6F800E806F400E826F010E72
:10239A00846F020E866F030E236E020E226E030EE8
:1023AA001E6E030E216E060E206E440E1F6E010E67
:1023BA00146E900E136EAAEC0EF0010E2F6E010E23
:1023CA0099EC05F0000E356E000E366E000E376E73
:1023DA00000E386E000E316E000E326E000E336E35
:1023EA00000E346E000E2E6E000E2D6E010E126E51
:1023FA00390E116EEFEC09F012003050D8A411D04A
:10240A00000E646E000E606E160E616E9F0E0F0156
:10241A005B6F7B0E606E01D0648664A6FDD7010EE9
:10242A00306E3004D8B464BA08D0000E626E000E62
:10243A00606E60806088020E306E62B460A403D061
:10244A006294C3EC06F064A202D0A194120062B0B6
:10245A0060A005D0C7EC10F0040E306E629062B82E
:10246A0060A802D048EC06F062AC1AD060AC0ED07C
:10247A00000E496E730E486E000E4A6E000E4B6EC9
:10248A00000E4D6E010E4C6E79EC09F0629CD3EC95
:10249A0005F01A50D8A41A061A50D8B434EC0CF025
:1024AA0062BA60AA02D05CEC07F062B260A210D0F5
:1024BA007F0E496E4868000E4A6E000E4B6E000E83
:1024CA004D6E010E4C6E79EC09F0000E0F015F6F34
:1024DA00040E306002D0A194120060A634D0000E1F
:1024EA00586E62A630D063CF39F03930E832E8321C
:1024FA000F0B1B6E629639B406D0AA0E1B24D96E36
:10250A00DA6A000E05D0AD0E1B24D96EDA6A000E07
:10251A00DA220001DF701B50D8A403D094EC0BF030
:10252A000ED0000E496E720E486E390E4A6E000EBB
:10253A004B6E000E4D6E000E4C6E79EC09F0582A67
:10254A00030E5864CED7A19412004F6E4F50466EB8
:10255A00476A4250486E496A800E4826000E492250
:10256A004650485C4950800A4A6E4750800A4A5889
:10257A00D8A017D0800E466E000E476E4250465EB7
:10258A00000E475A4F50486E496A4650485C4950B7
:10259A00800A4A6E4750800A4A58D8A002D0800E54
:1025AA001200800E4F603CD04F5042C046F0476A3E
:1025BA00461E471E464A472A465E000E475A800E66
:1025CA0046244B6E000E47204C6E43C03CF03D6AD9
:1025DA004BC03EF04CC03FF0F5EC05F03CC04DF06E
:1025EA003DC04EF04DC03CF04EC03DF044C03EF000
:1025FA0045C03FF0F5EC05F03CC050F03DC051F04D
:10260A00400E515CD8A004D0400E516E000E506EA0
:10261A0050500008506E5150D8A0E82A4008516E18
:10262A00800E4F6436D042504FC046F0476A465E2D
:10263A00000E475A810E46244B6EFF0E47204C6E01
:10264A0043C03CF03D6A4BC03EF04CC03FF0F5EC55
:10265A0005F03CC04DF03DC04EF04DC03CF04EC0C0
:10266A003DF044C03EF045C03FF0F5EC05F03CC0FB
:10267A0050F03DC051F0400E515CD8A004D0400E3D
:10268A00516E000E506EFF0E5024506E3F0E5120B8
:10269A00516E50C046F051C047F0070E486ED890B0
:1026AA0047324632482EFBD746501200829E000E11
:1026BA004D6E000E0001C36F000EC26F000ECB6F8D
:1026CA00000ECA6F000EC76F000EC66F3D0E4C6E2D
:1026DA00E10E4B6E400EE82EFED74B2EFCD74C2E49
:1026EA00FAD7D00E9318D8B439D0E80E3C6E000E43
:1026FA003D6EA2EC0FF01F0E4C6E710E4B6E1E0E4D
:10270A00E82EFED74B2EFCD74C2EFAD700D0E80E77
:10271A003C6E000E3D6EA2EC0FF03C043D10D8A4B6
:10272A000CD00001E9A9828EE9BB02D0010E4D6EE0
:10273A00E8B543D031EC06F040D00001F4510A0B61
:10274A000A0AD8A4828EF4B102D0010E4D6EF4B5F5
:10275A0002D0010E4D6EEAA3EDD72FD0E80E3C6EE3
:10276A00000E3D6E12EC14F01F0E4C6E710E4B6E85
:10277A001E0EE82EFED74B2EFCD74C2EFAD700D0D1
:10278A00E80E3C6E000E3D6E12EC14F03C043D1057
:10279A00D8A40DD0828E818AF00E00D0E82EFDD703
:1027AA0081B802D0010E4D6E81AEC4D706D0000E9C
:1027BA000001C36F010EC26FC6D74FEC08F0000EBE
:1027CA00A0EC05F0A30AD8B402D0010E01D0000E85
:1027DA004B6E4C6A4D504B12000E4C124B504C1023
:1027EA00D8B40ED0000E286E000E276E000E266E8C
:1027FA00020E256E020E246EFAEC06F061EC11F060
:10280A00A3EC15F082AE02D0040E2F6E42EC09F052
:10281A00010E296E7DEC08F01200818A3CC047F057
:10282A003DC048F0140EE82EFED782CF3EF00F0EC0
:10283A003E168150F00B3E10456E819A140EE82E1A
:10284A00FED782CF3EF00F0E3E168150F00B3E109F
:10285A00466E46C03EF0030E3E164538E842070B68
:10286A00040B3E10F80947C0D9FF48C0DAFFDF6EF3
:10287A00474A482A45C03EF00F0E3E1646C03FF072
:10288A00100E3F1645C040F0100E4016D890403446
:10289A003F103E1047C0D9FF48C0DAFFDF6E46BE80
:1028AA000BD047C0D9FF48C0DAFFDF50F30B47C04F
:1028BA00D9FF48C0DAFFDF6E474A482A818A000EEC
:1028CA00446E000E436E000E426E000E416E81B8D9
:1028DA0002D0010E01D0000E3E6E81BE02D0010E62
:1028EA0001D0000E3E14E8B00DD0C80E41184210B7
:1028FA00D8A405D0000E3D6E010E3C6E1200414A6E
:10290A00422AE5D782500F0B466E000E426E000E29
:10291A00416E81A802D0010E01D0000E3E6E81BE2A
:10292A0002D0010E01D0000E3E14E8B008D0C80E45
:10293A0041184210D8B4DED7414A422AEAD7825017
:10294A000F0B456E47C0D9FF48C0DAFF45C0DFFF0D
:10295A00474A482A47C0D9FF48C0DAFF46C0DFFFC6
:10296A00474A482A050E43184410D8A405D0000E39
:10297A003D6E000E3C6E1200434A442A44BEA3D761
:10298A004450B8E1060E435CD8B0B4D79CD7010EC8
:10299A003E6E010E3D6E819AF00E00D0E82EFDD7F4
:1029AA00818AF00E00D0E82EFDD7819AF00E00D071
:1029BA00E82EFDD781B808D00001885102014513DD
:1029CA00000189510201461381BE02D0000E3E6EFB
:1029DA00818AF00E00D0E82EFDD782B008D0410ED1
:1029EA001E24D96EDA6A020EDA22000EDF6E82B275
:1029FA0008D0410E1E24D96EDA6A020EDA22FF0EC0
:102A0A00DF6E82B408D0400E1E24D96EDA6A020E36
:102A1A00DA22000EDF6E82B608D0400E1E24D96E6E
:102A2A00DA6A020EDA22FF0EDF6E81B808D00001E0
:102A3A008A510201451300018B510201461381BEDE
:102A4A0008D000018C510201451300018D51020189
:102A5A004613819AF00E00D0E82EFDD782A082B2EA
:102A6A0038D0818AF00E00D0E82EFDD782B008D087
:102A7A0000019251020145130001935102014613CC
:102A8A0082B208D000019051020145130001915110
:102A9A000201461382B408D000018E510201451387
:102AAA0000018F510201461382B602D0000E3D6E1C
:102ABA003E50D8A408D000019451020145130001E8
:102ACA00955102014613819AF00E00D0E82EFDD7E7
:102ADA0025D013500001CA1904E11450CB19D8B4F7
:102AEA0018D03E50D8A410D09451020145130001C9
:102AFA00955102014613132803E11428D8B40ED0C5
:102B0A000001CA4BCB2B0AD0000ECB6F000ECA6F46
:102B1A0005D0000E3D6E3E50D8A4F6D73D5019ECB4
:102B2A0007F03D50D8A408D0000196510201451380
:102B3A000001975102014613818A1200010EA0EC8E
:102B4A0005F0286E020EA0EC05F0276E030EA0EC2D
:102B5A0005F0266E040EA0EC05F0256E050EA0EC1D
:102B6A0005F0246E000E4A6E740E4A24D96EDA6A93
:102B7A00000EDA224A50200FA0EC05F0DF6E4A2A36
:102B8A00130E4A64F1D7000E4A6E600E4A24D96EBB
:102B9A00DA6A000EDA224A50340FA0EC05F0DF6E32
:102BAA004A2A130E4A64F1D7000E4A6E880E4A2446
:102BBA00D96EDA6A000EDA224A50480FA0EC05F004
:102BCA00DF6E4A2A0F0E4A64F1D7580EA0EC05F0C0
:102BDA00236E590EA0EC05F0226E5A0EA0EC05F0F9
:102BEA001E6E5B0EA0EC05F0216E5C0EA0EC05F0EB
:102BFA00206E5D0EA0EC05F01F6E5F0EA0EC05F0D6
:102C0A003D6E3D503F6E3E6A5E0EA0EC05F0406E92
:102C1A0040503E10136E3F50146E600EA0EC05F04B
:102C2A002F6E610EA0EC05F0356E620EA0EC05F079
:102C3A00366E630EA0EC05F0376E640EA0EC05F05C
:102C4A00386E650EA0EC05F0316E660EA0EC05F04C
:102C5A00326E670EA0EC05F0336E680EA0EC05F03C
:102C6A00346E690EA0EC05F02E6E6A0EA0EC05F02B
:102C7A002D6E6C0EA0EC05F03D6E3D503F6E3E6A27
:102C8A006B0EA0EC05F0406E40503E10116E3F50A6
:102C9A00126E440E496E000E4A6E410E4A24D96ED7
:102CAA00DA6A000EDA224A50080FA0EC05F0DF6E4D
:102CBA00410E4A24D96EDA6A000EDA22DF5049261A
:102CCA004A2A070E4A64E9D7070EA0EC05F049180C
:102CDA00D8A4120041C0D8F042C0DAF043C0DCF0F8
:102CEA0044C0DEF045C0E0F046C0E2F047C0E4F080
:102CFA0048C0E6F01200800E02013019D8A4120072
:102D0A00C00E046ECDD082AE09D0DB0E016E3F0E2E
:102D1A00026E000E066E120E056E1200C90E016ECC
:102D2A003F0EF6D73251D8A47CD082AE07D03251AA
:102D3A00020D510EF324F66E3D0E3CD03251020DB7
:102D4A004F0EF324F66E3D0EF420F76E0900F5CF10
:102D5A0001F00A00F5CF02F0020E2F18D8A40ED007
:102D6A003251020D4D0EF324F66E3D0EF420F76E2D
:102D7A000900F5CF01F00A00F5CF02F0030E2F1873
:102D8A00D8A40ED03251020D4B0EF324F66E3D0E2E
:102D9A00F420F76E0900F5CF01F00A00F5CF02F032
:102DAA00040E2F18D8A40ED03251020D490EF32466
:102DBA00F66E3D0EF420F76E0900F5CF01F00A0019
:102DCA00F5CF02F0020E01243C6E000E02203D6E89
:102DDA003CC0F6FF3DC0F7FFF86A020EF76403D065
:102DEA000800F55005D0F6CFE1FFF7CFE2FFE75034
:102DFA00056E030E01243C6E000E02203D6E3CC09F
:102E0A00F6FF3DC0F7FFF86A020EF76403D0080028
:102E1A00F55005D0F6CFE1FFF7CFE2FFE750066E97
:102E2A001200000E046E1200030E32612CD082AE24
:102E3A0007D03251020D430EF324F66E3D0E06D032
:102E4A003251020D3D0EF324F66E3D0EF420F76E5C
:102E5A000900F5CF01F00A00F5CF02F001C0F6FF34
:102E6A0002C0F7FFF86A020EF76403D00800F550B3
:102E7A0005D0F6CFE1FFF7CFE2FFE7503C6E3C50BA
:102E8A00056E066A1200030E3219D8A4CAD7048046
:102E9A00D20E016E000E026ED2C005F0048E120030
:102EAA003351010AD8B42FD7030AD8B43BD7010A41
:102EBA00D8B4BAD7B6D7020130511F0BE806D8A446
:102ECA001200060E3119D8B4A0D0A7D03B04D8A45A
:102EDA00A4D082AE6AD03451D8A412006C0E016E0E
:102EEA003F0E026E000E066E090E056EC00E046ECF
:102EFA0094D02A0E016E3F0E026E000E066E090E67
:102F0A00056EC00E046E020E2F18D8A40AD0E80E61
:102F1A00016E3E0E026E000E066E090E056EC00EA2
:102F2A00046E030E2F18D8A40AD0A60E016E3E0E08
:102F3A00026E000E066E090E056EC00E046E040EB9
:102F4A002F18D8A46AD0640E016E3E0ECAD73A0E64
:102F5A00016E3F0E026E000E066E090E056EC00E61
:102F6A00046E020E2F18D8A40AD0F80E016E3E0E77
:102F7A00026E000E066E090E056EC00E046E030E7A
:102F8A002F18D8A40AD0B60E016E3E0E026E000E9D
:102F9A00066E090E056EC00E046E040E2F18D8A414
:102FAA003CD0740E016E3E0E9CD73451000AD8B440
:102FBA00A0D7010AD8B4CBD730D03B04D8A42DD09F
:102FCA0082AE1BD03451D8A41200530E016E3D0EAE
:102FDA00026E000E066E650E88D7080E016E3E0E52
:102FEA00026E000E066E4A0E80D77C0E016E3F0EF0
:102FFA00026E000E066E1D0E78D73451000AD8B440
:10300A00ECD7010AD8B4F1D708D03351210AD8B481
:10301A005DD7030AD8B4D1D7010A3039E832030B95
:10302A00E806D8A4120023D0C4EC05F01200F70E6B
:10303A00016E000E026E000E066E010E056EC10EC6
:10304A00046E1200800E046E33C2F7F01200F60E00
:10305A00016E000E026E000E066E010E056E810EE6
:10306A00046E1200800E046E32C2F6F01200315164
:10307A00010AD8B41200030AD8B4D9D7010AD8B4BD
:10308A00E6D70A0AD8B4D0D7030AD8B4DBD7010ADC
:10309A00D8A41200E7D702013205D8A40FD03051C4
:1030AA001F0B0009D8A40AD0048E030E3119D8A424
:1030BA0002D0010E01D0000E0001CF6F0201325181
:1030CA00D8A4120030511F0B020AD8A4120034519E
:1030DA000F0B0009D8B4120034510F0B506E030EB7
:1030EA0050601200200E3018D8A41200048E34BF8B
:1030FA0018D034510F0B506E5050020DA00EF3240D
:10310A00D96E000EF420DA6EDECF55F0DDCF56F020
:10311A0034510F0B506E516AAA0E5024D96E000E0C
:10312A0017D034510F0B506E5050020D070EF32476
:10313A00D96E000EF420DA6EDECF55F0DDCF56F0F0
:10314A0034510F0B506E516AAD0E5024D96E000ED9
:10315A005120DA6EDF50546E54B006D0FB0E55146F
:10316A00556EFF0E561404D0040E5510556E565067
:10317A00566E34BF0AD034510F0B506E5050020DA8
:10318A00A00EF324D96E000E09D034510F0B506EE5
:10319A005050020D070EF324D96E000EF420DA6E99
:1031AA0055C0DEFF56C0DDFF030E3119D8A42AD060
:1031BA0055C0D9FF56C0DAFFDFAE17D034BF09D0E9
:1031CA0034510F0B506E516AAA0E5024D96E000E5C
:1031DA0008D034510F0B506E516AAD0E5024D96E7F
:1031EA00000E5120DA6E0001DF8255C0D9FF56C0A9
:1031FA00DAFF000EDB8455C0D9FF56C0DAFF000E95
:10320A00DB8E1200040E5518556E5650566E55C078
:10321A00D9FF56C0DAFFDFAE1BD055C0D9FF56C062
:10322A00DAFF7F0EDF1655C0D9FF56C0DAFF000E4F
:10323A00DB8C000E496E050E486E55C04AF056C02A
:10324A004BF0000E4D6E020E4C6E79EC09F006D072
:10325A0055C0D9FF56C0DAFF000EDB8C040E551894
:10326A00556E5650566E54B206D055C0D9FF56C048
:10327A00DAFFDFAE2DD0020134BF09D034510F0B73
:10328A00506E516AAA0E5024D96E000E08D03451DD
:10329A000F0B506E516AAD0E5024D96E000E51209C
:1032AA00DA6E0001DF9255C0D9FF56C0DAFF3B0E35
:1032BA00DF16000E496E050E486E55C04AF056C01C
:1032CA004BF0000E4D6E020E4C6E79EC09F006D0F2
:1032DA0055C0D9FF56C0DAFF3B0EDF160201345142
:1032EA000F0B506E516A530E5024526E0F0E51201E
:1032FA00536E52C0D9FF53C0DAFFFE0EDF1612001A
:10330A00010E536E800E546E800E556E800E566EF0
:10331A00E80E496E000E4A6EA9EC06F049C0C4F0E8
:10332A004AC0C5F00001C405C511D8A461D0E9C0DE
:10333A0052F0030E5216D8A403D0000E536E0CD0CE
:10334A00E9B102D0000E556EE9A35568E8B102D082
:10335A00000E566EE8A35668E9C052F00C0E5216DB
:10336A00D8A406D06C510201451300016D5117D043
:10337A00E9B502D0000E546EE9A75468E8B507D043
:10338A00645102014513000165510201461300010F
:10339A00E8B707D0665102014513000167510201DF
:1033AA0046130001E9B907D0605102014513000133
:1033BA006151020146130001E9BB07D062510201C3
:1033CA00451300016351020146130001E8B907D011
:1033DA0068510201451300016951020146130001B7
:1033EA00E8BB9AD06A510201451300016B5192D091
:1033FA00EC39F00BF011556EED39F00BF111546EFA
:10340A00EE39F00BF211566E26C042F024C043F09A
:10341A00BCC044F0BDC045F05650AAEC12F0566E3E
:10342A0027C042F025C043F0BEC044F0BFC045F0FB
:10343A005550AAEC12F0556E28C042F025C043F050
:10344A00C0C044F0C1C045F05450AAEC12F0546E0A
:10345A000001F4B307D07051020145130001715104
:10346A00020146130001F4B107D07251020145135B
:10347A0000017351020146130001F4B707D06051ED
:10348A000201451300016151020146130001F4B51E
:10349A0007D062510201451300016351020146132C
:1034AA000001EAB307D064510201451300016551D6
:1034BA00020146130001EAB107D066510201451321
:1034CA0000016751020146130001EBB707D06851AA
:1034DA000201451300016951020146130001EBB5CF
:1034EA0007D06A510201451300016B5102014613CC
:1034FA000001EBB107D06E510201451300016F5173
:10350A00020146130001EBB307D06C5102014513C7
:10351A0000016D51020146131FB0541E1FB2551E01
:10352A001FB4561E400E2324D96EDA6A020EDA221E
:10353A0054C0DFFF410E2324D96EDA6A020EDA2262
:10354A0055C0DFFF400E2224D96EDA6A020EDA2253
:10355A0056C0DFFF535019EC07F05350D8A412009D
:10356A0000016E510201451300016F510201461319
:10357A001200010E536E800E546E800E556E800E30
:10358A00566EE80E496E000E4A6EA9EC06F049C066
:10359A00C4F04AC0C5F00001C405C511D8A461D061
:1035AA00E9C052F0030E5216D8A403D0000E536E8F
:1035BA000CD0E9B102D0000E556EE9A35568E8B106
:1035CA0002D0000E566EE8A35668E9C052F00C0EFF
:1035DA005216D8A406D0805102014013000181512D
:1035EA0017D0E9B502D0000E546EE9A75468E8B5C1
:1035FA0007D07851020140130001795102014113A9
:10360A000001E8B707D07A510201401300017B514B
:10361A00020141130001E9B907D0745102014013B4
:10362A0000017551020141130001E9BB07D076512F
:10363A000201401300017751020141130001E8B968
:10364A0007D07C510201401300017D510201411350
:10365A000001E8BB94D07E510201401300017F5162
:10366A008CD0EC39F00BF011556EED39F00BF111ED
:10367A00546EEE39F00BF211566E27C042F025C097
:10368A0043F0BEC044F0BFC045F05550AAEC12F05A
:10369A00556E28C042F025C043F0C0C044F0C1C0F6
:1036AA0045F05450AAEC12F0546E26C042F024C0E1
:1036BA0043F0BCC044F0BDC045F05650AAEC12F02D
:1036CA00566E0001F4B307D0845102014013000181
:1036DA008551020141130001F4B107D0865102015C
:1036EA00401300018751020141130001F4B707D0CA
:1036FA007451020140130001755102014113000186
:10370A00F4B507D076510201401300017751020146
:10371A0041130001EAB307D07851020140130001B6
:10372A007951020141130001EAB107D07A5102012D
:10373A00401300017B51020141130001EBB707D08E
:10374A007C510201401300017D5102014113000125
:10375A00EBB507D07E510201401300017F510201EF
:10376A0041130001EBB102D0000E536EEBB307D048
:10377A0080510201401300018151020141131FB817
:10378A00541E1FBA551E1FBC561E020E2118D8A45D
:10379A000DD0400E2124D96EDA6A020EDA2255C003
:1037AA003CF0545022EC08F0DF6E10D0400E212479
:1037BA00D96EDA6A020EDA2254C0DFFF410E2124E2
:1037CA00D96EDA6A020EDA2255C0DFFF020E20181D
:1037DA00D8A41BD01FAE0CD0400E2024D96EDA6AB2
:1037EA00020EDA22800E3C6E565022EC08F00BD004
:1037FA00400E2024D96EDA6A020EDA2256C03CF054
:10380A00800E22EC08F0DF6E08D0400E2024D96E1C
:10381A00DA6A020EDA2256C0DFFF535019EC07F0BB
:10382A005350D8A412000001825102014013000132
:10383A0083510201411312001F0E306402D064A2A8
:10384A000AD0000E0001C96F000EC86F000E2B6E61
:10385A00000E2A6E12000001B651B711D8B406D074
:10386A00B6C0D9FFB7C0DAFFDFBEA9D082AE51D049
:10387A00010E0201406F7F0E416F7F0E426F7F0E75
:10388A00436F7F0E446F0F0E456F000E466F000E9A
:10389A00476FD00E9318D8A405D081BC06D0CCECC3
:1038AA0014F003D081AE85EC19F00CEC09F0295024
:1038BA00D8B423D0350E2A24D96EDA6A000EDA2259
:1038CA00DF50576E020145515714586E4551000199
:1038DA00BA1558100201456F370E2A24D96EDA6AD2
:1038EA00000EDA22DF50576E46515714586E465171
:1038FA000001BB1558100201466F010E3C6E400EC6
:10390A003D6E020E3E6E080E3F6E010E21EC0FF068
:10391A0052D0000E0201406F000E416F080E426F36
:10392A00800E436F800E446F800E456F800E466F87
:10393A00000E476FD00E9318D8A40AD081BC0AD0C3
:10394A000001C205C311D8A405D0BEEC1AF002D0FA
:10395A0081AEFBD70CEC09F02950D8B421D0310E36
:10396A002A24D96EDA6A000EDA22DF5002014015E3
:10397A00576E40510001B81557100201406F330EBF
:10398A002A24D96EDA6A000EDA22DF50576E4151C4
:10399A005714586E41510001B91558100201416F70
:1039AA00010E3C6E400E3D6E020E3E6E070E3F6EDD
:1039BA00010E21EC0FF03CC0B6F03DC0B7F082BE5C
:1039CA0012000001B251B311D8B409D0B2C0D9FF64
:1039DA00B3C0DAFFDFAE03D0D105D8A412000201CA
:1039EA00C051D8B444D1C0C280F241D17EEC07F0B4
:1039FA0073D1B3EC09F070D1F6EC07F06DD1C1C206
:103A0A0025F0C2C224F0C3C228F0C4C227F0C5C23E
:103A1A0026F042EC09F0AAEC05F05ED1C15199EC0E
:103A2A0005F0F9D7000E5D6E000E5C6EC10E5C24C7
:103A3A00D96E020E5D20DA6E880E5C24E16E000EED
:103A4A005D20E26EDFCFE7FF5C4A5D2A5DBEEED7FE
:103A5A005D5004E1100E5C5CD8A0E8D7D1C21EF01C
:103A6A000201D251D3C257F0586A57C058F0576A68
:103A7A005710136E5850146ECED7000E5D6E000E9E
:103A8A005C6EC10E5C24D96E020E5D20DA6E600E89
:103A9A005C24E16E000E5D20E26EDFCFE7FF5C4A38
:103AAA005D2A5DBEEED75D5004E1140E5C5CD8A0C1
:103ABA00E8D7D5C223F0D6C222F0D7C257F00F0EEC
:103ACA0057161F50F00B26D0000E5D6E000E5C6E6E
:103ADA00C10E5C24D96E020E5D20DA6E740E5C246F
:103AEA00E16E000E5D20E26EDFCFE7FF5C4A5D2AE1
:103AFA005DBEEED75D5004E1140E5C5CD8A0E8D739
:103B0A00D5C221F0D6C220F0D7C257F0F00E571610
:103B1A001F500F0B57101F6E7ED761EC11F0AAECE5
:103B2A0005F0DAD0CCEC07F0D7D0B6EC0AF0D4D056
:103B3A00C1C235F0C2C236F0C3C237F0C4C238F0CF
:103B4A00C5C231F0C6C232F0C7C233F0C8C234F0BF
:103B5A00C9C22EF0CAC22DF0CB51CCC257F0586A56
:103B6A0057C058F0576A5710116E5850126E7DECB4
:103B7A0008F0EFEC09F04FD7FAEC06F0AAEC0EF0D9
:103B8A004AD7000E5D6E000E5C6E810E5C24D96E03
:103B9A00020E5D20DA6E5C50400FA0EC05F0DF6E7D
:103BAA005C4A5D2A5DBEF1D75D5005E1400E5C5C62
:103BBA00D8B092D0EAD790D0000E5D6E000E5C6E3F
:103BCA00FF0E3C6E5C508FEC06F05C4A5D2A5DBECF
:103BDA00F7D75D5005E1200E5C5CD8B01CD7F0D752
:103BEA001AD731EC06F078D0440E5B6E000E5D6E8B
:103BFA00010E5C6EC00E5C24D96E020E5D20DA6E78
:103C0A00DF503C6E5C50070F8FEC06F0C00E5C2450
:103C1A00D96E020E5D20DA6EDF505B265C4A5D2AA1
:103C2A005DBEE8D75D5004E1090E5C5CD8A0E2D71E
:103C3A000201C951576E586A5B50596E5A6AFF0E93
:103C4A00591A000E5A1A575059180AE158505A1858
:103C5A00D8A406D05BC03CF0070E8FEC06F0DBD68A
:103C6A00B6EC05F039D0C051D8A4FAD735D0C05136
:103C7A00010AD8B4BBD6030AD8B4BBD6010AD8B451
:103C8A00BBD6070AD8B4BBD6010AD8B475D7030A7B
:103C9A00D8B477D7010AD8B48FD70E0AD8B4A1D727
:103CAA00890AD8B4BBD6010AD8B4BCD6030AD8B498
:103CBA00E4D6010AD8B408D7070AD8B42ED7010A1D
:103CCA00D8B430D7030AD8B430D7010AD8B430D719
:103CDA001F0AD8B489D7C7D70001B451B511D8B4CF
:103CEA0006D0B4C0D9FFB5C0DAFFDFBE0FD0010ECF
:103CFA003C6E800E3D6E020E3E6E400E3F6E020E10
:103D0A0021EC0FF03CC0B4F03DC0B5F0000E00014C
:103D1A00D16F000E3C6EC00E3D6E020E3E6E400E1E
:103D2A003F6E020E21EC0FF03CC0B2F03DC0B3F082
:103D3A00120000F73FB83DB53FFB3FED3F993F52B8
:103D4A003E943ED63E183F5A3F05010904A101A1FF
:103D5A000275089505150026FF00350046FF000983
:103D6A00300930093009300931810275049501257D
:103D7A0007463B0165140900814265007501950AF1
:103D8A002501450105091901290A81020600FF7565
:103D9A0001950A2501450109018102C0A1027508A0
:103DAA00950446FF0026FF0009029102C0C0500395
:103DBA004D00490043004F004D0053004F0046009C
:103DCA005400200044004500500054002E002C00EE
:103DDA002000440045004D005000410020005000E2
:103DEA00550042004C00490043004100540049007C
:103DFA004F004E00200049004E0043002E000501EE
:103E0A000905A10115002501350045017501950D2A
:103E1A0005091901290D810295038101050125076B
:103E2A00463B01750495016514093981426500957F
:103E3A0001810126FF0046FF0009300931093209D4
:103E4A0035750895048102C009024200020100A0EA
:103E5A0032090400000103000000092111010001D8
:103E6A00224A0007058103400008090401000203F1
:103E7A00000000092111010001221D00070582032B
:103E8A004000010705020340000109024200020145
:103E9A0000A03209040000010300000009211101F9
:103EAA000001224A000705810340000409040100B9
:103EBA000203000000092111010001221D0007056B
:103ECA008203400001070502034000010902420083
:103EDA00020100A0320904000001030000000921C8
:103EEA0011010001224A000705810340000209046A
:103EFA0001000203000000092111010001221D0036
:103F0A000705820340000107050203400001090278
:103F1A004200020100A0320904000001030000006F
:103F2A00092111010001224A00070581034000010D
:103F3A000904010002030000000921110100012205
:103F4A001D00070582034000010705020340000126
:103F5A0009022200010100A0320904000001030045
:103F6A0000000921110100012265000705810340B3
:103F7A00000A0600FF0901A10119012940150026BE
:103F8A00FF00750895408100190129409100C01C65
:103F9A000336004200200063006F006E0074007256
:103FAA00006F006C006C0065007200140358004535
:103FBA0000310041004A002D005500530042001212
:103FCA0001000200000008A7170500010001020312
:103FDA00011201000200000008A30C2400000101E4
:103FEA000203010A03530045004700410004030984
:063FFA00040403090400A9
:020000040020DA
:08000000FFFFFFFFFFFFFFFF00
:020000040030CA
:0E00000000120314FF0089FF03C003E0034059
:00000001FF
