:020000040000FA
:0408000007EF04F00A
:0A0808005D825D921100FBEF0AF023
:020816000001DF
:1014FE00010E286E12003C6E3CC0A9FFA69EA69C53
:10150E00A680A6B0FED7A85012004F0E0201816F22
:10151E004B0E826F000E3D6E030E3C6E51EC0BF0C7
:10152E001200450E0201816F520E826F520E836FB2
:10153E00000E3D6E040E3C6E51EC0BF01200C00E10
:10154E000001986F020E996F000E9D6F080E9C6F32
:10155E00FE0E9E6F140E9F6F9B8F1200010E0001E8
:10156E00A627000EA723A823A9231A50D8A4120039
:10157E00112A1150D8A412001168120024C081F251
:10158E0023C082F227C083F226C084F225C085F2E2
:10159E00000E3D6E060E3C6E51EC0BF01200000E6E
:1015AE0059EC0CF0FEEC12F0AFEC15F085EC17F0E8
:1015BE00200E296001D0FAD764B2F8D74CEC1DF09A
:1015CE00F5D73C503E02F3CF40F0F4CF41F03C5003
:1015DE003F02F35041263D503E02F350412640C09B
:1015EE003CF041C03DF0120000EE60F0760EEE6A67
:1015FE00E806FDE100EE01F03B0EEE6AE806FDE1C5
:10160E005D905D92000EF86E0001D6EF0AF03CC0C0
:10161E0042F03DC043F008D042C0D9FF43C0DAFFCC
:10162E003EC0DFFF424A432A4006D8A0410640286A
:10163E00F3E14128D8B41200EFD760846298648237
:10164E00010E1A6E000E116E000E496E750E486E6A
:10165E00000E4A6E000E4B6E000E4D6E000E4C6E5E
:10166E0072EC0DF01200F29CF29E8068000E816EFC
:10167E00000E826E8968000E8A6E000E8B6E000E52
:10168E007E6E000E7F6EF00E936E0F0E946E0EEF4A
:10169E0000F012003CC03EF03DC03FF03FBE06D011
:1016AE003F500FE1170E3E5CD8B01200800E3E2464
:1016BE00D96E020E3F20DA6E000EDF6E3E4A3F2AD2
:1016CE00EDD712003CC03EF03DC03FF03FBE06D00D
:1016DE003F500FE1400E3E5CD8B01200800E3E240B
:1016EE00D96E020E3F20DA6E000EDF6E3E4A3F2AA2
:1016FE00EDD71200000E1A6E000E496E740E486E73
:10170E00000E4A6E000E4B6E000E4D6E000E4C6EAD
:10171E0072EC0DF06492609401D0629462B4FDD7C5
:10172E00000E116E12003D6E3DC0A9FF3CC0A8FF19
:10173E00A69EA69CA684000EF2BE010E3E6EF29EE2
:10174E00550EA76EAA0EA76EA6823E50D8A4F28E94
:10175E00A1A8FED7A198A6941200476E44A405D066
:10176E00000E3C6E475072EC0EF044A205D0010EF6
:10177E003C6E475072EC0EF0530E4724456E466A8F
:10178E000F0E462245C0D9FF46C0DAFF44C0DFFF28
:10179E0012008A0E3C6E000E9AEC0BF027C03CF045
:1017AE00010E9AEC0BF026C03CF0020E9AEC0BF0F8
:1017BE0025C03CF0030E9AEC0BF024C03CF0040E56
:1017CE009AEC0BF023C03CF0050E9AEC0BF01200D5
:1017DE003EC044F03FC045F03CC042F03DC043F037
:1017EE0010D044C0D9FF45C0DAFFDF50466E444AE0
:1017FE00452A42C0D9FF43C0DAFF46C0DFFF424A46
:10180E00432A4006D8A041064028EBE14128D8B42F
:10181E001200E7D70F0153A11DD00FC0D9FF10C082
:10182E00DAFF800EDE18D8A414D007C0D9FF08C086
:10183E00DAFF840EDE18D8A40CD00FC0D9FF10C06A
:10184E00DAFF0C0EDF6E0FC0D9FF10C0DAFF000EEC
:10185E00DB8E5391629A1200000E0201816F000E10
:10186E00826F020E816F010E826F160EF66E080EDB
:10187E00F76E0800F5CF83F2160EF66E080EF76EB1
:10188E000900F5CF40F00900F5CF41F041C040F01E
:10189E00416A4050846F000E3D6E050E3C6E51EC59
:1018AE000BF012003C6E1DD0000E816E000E826E8B
:1018BE00000E8A6E000E8B6E000E7E6E000E7F6E18
:1018CE00F00E936E0F0E946E0F0E946EF19EF00E40
:1018DE00786E81BC03D0D00E936E1200B00E936E54
:1018EE0012003C50000AD8B4DFD7010AD8B4120057
:1018FE00030A12003D6E400E3D600CD0400E3C605F
:10190E0002D0070E21D0C00E3C6402D0050E1CD0B2
:10191E00060E1AD0C00E3D640CD0400E3C6002D0B4
:10192E00010E12D0C00E3C6402D0030E0DD0020E7A
:10193E000BD0400E3C6002D0000E06D0C00E3C64B0
:10194E0002D0040E01D0080E3E6E3E501200160E4E
:10195E000001C06F030EC16F530EC26F000EC36F36
:10196E004E0EC46F000EC56F2D0EC66F000EC76FE4
:10197E002D0EC86F000EC96F2D0ECA6F000ECB6FE5
:10198E002D0ECC6F000ECD6F2D0ECE6F000ECF6FC5
:10199E002D0ED06F000ED16F2D0ED26F000ED36FA5
:1019AE002D0ED46F000ED56F1200020E1C18D8A487
:1019BE0003D017EC15F01200000E1C6E1850D8A4B0
:1019CE001FD020EE01F00D50D9260E50DA22080E4F
:1019DE00DF6E20EE02F00D50D9260E50DA22300EB8
:1019EE00DE6E020EDD6E0DC0D9FF0EC0DAFF0C0EDC
:1019FE00DF6E0DC0D9FF0EC0DAFF000EDB8E1200B7
:101A0E00000E186E1200000E0001B66F000EB76FBA
:101A1E00000EB46F000EB56F000EB26F000EB36FF6
:101A2E00000E286E000E3D6E000E3C6E69EC0BF043
:101A3E001A0E446E010EB4EC0BF082BE12001E0E96
:101A4E00446E020EB4EC0BF0000E3C6EC00E3D6EFA
:101A5E00020E3E6E400E3F6E020E7CEC13F03CC04A
:101A6E00B2F03DC0B3F01200200E3D6E000E3C6E83
:101A7E00275080083E6E000ED8A0E82A00083F6E60
:101A8E00E8EC0DF03CC0BCF03DC0BDF0200E3D6E4C
:101A9E00000E3C6E265080083E6E000ED8A0E82A3E
:101AAE0000083F6EE8EC0DF03CC0BAF03DC0BBF054
:101ABE00200E3D6E000E3C6E255080083E6E000ED0
:101ACE00D8A0E82A00083F6EE8EC0DF03CC0B8F054
:101ADE003DC0B9F0120010D000F01200010E59EC0A
:101AEE000CF01200020E59EC0CF012000AEC0DF084
:101AFE00120049EC16F0120048C04EF049C04FF0EB
:101B0E004F50000AD8B404D07F0AD8A412001AD0BD
:101B1E004E50010AD8B4EAD7030AD8B41200010A0B
:101B2E00D8B4E7D7060AD8B41200770AD8B4D4D7F7
:101B3E00010AD8B41200070AD8B4D4D7010AD8A41F
:101B4E001200CCD74E50FF0A1200BEC081F2000E1A
:101B5E003D6E000E3C6E2A0E3C24D96E000E3D20CA
:101B6E00DA6E820E3C24E16E020E3D20E26EDFCF75
:101B7E00E7FF3C4A3D2A3DBEEED73D5004E10D0E37
:101B8E003C5CD8A0E8D7000E3D6E000E3C6E400EB9
:101B9E003C24D96E020E3D20DA6E8F0E3C24E16E8F
:101BAE00020E3D20E26EDFCFE7FF3C4A3D2A3DBEEE
:101BBE00EED73D5005E1080E3C5CD8B01200E7D7D9
:101BCE001200000E416E3FAE06D03E6C3F1ED8B0E6
:101BDE003F2A010E416E3DAE06D03C6C3D1ED8B084
:101BEE003D2A010E411A000E436E000E426E3E500B
:101BFE003F10D8B41CD0010E406E04D0D8903E36A3
:101C0E003F36402A3FAEFAD7D890423643363E5042
:101C1E003C5C3F503D58D8A005D03E503C5E3F50F6
:101C2E003D5A4280D8903F323E32402EEDD7415041
:101C3E00D8B404D0426C431ED8B0432A42C03CF004
:101C4E0043C03DF01200000E1D6E000E166E000E0B
:101C5E00136E000E126E000E186E000E1C6E07C074
:101C6E00D9FF08C0DAFF7F0EDF16040E0718076EC5
:101C7E000850086E07C0D9FF08C0DAFF7F0EDF16C6
:101C8E00040E0718076E0850086E0DC0D9FF0EC05F
:101C9E00DAFF7F0EDF16000E046E000E066E000ECB
:101CAE00056E000E00019B6F000E9D6F000E9C6F67
:101CBE0006EC10F0000E496E030E486E000E4A6ED2
:101CCE00000E4B6E000E4D6E000E4C6E72EC0DF053
:101CDE009EEC11F01200416E000E426E020E436E2B
:101CEE003C503D6E3E6AD8903D363E3641503F6E7A
:101CFE00406AD8903F364036D8903F3640363D50F9
:101D0E003F263E504022D8903F364036D8903F3640
:101D1E0040363F5042264050432242C0D9FF43C076
:101D2E00DAFFDF9E3C50D8A407D04150020DA00E22
:101D3E00F324D96E000E06D04150020D070EF32487
:101D4E00D96E000EF420DA6E42C0DEFF43C0DDFF16
:101D5E0042C0D9FF43C0DAFFDF9C20EE04F04250B0
:101D6E00D9264350DA22DF8C1200000E136E000EBD
:101D7E00126E020E1C18D8A41FD020EE01F00D50CA
:101D8E00D9260E50DA22080EDF6E20EE02F00D502C
:101D9E00D9260E50DA22380EDE6E020EDD6E0DC022
:101DAE00D9FF0EC0DAFF480EDF6E0DC0D9FF0EC090
:101DBE00DAFF000EDB8E120005500201365D065072
:101DCE003759D8B004D036C205F037C206F068ECE9
:101DDE0010F020EE02F00750D9260850DA22380E05
:101DEE00DE6E020EDD6E07C0D9FF08C0DAFF480EA8
:101DFE00DF6E07C0D9FF08C0DAFF000EDB8E1200BF
:101E0E002D0E176E39C057F0FD0E5716D8A43BD0C5
:101E1E0039C057F0D89057323F0E57165750040D11
:101E2E00000EF3240F6E020EF420106E0FC00DF094
:101E3E0010C00EF0040E0D180D6E0E500E6E0FC06B
:101E4E00D9FF10C0DAFFDF30E8320F0B0D0AD8A42D
:101E5E0017D0300E3C6E020E3D6E20EE02F00F508B
:101E6E00D9261050DA22DECF3EF0DDCF3FF0000E45
:101E7E00416E080E406EEFEC0BF02AEC0EF01200E5
:101E8E00DCEC0CF012003950FD0B040AD8A4120041
:101E9E000EEC12F01200000E0201386F000E396FB8
:101EAE0038D0048E1B04D8A43FD038833DD0048E86
:101EBE003BD0048E34510F0B0009D8B435D034BF4B
:101ECE000AD034510F0B3C6E3C50020DA00EF32481
:101EDE00D96E000E09D034510F0B3C6E3C50020DE2
:101EEE00070EF324D96E000EF420DA6EDECF3DF02D
:101EFE00DDCF3EF03DC0D9FF3EC0DAFFDFAE14D0DD
:101F0E003DC0D9FF3EC0DAFFDFA40ED0010E386F00
:101F1E000BD030511F0B000AD8B4C3D7010AD8B466
:101F2E00C6D7030AD8B4C5D704AE1200380E016E58
:101F3E00020E026E0480020E056E12001550D8A419
:101F4E001200010E156E1450D8A41200010E146E5C
:101F5E00020E1C18D8A415D020EE01F00750D92679
:101F6E000850DA22000EDF6E07C0D9FF08C0DAFF74
:101F7E00480EDF6E07C0D9FF08C0DAFF000EDB8EF9
:101F8E0012001C04D8A41200000E186E20EE01F0F0
:101F9E000F50D9261050DA22080EDF6E20EE02F016
:101FAE000F50D9261050DA22300EDE6E020EDD6E84
:101FBE000FC0D9FF10C0DAFF040EDF6E0FC0D9FFBD
:101FCE0010C0DAFF000EDB8E010E186E20EE01F04F
:101FDE000D50D9260E50DA22080EDF6E20EE02F0DA
:101FEE000D50D9260E50DA22300EDE6E020EDD6E48
:101FFE000DC0D9FF0EC0DAFF800EDF6E1200020197
:10200E003039E832030B0009D8A4120039D0048EFF
:10201E00080E296E12002DEC18F0120036EC11F09D
:10202E0012003B0E016E000E026E0480010E056E54
:10203E00048E120052EC0FF0120088EC19F0120010
:10204E003A0E3425016E026A000E0222EED7048E7D
:10205E003A0E3425D96EDA6A000EDA2232C2DFFF6A
:10206E001200000E496E020E486E000E4A6E000EF1
:10207E004B6E000E4D6E000E4C6E72EC0DF012009B
:10208E003151000AD8B4D6D7010AD8B4D6D7020A2D
:10209E00D8B4D3D7060AD8B4BAD7030AD8B4BBD7A4
:1020AE00010AD8B4DED70F0AD8B4BBD7010AD8B408
:1020BE00B5D7030AD8B4C4D7010AD8B4C8D7070A0B
:1020CE001200080E3C6E065010E1080E055CD8B0EA
:1020DE000CD005C03CF01D50D8A402D0010E04D087
:1020EE001D04D8A402D0020E1D6E3C50055E000EDB
:1020FE00065A20EE01F00750D9260850DA223CC0CD
:10210E00DFFF380E0001B06F020EB16F04A01CD0BD
:10211E003AD001C0F6FF02C0F7FFF86AB0C0D9FF8F
:10212E00B1C0DAFF020EF76403D00800F55005D0F7
:10213E00F6CFE1FFF7CFE2FFE750DF6E014A022A4A
:10214E000001B04BB12B3C063C50D8B41200E1D785
:10215E0001C0F6FF02C0F7FFF86AB0C0D9FFB1C0E8
:10216E00DAFF020EF76403D00800F55005D0F6CF63
:10217E00E1FFF7CFE2FFE750DF6E014A022A0001CE
:10218E00B04BB12B3C063C50D8B41200E1D7000E38
:10219E00406E000E3F6E740E3F24D96E000E40202E
:1021AE00DA6EDF503C6E3F50200F9AEC0BF03F4A38
:1021BE00402A40BEF0D7405004E1140E3F5CD8A038
:1021CE00EAD7000E406E000E3F6E600E3F24D96EB1
:1021DE00000E4020DA6EDF503C6E3F50340F9AEC0A
:1021EE000BF03F4A402A40BEF0D7405004E1140E97
:1021FE003F5CD8A0EAD7000E406E000E3F6E880EF0
:10220E003F24D96E000E4020DA6EDF503C6E3F50F8
:10221E00480F9AEC0BF03F4A402A40BEF0D7405090
:10222E0004E1100E3F5CD8A0EAD722C03CF0580E55
:10223E009AEC0BF021C03CF0590E9AEC0BF01EC03C
:10224E003CF05A0E9AEC0BF020C03CF05B0E9AEC70
:10225E000BF01FC03CF05C0E9AEC0BF01200048EDB
:10226E00540E3C6E0F0E3D6E000E3F6E000E3E6E17
:10227E00000E416E020E406E0EEC0BF0000E3C6E28
:10228E00020E3D6E000E3F6E000E3E6E000E416E53
:10229E00300E406E0EEC0BF0648C000E506EAD0ED8
:1022AE005024D96EDA6A000EDA22000EDF6EAA0E04
:1022BE005024D96EDA6A000EDA22000EDF6E502A32
:1022CE00020E5064ECD73A0E3C6E000E3D6E000EC0
:1022DE003F6E000E3E6E000E416E010E406E0EEC15
:1022EE000BF0649C080E076E020E086E000E0F6E49
:1022FE00020E106E0FC00DF010C00EF032C23BF089
:10230E003B50D8A403D0100E296E1200200E296E59
:10231E00000E496E010E486E3B0E4A6E000E4B6E5D
:10232E00000E4D6E010E4C6E72EC0DF012006498A4
:10233E0004BE39D000019BAF0BD0020E1C6E1250A2
:10234E00D8B4BCEC0EF0000E146E000E156E12001A
:10235E0020EE01F00D50D9260E50DA22080EDF6E57
:10236E0020EE02F00D50D9260E50DA22300EDE6E1F
:10237E00020EDD6E0DC0D9FF0EC0DAFF0C0EDF6E41
:10238E000DC0D9FF0EC0DAFF000EDB8E07C0D9FFDD
:10239E0008C0DAFF040EDF6E07C0D9FF08C0DAFFEF
:1023AE00000EDB8E1200020130AF10D0010E1C6E3B
:1023BE001350D8B4BCEC0EF0000E146E000E156E59
:1023CE001650D8A41200A5EC0FF01200020E1C6ECF
:1023DE0020EE01F00D50D9260E50DA22080EDF6ED7
:1023EE0020EE02F00D50D9260E50DA22300EDE6E9F
:1023FE00020EDD6E0DC0D9FF0EC0DAFF040EDF6EC9
:10240E000DC0D9FF0EC0DAFF000EDB8ED5D707C088
:10241E00D9FF08C0DAFF000EDFBC010E3D6E040EC0
:10242E000718076E0850086E080E2918D8A40CD08D
:10243E00020132517F0B0F015C6F5C51D8B402D098
:10244E00100E01D0040E296E1C04D8A43AD020EE32
:10245E0002F00750D9260850DA22380EDE6E020E30
:10246E00DD6E68EC10F0020E1D18D8A40DD007C05A
:10247E00D9FF08C0DAFF040EDF6E07C0D9FF08C00F
:10248E00DAFF000EDB8E12003D50D8A40DD007C02F
:10249E00D9FF08C0DAFF480EDF6E07C0D9FF08C0AB
:1024AE00DAFF000EDB8E120007C0D9FF08C0DAFF7C
:1024BE00080EDF6E07C0D9FF08C0DAFF000EDB8EF4
:1024CE00120000019BAF14D09E519F11D8B40ED0B4
:1024DE0020EE9EF001D80AD00500FA6EDE50FD6E99
:1024EE00DE50FE6EF850FF6EFA50120000019B9FF8
:1024FE00000E1C6E1200000E276E000E266E000ED1
:10250E00256E020E246E020E236ED0EC0BF0000E22
:10251E00416E740E4124D96EDA6A000EDA22000E74
:10252E00DF6E412A130E4164F4D7000E416E600E29
:10253E004124D96EDA6A000EDA22000EDF6E412ACD
:10254E00130E4164F4D7000E416E880E4124D96EED
:10255E00DA6A000EDA22000EDF6E412A0F0E416497
:10256E00F4D7400E0001886F200E8A6F020E8D6F19
:10257E00800E8E6F100E906F010E936F200E956F62
:10258E00100E976F400E606F200E626F020E656F19
:10259E00800E666F100E686F010E6B6F200E6D6FE2
:1025AE00100E6F6F400E706F200E726F010E746FF3
:1025BE00020E766F040E786F080E7A6F100E7C6F17
:1025CE00200E7E6F800E806F400E826F010E846F24
:1025DE00020E866F030E226E020E216E030E1E6E0B
:1025EE00030E206E060E1F6ECEEC10F01200829EB1
:1025FE00000E496E3D0E486EE10E476E400EE82EFF
:10260E00FED7472EFCD7482EFAD7D00E9318D8B443
:10261E0037D02A0E3C6E000E3D6EFDEC13F01F0EF1
:10262E00486E710E476E1E0EE82EFED7472EFCD753
:10263E00482EFAD700D02A0E3C6E000E3D6EFDECF1
:10264E0013F03C043D10D8A40BD02BA8828E2BBACD
:10265E0002D0010E496E2AB420D03AEC0BF01DD0F8
:10266E0036500A0B0A0AD8A4828E36B002D0010E5A
:10267E00496E36B402D0010E496E2CA2EED70DD0A3
:10268E00818AF00E00D0E82EFDD781B802D0010E5F
:10269E00496E81AE3AEC0BF0828EAEEC0CF0000E71
:1026AE0082EC0AF08A0AD8B402D0010E01D0000ED4
:1026BE00476E486A49504712000E4812475048105C
:1026CE00D8B40ED0000E276E000E266E000E256EAC
:1026DE00020E246E020E236ED0EC0BF082EC12F082
:1026EE008AEC14F03BEC0DF01200446E3C50D8B462
:1026FE0007D04450020D070EF324D96E000E06D0FB
:10270E004450020DA00EF324D96E000EF420DA6EA2
:10271E00DECF45F0DDCF46F045504610D8A405D0AB
:10272E00000E3C6E000E3D6E120020EE02F0455083
:10273E00D9264650DA223DC0DEFF3EC0DDFF20EE38
:10274E0001F04550D9264650DA223FC0DFFF45C082
:10275E00D9FF46C0DAFF400EDF1645C0D9FF46C08E
:10276E00DAFF000EDB8645C0D9FF46C0DAFF000E49
:10277E00DB8E3C50D8B418D04450020D070EF32413
:10278E00D96E000EF420DA6EDECF40F0DDCF41F0D0
:10279E00040E4018426E4150436E4450020D070E17
:1027AE00F324D96E000E17D04450020DA00EF32460
:1027BE00D96E000EF420DA6EDECF40F0DDCF41F0A0
:1027CE00040E4018426E4150436E4450020DA00E4E
:1027DE00F324D96E000EF420DA6E42C0DEFF43C041
:1027EE00DDFF45C03CF046C03DF01200818C3CC080
:1027FE0043F03DC044F0140EE82EFED782CF3EF0DB
:10280E000F0E3E168150300B3E1043C0D9FF44C010
:10281E00DAFFDF6E434A442A819C140EE82EFED75F
:10282E0082CF3EF00F0E3E168150300B3E1043C04D
:10283E00D9FF44C0DAFFDF6E434A442A818C000E72
:10284E00426E000E416E000E406E000E3F6E81B85D
:10285E0002D0010E01D0000E3E6E81BA02D0010EE2
:10286E0001D0000E3E14E8B00DD0C80E3F18401037
:10287E00D8A405D0000E3D6E010E3C6E12003F4AEC
:10288E00402AE5D782500F0B43C0D9FF44C0DAFF70
:10289E00DF6E434A442A050E41184210D8A405D0D3
:1028AE00000E3D6E000E3C6E1200000E406E000ECD
:1028BE003F6E81A802D0010E01D0000E3E6E81BA8D
:1028CE0002D0010E01D0000E3E14E8B008D0C80EA2
:1028DE003F184010D8B4CED73F4A402AEAD782508C
:1028EE000F0B43C0D9FF44C0DAFFDF6E434A442AC0
:1028FE00414A422A42BEA7D74250BCE1060E415C75
:10290E00D8B0B8D7A0D7010E82EC0AF0276E020E0F
:10291E0082EC0AF0266E030E82EC0AF0256E040E8F
:10292E0082EC0AF0246E050E82EC0AF0236E000E85
:10293E00466E740E4624D96EDA6A000EDA224650BE
:10294E00200F82EC0AF0DF6E462A130E4664F1D792
:10295E00000E466E600E4624D96EDA6A000EDA223A
:10296E004650340F82EC0AF0DF6E462A130E466490
:10297E00F1D7000E466E880E4624D96EDA6A000E26
:10298E00DA224650480F82EC0AF0DF6E462A0F0E0E
:10299E004664F1D7580E82EC0AF0226E590E82EC84
:1029AE000AF0216E5A0E82EC0AF01E6E5B0E82EC5D
:1029BE000AF0206E5C0E82EC0AF01F6E440E456E1D
:1029CE00000E466E3D0E4624D96EDA6A000EDA22ED
:1029DE004650080F82EC0AF0DF6E3D0E4624D96E8B
:1029EE00DA6A000EDA22DF504526462A070E4664C2
:1029FE00E9D7070E82EC0AF04518D8A412003DC0A4
:102A0E00C6F03EC0C8F03FC0CAF040C0CCF041C0D6
:102A1E00CEF042C0D0F043C0D2F044C0D4F0120089
:102A2E0020EE01F00F50D9261050DA22DF503D6E05
:102A3E003D5000019C5D000E9D59D8A09CC03DF0FC
:102A4E003D509C5F000E9D5B000E3C6E0FD0380E0D
:102A5E003C24D96EDA6A020EDA2298C0E1FF99C0E0
:102A6E00E2FFDFCFE7FF984B992B3C2A3D503C5CB1
:102A7E00D8A0EDD79C519D11D8B432D020EE01F0E4
:102A8E000D50D9260E50DA22080EDF6E20EE02F01F
:102A9E000D50D9260E50DA22380EDE6E020EDD6E85
:102AAE000FC0D9FF10C0DAFFDFBC0DD00DC0D9FFAB
:102ABE000EC0DAFF480EDF6E0DC0D9FF0EC0DAFF72
:102ACE00000EDB8E12000DC0D9FF0EC0DAFF080E0D
:102ADE00DF6E0DC0D9FF0EC0DAFF000EDB8E1200C6
:102AEE0020EE01F00D50D9260E50DA22080EDF6EC0
:102AFE0020EE02F00D50D9260E50DA22300EDE6E88
:102B0E00020EDD6E0DC0D9FF0EC0DAFF040EDF6EB1
:102B1E000DC0D9FF0EC0DAFF000EDB8E9E519F1145
:102B2E00D8B40ED020EE9EF001D80AD00500FA6E71
:102B3E00DE50FD6EDE50FE6EF850FF6EFA50120043
:102B4E0000019B9F1650D8A41200A5EC0FF01200A6
:102B5E00A094000E0F015F6F000E626E000E536F99
:102B6E00540E3C6E0F0E3D6E000E3F6E000E3E6E0E
:102B7E00000E416E020E406E0EEC0BF0160E616EE4
:102B8E009F0E0F015B6F7B0E606E000E446E445005
:102B9E00040D000EF324D96E020EF420DA6EDE6AF6
:102BAE00DE6ADE6ADD6A442A0B0E4464F0D7648C5A
:102BBE00000E0F015C6F6498649C6296000E046EAA
:102BCE00000E00019B6F000E9D6F000E9C6F62B693
:102BDE00F4D7010E156E010E146E000E136E000E5C
:102BEE00126E000E1A6E000E446E4450020D070E49
:102BFE00F324D96E000EF420DA6E000EDE6E000E97
:102C0E00DD6E4450020DA00EF324D96E000EF4209A
:102C1E00DA6E000EDE6E000EDD6EAD0E4424D96E41
:102C2E00DA6A000EDA22000EDF6EAA0E4424D96E86
:102C3E00DA6A000EDA22000EDF6E442A020E4464B7
:102C4E00D4D7080E076E020E086E160E0F01536FC4
:102C5E00020E0201036F300E026F080E016F040E9A
:102C6E00006F008F000E3B6E000E0001A66F000E6F
:102C7E00A76F000EA86F000EA96F000E116E000E4A
:102C8E00296E1200020130511F0BE806D8A4120063
:102C9E00060E3119D8B44CD053D03B04D8A450D022
:102CAE0082AE16D03451D8A412006C0E016E3F0EB7
:102CBE00026E000E066E090E056EC00E046E40D03A
:102CCE002A0E016E3F0EF4D73A0E016E3F0EF0D76C
:102CDE003451000AD8B4F4D7010AD8B4F5D730D09D
:102CEE003B04D8A42DD082AE1BD03451D8A41200F0
:102CFE00190E016E3E0E026E000E066E650EDCD7CC
:102D0E00CE0E016E3E0E026E000E066E4A0ED4D729
:102D1E007C0E016E3F0E026E000E066E1D0ECCD79F
:102D2E003451000AD8B4ECD7010AD8B4F1D708D080
:102D3E003351210AD8B4B1D7030AD8B4D1D7010A76
:102D4E003039E832030BE806D8A4120023D0A6ECE3
:102D5E000AF01200380E016E000E026E000E066EA4
:102D6E00010E056EC10E046E1200800E046E33C28B
:102D7E0038F01200370E016E000E026E000E066E57
:102D8E00010E056E810E046E1200800E046E32C2AC
:102D9E0037F012003151010AD8B41200030AD8B428
:102DAE00D9D7010AD8B4E6D70A0AD8B4D0D7030ABD
:102DBE00D8B4DBD7010AD8A41200E7D7819AF00E57
:102DCE0000D0E82EFDD7818AF00E00D0E82EFDD778
:102DDE00819AF00E00D0E82EFDD781B808D0000100
:102DEE00885102014513000189510201461381BE2B
:102DFE0008D00001945102014513000195510201C2
:102E0E004613818AF00E00D0E82EFDD782B008D08E
:102E1E00410E1E24D96EDA6A020EDA22000EDF6E21
:102E2E0082B208D0410E1E24D96EDA6A020EDA2260
:102E3E00FF0EDF6E82B408D0400E1E24D96EDA6A01
:102E4E00020EDA22000EDF6E82B608D0400E1E246D
:102E5E00D96EDA6A020EDA22FF0EDF6E81B808D062
:102E6E0000018A510201451300018B5102014613E4
:102E7E0081BE08D000018C510201451300018D5115
:102E8E0002014613819AF00E00D0E82EFDD782A0E3
:102E9E0082B232D0818AF00E00D0E82EFDD782B0F9
:102EAE0008D0000192510201451300019351020115
:102EBE00461382B208D00001905102014513000161
:102ECE0091510201461382B408D000018E510201C5
:102EDE00451300018F510201461382B608D000013E
:102EEE009651020145130001975102014613819A32
:102EFE00F00E00D0E82EFDD7818A12002950D8A4FA
:102F0E0011D0000E646E000E606E160E616E9F0E76
:102F1E000F015B6F7B0E606E01D0648664A6FDD7D9
:102F2E00010E296E2904D8B464BA08D0000E626E60
:102F3E00000E606E60806088020E296E62B460A41E
:102F4E0003D0629481EC0BF064A202D0A194120023
:102F5E0062B060A005D0AFEC15F0040E296E629041
:102F6E0062B860A802D024EC0BF062AC1AD060AC50
:102F7E000ED0000E496E730E486E000E4A6E000E95
:102F8E004B6E000E4D6E010E4C6E72EC0DF0629C8F
:102F9E00B5EC0AF01750D8A417061750D8B4A5EC04
:102FAE000FF062BA60AA02D011EC0CF062B260A20D
:102FBE0010D07F0E496E4868000E4A6E000E4B6EA2
:102FCE00000E4D6E010E4C6E72EC0DF0000E0F01E8
:102FDE005F6F040E296002D0A194120060A634D057
:102FEE00000E586E62A630D063CF39F03930E83219
:102FFE00E8320F0B196E629639B406D0AA0E192458
:10300E00D96EDA6A000E05D0AD0E1924D96EDA6AC1
:10301E00000EDA220001DF701950D8A403D007EC9D
:10302E000FF00ED0000E496E720E486E390E4A6EBB
:10303E00000E4B6E000E4D6E000E4C6E72EC0DF0CF
:10304E00582A030E5864CED7A1941200800E0201A6
:10305E003019D8A41200C00E046E97D082AE09D0DB
:10306E00DB0E016E3F0E026E000E066E120E056E28
:10307E001200C90E016E3F0EF6D73251D8A446D0BB
:10308E0082AE07D03251020D170EF324F66E3E0EAD
:10309E0006D03251020D150EF324F66E3E0EF420BC
:1030AE00F76E0900F5CF01F00A00F5CF02F0020E1F
:1030BE0001243C6E000E02203D6E3CC0F6FF3DC06A
:1030CE00F7FFF86A020EF76403D00800F55005D03A
:1030DE00F6CFE1FFF7CFE2FFE750056E030E0124B6
:1030EE003C6E000E02203D6E3CC0F6FF3DC0F7FF69
:1030FE00F86A020EF76403D00800F55005D0F6CF3B
:10310E00E1FFF7CFE2FFE750066E1200000E046EED
:10311E001200030E32612CD082AE07D03251020D56
:10312E000F0EF324F66E3E0E06D03251020D090E2E
:10313E00F324F66E3E0EF420F76E0900F5CF01F083
:10314E000A00F5CF02F001C0F6FF02C0F7FFF86AE1
:10315E00020EF76403D00800F55005D0F6CFE1FF5C
:10316E00F7CFE2FFE7503C6E3C50056E066A120048
:10317E00030E3219D8A4CAD70480C00E016E000EF9
:10318E00026EC0C005F0048E12003351010AD8B48D
:10319E0065D7030AD8B471D7010AD8B4BAD7B6D74F
:1031AE004F6E4F50466E476A4250486E496A800EC7
:1031BE004826000E49224650485C4950800A4A6E05
:1031CE004750800A4A58D8A017D0800E466E000E7F
:1031DE00476E4250465E000E475A4F50486E496A3F
:1031EE004650485C4950800A4A6E4750800A4A58F9
:1031FE00D8A002D0800E1200800E4F603CD04F50EF
:10320E0042C046F0476A461E471E464A472A465E59
:10321E00000E475A800E46244B6E000E47204C6E11
:10322E0043C03CF03D6A4BC03EF04CC03FF0E8EC72
:10323E000AF03CC04DF03DC04EF04DC03CF04EC0CB
:10324E003DF044C03EF045C03FF0E8EC0AF03CC013
:10325E0050F03DC051F0400E515CD8A004D0400E4D
:10326E00516E000E506E50500008506E5150D8A046
:10327E00E82A4008516E800E4F6436D042504FC03F
:10328E0046F0476A465E000E475A810E46244B6E44
:10329E00FF0E47204C6E43C03CF03D6A4BC03EF0E3
:1032AE004CC03FF0E8EC0AF03CC04DF03DC04EF093
:1032BE004DC03CF04EC03DF044C03EF045C03FF026
:1032CE00E8EC0AF03CC050F03DC051F0400E515CAD
:1032DE00D8A004D0400E516E000E506EFF0E50243A
:1032EE00506E3F0E5120516E50C046F051C047F007
:1032FE00070E486ED89047324632482EFBD74650BE
:10330E00120002013205D8A40ED030511F0B000955
:10331E00D8A409D0048E030E3119D8A402D0010E00
:10332E0001D0000E1B6E3251D8A4120030511F0B6B
:10333E00020AD8A4120034510F0B0009D8B412009F
:10334E0034510F0B506E030E50601200200E2918D0
:10335E00D8A41200048E34BF18D034510F0B506E07
:10336E005050020DA00EF324D96E000EF420DA6E2A
:10337E00DECF55F0DDCF56F034510F0B506E516A43
:10338E00AA0E5024D96E000E17D034510F0B506E6A
:10339E005050020D070EF324D96E000EF420DA6E93
:1033AE00DECF55F0DDCF56F034510F0B506E516A13
:1033BE00AD0E5024D96E000E5120DA6EDF50546ED1
:1033CE0054B006D0FB0E5514556EFF0E561404D095
:1033DE00040E5510556E5650566E34BF0AD03451E9
:1033EE000F0B506E5050020DA00EF324D96E000E2E
:1033FE0009D034510F0B506E5050020D070EF324AE
:10340E00D96E000EF420DA6E55C0DEFF56C0DDFF19
:10341E00030E3119D8A42AD055C0D9FF56C0DAFFF1
:10342E00DFAE17D034BF09D034510F0B506E516A36
:10343E00AA0E5024D96E000E08D034510F0B506EC8
:10344E00516AAD0E5024D96E000E5120DA6E000175
:10345E00DF8255C0D9FF56C0DAFF000EDB8455C09F
:10346E00D9FF56C0DAFF000EDB8E1200040E55187F
:10347E00556E5650566E55C0D9FF56C0DAFFDFAEA8
:10348E001BD055C0D9FF56C0DAFF7F0EDF1655C0D0
:10349E00D9FF56C0DAFF000EDB8C000E496E050E0A
:1034AE00486E55C04AF056C04BF0000E4D6E020EDF
:1034BE004C6E72EC0DF006D055C0D9FF56C0DAFF37
:1034CE00000EDB8C040E5518556E5650566E54B2C7
:1034DE0006D055C0D9FF56C0DAFFDFAE2DD002019F
:1034EE0034BF09D034510F0B506E516AAA0E5024BE
:1034FE00D96E000E08D034510F0B506E516AAD0EBE
:10350E005024D96E000E5120DA6E0001DF9255C0A4
:10351E00D9FF56C0DAFF3B0EDF16000E496E050EC0
:10352E00486E55C04AF056C04BF0000E4D6E020E5E
:10353E004C6E72EC0DF006D055C0D9FF56C0DAFFB6
:10354E003B0EDF16020134510F0B506E516A530EB3
:10355E005024526E0F0E5120536E52C0D9FF53C0DD
:10356E00DAFFFE0EDF1612002A0E3C6E000E3D6EC6
:10357E00FDEC13F03CC0BEF03DC0BFF00001BE0537
:10358E00BF11D8A494D02BC052F0030E5216D8A45B
:10359E0008D06E510201451300016F51020146130E
:1035AE0028D02BB008D0410E2224D96EDA6A020E32
:1035BE00DA22000EDF6E2BB208D0410E2224D96E15
:1035CE00DA6A020EDA22FF0EDF6E2AB008D0400E43
:1035DE002124D96EDA6A020EDA22000EDF6E2AB2CA
:1035EE0008D0400E2124D96EDA6A020EDA22FF0EBE
:1035FE00DF6E2BC052F00C0E5216D8A407D000016D
:10360E006C510201451300016D5126D02BB408D028
:10361E00400E2224D96EDA6A020EDA22000EDF6E16
:10362E002BB608D0400E2224D96EDA6A020EDA22A8
:10363E00FF0EDF6E2AB408D000016451020145135B
:10364E0000016551020146132AB608D000016651E9
:10365E000201451300016751020146132BB808D031
:10366E000001605102014513000161510201461330
:10367E002BBA08D0000162510201451300016351BB
:10368E00020146132AB808D0000168510201451301
:10369E0000016951020146132ABA120000016A5153
:1036AE000201451300016B510201461312002E3820
:1036BE00F00B3210546E2F38F00B3310536E30382F
:1036CE00F00B3410556E26C042F024C043F0BAC041
:1036DE0044F0BBC045F05450D7EC18F0546E27C0E0
:1036EE0042F024C043F0BCC044F0BDC045F053507E
:1036FE00D7EC18F0536E25C042F023C043F0B8C08B
:10370E0044F0B9C045F05550D7EC18F0556E400E48
:10371E002124D96EDA6A020EDA2255C0DFFF53C0B9
:10372E0043F254C044F236B208D000017051020187
:10373E004513000171510201461336B008D0000145
:10374E00725102014513000173510201461336B640
:10375E0008D00001605102014513000161510201C0
:10376E00461336B408D00001625102014513000120
:10377E006351020146132CB208D0000164510201BC
:10378E00451300016551020146132CB008D000010B
:10379E0066510201451300016751020146132DB611
:1037AE0008D0000168510201451300016951020160
:1037BE0046132DB408D000016A51020145130001D1
:1037CE006B51020146132DB008D000016E5102015B
:1037DE00451300016F51020146132DB21200000174
:1037EE006C510201451300016D5102014613120086
:1037FE00800E536E800E546E800E556E2A0E3C6EE9
:10380E00000E3D6EFDEC13F03CC0BEF03DC0BFF0AF
:10381E000001BE05BF11D8A468D02BC052F0030E14
:10382E005216D8A408D082510201401300018351D0
:10383E00020141130CD02BB002D0000E546E2BA2FD
:10384E0054682AB002D0000E556E2AA255682BC0BD
:10385E0052F00C0E5216D8A407D00001805102016E
:10386E0040130001815118D02BB402D0000E536EBC
:10387E002BA653682AB408D00001785102014013D8
:10388E0000017951020141132AB608D000017A5184
:10389E000201401300017B51020141132BB808D0E5
:1038AE0000017451020140130001755102014113D0
:1038BE002BBA08D000017651020140130001775156
:1038CE00020141132AB808D000017C5102014013B5
:1038DE0000017D51020141132ABA9BD000017E5195
:1038EE000201401300017F5192D02E38F00B32109E
:1038FE00546E2F38F00B3310536E3038F00B3410EB
:10390E00556E26C042F024C043F0BAC044F0BBC08E
:10391E0045F05450D7EC18F0546E27C042F024C036
:10392E0043F0BCC044F0BDC045F05350D7EC18F086
:10393E00536E25C042F023C043F0B8C044F0B9C066
:10394E0045F05550D7EC18F0556E36B208D0000140
:10395E00845102014013000185510201411336B01A
:10396E0008D0000186510201401300018751020167
:10397E00411336B608D00001745102014013000104
:10398E0075510201411336B408D00001765102017F
:10399E00401300017751020141132CB208D00001EF
:1039AE0078510201401300017951020141132CB0EC
:1039BE0008D000017A510201401300017B5102012F
:1039CE0041132DB608D000017C51020140130001B5
:1039DE007D51020141132DB408D000017E51020128
:1039EE00401300017F51020141132DB008D0000198
:1039FE0082510201401300018351020141132DB285
:103A0E0008D00001805102014013000181510201D2
:103A1E004113020E2018D8A40DD0400E2024D96ECA
:103A2E00DA6A020EDA2254C03CF0535081EC0CF0EC
:103A3E00DF6E10D0400E2024D96EDA6A020EDA2222
:103A4E0053C0DFFF410E2024D96EDA6A020EDA224D
:103A5E0054C0DFFF020E1F18D8A40DD0400E1F2435
:103A6E00D96EDA6A020EDA2255C03CF0800E81EC75
:103A7E000CF0DF6E1200400E1F24D96EDA6A020EB1
:103A8E00DA225550FF0ADF6E12001F0E2964120053
:103A9E0064B212000001B651B711D8B406D0B6C048
:103AAE00D9FFB7C0DAFFDFBE4ED082AE29D0010EED
:103ABE000201406F7F0E416F7F0E426F7F0E436F8C
:103ACE007F0E446F0F0E456F000E466F000E476F50
:103ADE00D00E9318D8A405D081BC06D0E5EC16F014
:103AEE0003D081AEBBEC1AF0010E3C6E400E3D6E63
:103AFE00020E3E6E080E3F6E010E7CEC13F01FD0D0
:103B0E00000E0201406F000E416F080E426F800ED4
:103B1E00436F800E446F800E456F800E466F000E11
:103B2E00476F81AEFFEC1BF0010E3C6E400E3D6EFA
:103B3E00020E3E6E070E3F6E010E7CEC13F03CC083
:103B4E00B6F03DC0B7F082BE12000001B251B31103
:103B5E00D8B409D0B2C0D9FFB3C0DAFFDFAE03D0FC
:103B6E002804D8A412000201C051D8B4F4D0C0C2A7
:103B7E0080F2F1D033EC0CF014D1ACEC0DF011D18D
:103B8E00C5EC0AF00ED1C1C224F0C2C223F0C3C2EA
:103B9E0027F0C4C226F0C5C225F03BEC0DF08CEC2C
:103BAE000AF0FFD0000E5C6E000E5B6EC10E5B2441
:103BBE00D96E020E5C20DA6E880E5B24E16E000E6A
:103BCE005C20E26EDFCFE7FF5B4A5C2A5CBEEED77D
:103BDE005C5004E1100E5B5CD8A0E8D7D1C21EF099
:103BEE00DED7000E5C6E000E5B6EC10E5B24D96ECE
:103BFE00020E5C20DA6E600E5B24E16E000E5C201D
:103C0E00E26EDFCFE7FF5B4A5C2A5CBEEED75C500C
:103C1E0004E1140E5B5CD8A0E8D7D5C222F0D6C260
:103C2E0021F0BDD7000E5C6E000E5B6EC10E5B24E4
:103C3E00D96E020E5C20DA6E740E5B24E16E000EFD
:103C4E005C20E26EDFCFE7FF5B4A5C2A5CBEEED7FC
:103C5E005C50A5E1140E5B5CD8B0A1D7E7D782EC1F
:103C6E0012F08CEC0AF09DD0D0EC0BF0CEEC10F0F4
:103C7E0096D7000E5C6E000E5B6E810E5B24D96EC5
:103C8E00020E5C20DA6E5B5082EC0AF0DF6E5B4A4D
:103C9E005C2A5CBEF2D75C5005E1200E5B5CD8B0AE
:103CAE0080D0EBD77ED0000E5C6E000E5B6EFF0EEA
:103CBE003C6E5B509AEC0BF05B4A5C2A5CBEF7D70D
:103CCE005C5005E1200E5B5CD8B069D7F0D767D7A2
:103CDE00440E5A6E000E5C6E010E5B6EC00E5B24BF
:103CEE00D96E020E5C20DA6EDF503C6E5B50070F11
:103CFE009AEC0BF0C00E5B24D96E020E5C20DA6ECD
:103D0E00DF505A265B4A5C2A5CBEE8D75C5004E161
:103D1E00090E5B5CD8A0E2D70201C951566E576AF4
:103D2E005A50586E596AFF0E581A000E591A5650AC
:103D3E0058180AE157505918D8A406D05AC03CF06A
:103D4E00070E9AEC0BF02BD798EC0AF02AD0C05144
:103D5E00D8A4FAD726D0C051010AD8B40BD7030A7B
:103D6E00D8B40BD7010AD8B40BD7070AD8B40BD7DF
:103D7E00010AD8B479D7030AD8B47BD7010AD8B4CC
:103D8E0092D7860AD8B40ED7030AD8B42AD7010A16
:103D9E00D8B448D7070AD8B462D71C0AD8B498D773
:103DAE00D6D70001B451B511D8B406D0B4C0D9FFDE
:103DBE00B5C0DAFFDFBE0FD0010E3C6E800E3D6E39
:103DCE00020E3E6E400E3F6E020E7CEC13F03CC0B7
:103DDE00B4F03DC0B5F0000E286E000E3C6EC00E65
:103DEE003D6E020E3E6E400E3F6E020E7CEC13F0E8
:103DFE003CC0B2F03DC0B3F0120000F73F7E3EB5BE
:103E0E003FFB3FED3F993F183F5A3F05010904A183
:103E1E0001A10275089505150026FF00350046FF25
:103E2E0000093009300930093009318102750495D5
:103E3E00012507463B0165140900814265007501A5
:103E4E00950A2501450105091901290A8102060075
:103E5E00FF7501950A2501450109018102C0A102E4
:103E6E007508950446FF0026FF0009029102C0C0A6
:103E7E0050034D00490043004F004D0053004F00CA
:103E8E0046005400200044004500500054002E000F
:103E9E002C002000440045004D0050004100200041
:103EAE005000550042004C004900430041005400B0
:103EBE0049004F004E00200049004E0043002E00E6
:103ECE0005010905A1011500250135004501750102
:103EDE00950D05091901290D810295038101050131
:103EEE002507463B01750495016514093981426524
:103EFE00009501810126FF0046FF000930093109B6
:103F0E00320935750895048102C00902420002018A
:103F1E0000A0320904000001030000000921110174
:103F2E000001224A00070581034000010904010037
:103F3E000203000000092111010001221D000705E6
:103F4E00820340000107050203400001090222001E
:103F5E00010100A032090400000103000000092144
:103F6E00110100012265000705810340000A0600C9
:103F7E00FF0901A10119012940150026FF0075084E
:103F8E0095408100190129409100C01C0336004262
:103F9E0000200063006F006E00740072006F006CF2
:103FAE00006C00650072001403580045003100419A
:103FBE00004A002D0055005300420012010002007D
:103FCE00000008A7170500010001020301120100FD
:103FDE000200000008A30C24000001010203010AE4
:103FEE00035300450047004100040309040403097C
:023FFE000400BD
:020000040020DA
:08000000FFFFFFFFFFFFFFFF00
:020000040030CA
:0E00000000120314FF0089FF03C003E0034059
:00000001FF
