:020000040000FA
:0408000007EF04F00A
:0A0808005E825E921100CAEF05F057
:0208160042019D
:100AAE00010E0001D26F12003F6E3FC03CF0600E8F
:100ABE0051EC06F012003C6E3CC0A9FFA69EA69C0F
:100ACE00A680A6B0FED7A85012004F0E0201816F6D
:100ADE004B0E826F000E3D6E030E3C6E21EC06F047
:100AEE001200450E0201816F520E826F520E836FFD
:100AFE00000E3D6E040E3C6E21EC06F01200C00E90
:100B0E000001986F020E996F000E9D6F080E9C6F7C
:100B1E00AE0E9E6F0A0E9F6F9B8F1200010E00018C
:100B2E00A627000EA723A823A923CF51D8A41200CD
:100B3E00CC2BCC51D8A41200CC691200000E66EC5E
:100B4E0007F03DEC13F0A9EC10F0E4EC11F0200EE0
:100B5E00306001D0FAD764B2F8D705EC1CF0F5D7A7
:100B6E003C503E02F3CF40F0F4CF41F03C503F02F8
:100B7E00F35041263D503E02F350412640C03CF01A
:100B8E0041C03DF0120000EE60F0990EEE6AE806EC
:100B9E00FDE100EE01F03B0EEE6AE806FDE15E902F
:100BAE005E92000EF86E0001A5EF05F03CC042F01B
:100BBE003DC043F008D042C0D9FF43C0DAFF3EC06B
:100BCE00DFFF424A432A4006D8A041064028F3E1FF
:100BDE004128D8B41200EFD7F29CF29E8068000E26
:100BEE00816E000E826E8968000E8A6E000E8B6E0C
:100BFE00000E7E6E000E7F6EF00E936E0F0E946ED4
:100C0E000EEF00F01200608462986482010E000103
:100C1E00CF6F000ECC6F000E496E750E486E000E33
:100C2E004A6E000E4B6E000E4D6E000E4C6E05ECB5
:100C3E0009F012003CC03EF03DC03FF03FBE06D072
:100C4E003F500FE13F0E3E5CD8B01200800E3E24A6
:100C5E00D96E020E3F20DA6E000EDF6E3E4A3F2A3C
:100C6E00EDD712003CC03EF03DC03FF03FBE06D077
:100C7E003F500FE1400E3E5CD8B01200800E3E2475
:100C8E00D96E020E3F20DA6E000EDF6E3E4A3F2A0C
:100C9E00EDD712003D6E3DC0A9FF3CC0A8FFA69E39
:100CAE00A69CA684000EF2BE010E3E6EF29E550E5E
:100CBE00A76EAA0EA76EA6823E50D8A4F28EA1A849
:100CCE00FED7A198A6941200D00E9318D8A40BD0DC
:100CDE0049C03CF04AC03DF0F6EC13F03CC049F080
:100CEE003DC04AF0120049C03CF04AC03DF084ECD1
:100CFE000FF03CC049F03DC04AF01200000E00015A
:100D0E00CF6F000E496E740E486E000E4A6E000EC6
:100D1E004B6E000E4D6E000E4C6E05EC09F064929B
:100D2E00609401D0629462B4FDD7000E0001CC6FC6
:100D3E001200476E44A405D0000E3C6E47508BEC5B
:100D4E000AF044A205D0010E3C6E47508BEC0AF01F
:100D5E00530E4724456E466A0F0E462245C0D9FFF4
:100D6E0046C0DAFF44C0DFFF1200A30E3C6E000E39
:100D7E0051EC06F027C03CF0010E51EC06F026C0F7
:100D8E003CF0020E51EC06F025C03CF0030E51EC87
:100D9E0006F024C03CF0040E51EC06F023C03CF0EB
:100DAE00050E51EC06F012003C6E3C50D8A40DD04E
:100DBE002B50D8A4120011500001C65D1250C75915
:100DCE00D8B01200C64BC72B120011500001C61925
:100DDE0007E11250C719D8A403D02950010A296E71
:100DEE00000EC76F000EC66F12003EC044F03FC02B
:100DFE0045F03CC042F03DC043F010D044C0D9FF96
:100E0E0045C0DAFFDF50466E444A452A42C0D9FF3C
:100E1E0043C0DAFF46C0DFFF424A432A4006D8A04D
:100E2E0041064028EBE14128D8B41200E7D70F0164
:100E3E0053A11DD00FC0D9FF10C0DAFF800EDE18EF
:100E4E00D8A414D007C0D9FF08C0DAFF840EDE186C
:100E5E00D8A40CD00FC0D9FF10C0DAFF0C0EDF6E75
:100E6E000FC0D9FF10C0DAFF000EDB8E5391629ACD
:100E7E001200000E0201816F000E826F020E816F52
:100E8E00010E826F160EF66E080EF76E0800F5CF85
:100E9E0083F2160EF66E080EF76E0900F5CF40F0CF
:100EAE000900F5CF41F041C040F0416A4050846FD7
:100EBE00000E3D6E050E3C6E21EC06F012003C6EEF
:100ECE001DD0000E816E000E826E000E8A6E000E18
:100EDE008B6E000E7E6E000E7F6EF00E936E0F0EFA
:100EEE00946E0F0E946EF19EF00E786E81BC03D050
:100EFE00D00E936E1200B00E936E12003C50000A8C
:100F0E00D8B4DFD7010AD8B41200030A1200000EBB
:100F1E00416E000E406E880E4024D96E000E4120A8
:100F2E00DA6E810E4024E16E020E4120E26EDFCFBA
:100F3E00E7FF404A412A41BEEED7415004E1100E70
:100F4E00405CD8A0E8D71DC091F213C092F21450A5
:100F5E000201936F000E3D6E140E3C6E21EC06F0F6
:100F6E00120024C081F223C082F227C083F226C071
:100F7E0084F225C085F22FC086F235C087F236C0C6
:100F8E0088F237C089F238C08AF231C08BF232C093
:100F9E008CF233C08DF234C08EF22EC08FF22DC083
:100FAE0090F211C091F212500201926F000E3D6E3E
:100FBE00130E3C6E21EC06F012003D6E400E3D60AD
:100FCE000CD0400E3C6002D0070E21D0C00E3C6407
:100FDE0002D0050E1CD0060E1AD0C00E3D640CD0E9
:100FEE00400E3C6002D0010E12D0C00E3C6402D006
:100FFE00030E0DD0020E0BD0400E3C6002D0000E40
:10100E0006D0C00E3C6402D0040E01D0080E3E6E17
:10101E003E501200160E0001D36F030ED46F530E06
:10102E00D56F000ED66F4E0ED76F000ED86F2D0EE9
:10103E00D96F000EDA6F2D0EDB6F000EDC6F2D0EEA
:10104E00DD6F000EDE6F2D0EDF6F000EE06F2D0ECA
:10105E00E16F000EE26F2D0EE36F000EE46F2D0EAA
:10106E00E56F000EE66F2D0EE76F000EE86F1200B3
:10107E00010E0001D16F2F04D8A402D00F0ED16F34
:10108E00020E2F18D8A402D0070ED16F030E2F1800
:10109E00D8A402D0030ED16F36503510FF0ABA6FA6
:1010AE0037503810FF0ABB6F32503110FF0AB86F3D
:1010BE0033503410FF0AB96F000EC96F000EC86F9F
:1010CE00000E2C6E000E2B6E000E2A6E1200020EFB
:1010DE001B18D8A403D011EC10F01200000E1B6EDA
:1010EE000001CE51D8A41FD020EE01F00D50D9260C
:1010FE000E50DA22080EDF6E20EE02F00D50D926C9
:10110E000E50DA22300EDE6E020EDD6E0DC0D9FFED
:10111E000EC0DAFF0C0EDF6E0DC0D9FF0EC0DAFF67
:10112E00000EDB8E1200000ECE6F1200000E0001BC
:10113E00B66F000EB76F000EB46F000EB56F000ED7
:10114E00B26F000EB36F000ED26F000E3D6E000E2A
:10115E003C6E39EC06F01A0E446E010EA0EC06F051
:10116E0082BE12001E0E446E020EA0EC06F0000EA1
:10117E003C6EC00E3D6E020E3E6E400E3F6E020E77
:10118E0003EC0FF03CC0B2F03DC0B3F01200200EE5
:10119E003D6E000E3C6E275080083E6E000ED8A0AD
:1011AE00E82A00083F6EB8EC09F03CC0C0F03DC024
:1011BE00C1F0200E3D6E000E3C6E265080083E6E35
:1011CE00000ED8A0E82A00083F6EB8EC09F03CC02B
:1011DE00BEF03DC0BFF0200E3D6E000E3C6E2550A1
:1011EE0080083E6E000ED8A0E82A00083F6EB8ECCC
:1011FE0009F03CC0BCF03DC0BDF0120010D000F0B4
:10120E001200010E66EC07F01200020E66EC07F0FB
:10121E0012009DEC08F0120044EC17F0120048C0CA
:10122E004EF049C04FF04F50000AD8B404D07F0A98
:10123E00D8A412001AD04E50010AD8B4EAD7030A25
:10124E00D8B41200010AD8B4E7D7060AD8B41200EF
:10125E00770AD8B4D4D7010AD8B41200070AD8B482
:10126E00D4D7010AD8A41200CCD74E50FF0A1200D0
:10127E00C4C081F2000E3D6E000E3C6EE90E3C24A1
:10128E00D96E000E3D20DA6E820E3C24E16E020E07
:10129E003D20E26EDFCFE7FF3C4A3D2A3DBEEED752
:1012AE003D5004E10D0E3C5CD8A0E8D7000E3D6E1B
:1012BE00000E3C6E400E3C24D96E020E3D20DA6EBE
:1012CE008F0E3C24E16E020E3D20E26EDFCFE7FF73
:1012DE003C4A3D2A3DBEEED73D5005E1080E3C5C32
:1012EE00D8B01200E7D7120035C03CF0610E51ECB9
:1012FE0006F036C03CF0620E51EC06F037C03CF002
:10130E00630E51EC06F038C03CF0640E51EC06F062
:10131E0031C03CF0650E51EC06F032C03CF0660E6A
:10132E0051EC06F033C03CF0670E51EC06F034C0C1
:10133E003CF0680E51EC06F02EC03CF0690E51ECFC
:10134E0006F02DC03CF06A0E51EC06F011C03CF0D8
:10135E006B0E51EC06F012503C6E6C0E51EC06F01A
:10136E001200000E416E3FAE06D03E6C3F1ED8B04E
:10137E003F2A010E416E3DAE06D03C6C3D1ED8B0EC
:10138E003D2A010E411A000E436E000E426E3E5073
:10139E003F10D8B41CD0010E406E04D0D8903E360B
:1013AE003F36402A3FAEFAD7D890423643363E50AB
:1013BE003C5C3F503D58D8A005D03E503C5E3F505F
:1013CE003D5A4280D8903F323E32402EEDD74150AA
:1013DE00D8B404D0426C431ED8B0432A42C03CF06D
:1013EE0043C03DF01200000E1C6E000E186E000E73
:1013FE00156E000E0001CD6F000ECE6F000E1B6E2F
:10140E0007C0D9FF08C0DAFF7F0EDF16040E0718DB
:10141E00076E0850086E07C0D9FF08C0DAFF7F0EAE
:10142E00DF16040E0718076E0850086E0DC0D9FFA0
:10143E000EC0DAFF7F0EDF16000E046E000E066E73
:10144E00000E056E000E9B6F000E9D6F000E9C6FC2
:10145E0078EC0CF0000E496E030E486E000E4A6ECC
:10146E00000E4B6E000E4D6E000E4C6E05EC09F02C
:10147E00A8EC0DF01200000E416E000E406E740EC0
:10148E004024D96E000E4120DA6E810E4024E16EAA
:10149E00020E4120E26EDFCFE7FF404A412A41BEF5
:1014AE00EED7415004E1140E405CD8A0E8D7000EF0
:1014BE00416E000E406E600E4024D96E000E41202B
:1014CE00DA6E950E4024E16E020E4120E26EDFCF01
:1014DE00E7FF404A412A41BEEED7415004E1140EC7
:1014EE00405CD8A0E8D722C0A9F221C0AAF220C041
:1014FE00ABF21FC0ACF21EC0ADF2000E3D6E2E0E52
:10150E003C6E21EC06F01200416E000E426E020E91
:10151E00436E3C503D6E3E6AD8903D363E3641504D
:10152E003F6E406AD8903F364036D8903F364036B0
:10153E003D503F263E504022D8903F364036D89000
:10154E003F3640363F5042264050432242C0D9FFDC
:10155E0043C0DAFFDF9E3C50D8A407D04150020DA5
:10156E00A00EF324D96E000E06D04150020D070EC8
:10157E00F324D96E000EF420DA6E42C0DEFF43C0B3
:10158E00DDFF42C0D9FF43C0DAFFDF9C20EE04F03E
:10159E004250D9264350DA22DF8C12002D0E196EDE
:1015AE0039C057F0FD0E5716D8A43BD039C057F0AE
:1015BE00D89057323F0E57165750040D000EF32495
:1015CE000F6E020EF420106E0FC00DF010C00EF054
:1015DE00040E0D180D6E0E500E6E0FC0D9FF10C0FA
:1015EE00DAFFDF30E8320F0B0D0AD8A417D0300E19
:1015FE003C6E020E3D6E20EE02F00F50D9261050BA
:10160E00DA22DECF3EF0DDCF3FF0000E416E080E47
:10161E00406EFCEC06F0FAEC09F012006EEC08F0ED
:10162E0012003950FD0B040AD8A4120018EC0EF06B
:10163E001200000E156E000E0001CD6F020E1B186B
:10164E00D8A41FD020EE01F00D50D9260E50DA226C
:10165E00080EDF6E20EE02F00D50D9260E50DA2263
:10166E00380EDE6E020EDD6E0DC0D9FF0EC0DAFF33
:10167E00480EDF6E0DC0D9FF0EC0DAFF000EDB8EF6
:10168E00120005500201365D06503759D8B004D00D
:10169E0036C205F037C206F0DAEC0CF020EE02F09E
:1016AE000750D9260850DA22380EDE6E020EDD6E95
:1016BE0007C0D9FF08C0DAFF480EDF6E07C0D9FF9A
:1016CE0008C0DAFF000EDB8E12003D6E0001D15114
:1016DE002B5CD8A02ED0000E2B6EAD0EC825C86F79
:1016EE00020EC921C96F810EC85D3E0EC959D8A020
:1016FE0007D0800EC825C86FC10EC921C96F1AD078
:10170E002A50D8A408D02E502C5CD8A004D0000E9D
:10171E002C6E010E0AD02A04D8A409D02D502C5CB0
:10172E00D8A005D0000E2C6E000E2A6E03D02C2AE7
:10173E0001D02B2A3D50D8B407D02850D8B404D0AD
:10174E00000E2C6E000E2A6E3C50D8B407D02850D6
:10175E00D8B404D0000E2C6E010E2A6E3D50D8A4C3
:10176E0003D03C50D8B403D0000E286E1200010EE8
:10177E00286E1200000E0201386F000E396F3AD03B
:10178E00048E0001D005D8A440D0020138833DD08C
:10179E00048E3BD0048E34510F0B0009D8B435D0D3
:1017AE0034BF0AD034510F0B3C6E3C50020DA00ECC
:1017BE00F324D96E000E09D034510F0B3C6E3C5001
:1017CE00020D070EF324D96E000EF420DA6EDECF72
:1017DE003DF0DDCF3EF03DC0D9FF3EC0DAFFDFAEBB
:1017EE0014D03DC0D9FF3EC0DAFFDFA40ED0010EEB
:1017FE00386F0BD030511F0B000AD8B4C1D7010A75
:10180E00D8B4C6D7030AD8B4C5D704AE1200380E62
:10181E00016E020E026E0480020E056E120017504B
:10182E00D8A41200010E176E1650D8A41200010E85
:10183E00166E020E1B18D8A415D020EE01F007501C
:10184E00D9260850DA22000EDF6E07C0D9FF08C075
:10185E00DAFF480EDF6E07C0D9FF08C0DAFF000EB0
:10186E00DB8E12001B04D8A41200000E0001CE6FF6
:10187E0020EE01F00F50D9261050DA22080EDF6E3E
:10188E0020EE02F00F50D9261050DA22300EDE6E06
:10189E00020EDD6E0FC0D9FF10C0DAFF040EDF6E30
:1018AE000FC0D9FF10C0DAFF000EDB8E010ECE6F17
:1018BE0020EE01F00D50D9260E50DA22080EDF6E02
:1018CE0020EE02F00D50D9260E50DA22300EDE6ECA
:1018DE00020EDD6E0DC0D9FF0EC0DAFF800EDF6E78
:1018EE00120002013039E832030B0009D8A41200AD
:1018FE0039D0048E080E306E120064EC16F0120011
:10190E0040EC0DF012003B0E016E000E026E0480D4
:10191E00010E056E048E1200C1EC0BF0120034ECB9
:10192E0018F012003A0E3425016E026A000E0222E1
:10193E00EED7048E3A0E3425D96EDA6A000EDA220C
:10194E0032C2DFFF1200000E496E020E486E000E0C
:10195E004A6E000E4B6E000E4D6E000E4C6E05EC78
:10196E0009F012003151000AD8B4D6D7010AD8B402
:10197E00D6D7020AD8B4D3D7060AD8B4BAD7030A30
:10198E00D8B4BBD7010AD8B4DED70F0AD8B4BBD7A8
:10199E00010AD8B4B5D7030AD8B4C4D7010AD8B44B
:1019AE00C8D7070A1200080E3C6E065010E1080E4A
:1019BE00055CD8B00CD005C03CF01C50D8A402D0A9
:1019CE00010E04D01C04D8A402D0020E1C6E3C5092
:1019DE00055E000E065A20EE01F00750D92608507B
:1019EE00DA223CC0DFFF380E0001B06F020EB16F7D
:1019FE0004A01CD03AD001C0F6FF02C0F7FFF86A6F
:101A0E00B0C0D9FFB1C0DAFF020EF76403D00800F0
:101A1E00F55005D0F6CFE1FFF7CFE2FFE750DF6ECE
:101A2E00014A022A0001B04BB12B3C063C50D8B4FF
:101A3E001200E1D701C0F6FF02C0F7FFF86AB0C08E
:101A4E00D9FFB1C0DAFF020EF76403D00800F550DB
:101A5E0005D0F6CFE1FFF7CFE2FFE750DF6E014A88
:101A6E00022A0001B04BB12B3C063C50D8B41200F8
:101A7E00E1D7048E540E3C6E0F0E3D6E000E3F6E7F
:101A8E00000E3E6E000E416E020E406EDDEC05F055
:101A9E00000E3C6E020E3D6E000E3F6E000E3E6E50
:101AAE00000E416E300E406EDDEC05F0648C000EC3
:101ABE00506EAD0E5024D96EDA6A000EDA22000E88
:101ACE00DF6EAA0E5024D96EDA6A000EDA22000EEC
:101ADE00DF6E502A020E5064ECD73A0E3C6E000EAA
:101AEE003D6E000E3F6E000E3E6E000E416E010EFC
:101AFE00406EDDEC05F0649C080E076E020E086E5B
:101B0E00000E0F6E020E106E0FC00DF010C00EF014
:101B1E0032C23BF03B50D8A403D0100E306E1200F0
:101B2E00200E306E000E496E010E486E3B0E4A6E50
:101B3E00000E4B6E000E4D6E010E4C6E05EC09F054
:101B4E001200649804BE39D000019BAF0BD0020E78
:101B5E001B6ECD51D8B420EC0BF0000E166E000E9D
:101B6E00176E120020EE01F00D50D9260E50DA221B
:101B7E00080EDF6E20EE02F00D50D9260E50DA223E
:101B8E00300EDE6E020EDD6E0DC0D9FF0EC0DAFF16
:101B9E000C0EDF6E0DC0D9FF0EC0DAFF000EDB8E0D
:101BAE0007C0D9FF08C0DAFF040EDF6E07C0D9FFE9
:101BBE0008C0DAFF000EDB8E1200020130AF10D02B
:101BCE00010E1B6E1550D8B420EC0BF0000E166EE5
:101BDE00000E176E1850D8A4120016EC0CF012005E
:101BEE00020E1B6E20EE01F00D50D9260E50DA2299
:101BFE00080EDF6E20EE02F00D50D9260E50DA22BE
:101C0E00300EDE6E020EDD6E0DC0D9FF0EC0DAFF95
:101C1E00040EDF6E0DC0D9FF0EC0DAFF000EDB8E94
:101C2E00D5D707C0D9FF08C0DAFF000EDFBC010E02
:101C3E003D6E040E0718076E0850086E080E301819
:101C4E00D8A40CD0020132517F0B0F015C6F5C5196
:101C5E00D8B402D0100E01D0040E306E1B04D8A4DE
:101C6E003AD020EE02F00750D9260850DA22380E6C
:101C7E00DE6E020EDD6EDAEC0CF0020E1C18D8A42D
:101C8E000DD007C0D9FF08C0DAFF040EDF6E07C003
:101C9E00D9FF08C0DAFF000EDB8E12003D50D8A42B
:101CAE000DD007C0D9FF08C0DAFF480EDF6E07C09F
:101CBE00D9FF08C0DAFF000EDB8E120007C0D9FF75
:101CCE0008C0DAFF080EDF6E07C0D9FF08C0DAFFC2
:101CDE00000EDB8E120000019BAF14D09E519F119F
:101CEE00D8B40ED020EE9EF001D80AD00500FA6EC0
:101CFE00DE50FD6EDE50FE6EF850FF6EFA50120092
:101D0E0000019B9F000E1B6E1200000E406E000E17
:101D1E003F6E740E3F24D96E000E4020DA6EDF50F7
:101D2E003C6E3F50200F51EC06F03F4A402A40BE19
:101D3E00F0D7405004E1140E3F5CD8A0EAD7000E55
:101D4E00406E000E3F6E600E3F24D96E000E402096
:101D5E00DA6EDF503C6E3F50340F51EC06F03F4AC6
:101D6E00402A40BEF0D7405004E1140E3F5CD8A08C
:101D7E00EAD7000E406E000E3F6E880E3F24D96EDD
:101D8E00000E4020DA6EDF503C6E3F50480F51EC93
:101D9E0006F03F4A402A40BEF0D7405004E1100EF4
:101DAE003F5CD8A0EAD722C03CF0580E51EC06F0AA
:101DBE0021C03CF0590E51EC06F01DC03CF05A0EFD
:101DCE0051EC06F020C03CF05B0E51EC06F01FC04B
:101DDE003CF05C0E51EC06F01EC03CF05D0E51EC7A
:101DEE0006F013C03CF05E0E51EC06F014503C6E43
:101DFE005F0E51EC06F01200446E3C50D8B407D082
:101E0E004450020D070EF324D96E000E06D0445036
:101E1E00020DA00EF324D96E000EF420DA6EDECF82
:101E2E0045F0DDCF46F045504610D8A405D0000E43
:101E3E003C6E000E3D6E120020EE02F04550D9268B
:101E4E004650DA223DC0DEFF3EC0DDFF20EE01F03F
:101E5E004550D9264650DA223FC0DFFF45C0D9FF94
:101E6E0046C0DAFF400EDF1645C0D9FF46C0DAFF86
:101E7E00000EDB8645C0D9FF46C0DAFF000EDB8EB2
:101E8E003C50D8B418D04450020D070EF324D96E2E
:101E9E00000EF420DA6EDECF40F0DDCF41F0040EFE
:101EAE004018426E4150436E4450020D070EF3240B
:101EBE00D96E000E17D04450020DA00EF324D96E29
:101ECE00000EF420DA6EDECF40F0DDCF41F0040ECE
:101EDE004018426E4150436E4450020DA00EF32442
:101EEE00D96E000EF420DA6E42C0DEFF43C0DDFF75
:101EFE0045C03CF046C03DF01200818C3CC043F022
:101F0E003DC044F0140EE82EFED782CF3EF00F0EE9
:101F1E003E168150300B3E1043C0D9FF44C0DAFF4D
:101F2E00DF6E434A442A819C140EE82EFED782CFE0
:101F3E003EF00F0E3E168150300B3E1043C0D9FFBF
:101F4E0044C0DAFFDF6E434A442A818C000E426E93
:101F5E00000E416E000E406E000E3F6E81B802D034
:101F6E00010E01D0000E3E6E81BA02D0010E01D0DC
:101F7E00000E3E14E8B00DD0C80E3F184010D8A485
:101F8E0005D0000E3D6E010E3C6E12003F4A402AF7
:101F9E00E5D782500F0B43C0D9FF44C0DAFFDF6E86
:101FAE00434A442A050E41184210D8A405D0000E0B
:101FBE003D6E000E3C6E1200000E406E000E3F6E27
:101FCE0081A802D0010E01D0000E3E6E81BA02D061
:101FDE00010E01D0000E3E14E8B008D0C80E3F1816
:101FEE004010D8B4CED73F4A402AEAD782500F0BC2
:101FFE0043C0D9FF44C0DAFFDF6E434A442A414A48
:10200E00422A42BEA7D74250BCE1060E415CD8B070
:10201E00B8D7A0D720EE01F00F50D9261050DA22F3
:10202E00DF503D6E3D5000019C5D000E9D59D8A0C5
:10203E009CC03DF03D509C5F000E9D5B000E3C6EC3
:10204E000FD0380E3C24D96EDA6A020EDA2298C00E
:10205E00E1FF99C0E2FFDFCFE7FF984B992B3C2AB7
:10206E003D503C5CD8A0EDD79C519D11D8B432D0D8
:10207E0020EE01F00D50D9260E50DA22080EDF6E3A
:10208E0020EE02F00D50D9260E50DA22380EDE6EFA
:10209E00020EDD6E0FC0D9FF10C0DAFFDFBC0DD00F
:1020AE000DC0D9FF0EC0DAFF480EDF6E0DC0D9FF8E
:1020BE000EC0DAFF000EDB8E12000DC0D9FF0EC06F
:1020CE00DAFF080EDF6E0DC0D9FF0EC0DAFF000E6C
:1020DE00DB8E120020EE01F00D50D9260E50DA22C2
:1020EE00080EDF6E20EE02F00D50D9260E50DA22C9
:1020FE00300EDE6E020EDD6E0DC0D9FF0EC0DAFFA1
:10210E00040EDF6E0DC0D9FF0EC0DAFF000EDB8E9F
:10211E009E519F11D8B40ED020EE9EF001D80AD059
:10212E000500FA6EDE50FD6EDE50FE6EF850FF6E4C
:10213E00FA50120000019B9F1850D8A4120016EC02
:10214E000CF01200A094000E0F015F6F000E626E75
:10215E00000E536F540E3C6E0F0E3D6E000E3F6E12
:10216E00000E3E6E000E416E020E406EDDEC05F06E
:10217E00160E616E9F0E0F015B6F7B0E606E000E72
:10218E00446E4450040D000EF324D96E020EF4205A
:10219E00DA6EDE6ADE6ADE6ADD6A442A0B0E44649B
:1021AE00F0D7648C000E0F015C6F6498649C62968D
:1021BE00000E046E000E00019B6F000E9D6F000E50
:1021CE009C6F62B6F4D7010E176E010E166E000EDE
:1021DE00156E000ECD6F000ECF6F000E446E445084
:1021EE00020D070EF324D96E000EF420DA6E000EE7
:1021FE00DE6E000EDD6E4450020DA00EF324D96E7D
:10220E00000EF420DA6E000EDE6E000EDD6EAD0EE8
:10221E004424D96EDA6A000EDA22000EDF6EAA0EA0
:10222E004424D96EDA6A000EDA22000EDF6E442ADA
:10223E00020E4464D4D7080E076E020E086E160EF8
:10224E000F01536F020E0201036F300E026F080E64
:10225E00016F040E006F008F000E3B6E000E00012A
:10226E00A66F000EA76F000EA86F000EA96F000ECE
:10227E00CC6F000E306E1200000E276E000E266E12
:10228E00000E256E020E246E020E236EBCEC06F0BE
:10229E00000E416E740E4124D96EDA6A000EDA22F7
:1022AE00000EDF6E412A130E4164F4D7000E416E0C
:1022BE00600E4124D96EDA6A000EDA22000EDF6E4D
:1022CE00412A130E4164F4D7000E416E880E41244C
:1022DE00D96EDA6A000EDA22000EDF6E412A0F0E78
:1022EE004164F4D7400E0001886F200E8A6F020EF3
:1022FE008D6F800E8E6F100E906F010E936F200EED
:10230E00956F100E976F400E606F200E626F020E6B
:10231E00656F800E666F100E686F010E6B6F200E6C
:10232E006D6F100E6F6F400E706F200E726F010E7C
:10233E00746F020E766F040E786F080E7A6F100EA1
:10234E007C6F200E7E6F800E806F400E826F010EAE
:10235E00846F020E866F030E226E020E216E030E26
:10236E001D6E030E206E060E1F6E440E1E6E010EA7
:10237E00146E900E136E8CEC0EF0010E2F6E010E7D
:10238E005BEC05F0000E356E000E366E000E376EED
:10239E00000E386E000E316E000E326E000E336E71
:1023AE00000E346E000E2E6E000E2D6E010E126E8D
:1023BE00390E116E7BEC09F012003050D8A411D0FA
:1023CE00000E646E000E606E160E616E9F0E0F0193
:1023DE005B6F7B0E606E01D0648664A6FDD7010E26
:1023EE00306E3004D8B464BA08D0000E626E000E9F
:1023FE00606E60806088020E306E62B460A403D09E
:10240E00629485EC06F064A202D0A194120062B030
:10241E0060A005D0A9EC10F0040E306E629062B888
:10242E0060A802D00AEC06F062AC1AD060AC0ED0F6
:10243E00000E496E730E486E000E4A6E000E4B6E05
:10244E00000E4D6E010E4C6E05EC09F0629C95EC83
:10245E0005F01950D8A419061950D8B416EC0CF082
:10246E0062BA60AA02D01EEC07F062B260A210D06F
:10247E007F0E496E4868000E4A6E000E4B6E000EBF
:10248E004D6E010E4C6E05EC09F0000E0F015F6FE4
:10249E00040E306002D0A194120060A634D0000E5B
:1024AE00586E62A630D063CF39F03930E832E83258
:1024BE000F0B1A6E629639B406D0AA0E1A24D96E74
:1024CE00DA6A000E05D0AD0E1A24D96EDA6A000E45
:1024DE00DA220001DF701A50D8A403D0D5EC0AF02E
:1024EE000ED0000E496E720E486E390E4A6E000EF8
:1024FE004B6E000E4D6E000E4C6E05EC09F0582A18
:10250E00030E5864CED7A19412004F6E4F50466EF4
:10251E00476A4250486E496A800E4826000E49228C
:10252E004650485C4950800A4A6E4750800A4A58C5
:10253E00D8A017D0800E466E000E476E4250465EF3
:10254E00000E475A4F50486E496A4650485C4950F3
:10255E00800A4A6E4750800A4A58D8A002D0800E90
:10256E001200800E4F603CD04F5042C046F0476A7A
:10257E00461E471E464A472A465E000E475A800EA2
:10258E0046244B6E000E47204C6E43C03CF03D6A15
:10259E004BC03EF04CC03FF0B7EC05F03CC04DF0E8
:1025AE003DC04EF04DC03CF04EC03DF044C03EF03C
:1025BE0045C03FF0B7EC05F03CC050F03DC051F0C7
:1025CE00400E515CD8A004D0400E516E000E506EDD
:1025DE0050500008506E5150D8A0E82A4008516E55
:1025EE00800E4F6436D042504FC046F0476A465E6A
:1025FE00000E475A810E46244B6EFF0E47204C6E3E
:10260E0043C03CF03D6A4BC03EF04CC03FF0B7ECCF
:10261E0005F03CC04DF03DC04EF04DC03CF04EC0FC
:10262E003DF044C03EF045C03FF0B7EC05F03CC075
:10263E0050F03DC051F0400E515CD8A004D0400E79
:10264E00516E000E506EFF0E5024506E3F0E5120F4
:10265E00516E50C046F051C047F0070E486ED890EC
:10266E0047324632482EFBD746501200829E000E4D
:10267E004D6E000E0001C36F000EC26F000ECB6FC9
:10268E00000ECA6F000EC76F000EC66F010E286EC9
:10269E003D0E4C6EE10E4B6E400EE82EFED74B2ECD
:1026AE00FCD74C2EFAD7D00E9318D8B439D0E90EE9
:1026BE003C6E000E3D6E84EC0FF01F0E4C6E710ED4
:1026CE004B6E1E0EE82EFED74B2EFCD74C2EFAD795
:1026DE0000D0E90E3C6E000E3D6E84EC0FF03C0413
:1026EE003D10D8A40CD00001EAA9828EEABB02D01C
:1026FE00010E4D6EE9B543D0F3EC05F040D000016C
:10270E00F5510A0B0A0AD8A4828EF5B102D0010E39
:10271E004D6EF5B502D0010E4D6EEBA3EDD72FD059
:10272E00E90E3C6E000E3D6EF6EC13F01F0E4C6E75
:10273E00710E4B6E1E0EE82EFED74B2EFCD74C2E76
:10274E00FAD700D0E90E3C6E000E3D6EF6EC13F09B
:10275E003C043D10D8A40DD0828E818AF00E00D09C
:10276E00E82EFDD781B802D0010E4D6E81AEC4D7D2
:10277E0006D0000E0001C36F010EC26FC6D711EC5A
:10278E0008F0000E62EC05F0A30AD8B402D0010ED8
:10279E0001D0000E4B6E4C6A4D504B12000E4C1277
:1027AE004B504C10D8B40ED0000E276E000E266E75
:1027BE00000E256E020E246E020E236EBCEC06F089
:1027CE0043EC11F087EC15F082AE02D0040E2F6EA2
:1027DE00CEEC08F0010E296E3FEC08F01200818A53
:1027EE003CC047F03DC048F0140EE82EFED782CF15
:1027FE003EF00F0E3E168150F00B3E10456E819A44
:10280E00140EE82EFED782CF3EF00F0E3E168150EC
:10281E00F00B3E10466E46C03EF0030E3E16453897
:10282E00E842070B040B3E10F80947C0D9FF48C019
:10283E00DAFFDF6E474A482A45C03EF00F0E3E16BD
:10284E0046C03FF0100E3F1645C040F0100E401629
:10285E00D89040343F103E1047C0D9FF48C0DAFF31
:10286E00DF6E46BE0BD047C0D9FF48C0DAFFDF503F
:10287E00F30B47C0D9FF48C0DAFFDF6E474A482A3C
:10288E00818A000E446E000E436E000E426E000EE4
:10289E00416E81B802D0010E01D0000E3E6E81BE97
:1028AE0002D0010E01D0000E3E14E8B00DD0C80EBD
:1028BE0041184210D8A405D0000E3D6E010E3C6E9C
:1028CE001200414A422AE5D782500F0B466E000E87
:1028DE00426E000E416E81A802D0010E01D0000E94
:1028EE003E6E81BE02D0010E01D0000E3E14E8B045
:1028FE0008D0C80E41184210D8B4DED7414A422A39
:10290E00EAD782500F0B456E47C0D9FF48C0DAFF99
:10291E0045C0DFFF474A482A47C0D9FF48C0DAFF03
:10292E0046C0DFFF474A482A050E43184410D8A474
:10293E0005D0000E3D6E000E3C6E1200434A442A36
:10294E0044BEA3D74450B8E1060E435CD8B0B4D70A
:10295E009CD7010E3E6E010E3D6E819AF00E00D098
:10296E00E82EFDD7818AF00E00D0E82EFDD7819A91
:10297E00F00E00D0E82EFDD781B808D000018851A6
:10298E0002014513000189510201461381BE02D096
:10299E00000E3E6E818AF00E00D0E82EFDD782B07A
:1029AE0008D0410E1D24D96EDA6A020EDA22000E0C
:1029BE00DF6E82B208D0410E1D24D96EDA6A020E85
:1029CE00DA22FF0EDF6E82B408D0400E1D24D96EBF
:1029DE00DA6A020EDA22000EDF6E82B608D0400EE0
:1029EE001D24D96EDA6A020EDA22FF0EDF6E81B86E
:1029FE0008D000018A510201451300018B510201DA
:102A0E00461381BE08D000018C510201451300010E
:102A1E008D5102014613819AF00E00D0E82EFDD79B
:102A2E0082A082B238D0818AF00E00D0E82EFDD777
:102A3E0082B008D00001925102014513000193515A
:102A4E000201461382B208D00001905102014513D3
:102A5E00000191510201461382B408D000018E513B
:102A6E000201451300018F510201461382B602D0B6
:102A7E00000E3D6E3E50D8A408D0000194510201C4
:102A8E0045130001955102014613819AF00E00D0B4
:102A9E00E82EFDD725D013500001CA1904E11450B9
:102AAE00CB19D8B418D03E50D8A410D094510201EE
:102ABE0045130001955102014613132803E1142812
:102ACE00D8B40ED00001CA4BCB2B0AD0000ECB6F60
:102ADE00000ECA6F05D0000E3D6E3E50D8A4F6D73C
:102AEE003D50DBEC06F03D50D8A408D000019651C5
:102AFE00020145130001975102014613818A12000B
:102B0E00010E62EC05F0276E020E62EC05F0266EE9
:102B1E00030E62EC05F0256E040E62EC05F0246ED9
:102B2E00050E62EC05F0236E000E4A6E740E4A24FA
:102B3E00D96EDA6A000EDA224A50200F62EC05F0E6
:102B4E00DF6E4A2A130E4A64F1D7000E4A6E600EEB
:102B5E004A24D96EDA6A000EDA224A50340F62EC39
:102B6E0005F0DF6E4A2A130E4A64F1D7000E4A6E44
:102B7E00880E4A24D96EDA6A000EDA224A50480FBD
:102B8E0062EC05F0DF6E4A2A0F0E4A64F1D7580E3A
:102B9E0062EC05F0226E590E62EC05F0216E5A0EB3
:102BAE0062EC05F01D6E5B0E62EC05F0206E5C0EA5
:102BBE0062EC05F01F6E5D0E62EC05F01E6E5F0E90
:102BCE0062EC05F03D6E3D503F6E3E6A5E0E62EC6D
:102BDE0005F0406E40503E10136E3F50146E600E66
:102BEE0062EC05F02F6E610E62EC05F0356E620E32
:102BFE0062EC05F0366E630E62EC05F0376E640E15
:102C0E0062EC05F0386E650E62EC05F0316E660E04
:102C1E0062EC05F0326E670E62EC05F0336E680EF4
:102C2E0062EC05F0346E690E62EC05F02E6E6A0EE3
:102C3E0062EC05F02D6E6C0E62EC05F03D6E3D50B3
:102C4E003F6E3E6A6B0E62EC05F0406E40503E10D9
:102C5E00116E3F50126E440E496E000E4A6E410EBA
:102C6E004A24D96EDA6A000EDA224A50080F62EC54
:102C7E0005F0DF6E410E4A24D96EDA6A000EDA22B2
:102C8E00DF5049264A2A070E4A64E9D7070E62EC3E
:102C9E0005F04918D8A4120041C0D9F042C0DBF0AB
:102CAE0043C0DDF044C0DFF045C0E1F046C0E3F0C4
:102CBE0047C0E5F048C0E7F01200800E020130195F
:102CCE00D8A41200C00E046ECDD082AE09D0DB0E99
:102CDE00016E3F0E026E000E066E120E056E120093
:102CEE00C90E016E3F0EF6D73251D8A47CD082AEFB
:102CFE0007D03251020D510EF324F66E3D0E3CD02C
:102D0E003251020D4F0EF324F66E3D0EF420F76E87
:102D1E000900F5CF01F00A00F5CF02F0020E2F18D0
:102D2E00D8A40ED03251020D4D0EF324F66E3D0E88
:102D3E00F420F76E0900F5CF01F00A00F5CF02F08E
:102D4E00030E2F18D8A40ED03251020D4B0EF324C1
:102D5E00F66E3D0EF420F76E0900F5CF01F00A0075
:102D6E00F5CF02F0040E2F18D8A40ED03251020D5A
:102D7E00490EF324F66E3D0EF420F76E0900F5CFE2
:102D8E0001F00A00F5CF02F0020E01243C6E000E97
:102D9E0002203D6E3CC0F6FF3DC0F7FFF86A020E02
:102DAE00F76403D00800F55005D0F6CFE1FFF7CF5A
:102DBE00E2FFE750056E030E01243C6E000E02206A
:102DCE003D6E3CC0F6FF3DC0F7FFF86A020EF76499
:102DDE0003D00800F55005D0F6CFE1FFF7CFE2FFA4
:102DEE00E750066E1200000E046E1200030E3261E2
:102DFE002CD082AE07D03251020D430EF324F66E64
:102E0E003D0E06D03251020D3D0EF324F66E3D0EF0
:102E1E00F420F76E0900F5CF01F00A00F5CF02F0AD
:102E2E0001C0F6FF02C0F7FFF86A020EF76403D086
:102E3E000800F55005D0F6CFE1FFF7CFE2FFE750DF
:102E4E003C6E3C50056E066A1200030E3219D8A471
:102E5E00CAD70480D30E016E000E026ED3C005F0E9
:102E6E00048E12003351010AD8B42FD7030AD8B4F6
:102E7E003BD7010AD8B4BAD7B6D7020130511F0BCF
:102E8E00E806D8A41200060E3119D8B4A0D0A7D0E7
:102E9E003B04D8A4A4D082AE6AD03451D8A4120078
:102EAE006C0E016E3F0E026E000E066E090E056E62
:102EBE00C00E046E94D02A0E016E3F0E026E000EEE
:102ECE00066E090E056EC00E046E020E2F18D8A4E3
:102EDE000AD0E80E016E3E0E026E000E066E090E50
:102EEE00056EC00E046E030E2F18D8A40AD0A60EBF
:102EFE00016E3E0E026E000E066E090E056EC00EBF
:102F0E00046E040E2F18D8A46AD0640E016E3E0E05
:102F1E00CAD73A0E016E3F0E026E000E066E090EF5
:102F2E00056EC00E046E020E2F18D8A40AD0F80E2D
:102F3E00016E3E0E026E000E066E090E056EC00E7E
:102F4E00046E030E2F18D8A40AD0B60E016E3E0ED4
:102F5E00026E000E066E090E056EC00E046E040E95
:102F6E002F18D8A43CD0740E016E3E0E9CD734514F
:102F7E00000AD8B4A0D7010AD8B4CBD730D03B04BE
:102F8E00D8A42DD082AE1BD03451D8A41200530E2B
:102F9E00016E3D0E026E000E066E650E88D7080E8F
:102FAE00016E3E0E026E000E066E4A0E80D77C0E2D
:102FBE00016E3F0E026E000E066E1D0E78D7345156
:102FCE00000AD8B4ECD7010AD8B4F1D708D03351DF
:102FDE00210AD8B45DD7030AD8B4D1D7010A303943
:102FEE00E832030BE806D8A4120023D086EC05F0D5
:102FFE001200F80E016E000E026E000E066E010E2D
:10300E00056EC10E046E1200800E046E33C2F8F00F
:10301E001200F70E016E000E026E000E066E010E0D
:10302E00056E810E046E1200800E046E32C2F7F031
:10303E0012003151010AD8B41200030AD8B4D9D7FC
:10304E00010AD8B4E6D70A0AD8B4D0D7030AD8B43E
:10305E00DBD7010AD8A41200E7D702013205D8A4A3
:10306E000FD030511F0B0009D8A40AD0048E030EC6
:10307E003119D8A402D0010E01D0000E0001D06F7C
:10308E0002013251D8A4120030511F0B020AD8A4EB
:10309E00120034510F0B0009D8B4120034510F0B2B
:1030AE00506E030E50601200200E3018D8A412007D
:1030BE00048E34BF18D034510F0B506E5050020D89
:1030CE00A00EF324D96E000EF420DA6EDECF55F08A
:1030DE00DDCF56F034510F0B506E516AAA0E5024AC
:1030EE00D96E000E17D034510F0B506E5050020D8A
:1030FE00070EF324D96E000EF420DA6EDECF55F0F3
:10310E00DDCF56F034510F0B506E516AAD0E502478
:10311E00D96E000E5120DA6EDF50546E54B006D0C8
:10312E00FB0E5514556EFF0E561404D0040E55109A
:10313E00556E5650566E34BF0AD034510F0B506E2A
:10314E005050020DA00EF324D96E000E09D034514A
:10315E000F0B506E5050020D070EF324D96E000E59
:10316E00F420DA6E55C0DEFF56C0DDFF030E3119B6
:10317E00D8A42AD055C0D9FF56C0DAFFDFAE17D07B
:10318E0034BF09D034510F0B506E516AAA0E502421
:10319E00D96E000E08D034510F0B506E516AAD0E21
:1031AE005024D96E000E5120DA6E0001DF8255C018
:1031BE00D9FF56C0DAFF000EDB8455C0D9FF56C0CA
:1031CE00DAFF000EDB8E1200040E5518556E5650A7
:1031DE00566E55C0D9FF56C0DAFFDFAE1BD055C0B4
:1031EE00D9FF56C0DAFF7F0EDF1655C0D9FF56C085
:1031FE00DAFF000EDB8C000E496E050E486E55C0D0
:10320E004AF056C04BF0000E4D6E020E4C6E05ECA1
:10321E0009F006D055C0D9FF56C0DAFF000EDB8C80
:10322E00040E5518556E5650566E54B206D055C0F3
:10323E00D9FF56C0DAFFDFAE2DD0020134BF09D060
:10324E0034510F0B506E516AAA0E5024D96E000ED7
:10325E0008D034510F0B506E516AAD0E5024D96EFA
:10326E00000E5120DA6E0001DF9255C0D9FF56C014
:10327E00DAFF3B0EDF16000E496E050E486E55C086
:10328E004AF056C04BF0000E4D6E020E4C6E05EC21
:10329E0009F006D055C0D9FF56C0DAFF3B0EDF1637
:1032AE00020134510F0B506E516A530E5024526E60
:1032BE000F0E5120536E52C0D9FF53C0DAFFFE0ECF
:1032CE00DF161200010E536E800E546E800E556E78
:1032DE00800E566EE90E496E000E4A6E6BEC06F0CD
:1032EE0049C0C4F04AC0C5F00001C405C511D8A438
:1032FE0061D0EAC052F0030E5216D8A403D0000ECD
:10330E00536E0CD0EAB102D0000E556EEAA355688A
:10331E00E9B102D0000E566EE9A35668EAC052F02B
:10332E000C0E5216D8A406D06C51020145130001A2
:10333E006D5117D0EAB502D0000E546EEAA754684C
:10334E00E9B507D064510201451300016551020130
:10335E0046130001E9B707D066510201451300017B
:10336E006751020146130001EAB907D0605102010C
:10337E00451300016151020146130001EABB07D05B
:10338E00625102014513000163510201461300010F
:10339E00E9B907D0685102014513000169510201D4
:1033AE0046130001E9BB9AD06A5102014513000190
:1033BE006B5192D0ED39F00BF111556EEE39F00BD9
:1033CE00F211546EEF39F00BF311566E25C042F028
:1033DE0023C043F0BCC044F0BDC045F056508CEC49
:1033EE0012F0566E26C042F024C043F0BEC044F028
:1033FE00BFC045F055508CEC12F0556E27C042F010
:10340E0024C043F0C0C044F0C1C045F054508CEC11
:10341E0012F0546E0001F5B307D07051020145133E
:10342E0000017151020146130001F5B107D072512E
:10343E000201451300017351020146130001F5B755
:10344E0007D060510201451300016151020146137C
:10345E000001F5B507D06251020145130001635119
:10346E00020146130001EBB307D06451020145136C
:10347E0000016551020146130001EBB107D0665100
:10348E000201451300016751020146130001ECB71A
:10349E0007D068510201451300016951020146131C
:1034AE000001ECB507D06A510201451300016B51C2
:1034BE00020146130001ECB107D06E510201451313
:1034CE0000016F51020146130001ECB307D06C519D
:1034DE000201451300016D51020146131EB0541E28
:1034EE001EB2551E1EB4561E400E2224D96EDA6A26
:1034FE00020EDA2254C0DFFF410E2224D96EDA6AA0
:10350E00020EDA2255C0DFFF400E2124D96EDA6A90
:10351E00020EDA2256C0DFFF5350DBEC06F053509A
:10352E00D8A4120000016E510201451300016F5123
:10353E00020146131200010E536E800E546E800E61
:10354E00556E800E566EE90E496E000E4A6E6BEC8D
:10355E0006F049C0C4F04AC0C5F00001C405C5114B
:10356E00D8A461D0EAC052F0030E5216D8A403D0EC
:10357E00000E536E0CD0EAB102D0000E556EEAA3C7
:10358E005568E9B102D0000E566EE9A35668EAC03E
:10359E0052F00C0E5216D8A406D0805102014013E0
:1035AE000001815117D0EAB502D0000E546EEAA781
:1035BE005468E9B507D078510201401300017951E2
:1035CE00020141130001E9B707D07A5102014013FD
:1035DE0000017B51020141130001EAB907D0745179
:1035EE000201401300017551020141130001EABBB3
:1035FE0007D07651020140130001775102014113A9
:10360E000001E9B907D07C510201401300017D5140
:10361E00020141130001E9BB94D07E510201401317
:10362E0000017F518CD0ED39F00BF111556EEE3952
:10363E00F00BF211546EEF39F00BF311566E26C0EB
:10364E0042F024C043F0BEC044F0BFC045F0555018
:10365E008CEC12F0556E27C042F024C043F0C0C06F
:10366E0044F0C1C045F054508CEC12F0546E25C09D
:10367E0042F023C043F0BCC044F0BDC045F05650EC
:10368E008CEC12F0566E0001F5B307D08451020196
:10369E00401300018551020141130001F5B107D01D
:1036AE0086510201401300018751020141130001AE
:1036BE00F5B707D074510201401300017551020194
:1036CE0041130001F5B507D07651020140130001F8
:1036DE007751020141130001EBB307D0785102017B
:1036EE00401300017951020141130001EBB107D0E3
:1036FE007A510201401300017B5102014113000176
:10370E00ECB707D07C510201401300017D5102013C
:10371E0041130001ECB507D07E51020140130001A8
:10372E007F51020141130001ECB102D0000E536E25
:10373E00ECB307D080510201401300018151020108
:10374E0041131EB8541E1EBA551E1EBC561E020E26
:10375E002018D8A40DD0400E2024D96EDA6A020E9D
:10376E00DA2255C03CF05450E4EC07F0DF6E10D076
:10377E00400E2024D96EDA6A020EDA2254C0DFFF20
:10378E00410E2024D96EDA6A020EDA2255C0DFFF0E
:10379E00020E1F18D8A41BD01EAE0CD0400E1F2434
:1037AE00D96EDA6A020EDA22800E3C6E5650E4ECC6
:1037BE0007F00BD0400E1F24D96EDA6A020EDA2201
:1037CE0056C03CF0800EE4EC07F0DF6E08D0400EE1
:1037DE001F24D96EDA6A020EDA2256C0DFFF53506A
:1037EE00DBEC06F05350D8A4120000018251020106
:1037FE004013000183510201411312001F0E306469
:10380E0002D064A20AD0000E0001C96F000EC86F6C
:10381E00000E2B6E000E2A6E12000001B651B7116B
:10382E00D8B406D0B6C0D9FFB7C0DAFFDFBEC5D058
:10383E0082AE5FD0010E0201406F7F0E416F7F0E90
:10384E00426F7F0E436F7F0E446F0F0E456F000E5B
:10385E00466F000E476FD00E9318D8A405D081BCCA
:10386E0006D0B0EC14F003D081AE69EC19F0020171
:10387E0046513814576E4551361457103C6E46510A
:10388E003714586E4551351458106CEC0BF0295006
:10389E00D8B423D0350E2A24D96EDA6A000EDA2275
:1038AE00DF50576E020145515714586E45510001B5
:1038BE00BA1558100201456F370E2A24D96EDA6AEE
:1038CE00000EDA22DF50576E46515714586E46518D
:1038DE000001BB1558100201466F010E3C6E400EE2
:1038EE003D6E020E3E6E080E3F6E010E03EC0FF0A3
:1038FE0060D0000E0201406F000E416F080E426F45
:10390E00800E436F800E446F800E456F800E466FA3
:10391E00000E476FD00E9318D8A40AD081BC0AD0DF
:10392E000001C205C311D8A405D0A2EC1AF002D032
:10393E0081AEFBD7020141513414576E32504015FF
:10394E0057103C6E41513314586E4051311458107B
:10395E006CEC0BF02950D8B421D0310E2A24D96E3C
:10396E00DA6A000EDA22DF5002014015576E40511E
:10397E000001B81557100201406F330E2A24D96E7C
:10398E00DA6A000EDA22DF50576E41515714586E24
:10399E0041510001B91558100201416F010E3C6EE4
:1039AE00400E3D6E020E3E6E070E3F6E010E03EC94
:1039BE000FF03CC0B6F03DC0B7F082BE1200000161
:1039CE00B251B311D8B409D0B2C0D9FFB3C0DAFF27
:1039DE00DFAE03D0D205D8A412000201C051D8B474
:1039EE0044D1C0C280F241D140EC07F073D13FEC1C
:1039FE0009F070D1B8EC07F06DD1C1C224F0C2C28B
:103A0E0023F0C3C227F0C4C226F0C5C225F0CEEC07
:103A1E0008F06CEC05F05ED1C1515BEC05F0F9D706
:103A2E00000E5D6E000E5C6EC10E5C24D96E020E31
:103A3E005D20DA6E880E5C24E16E000E5D20E26E73
:103A4E00DFCFE7FF5C4A5D2A5DBEEED75D5004E135
:103A5E00100E5C5CD8A0E8D7D1C21DF00201D25185
:103A6E00D3C257F0586A57C058F0576A5710136EA2
:103A7E005850146ECED7000E5D6E000E5C6EC10EE9
:103A8E005C24D96E020E5D20DA6E600E5C24E16E4F
:103A9E00000E5D20E26EDFCFE7FF5C4A5D2A5DBE61
:103AAE00EED75D5004E1140E5C5CD8A0E8D7D5C209
:103ABE0022F0D6C221F0D7C257F00F0E57161E5065
:103ACE00F00B26D0000E5D6E000E5C6EC10E5C24F7
:103ADE00D96E020E5D20DA6E740E5C24E16E000E5D
:103AEE005D20E26EDFCFE7FF5C4A5D2A5DBEEED75A
:103AFE005D5004E1140E5C5CD8A0E8D7D5C220F06E
:103B0E00D6C21FF0D7C257F0F00E57161E500F0B2D
:103B1E0057101E6E7ED743EC11F06CEC05F0DAD028
:103B2E008EEC07F0D7D042EC0AF0D4D0C1C235F0FB
:103B3E00C2C236F0C3C237F0C4C238F0C5C231F0CB
:103B4E00C6C232F0C7C233F0C8C234F0C9C22EF0BA
:103B5E00CAC22DF0CB51CCC257F0586A57C058F09C
:103B6E00576A5710116E5850126E3FEC08F07BECEE
:103B7E0009F04FD7BCEC06F08CEC0EF04AD7000ED5
:103B8E005D6E000E5C6E810E5C24D96E020E5D20A1
:103B9E00DA6E5C50400F62EC05F0DF6E5C4A5D2A17
:103BAE005DBEF1D75D5005E1400E5C5CD8B092D0A1
:103BBE00EAD790D0000E5D6E000E5C6EFF0E3C6E6E
:103BCE005C5051EC06F05C4A5D2A5DBEF7D75D5045
:103BDE0005E1200E5C5CD8B01CD7F0D71AD7F3ECF9
:103BEE0005F078D0440E5B6E000E5D6E010E5C6EBD
:103BFE00C00E5C24D96E020E5D20DA6EDF503C6E74
:103C0E005C50070F51EC06F0C00E5C24D96E020E0C
:103C1E005D20DA6EDF505B265C4A5D2A5DBEE8D71A
:103C2E005D5004E1090E5C5CD8A0E2D70201C951D7
:103C3E00576E586A5B50596E5A6AFF0E591A000E2B
:103C4E005A1A575059180AE158505A18D8A406D083
:103C5E005BC03CF0070E51EC06F0DBD678EC05F0BD
:103C6E0039D0C051D8A4FAD735D0C051010AD8B432
:103C7E00BBD6030AD8B4BBD6010AD8B4BBD6070A42
:103C8E00D8B4BBD6010AD8B475D7030AD8B477D73F
:103C9E00010AD8B48FD70E0AD8B4A1D7890AD8B4DE
:103CAE00BBD6010AD8B4BCD6030AD8B4E4D6010AEE
:103CBE00D8B408D7070AD8B42ED7010AD8B430D74B
:103CCE00030AD8B430D7010AD8B430D71F0AD8B4F3
:103CDE0089D7C7D70001B451B511D8B406D0B4C036
:103CEE00D9FFB5C0DAFFDFBE0FD0010E3C6E800EDD
:103CFE003D6E020E3E6E400E3F6E020E03EC0FF056
:103D0E003CC0B4F03DC0B5F0000E0001D26F000E05
:103D1E003C6EC00E3D6E020E3E6E400E3F6E020EAB
:103D2E0003EC0FF03CC0B2F03DC0B3F0120000F750
:103D3E003FB83DB53FFB3FED3F993F523E943ED6D7
:103D4E003E183F5A3F05010904A101A102750895CD
:103D5E0005150026FF00350046FF00093009300921
:103D6E0030093009318102750495012507463B0162
:103D7E0065140900814265007501950A250145010A
:103D8E0005091901290A81020600FF7501950A2508
:103D9E0001450109018102C0A1027508950446FF83
:103DAE000026FF0009029102C0C050034D004900D9
:103DBE0043004F004D0053004F00460054002000BA
:103DCE0044004500500054002E002C0020004400FA
:103DDE0045004D00500041002000500055004200AB
:103DEE004C00490043004100540049004F004E0072
:103DFE00200049004E0043002E0005010905A101D7
:103E0E0015002501350045017501950D05091901AE
:103E1E00290D81029503810105012507463B017598
:103E2E0004950165140939814265009501810126C9
:103E3E00FF0046FF00093009310932093575089532
:103E4E00048102C009024200020100A032090400EE
:103E5E00000103000000092111010001224A0007A0
:103E6E000581034000080904010002030000000957
:103E7E002111010001221D000705820340000107E8
:103E8E0005020340000109024200020100A03209AE
:103E9E000400000103000000092111010001224A63
:103EAE00000705810340000409040100020300001D
:103EBE0000092111010001221D00070582034000A7
:103ECE00010705020340000109024200020100A0A1
:103EDE003209040000010300000009211101000154
:103EEE00224A000705810340000209040100020373
:103EFE00000000092111010001221D0007058203A7
:103F0E0040000107050203400001090242000201C0
:103F1E0000A0320904000001030000000921110174
:103F2E000001224A00070581034000010904010037
:103F3E000203000000092111010001221D000705E6
:103F4E00820340000107050203400001090222001E
:103F5E00010100A032090400000103000000092144
:103F6E00110100012265000705810340000A0600C9
:103F7E00FF0901A10119012940150026FF0075084E
:103F8E0095408100190129409100C01C0336004262
:103F9E0000200063006F006E00740072006F006CF2
:103FAE00006C00650072001403580045003100419A
:103FBE00004A002D0055005300420012010002007D
:103FCE00000008A7170500010001020301120100FD
:103FDE000200000008A30C24000001010203010AE4
:103FEE00035300450047004100040309040403097C
:023FFE000400BD
:020000040020DA
:08000000FFFFFFFFFFFFFFFF00
:020000040030CA
:0E00000000120314FF0089FF03C003E0034059
:00000001FF
