:020000040000FA
:0408000007EF04F00A
:0A0808005E825E921100D4EF06F04C
:0208160040019F
:100CC400010E2E6E1200406E40C03DF0600E73ECBB
:100CD40007F012003D6E3DC0A9FFA69EA69CA6800B
:100CE400A6B0FED7A85012004F0E0201816F4B0E22
:100CF400826F000E3E6E030E3D6E2AEC07F012006A
:100D0400450E0201816F520E826F520E836F000EE8
:100D14003E6E040E3D6E2AEC07F01200C00E000178
:100D2400986F020E996F000E9D6F080E9C6FC40E93
:100D34009E6F0C0E9F6F9B8F1200010E0001A62761
:100D4400000EA723A823A9231C50D8A41200132AF9
:100D54001350D8A4120013681200000E94EC08F08B
:100D6400ABEC13F069EC12F003EC13F0200E3060DE
:100D740001D0FAD764B2F8D738EC1CF0F5D73D505F
:100D84003F02F3CF41F0F4CF42F03D504002F35024
:100D940042263E503F02F350422641C03DF042C03D
:100DA4003EF0120000EE60F08F0EEE6AE806FDE100
:100DB40000EE01F03C0EEE6AE806FDE15E905E9204
:100DC400000EF86E0001AFEF06F03DC043F03EC0E8
:100DD40044F008D043C0D9FF44C0DAFF3FC0DFFF6E
:100DE400434A442A4106D8A042064128F3E1422856
:100DF400D8B41200EFD7608462986482010E1C6E2E
:100E0400000E136E000E4A6E750E496E000E4B6E88
:100E1400000E4C6E000E4E6E000E4D6E2DEC0AF060
:100E24001200F29CF29E8068000E816E000E826EAB
:100E34008968000E8A6E000E8B6E000E7E6E000EA8
:100E44007F6EF00E936E0F0E946E0EEF00F0120094
:100E54003DC03FF03EC040F040BE06D040500FE1E0
:100E6400170E3F5CD8B01200800E3F24D96E020EDC
:100E74004020DA6E000EDF6E3F4A402AEDD71200A2
:100E84003DC03FF03EC040F040BE06D040500FE1B0
:100E9400400E3F5CD8B01200800E3F24D96E020E83
:100EA4004020DA6E000EDF6E3F4A402AEDD7120072
:100EB400000E1C6E000E4A6E740E496E000E4B6ED0
:100EC400000E4C6E000E4E6E000E4D6E2DEC0AF0B0
:100ED4006492609401D0629462B4FDD7000E136EE4
:100EE40012003E6E3EC0A9FF3DC0A8FFA69EA69C70
:100EF400A684000EF2BE010E3F6EF29E550EA76E42
:100F0400AA0EA76EA6823F50D8A4F28EA1A8FED73F
:100F1400A198A6941200D00E9318D8A40BD048C060
:100F24003DF049C03EF0A3EC10F03DC048F03EC097
:100F340049F0120048C03DF049C03EF016EC10F0F4
:100F44003DC048F03EC049F01200486E45A405D0AB
:100F5400000E3D6E485076EC0BF045A205D0010E14
:100F64003D6E485076EC0BF0530E4824466E476AAB
:100F74000F0E472246C0D9FF47C0DAFF45C0DFFF46
:100F84001200A10E3D6E000E73EC07F02AC03DF076
:100F9400010E73EC07F029C03DF0020E73EC07F06C
:100FA40028C03DF0030E73EC07F027C03DF0040E9B
:100FB40073EC07F026C03DF0050E73EC07F0120049
:100FC4003FC045F040C046F03DC043F03EC044F051
:100FD40010D045C0D9FF46C0DAFFDF50476E454AFE
:100FE400462A43C0D9FF44C0DAFF47C0DFFF434A63
:100FF400442A4106D8A042064128EBE14228D8B44D
:101004001200E7D70F0153A11DD00FC0D9FF10C0A4
:10101400DAFF800EDE18D8A414D007C0D9FF08C0A8
:10102400DAFF840EDE18D8A40CD00FC0D9FF10C08C
:10103400DAFF0C0EDF6E0FC0D9FF10C0DAFF000E0E
:10104400DB8E5391629A120027C081F226C082F28D
:101054002AC083F229C084F228C085F22FC086F208
:1010640035C087F236C088F237C089F238C08AF2B8
:1010740031C08BF232C08CF233C08DF234C08EF2A8
:10108400000E3E6E0F0E3D6E2AEC07F012002C503F
:101094002D18D8A41FD0000E2D6EAD0E0001C6254C
:1010A400C66F020EC721C76F810EC65D3E0EC759BB
:1010B400D8A007D0800EC625C66FC10EC721C76F42
:1010C40012002B50D8A403D0010E2B6E1200000E78
:1010D4002B6E12002D2A1200000E0201816F000EE9
:1010E400826F020E816F010E826F160EF66E080E6D
:1010F400F76E0800F5CF83F2160EF66E080EF76E43
:101104000900F5CF41F00900F5CF42F042C041F0AB
:10111400426A4150846F000E3E6E050E3D6E2AEC0D
:1011240007F012003D6E1DD0000E816E000E826E1F
:10113400000E8A6E000E8B6E000E7E6E000E7F6EA9
:10114400F00E936E0F0E946E0F0E946EF19EF00ED1
:10115400786E81BC03D0D00E936E1200B00E936EE5
:1011640012003D50000AD8B4DFD7010AD8B41200E7
:10117400030A120035C03DF0610E73EC07F036C06F
:101184003DF0620E73EC07F037C03DF0630E73EC74
:1011940007F038C03DF0640E73EC07F031C03DF049
:1011A400650E73EC07F032C03DF0660E73EC07F089
:1011B40033C03DF0670E73EC07F034C03DF0680EA9
:1011C40073EC07F01200000E426E000E416E880EA2
:1011D4004124D96E000E4220DA6E810E4124E16E64
:1011E400020E4220E26EDFCFE7FF414A422A42BEAE
:1011F400EED7425004E1100E415CD8A0E8D720C0DD
:1012040091F211C092F212500201936F000E3E6EE1
:10121400140E3D6E2AEC07F01200010E2C6E2F0402
:10122400D8A402D00F0E2C6E020E2F18D8A402D010
:10123400070E2C6E030E2F18D8A402D0030E2C6EAA
:1012440036503510FF0A0001BA6F37503810FF0AC4
:10125400BB6F32503110FF0AB86F33503410FF0A9D
:10126400B96F000EC76F000EC66F000E2D6E000E14
:101274002B6E12003E6E400E3E600CD0400E3D6060
:1012840002D0070E21D0C00E3D6402D0050E1CD042
:10129400060E1AD0C00E3E640CD0400E3D6002D043
:1012A400010E12D0C00E3D6402D0030E0DD0020E0A
:1012B4000BD0400E3D6002D0000E06D0C00E3D643F
:1012C40002D0040E01D0080E3F6E3F501200160EDD
:1012D4000001CA6F030ECB6F530ECC6F000ECD6F9F
:1012E4004E0ECE6F000ECF6F2D0ED06F000ED16F4D
:1012F4002D0ED26F000ED36F2D0ED46F000ED56F4E
:101304002D0ED66F000ED76F2D0ED86F000ED96F2D
:101314002D0EDA6F000EDB6F2D0EDC6F000EDD6F0D
:101324002D0EDE6F000EDF6F1200020E1E18D8A401
:1013340003D038EC11F01200000E1E6E1A50D8A41F
:101344001FD020EE01F00D50D9260E50DA22080EDF
:10135400DF6E20EE02F00D50D9260E50DA22300E48
:10136400DE6E020EDD6E0DC0D9FF0EC0DAFF0C0E6C
:10137400DF6E0DC0D9FF0EC0DAFF000EDB8E120047
:10138400000E1A6E1200000E0001B66F000EB76F49
:10139400000EB46F000EB56F000EB26F000EB36F87
:1013A400000E2E6E000E3E6E000E3D6E42EC07F0F7
:1013B4001A0E456E010EA7EC07F082BE12001E0E37
:1013C400456E020EA7EC07F0000E3D6EC00E3E6E99
:1013D400020E3F6E400E406E020E95EC0FF03DC0C3
:1013E400B2F03EC0B3F01200200E3E6E000E3D6E11
:1013F4002A5080083F6E000ED8A0E82A0008406EEC
:10140400A3EC0AF03DC0C0F03EC0C1F0200E3E6E19
:10141400000E3D6E295080083F6E000ED8A0E82AC9
:101424000008406EA3EC0AF03DC0BEF03EC0BFF021
:10143400200E3E6E000E3D6E285080083F6E000E5A
:10144400D8A0E82A0008406EA3EC0AF03DC0BCF026
:101454003EC0BDF0120010D000F01200010E94EC5A
:1014640008F01200020E94EC08F01200C5EC09F02A
:10147400120084EC17F0120049C04FF04AC050F03B
:101484005050000AD8B404D07F0AD8A412001AD04D
:101494004F50010AD8B4EAD7030AD8B41200010A9B
:1014A400D8B4E7D7060AD8B41200770AD8B4D4D788
:1014B400010AD8B41200070AD8B4D4D7010AD8A4B0
:1014C4001200CCD74F50FF0A1200C4C081F2000EA4
:1014D4003E6E000E3D6EE00E3D24D96E000E3E20A1
:1014E400DA6E820E3D24E16E020E3E20E26EDFCF04
:1014F400E7FF3D4A3E2A3EBEEED73E5004E10D0EC4
:101504003D5CD8A0E8D7000E3E6E000E3D6E400E46
:101514003D24D96E020E3E20DA6E8F0E3D24E16E1C
:10152400020E3E20E26EDFCFE7FF3D4A3E2A3EBE7A
:10153400EED73E5005E1080E3D5CD8B01200E7D767
:101544001200000E426E40AE06D03F6C401ED8B072
:10155400402A010E426E3EAE06D03D6C3E1ED8B00F
:101564003E2A010E421A000E446E000E436E3F5096
:101574004010D8B41CD0010E416E04D0D8903F3630
:101584004036412A40AEFAD7D890433644363F50CD
:101594003D5C40503E58D8A005D03F503D5E405081
:1015A4003E5A4380D89040323F32412EEDD74250CC
:1015B400D8B404D0436C441ED8B0442A43C03DF090
:1015C40044C03EF01200000E1F6E000E186E000E96
:1015D400156E000E146E000E1A6E000E1E6E07C0FD
:1015E400D9FF08C0DAFF7F0EDF16040E0718076E56
:1015F4000850086E07C0D9FF08C0DAFF7F0EDF1657
:10160400040E0718076E0850086E0DC0D9FF0EC0EF
:10161400DAFF7F0EDF16000E046E000E066E000E5B
:10162400056E000E00019B6F000E9D6F000E9C6FF7
:101634000AEC0DF0000E4A6E030E496E000E4B6E5E
:10164400000E4C6E000E4E6E000E4D6E2DEC0AF028
:101654003AEC0EF01200000E426E000E416E740E53
:101664004124D96E000E4220DA6E810E4124E16ECF
:10167400020E4220E26EDFCFE7FF414A422A42BE19
:10168400EED7425004E1140E415CD8A0E8D7000E16
:10169400426E000E416E600E4124D96E000E42204F
:1016A400DA6E950E4124E16E020E4220E26EDFCF27
:1016B400E7FF414A422A42BEEED7425004E1140EEB
:1016C400415CD8A0E8D725C0A9F224C0AAF223C05F
:1016D400ABF222C0ACF221C0ADF2000E3E6E2E0E73
:1016E4003D6E2AEC07F01200426E000E436E020EAD
:1016F400446E3D503E6E3F6AD8903E363F3642506F
:10170400406E416AD89040364136D89040364136D2
:101714003E5040263F504122D89040364136D89022
:1017240040364136405043264150442243C0D9FFFD
:1017340044C0DAFFDF9E3D50D8A407D04250020DCA
:10174400A00EF324D96E000E06D04250020D070EEF
:10175400F324D96E000EF420DA6E43C0DEFF44C0D9
:10176400DDFF43C0D9FF44C0DAFFDF9C20EE04F064
:101774004350D9264450DA22DF8C1200000E156E35
:10178400000E146E020E1E18D8A41FD020EE01F015
:101794000D50D9260E50DA22080EDF6E20EE02F02C
:1017A4000D50D9260E50DA22380EDE6E020EDD6E92
:1017B4000DC0D9FF0EC0DAFF480EDF6E0DC0D9FF91
:1017C4000EC0DAFF000EDB8E120005500201365DFA
:1017D40006503759D8B004D036C205F037C206F0E7
:1017E4006CEC0DF020EE02F00750D9260850DA22F6
:1017F400380EDE6E020EDD6E07C0D9FF08C0DAFFB8
:10180400480EDF6E07C0D9FF08C0DAFF000EDB8E7A
:1018140012002D0E196E3AC058F0FD0E5816D8A4B9
:101824003BD03AC058F0D89058323F0E5816585012
:10183400040D000EF3240F6E020EF420106E0FC080
:101844000DF010C00EF0040E0D180D6E0E500E6E3D
:101854000FC0D9FF10C0DAFFDF30E8320F0B0D0ADA
:10186400D8A417D0300E3D6E020E3E6E20EE02F06C
:101874000F50D9261050DA22DECF3FF0DDCF40F0F2
:10188400000E426E080E416EE2EC07F0E5EC0AF041
:10189400120097EC09F012003A50FD0B040AD8A488
:1018A4001200AAEC0EF01200000E0201386F000EB6
:1018B400396F38D0048E1D04D8A43FD038833DD06E
:1018C400048E3BD0048E34510F0B0009D8B435D0AC
:1018D40034BF0AD034510F0B3D6E3D50020DA00EA3
:1018E400F324D96E000E09D034510F0B3D6E3D50D8
:1018F400020D070EF324D96E000EF420DA6EDECF4B
:101904003EF0DDCF3FF03EC0D9FF3FC0DAFFDFAE8F
:1019140014D03EC0D9FF3FC0DAFFDFA40ED0010EC1
:10192400386F0BD030511F0B000AD8B4C3D7010A4B
:10193400D8B4C6D7030AD8B4C5D704AE1200380E3B
:10194400016E020E026E0480020E056E1200175024
:10195400D8A41200010E176E1650D8A41200010E5E
:10196400166E020E1E18D8A415D020EE01F00750F2
:10197400D9260850DA22000EDF6E07C0D9FF08C04E
:10198400DAFF480EDF6E07C0D9FF08C0DAFF000E89
:10199400DB8E12001E04D8A41200000E1A6E20EE74
:1019A40001F00F50D9261050DA22080EDF6E20EE17
:1019B40002F00F50D9261050DA22300EDE6E020EDD
:1019C400DD6E0FC0D9FF10C0DAFF040EDF6E0FC04A
:1019D400D9FF10C0DAFF000EDB8E010E1A6E20EE66
:1019E40001F00D50D9260E50DA22080EDF6E20EEDB
:1019F40002F00D50D9260E50DA22300EDE6E020EA1
:101A0400DD6E0DC0D9FF0EC0DAFF800EDF6E12004E
:101A140002013039E832030B0009D8A4120039D08E
:101A2400048E080E306E1200A4EC16F01200D2ECF4
:101A34000DF012003C0E016E000E026E0480010EC9
:101A4400056E048E120056EC0CF01200A4EC19F092
:101A540012003B0E3425016E026A000E0222EED7FC
:101A6400048E3B0E3425D96EDA6A000EDA2232C2B5
:101A7400DFFF1200000E4A6E020E496E000E4B6E1E
:101A8400000E4C6E000E4E6E000E4D6E2DEC0AF0E4
:101A940012003151000AD8B4D6D7010AD8B4D6D727
:101AA400020AD8B4D3D7060AD8B4BAD7030AD8B42A
:101AB400BBD7010AD8B4DED70F0AD8B4BBD7010A02
:101AC400D8B4B5D7030AD8B4C4D7010AD8B4C8D790
:101AD400070A1200080E3D6E065010E1080E055C60
:101AE400D8B00CD005C03DF01F50D8A402D0010ED0
:101AF40004D01F04D8A402D0020E1F6E3D50055E10
:101B0400000E065A20EE01F00750D9260850DA22BA
:101B14003DC0DFFF380E0001B06F020EB16F04A0AC
:101B24001CD03AD001C0F6FF02C0F7FFF86AB0C07B
:101B3400D9FFB1C0DAFF020EF76403D00800F550F4
:101B440005D0F6CFE1FFF7CFE2FFE750DF6E014AA1
:101B5400022A0001B04BB12B3D063D50D8B412000F
:101B6400E1D701C0F6FF02C0F7FFF86AB0C0D9FFA1
:101B7400B1C0DAFF020EF76403D00800F55005D0B7
:101B8400F6CFE1FFF7CFE2FFE750DF6E014A022A0A
:101B94000001B04BB12B3D063D50D8B41200E1D743
:101BA400048E540E3D6E0F0E3E6E000E406E000EFF
:101BB4003F6E000E426E020E416EE7EC06F0000E20
:101BC4003D6E020E3E6E000E406E000E3F6E000E25
:101BD400426E300E416EE7EC06F0648C000E516EDE
:101BE400AD0E5124D96EDA6A000EDA22000EDF6ED1
:101BF400AA0E5124D96EDA6A000EDA22000EDF6EC4
:101C0400512A020E5164ECD73B0E3D6E000E3E6E1F
:101C1400000E406E000E3F6E000E426E010E416ECD
:101C2400E7EC06F0649C080E076E020E086E000EC8
:101C34000F6E020E106E0FC00DF010C00EF032C207
:101C44003CF03C50D8A403D0100E306E1200200E8D
:101C5400306E000E4A6E010E496E3C0E4B6E000E45
:101C64004C6E000E4E6E010E4D6E2DEC0AF01200FD
:101C7400649804BE39D000019BAF0BD0020E1E6ED7
:101C84001450D8B4C0EC0BF0000E166E000E176E94
:101C9400120020EE01F00D50D9260E50DA22080E63
:101CA400DF6E20EE02F00D50D9260E50DA22300EEF
:101CB400DE6E020EDD6E0DC0D9FF0EC0DAFF0C0E13
:101CC400DF6E0DC0D9FF0EC0DAFF000EDB8E07C039
:101CD400D9FF08C0DAFF040EDF6E07C0D9FF08C0C1
:101CE400DAFF000EDB8E1200020130AF10D0010EBD
:101CF4001E6E1550D8B4C0EC0BF0000E166E000E1C
:101D0400176E1850D8A41200A9EC0CF01200020EA1
:101D14001E6E20EE01F00D50D9260E50DA22080E68
:101D2400DF6E20EE02F00D50D9260E50DA22300E6E
:101D3400DE6E020EDD6E0DC0D9FF0EC0DAFF040E9A
:101D4400DF6E0DC0D9FF0EC0DAFF000EDB8ED5D7D3
:101D540007C0D9FF08C0DAFF000EDFBC010E3E6EDB
:101D6400040E0718076E0850086E080E3018D8A421
:101D74000CD0020132517F0B0F015C6F5C51D8B45F
:101D840002D0100E01D0040E306E1E04D8A43AD036
:101D940020EE02F00750D9260850DA22380EDE6E03
:101DA400020EDD6E6CEC0DF0020E1F18D8A40DD0DF
:101DB40007C0D9FF08C0DAFF040EDF6E07C0D9FFE1
:101DC40008C0DAFF000EDB8E12003E50D8A40DD0FE
:101DD40007C0D9FF08C0DAFF480EDF6E07C0D9FF7D
:101DE40008C0DAFF000EDB8E120007C0D9FF08C05E
:101DF400DAFF080EDF6E07C0D9FF08C0DAFF000E55
:101E0400DB8E120000019BAF14D09E519F11D8B4F9
:101E14000ED020EE9EF001D80AD00500FA6EDE50F6
:101E2400FD6EDE50FE6EF850FF6EFA501200000197
:101E34009B9F000E1E6E1200000E416E000E406E3F
:101E4400740E4024D96E000E4120DA6EDF503D6ED0
:101E54004050200F73EC07F0404A412A41BEF0D7AE
:101E6400415004E1140E405CD8A0EAD7000E416E44
:101E7400000E406E600E4024D96E000E4120DA6ED2
:101E8400DF503D6E4050340F73EC07F0404A412A56
:101E940041BEF0D7415004E1140E405CD8A0EAD70B
:101EA400000E416E000E406E880E4024D96E000E66
:101EB4004120DA6EDF503D6E4050480F73EC07F05E
:101EC400404A412A41BEF0D7415004E1100E405C23
:101ED400D8A0EAD725C03DF0580E73EC07F024C013
:101EE4003DF0590E73EC07F020C03DF05A0E73EC30
:101EF40007F023C03DF05B0E73EC07F022C03DF009
:101F04005C0E73EC07F021C03DF05D0E73EC07F03E
:101F140011C03DF05E0E73EC07F012503D6E5F0E83
:101F240073EC07F01200456E3D50D8B407D045500D
:101F3400020D070EF324D96E000E06D04550020D93
:101F4400A00EF324D96E000EF420DA6EDECF46F034
:101F5400DDCF47F046504710D8A405D0000E3D6EA3
:101F6400000E3E6E120020EE02F04650D926475075
:101F7400DA223EC0DEFF3FC0DDFF20EE01F0465016
:101F8400D9264750DA2240C0DFFF46C0D9FF47C0F8
:101F9400DAFF400EDF1646C0D9FF47C0DAFF000E55
:101FA400DB8646C0D9FF47C0DAFF000EDB8E3D500A
:101FB400D8B418D04550020D070EF324D96E000E84
:101FC400F420DA6EDECF41F0DDCF42F0040E41188A
:101FD400436E4250446E4550020D070EF324D96EF1
:101FE400000E17D04550020DA00EF324D96E000E3A
:101FF400F420DA6EDECF41F0DDCF42F0040E41185A
:10200400436E4250446E4550020DA00EF324D96E27
:10201400000EF420DA6E43C0DEFF44C0DDFF46C08C
:102024003DF047C03EF01200818C3DC044F03EC0FC
:1020340045F0140EE82EFED782CF3FF00F0E3F1668
:102044008150300B3F1044C0D9FF45C0DAFFDF6E2A
:10205400444A452A819C140EE82EFED782CF3FF0D5
:102064000F0E3F168150300B3F1044C0D9FF45C0BE
:10207400DAFFDF6E444A452A818C000E436E000E5F
:10208400426E000E416E000E406E81B802D0010E09
:1020940001D0000E3F6E81BA02D0010E01D0000EB5
:1020A4003F14E8B00DD0C80E40184110D8A405D094
:1020B400000E3E6E010E3D6E1200404A412AE5D7E5
:1020C40082500F0B44C0D9FF45C0DAFFDF6E444A8B
:1020D400452A050E42184310D8A405D0000E3E6EC2
:1020E400000E3D6E1200000E416E000E406E81A87F
:1020F40002D0010E01D0000E3F6E81BA02D0010E53
:1021040001D0000E3F14E8B008D0C80E40184110AA
:10211400D8B4CED7404A412AEAD782500F0B44C0E4
:10212400D9FF45C0DAFFDF6E444A452A424A432AB2
:1021340043BEA7D74350BCE1060E425CD8B0B8D723
:10214400A0D7818A3DC046F03EC047F0140EE82E69
:10215400FED782CF3FF00F0E3F168150300B3F1059
:10216400416E819A140EE82EFED782CF3FF00F0EF7
:102174003F168150300B3F10406E46C0D9FF47C018
:10218400DAFF40C0DFFF464A472A46C0D9FF47C0AE
:10219400DAFF41C0DFFF464A472A818A000E456EB6
:1021A400000E446E000E436E000E426E81B802D0E3
:1021B400010E01D0000E3F6E81BE02D0010E01D08F
:1021C400000E3F14E8B00DD0C80E42184310D8A436
:1021D40005D0000E3E6E010E3D6E1200424A432AA7
:1021E400E5D782500F0B416E000E436E000E426E17
:1021F40081A802D0010E01D0000E3F6E81BE02D034
:10220400010E01D0000E3F14E8B008D0C80E4218E9
:102214004310D8B4DED7424A432AEAD782500F0B80
:10222400406E46C0D9FF47C0DAFF40C0DFFF464AD0
:10223400472A46C0D9FF47C0DAFF41C0DFFF464AFC
:10224400472A050E44184510D8A405D0000E3E6E4A
:10225400000E3D6E1200444A452A45BEA3D74550A0
:10226400B8E1060E445CD8B0B4D79CD720EE01F098
:102274000F50D9261050DA22DF503E6E3E50000136
:102284009C5D000E9D59D8A09CC03EF03E509C5FC2
:10229400000E9D5B000E3D6E0FD0380E3D24D96EAE
:1022A400DA6A020EDA2298C0E1FF99C0E2FFDFCFBA
:1022B400E7FF984B992B3D2A3E503D5CD8A0EDD7C3
:1022C4009C519D11D8B432D020EE01F00D50D92686
:1022D4000E50DA22080EDF6E20EE02F00D50D926E1
:1022E4000E50DA22380EDE6E020EDD6E0FC0D9FFFC
:1022F40010C0DAFFDFBC0DD00DC0D9FF0EC0DAFF6D
:10230400480EDF6E0DC0D9FF0EC0DAFF000EDB8E63
:1023140012000DC0D9FF0EC0DAFF080EDF6E0DC02B
:10232400D9FF0EC0DAFF000EDB8E120020EE01F0A2
:102334000D50D9260E50DA22080EDF6E20EE02F080
:102344000D50D9260E50DA22300EDE6E020EDD6EEE
:102354000DC0D9FF0EC0DAFF040EDF6E0DC0D9FF29
:102364000EC0DAFF000EDB8E9E519F11D8B40ED042
:1023740020EE9EF001D80AD00500FA6EDE50FD6E04
:10238400DE50FE6EF850FF6EFA50120000019B9F63
:102394001850D8A41200A9EC0CF01200000E2A6EFA
:1023A400000E296E000E286E020E276E020E266E97
:1023B400C3EC07F0000E426E740E4224D96EDA6A42
:1023C400000EDA22000EDF6E422A130E4264F4D7A6
:1023D400000E426E600E4224D96EDA6A000EDA22D2
:1023E400000EDF6E422A130E4264F4D7000E426ED2
:1023F400880E4224D96EDA6A000EDA22000EDF6EED
:10240400422A0F0E4264F4D7400E0001886F200E5A
:102414008A6F020E8D6F800E8E6F100E906F010EFC
:10242400936F200E956F100E976F400E606F200E05
:10243400626F020E656F800E666F100E686F010E7C
:102444006B6F200E6D6F100E6F6F400E706F200E4D
:10245400726F010E746F020E766F040E786F080EA1
:102464007A6F100E7C6F200E7E6F800E806F400E90
:10247400826F010E846F020E866F030E256E020EAC
:10248400246E030E206E030E236E060E226E440E7F
:10249400216E010E126E900E116E1EEC0FF0010EE5
:1024A4002F6E010E65EC06F0000E356E000E366ED2
:1024B400000E376E000E386E000E316E000E326E56
:1024C400000E336E000E346EBCEC08F01200A094C3
:1024D400000E0F015F6F000E626E000E536F540EFC
:1024E4003D6E0F0E3E6E000E406E000E3F6E000EEF
:1024F400426E020E416EE7EC06F0160E616E9F0E00
:102504000F015B6F7B0E606E000E456E4550040D2F
:10251400000EF324D96E020EF420DA6EDE6ADE6A4F
:10252400DE6ADD6A452A0B0E4564F0D7648C000E22
:102534000F015C6F6498649C6296000E046E000E3A
:1025440000019B6F000E9D6F000E9C6F62B6F4D766
:10255400010E176E010E166E000E156E000E146E2F
:10256400000E1C6E000E456E4550020D070EF3243E
:10257400D96E000EF420DA6E000EDE6E000EDD6EF3
:102584004550020DA00EF324D96E000EF420DA6E2D
:10259400000EDE6E000EDD6EAD0E4524D96EDA6AD5
:1025A400000EDA22000EDF6EAA0E4524D96EDA6A16
:1025B400000EDA22000EDF6E452A020E4564D4D7DF
:1025C400080E076E020E086E160E0F01536F020EF0
:1025D4000201036F300E026F080E016F040E006FCC
:1025E400008F000E3C6E000E0001A66F000EA76F58
:1025F400000EA86F000EA96F000E136E000E306E51
:1026040012003050D8A411D0000E646E000E606E1B
:10261400160E616E9F0E0F015B6F7B0E606E01D014
:10262400648664A6FDD7010E306E3004D8B464BA53
:1026340008D0000E626E000E606E60806088020E2C
:10264400306E62B460A403D062945AEC07F064A2C2
:1026540002D0A194120062B060A005D069EC12F01F
:10266400040E306E629062B860A802D0FDEC06F0F1
:1026740062AC1AD060AC0ED0000E4A6E730E496E76
:10268400000E4B6E000E4C6E000E4E6E010E4D6E23
:102694002DEC0AF0629C9FEC06F01950D8A41906A0
:1026A4001950D8B4A9EC0CF062BA60AA02D004ECB8
:1026B40008F062B260A210D07F0E4A6E4968000E24
:1026C4004B6E000E4C6E000E4E6E010E4D6E2DECD8
:1026D4000AF0000E0F015F6F040E306002D0A19467
:1026E400120060A634D0000E596E62A630D063CFBB
:1026F4003AF03A30E832E8320F0B1B6E62963AB485
:1027040006D0AA0E1B24D96EDA6A000E05D0AD0ECF
:102714001B24D96EDA6A000EDA220001DF701B5026
:10272400D8A403D00BEC0CF00ED0000E4A6E720E3F
:10273400496E3A0E4B6E000E4C6E000E4E6E000E3D
:102744004D6E2DEC0AF0592A030E5964CED7A1948C
:102754001200829E000E4E6E000E0001C36F000E2A
:10276400C26F000EC96F000EC86F3D0E4D6EE10EB4
:102774004C6E400EE82EFED74C2EFCD74D2EFAD7C9
:10278400D00E9318D8B439D0E00E3D6E000E3E6ED4
:1027940016EC10F01F0E4D6E710E4C6E1E0EE82ED0
:1027A400FED74C2EFCD74D2EFAD700D0E00E3D6E4E
:1027B400000E3E6E16EC10F03D043E10D8A40CD072
:1027C4000001E1A9828EE1BB02D0010E4E6EE0B59C
:1027D40043D013EC07F040D00001EC510A0B0A0A75
:1027E400D8A4828EECB102D0010E4E6EECB502D0AC
:1027F400010E4E6EE2A3EDD72FD0E00E3D6E000E1B
:102804003E6EA3EC10F01F0E4D6E710E4C6E1E0E3C
:10281400E82EFED74C2EFCD74D2EFAD700D0E00E72
:102824003D6E000E3E6EA3EC10F03D043E10D8A4A5
:102834000DD0828E818AF00E00D0E82EFDD781B8AB
:1028440002D0010E4E6E81AEC4D706D0000E000138
:10285400C36F010EC26FC6D769EC09F0000E6CECB1
:1028640006F0A10AD8B402D0010E01D0000E4C6EBD
:102874004D6A4E504C12000E4D124C504D10D8B4AF
:102884000ED0000E2A6E000E296E000E286E020E67
:10289400276E020E266EC3EC07F0D0EC11F00DEC9F
:1028A40015F082AE02D0040E2F6EF6EC09F00FEC98
:1028B40009F01200506E5050476E486A4350496EFA
:1028C4004A6A800E4926000E4A224750495C4A5003
:1028D400800A4B6E4850800A4B58D8A017D0800EFF
:1028E400476E000E486E4350475E000E485A5050E3
:1028F400496E4A6A4750495C4A50800A4B6E4850B8
:10290400800A4B58D8A002D0800E1200800E50606E
:102914003CD0505043C047F0486A471E481E474ABF
:10292400482A475E000E485A800E47244C6E000E1B
:1029340048204D6E44C03DF03E6A4CC03FF04DC04F
:1029440040F0C1EC06F03DC04EF03EC04FF04EC02A
:102954003DF04FC03EF045C03FF046C040F0C1ECF2
:1029640006F03DC051F03EC052F0400E525CD8A07B
:1029740004D0400E526E000E516E51500008516E3C
:102984005250D8A0E82A4008526E800E506436D0C7
:10299400435050C047F0486A475E000E485A810EC3
:1029A40047244C6EFF0E48204D6E44C03DF03E6AF5
:1029B4004CC03FF04DC040F0C1EC06F03DC04EF0BD
:1029C4003EC04FF04EC03DF04FC03EF045C03FF01A
:1029D40046C040F0C1EC06F03DC051F03EC052F09C
:1029E400400E525CD8A004D0400E526E000E516EC0
:1029F400FF0E5124516E3F0E5220526E51C047F0CB
:102A040052C048F0070E496ED89048324732492EDA
:102A1400FBD747501200010E6CEC06F02A6E020E32
:102A24006CEC06F0296E030E6CEC06F0286E040EB6
:102A34006CEC06F0276E050E6CEC06F0266E000EAC
:102A44004B6E740E4B24D96EDA6A000EDA224B50A8
:102A5400200F6CEC06F0DF6E4B2A130E4B64F1D79B
:102A6400000E4B6E600E4B24D96EDA6A000EDA2229
:102A74004B50340F6CEC06F0DF6E4B2A130E4B6494
:102A8400F1D7000E4B6E880E4B24D96EDA6A000E15
:102A9400DA224B50480F6CEC06F0DF6E4B2A0F0E17
:102AA4004B64F1D7580E6CEC06F0256E590E6CECA5
:102AB40006F0246E5A0E6CEC06F0206E5B0E6CEC85
:102AC40006F0236E5C0E6CEC06F0226E5D0E6CEC70
:102AD40006F0216E5F0E6CEC06F03E6E3E50406ECA
:102AE4003F6A5E0E6CEC06F0416E41503F10116E71
:102AF4004050126E600E6CEC06F02F6E610E6CECA2
:102B040006F0356E620E6CEC06F0366E630E6CECFD
:102B140006F0376E640E6CEC06F0386E650E6CECE5
:102B240006F0316E660E6CEC06F0326E670E6CECDD
:102B340006F0336E680E6CEC06F0346E440E4A6E8A
:102B4400000E4B6E420E4B24D96EDA6A000EDA2266
:102B54004B50080F6CEC06F0DF6E420E4B24D96E1E
:102B6400DA6A000EDA22DF504A264B2A070E4B643B
:102B7400E9D7070E6CEC06F04A18D8A4120042C03C
:102B8400D0F043C0D2F044C0D4F045C0D6F046C023
:102B9400D8F047C0DAF048C0DCF049C0DEF01200DB
:102BA400010E3D6E819AF00E00D0E82EFDD7818A89
:102BB400F00E00D0E82EFDD7819AF00E00D0E82E5A
:102BC400FDD781B808D000018851020145130001E6
:102BD40089510201461381BE02D0000E3D6E818AE6
:102BE400F00E00D0E82EFDD782B008D0410E20248C
:102BF400D96EDA6A020EDA22000EDF6E82B208D0D3
:102C0400410E2024D96EDA6A020EDA22FF0EDF6E3C
:102C140082B408D0400E2024D96EDA6A020EDA2279
:102C2400000EDF6E82B608D0400E2024D96EDA6A18
:102C3400020EDA22FF0EDF6E81B808D000018A513D
:102C44000201451300018B510201461381BE08D0D5
:102C540000018C510201451300018D5102014613FC
:102C6400819AF00E00D0E82EFDD782A082B23ED029
:102C7400818AF00E00D0E82EFDD782B008D0000182
:102C8400925102014513000193510201461382B28D
:102C940008D0000190510201451300019151020135
:102CA400461382B408D000018E510201451300017D
:102CB4008F510201461382B608D0000196510201D9
:102CC400451300019751020146133D50D8A408D082
:102CD400000194510201451300019551020146136C
:102CE400819AF00E00D0E82EFDD72AD011500001B1
:102CF400C81904E11250C919D8B418D03D50D8A449
:102D040010D094510201451300019551020146135C
:102D1400112803E11228D8B413D00001C84BC92BE1
:102D24000FD0000EC96F000EC86F0AD03D50D8A452
:102D3400F8D7965102014513000197510201461339
:102D4400818A1200800E02013019D8A41200C00E2C
:102D5400046ECDD082AE09D0DB0E016E3F0E026E42
:102D6400000E066E120E056E1200C90E016E3F0EA5
:102D7400F6D73251D8A47CD082AE07D03251020D9E
:102D8400510EF324F66E3D0E3CD03251020D4F0E1F
:102D9400F324F66E3D0EF420F76E0900F5CF01F032
:102DA4000A00F5CF02F0020E2F18D8A40ED032512B
:102DB400020D4D0EF324F66E3D0EF420F76E09005D
:102DC400F5CF01F00A00F5CF02F0030E2F18D8A4B6
:102DD4000ED03251020D4B0EF324F66E3D0EF4204C
:102DE400F76E0900F5CF01F00A00F5CF02F0040EEA
:102DF4002F18D8A40ED03251020D490EF324F66ECA
:102E04003D0EF420F76E0900F5CF01F00A00F5CF6E
:102E140002F0020E01243D6E000E02203E6E3DC003
:102E2400F6FF3EC0F7FFF86A020EF76403D008000D
:102E3400F55005D0F6CFE1FFF7CFE2FFE750056E7E
:102E4400030E01243D6E000E02203E6E3DC0F6FFCF
:102E54003EC0F7FFF86A020EF76403D00800F5508D
:102E640005D0F6CFE1FFF7CFE2FFE750066E120080
:102E7400000E046E1200030E32612CD082AE07D015
:102E84003251020D430EF324F66E3D0E06D032513C
:102E9400020D3D0EF324F66E3D0EF420F76E09008C
:102EA400F5CF01F00A00F5CF02F001C0F6FF02C031
:102EB400F7FFF86A020EF76403D00800F55005D056
:102EC400F6CFE1FFF7CFE2FFE7503D6E3D50056ED0
:102ED400066A1200030E3219D8A4CAD70480CA0E97
:102EE400016E000E026ECAC005F0048E120033514A
:102EF400010AD8B42FD7030AD8B43BD7010AD8B4EF
:102F0400BAD7B6D7020130511F0BE806D8A4120075
:102F1400060E3119D8B4A0D0A7D03C04D8A4A4D0AC
:102F240082AE6AD03451D8A412006C0E016E3F0EEA
:102F3400026E000E066E090E056EC00E046E94D06D
:102F44002A0E016E3F0E026E000E066E090E056E0D
:102F5400C00E046E020E2F18D8A40AD0E80E016E1B
:102F64003E0E026E000E066E090E056EC00E046E55
:102F7400030E2F18D8A40AD0A60E016E3E0E026EC0
:102F8400000E066E090E056EC00E046E040E2F1898
:102F9400D8A46AD0640E016E3E0ECAD73A0E016EF2
:102FA4003F0E026E000E066E090E056EC00E046E14
:102FB400020E2F18D8A40AD0F80E016E3E0E026E2F
:102FC400000E066E090E056EC00E046E030E2F1859
:102FD400D8A40AD0B60E016E3E0E026E000E066E26
:102FE400090E056EC00E046E040E2F18D8A43CD032
:102FF400740E016E3E0E9CD73451000AD8B4A0D78B
:10300400010AD8B4CBD730D03C04D8A42DD082AE9A
:103014001BD03451D8A41200530E016E3D0E026E23
:10302400000E066E650E88D7080E016E3E0E026E07
:10303400000E066E4A0E80D77C0E016E3F0E026EA5
:10304400000E066E1D0E78D73451000AD8B4ECD7A2
:10305400010AD8B4F1D708D03351210AD8B45DD7C6
:10306400030AD8B4D1D7010A3039E832030BE80691
:10307400D8A4120023D090EC06F01200390E016E91
:10308400000E026E000E066E010E056EC10E046E79
:103094001200800E046E33C239F01200EE0E016E7F
:1030A400000E026E000E066E010E056E810E046E99
:1030B4001200800E046E32C2EEF012003151010A89
:1030C400D8B41200030AD8B4D9D7010AD8B4E6D7C1
:1030D4000A0AD8B4D0D7030AD8B4DBD7010AD8A4D3
:1030E4001200E7D7800E546E800E556E800E566E19
:1030F400E00E486E000E496E8DEC07F048C0C4F037
:1031040049C0C5F00001C405C511D8A468D0E1C008
:1031140053F0030E5316D8A408D06E510201451380
:1031240000016F51020146130CD0E1B102D0000E30
:10313400556EE1A35568E0B102D0000E566EE0A3CF
:103144005668E1C053F00C0E5316D8A407D0000102
:103154006C510201451300016D5118D00001E1B515
:1031640002D0000E546EE1A75468E0B507D0645154
:103174000201451300016551020146130001E0B745
:1031840007D066510201451300016751020146133D
:103194000001E1B907D060510201451300016151FA
:1031A400020146130001E1BB07D06251020145133D
:1031B40000016351020146130001E0B907D06851D0
:1031C4000201451300016951020146130001E0BBED
:1031D4009AD06A510201451300016B5192D0E4392F
:1031E400F00BE811556EE539F00BE911546EE63930
:1031F400F00BEA11566E28C043F026C044F0BCC060
:1032040045F0BDC046F056505CEC14F0566E29C033
:1032140043F027C044F0BEC045F0BFC046F055504F
:103224005CEC14F0556E2AC043F027C044F0C0C0D3
:1032340045F0C1C046F054505CEC14F0546E0001EB
:10324400ECB307D070510201451300017151020122
:1032540046130001ECB107D072510201451300017D
:103264007351020146130001ECB707D0605102010B
:10327400451300016151020146130001ECB507D06A
:10328400625102014513000163510201461300011A
:10329400E2B307D0645102014513000165510201F4
:1032A40046130001E2B107D0665102014513000143
:1032B4006751020146130001E3B707D068510201C8
:1032C400451300016951020146130001E3B507D01B
:1032D4006A510201451300016B51020146130001BA
:1032E400E3B107D06E510201451300016F51020191
:1032F40046130001E3B307D06C51020145130001EA
:103304006D510201461321B0541E21B2551E21B441
:10331400561E400E2524D96EDA6A020EDA2254C0F3
:10332400DFFF410E2524D96EDA6A020EDA2255C077
:10333400DFFF400E2424D96EDA6A020EDA2256C068
:10334400DFFF120002013205D8A40ED030511F0B4A
:103354000009D8A409D0048E030E3119D8A402D0D0
:10336400010E01D0000E1D6E3251D8A4120030514E
:103374001F0B020AD8A4120034510F0B0009D8B451
:10338400120034510F0B516E030E51601200200EC7
:103394003018D8A41200048E34BF18D034510F0B47
:1033A400516E5150020DA00EF324D96E000EF4207C
:1033B400DA6EDECF56F0DDCF57F034510F0B516E7D
:1033C400526AAA0E5124D96E000E17D034510F0B35
:1033D400516E5150020D070EF324D96E000EF420E5
:1033E400DA6EDECF56F0DDCF57F034510F0B516E4D
:1033F400526AAD0E5124D96E000E5220DA6EDF509F
:10340400556E55B006D0FB0E5614566EFF0E57146B
:1034140004D0040E5610566E5750576E34BF0AD05F
:1034240034510F0B516E5150020DA00EF324D96E7E
:10343400000E09D034510F0B516E5150020D070E7E
:10344400F324D96E000EF420DA6E56C0DEFF57C0A6
:10345400DDFF030E3119D8A42AD056C0D9FF57C0B6
:10346400DAFFDFAE17D034BF09D034510F0B516EE1
:10347400526AAA0E5124D96E000E08D034510F0B93
:10348400516E526AAD0E5124D96E000E5220DA6E7E
:103494000001DF8256C0D9FF57C0DAFF000EDB847B
:1034A40056C0D9FF57C0DAFF000EDB8E1200040E9F
:1034B4005618566E5750576E56C0D9FF57C0DAFF8C
:1034C400DFAE1BD056C0D9FF57C0DAFF7F0EDF1620
:1034D40056C0D9FF57C0DAFF000EDB8C000E4A6ECF
:1034E400050E496E56C04BF057C04CF0000E4E6EA0
:1034F400020E4D6E2DEC0AF006D056C0D9FF57C00F
:10350400DAFF000EDB8C040E5618566E5750576EB9
:1035140055B206D056C0D9FF57C0DAFFDFAE2DD062
:10352400020134BF09D034510F0B516E526AAA0EF6
:103534005124D96E000E08D034510F0B516E526ACB
:10354400AD0E5124D96E000E5220DA6E0001DF92C6
:1035540056C0D9FF57C0DAFF3B0EDF16000E4A6E85
:10356400050E496E56C04BF057C04CF0000E4E6E1F
:10357400020E4D6E2DEC0AF006D056C0D9FF57C08E
:10358400DAFF3B0EDF16020134510F0B516E526A03
:10359400530E5124536E0F0E5220546E53C0D9FF54
:1035A40054C0DAFFFE0EDF161200800E546E800E39
:1035B400556E800E566EE00E486E000E496E8DEC10
:1035C40007F048C0C4F049C0C5F00001C405C511E6
:1035D400D8A468D0E1C053F0030E5316D8A408D081
:1035E40082510201401300018351020141130CD0A6
:1035F400E1B102D0000E556EE1A35568E0B102D0EE
:10360400000E566EE0A35668E1C053F00C0E53163C
:10361400D8A407D000018051020140130001815158
:1036240018D00001E1B502D0000E546EE1A7546831
:10363400E0B507D07851020140130001795102012D
:1036440041130001E0B707D07A5102014013000191
:103654007B51020141130001E1B907D07451020109
:10366400401300017551020141130001E1BB07D071
:103674007651020140130001775102014113000108
:10368400E0B907D07C510201401300017D510201D1
:1036940041130001E0BB9AD07E51020140130001A6
:1036A4007F5192D0E439F00BE811556EE539F00BF7
:1036B400E911546EE639F00BEA11566E29C043F055
:1036C40027C044F0BEC045F0BFC046F055505CEC86
:1036D40014F0556E2AC043F027C044F0C0C045F032
:1036E400C1C046F054505CEC14F0546E28C043F052
:1036F40026C044F0BCC045F0BDC046F056505CEC5A
:1037040014F0566E0001ECB307D08451020140134B
:1037140000018551020141130001ECB107D086512B
:103724000201401300018751020141130001ECB76B
:1037340007D0745102014013000175510201411375
:103744000001ECB507D07651020140130001775116
:10375400020141130001E2B307D078510201401382
:1037640000017951020141130001E2B107D07A51FD
:103774000201401300017B51020141130001E3B730
:1037840007D07C510201401300017D510201411315
:103794000001E3B507D07E510201401300017F51BF
:1037A400020141130001E3B107D082510201401329
:1037B40000018351020141130001E3B307D080519A
:1037C40002014013000181510201411321B8541E2A
:1037D40021BA551E21BC561E020E2318D8A40DD0A2
:1037E400400E2324D96EDA6A020EDA2255C03DF067
:1037F40054503CEC09F0DF6E10D0400E2324D96EF7
:10380400DA6A020EDA2254C0DFFF410E2324D96E95
:10381400DA6A020EDA2255C0DFFF020E2218D8A49B
:103824001CD021AE0DD0400E2224D96EDA6A020ECD
:10383400DA22800E3D6E56503CEC09F0DF6E120029
:10384400400E2224D96EDA6A020EDA2256C03DF006
:10385400800E3CEC09F0DF6E1200400E2224D96E7B
:10386400DA6A020EDA2256C0DFFF12001F0E30643D
:1038740002D064A20AD0000E0001C76F000EC66F0A
:10388400000E2D6E000E2B6E12000001B651B71102
:10389400D8B406D0B6C0D9FFB7C0DAFFDFBEA3D014
:1038A40082AE4ED0010E0201406F7F0E416F7F0E3B
:1038B400426F7F0E436F7F0E446F0F0E456F000EF5
:1038C400466F000E476FD00E9318D8A405D081BC64
:1038D40006D0D2EC15F003D081AE74EC18F049ECAC
:1038E40008F0350E2B24D96EDA6A000EDA22DF5086
:1038F400576E020145515714586E45510001BA15CF
:1039040058100201456F370E2B24D96EDA6A000E67
:10391400DA22DF50576E46515714586E4651000153
:10392400BB1558100201466F010E3D6E400E3E6EEF
:10393400020E3F6E080E406E010E95EC0FF04FD054
:10394400000E0201406F000E416F080E426F800EA0
:10395400436F800E446F800E456F800E466F000EDD
:10396400476FD00E9318D8A40AD081BC0AD00001A6
:10397400C205C311D8A405D0D7EC1AF002D081AE89
:10398400FBD749EC08F0310E2B24D96EDA6A000E0D
:10399400DA22DF5002014015576E40510001B8157C
:1039A40057100201406F330E2B24D96EDA6A000ED1
:1039B400DA22DF50576E41515714586E41510001BD
:1039C400B91558100201416F010E3D6E400E3E6E56
:1039D400020E3F6E070E406E010E95EC0FF03DC0D7
:1039E400B6F03EC0B7F082BE12000001B251B3116E
:1039F400D8B409D0B2C0D9FFB3C0DAFFDFAE03D068
:103A04002E04D8A412000201C051D8B434D1C0C2CB
:103A140080F231D16EEC08F063D167EC0AF060D12A
:103A240026EC08F05DD1C1C227F0C2C226F0C3C2A1
:103A34002AF0C4C229F0C5C228F0F6EC09F076ECED
:103A440006F04ED1C15165EC06F0F9D7000E5D6E5B
:103A5400000E5C6EC10E5C24D96E020E5D20DA6E1F
:103A6400880E5C24E16E000E5D20E26EDFCFE7FF7E
:103A74005C4A5D2A5DBEEED75D5004E1100E5C5CCD
:103A8400D8A0E8D7D1C220F00201D251D3C257F056
:103A9400586A57C058F0576A5710116E5850126E32
:103AA400CED7000E5D6E000E5C6EC10E5C24D96E26
:103AB400020E5D20DA6E600E5C24E16E000E5D2065
:103AC400E26EDFCFE7FF5C4A5D2A5DBEEED75D5054
:103AD40004E1140E5C5CD8A0E8D7D5C225F0D6C2A8
:103AE40024F0D7C257F00F0E57162150F00B26D0F2
:103AF400000E5D6E000E5C6EC10E5C24D96E020E6B
:103B04005D20DA6E740E5C24E16E000E5D20E26EC0
:103B1400DFCFE7FF5C4A5D2A5DBEEED75D5004E16E
:103B2400140E5C5CD8A0E8D7D5C223F0D6C222F02C
:103B3400D7C257F0F00E571621500F0B5710216EB5
:103B44007ED7D0EC11F076EC06F0CAD0E5EC08F0A4
:103B5400C7D02DEC0BF0C4D0C1C235F0C2C236F0D0
:103B6400C3C237F0C4C238F0C5C231F0C6C232F0A5
:103B7400C7C233F0C8C234F00FEC09F0BCEC08F053
:103B84005ED7C3EC07F01EEC0FF059D7000E5D6E44
:103B9400000E5C6E810E5C24D96E020E5D20DA6E1E
:103BA4005C506CEC06F0DF6E5C4A5D2A5DBEF2D7B9
:103BB4005D5005E1200E5C5CD8B092D0EBD790D07C
:103BC400000E5D6E000E5C6EFF0E3D6E5C5073EC7D
:103BD40007F05C4A5D2A5DBEF7D75D5005E1200E13
:103BE4005C5CD8B02CD7F0D72AD713EC07F078D088
:103BF400440E5B6E000E5D6E010E5C6EC00E5C24A6
:103C0400D96E020E5D20DA6EDF503D6E5C50070FF8
:103C140073EC07F0C00E5C24D96E020E5D20DA6EE0
:103C2400DF505B265C4A5D2A5DBEE8D75D5004E147
:103C3400090E5C5CD8A0E2D70201C951576E586ADC
:103C44005B50596E5A6AFF0E591A000E5A1A575091
:103C540059180AE158505A18D8A406D05BC03DF050
:103C6400070E73EC07F0EBD682EC06F039D0C051A6
:103C7400D8A4FAD735D0C051010AD8B4CBD6030A98
:103C8400D8B4CBD6010AD8B4CBD6070AD8B4CBD68D
:103C9400010AD8B476D7030AD8B478D7010AD8B4BD
:103CA4008FD70E0AD8B4A1D7890AD8B4CBD6010AC3
:103CB400D8B4CCD6030AD8B4F4D6010AD8B418D7E9
:103CC400070AD8B43ED7010AD8B440D7030AD8B4F7
:103CD40040D7010AD8B440D71F0AD8B489D7C7D768
:103CE4000001B451B511D8B406D0B4C0D9FFB5C0E1
:103CF400DAFFDFBE0FD0010E3D6E800E3E6E020E67
:103D04003F6E400E406E020E95EC0FF03DC0B4F0D5
:103D14003EC0B5F0000E2E6E000E3D6EC00E3E6E1F
:103D2400020E3F6E400E406E020E95EC0FF03DC049
:103D3400B2F03EC0B3F0120000F73FB83DB53FFB10
:103D44003FED3F993F523E943ED63E183F5A3F05C1
:103D5400010904A101A10275089505150026FF00BB
:103D6400350046FF00093009300930093009318136
:103D740002750495012507463B016514090081423B
:103D840065007501950A2501450105091901290AEE
:103D940081020600FF7501950A250145010901818B
:103DA40002C0A1027508950446FF0026FF0009021F
:103DB4009102C0C050034D00490043004F004D0024
:103DC40053004F00460054002000440045005000BA
:103DD40054002E002C002000440045004D005000EB
:103DE400410020005000550042004C0049004300AF
:103DF4004100540049004F004E00200049004E008D
:103E040043002E0005010905A10115002501350017
:103E140045017501950D05091901290D81029503C7
:103E2400810105012507463B0175049501651409C7
:103E340039814265009501810126FF0046FF000992
:103E440030093109320935750895048102C0090227
:103E54004200020100A03209040000010300000036
:103E6400092111010001224A0007058103400008CD
:103E740009040100020300000009211101000122CC
:103E84001D000705820340000107050203400001ED
:103E940009024200020100A03209040000010300EB
:103EA4000000092111010001224A00070581034095
:103EB40000040904010002030000000921110100AB
:103EC40001221D000705820340000107050203408B
:103ED400000109024200020100A0320904000001AD
:103EE40003000000092111010001224A0007058195
:103EF400034000020904010002030000000921112B
:103F0400010001221D00070582034000010705028C
:103F14000340000109024200020100A0320904002A
:103F2400000103000000092111010001224A0007D9
:103F34000581034000010904010002030000000997
:103F44002111010001221D00070582034000010721
:103F540005020340000109022200010100A0320908
:103F64000400000103000000092111010001226581
:103F7400000705810340000A0600FF0901A1011999
:103F8400012940150026FF0075089540810019019C
:103F940029409100C01C0336004200200063006FDA
:103FA400006E00740072006F006C006C006500729B
:103FB40000140358004500310041004A002D00550B
:103FC40000530042001201000200000008A7170578
:103FD400000100010203011201000200000008A315
:103FE4000C24000001010203010A035300450047A9
:0C3FF40000410004030904040309040058
:020000040020DA
:08000000FFFFFFFFFFFFFFFF00
:020000040030CA
:0E00000000120314FF0089FF03C003E0034059
:00000001FF
