:020000040000FA
:0408000007EF04F00A
:0A0808005D825D921100FDEF08F023
:020816002501BA
:10110400010E356E12003C6E3CC0A9FFA69EA69C43
:10111400A680A6B0FED7A85012004F0E0201816F20
:101124004B0E826F000E3D6E030E3C6E53EC09F0C5
:101134001200450E0201816F520E826F520E836FB0
:10114400000E3D6E040E3C6E53EC09F01200C00E0E
:10115400016E020E026E000E066E080E056E040E7F
:10116400076E110E086E048E1200010E00019E27F8
:10117400000E9F23A023A1232650D8A412001D2AC9
:101184001D50D8A412001D68120031C081F230C075
:1011940082F234C083F233C084F232C085F2000E8E
:1011A4003D6E060E3C6E53EC09F01200000E75EC19
:1011B4000AF0FFEC16F0D7EC13F0ADEC15F0200EAE
:1011C400366001D0FAD764B2F8D70FEC1DF0F5D72A
:1011D4003C503E02F3CF40F0F4CF41F03C503F028C
:1011E400F35041263D503E02F350412640C03CF0AE
:1011F40041C03DF0120000EE60F07E0EEE6AE8069B
:10120400FDE100EE01F03B0EEE6AE806FDE15D90C3
:101214005D92000EF86E0001D8EF08F03CC042F079
:101224003DC043F008D042C0D9FF43C0DAFF3EC0FE
:10123400DFFF424A432A4006D8A041064028F3E192
:101244004128D8B41200EFD7608462986482010EFA
:10125400266E000E1D6E000E496E750E486E000E51
:101264004A6E000E4B6E000E4D6E000E4C6EB8ECC6
:101274000BF01200F29CF29E8068000E816E000E4C
:10128400826E8968000E8A6E000E8B6E000E7E6E72
:10129400000E7F6EF00E936E0F0E946E0EEF00F044
:1012A40012003CC03EF03DC03FF03FBE06D03F5070
:1012B4000FE1170E3E5CD8B01200800E3E24D96EAA
:1012C400020E3F20DA6E000EDF6E3E4A3F2AEDD753
:1012D40012003CC03EF03DC03FF03FBE06D03F5040
:1012E4000FE1400E3E5CD8B01200800E3E24D96E51
:1012F400020E3F20DA6E000EDF6E3E4A3F2AEDD723
:101304001200000E266E000E496E740E486E000E1A
:101314004A6E000E4B6E000E4D6E000E4C6EB8EC15
:101324000BF06492609401D0629462B4FDD7000E15
:101334001D6E12003D6E3DC0A9FF3CC0A8FFA69ED5
:10134400A69CA684000EF2BE010E3E6EF29E550EC1
:10135400A76EAA0EA76EA6823E50D8A4F28EA1A8AC
:10136400FED7A198A6941200D00E9318D8A40BD03F
:1013740047C03CF048C03DF0ACEC12F03CC047F034
:101384003DC048F0120047C03CF048C03DF01FEC9F
:1013940012F03CC047F03DC048F01200476E44A430
:1013A40005D0000E3C6E475000EC0DF044A205D071
:1013B400010E3C6E475000EC0DF0530E4724456E71
:1013C400466A0F0E462245C0D9FF46C0DAFF44C024
:1013D400DFFF12009B0E3C6E000E9CEC09F034C043
:1013E4003CF0010E9CEC09F033C03CF0020E9CEC86
:1013F40009F032C03CF0030E9CEC09F031C03CF023
:10140400040E9CEC09F030C03CF0050E9CEC09F095
:1014140012003EC044F03FC045F03CC042F03DC025
:1014240043F010D044C0D9FF45C0DAFFDF50466E08
:10143400444A452A42C0D9FF43C0DAFF46C0DFFF11
:10144400424A432A4006D8A041064028EBE14128FD
:10145400D8B41200E7D70F0153A11DD017C0D9FF8C
:1014640018C0DAFF800EDE18D8A414D00FC0D9FF3C
:1014740010C0DAFF840EDE18D8A40CD017C0D9FF30
:1014840018C0DAFF0C0EDF6E17C0D9FF18C0DAFFE0
:10149400000EDB8E5391629A1200000E0201816FDE
:1014A400000E826F020E816F010E826F160EF66EB1
:1014B400080EF76E0800F5CF83F2160EF66E080ECE
:1014C400F76E0900F5CF40F00900F5CF41F041C0B7
:1014D40040F0416A4050846F000E3D6E050E3C6E34
:1014E40053EC09F012003C6E1DD0000E816E000E0C
:1014F400826E000E8A6E000E8B6E000E7E6E000EE3
:101504007F6EF00E936E0F0E946E0F0E946EF19E1E
:10151400F00E786E81BC03D0D00E936E1200B00E24
:10152400936E12003C50000AD8B4DFD7010AD8B435
:101534001200030A1200000E416E000E406E880E67
:101544004024D96E000E4120DA6E810E4024E16EF3
:10155400020E4120E26EDFCFE7FF404A412A41BE3E
:10156400EED7415004E1100E405CD8A0E8D72AC061
:1015740091F21BC092F21C500201936F000E3D6E5B
:10158400140E3C6E53EC09F012003D6E400E3D60AB
:101594000CD0400E3C6002D0070E21D0C00E3C643B
:1015A40002D0050E1CD0060E1AD0C00E3D640CD01D
:1015B400400E3C6002D0010E12D0C00E3C6402D03A
:1015C400030E0DD0020E0BD0400E3C6002D0000E74
:1015D40006D0C00E3C6402D0040E01D0080E3E6E4C
:1015E4003E501200160E0001BA6F030EBB6F530E6D
:1015F400BC6F000EBD6F4E0EBE6F000EBF6F2D0E82
:10160400C06F000EC16F2D0EC26F000EC36F2D0E82
:10161400C46F000EC56F2D0EC66F000EC76F2D0E62
:10162400C86F000EC96F2D0ECA6F000ECB6F2D0E42
:10163400CC6F000ECD6F2D0ECE6F000ECF6F12004B
:10164400020E2818D8A403D041EC13F01200000EA7
:10165400286E2450D8A41FD020EE01F01550D926AE
:101664001650DA22080EDF6E20EE02F01550D9264D
:101674001650DA22300EDE6E020EDD6E15C0D9FF72
:1016840016C0DAFF0C0EDF6E15C0D9FF16C0DAFFE4
:10169400000EDB8E1200000E246E1200000E0001FC
:1016A400AE6F000EAF6F000EAC6F000EAD6F000E8C
:1016B400AA6F000EAB6F000E356E000E3D6E000E6D
:1016C4003C6E6BEC09F01A0E446E010ED0EC09F07E
:1016D40082BE12001E0E446E020ED0EC09F0000E03
:1016E4003C6EC00E3D6E020E3E6E400E3F6E020E0C
:1016F4001CEC11F03CC0AAF03DC0ABF01200200E6F
:101704003D6E000E3C6E345080083E6E000ED8A034
:10171400E82A00083F6E2EEC0CF03CC0B4F03DC04B
:10172400B5F0200E3D6E000E3C6E335080083E6EC8
:10173400000ED8A0E82A00083F6E2EEC0CF03CC046
:10174400B2F03DC0B3F0200E3D6E000E3C6E325040
:1017540080083E6E000ED8A0E82A00083F6E2EECEA
:101764000CF03CC0B0F03DC0B1F0120010D000F05D
:101774001200010E75EC0AF01200020E75EC0AF06C
:10178400120050EC0BF0120070EC14F0120048C080
:101794004EF049C04FF04F50000AD8B404D07F0A2D
:1017A400D8A412001AD04E50010AD8B4EAD7030ABA
:1017B400D8B41200010AD8B4E7D7060AD8B4120084
:1017C400770AD8B4D4D7010AD8B41200070AD8B417
:1017D400D4D7010AD8A41200CCD74E50FF0A120065
:1017E40019C081F2000E3D6E000E3C6ED00E3C24FA
:1017F400D96E000E3D20DA6E820E3C24E16E020E9C
:101804003D20E26EDFCFE7FF3C4A3D2A3DBEEED7E6
:101814003D5004E10D0E3C5CD8A0E8D7000E3D6EAF
:10182400000E3C6E400E3C24D96E020E3D20DA6E52
:101834008F0E3C24E16E020E3D20E26EDFCFE7FF07
:101844003C4A3D2A3DBEEED73D5005E1080E3C5CC6
:10185400D8B01200E7D71200000E416E3FAE06D09A
:101864003E6C3F1ED8B03F2A010E416E3DAE06D0FD
:101874003C6C3D1ED8B03D2A010E411A000E436E49
:10188400000E426E3E503F10D8B41CD0010E406E84
:1018940004D0D8903E363F36402A3FAEFAD7D8908F
:1018A400423643363E503C5C3F503D58D8A005D0AC
:1018B4003E503C5E3F503D5A4280D8903F323E32CB
:1018C400402EEDD74150D8B404D0426C431ED8B05A
:1018D400432A42C03CF043C03DF01200000E296E82
:1018E400000E226E000E1F6E000E1E6E000E246E81
:1018F400000E286E0FC0D9FF10C0DAFF7F0EDF166E
:10190400040E0F180F6E1050106E0FC0D9FF10C0C8
:10191400DAFF7F0EDF16040E0F180F6E1050106ED4
:1019240015C0D9FF16C0DAFF7F0EDF16000E0C6E4D
:10193400000E0E6E000E0D6E000E046E000E066E8E
:10194400000E056E94EC0EF0000E496E030E486E08
:10195400000E4A6E000E4B6E000E4D6E000E4C6E65
:10196400B8EC0BF0C4EC0FF01200000E416E000E48
:10197400406E740E4024D96E000E4120DA6E810E42
:101984004024E16E020E4120E26EDFCFE7FF404AC1
:10199400412A41BEEED7415004E1140E405CD8A068
:1019A400E8D7000E416E000E406E600E4024D96EE2
:1019B400000E4120DA6E950E4024E16E020E4120A5
:1019C400E26EDFCFE7FF404A412A41BEEED74150E5
:1019D40004E1140E405CD8A0E8D72FC0A9F22EC0B1
:1019E400AAF22DC0ABF22CC0ACF22BC0ADF2000EAB
:1019F4003D6E2E0E3C6E53EC09F01200416E000E4B
:101A0400426E020E436E3C503D6E3E6AD8903D36A7
:101A14003E3641503F6E406AD8903F364036D890AB
:101A24003F3640363D503F263E504022D8903F3608
:101A34004036D8903F3640363F50422640504322ED
:101A440042C0D9FF43C0DAFFDF9E3C50D8A407D080
:101A54004150020D980EF324D96E000E06D0415069
:101A6400020D0F0EF324D96E000EF420DA6E42C07C
:101A7400DEFF43C0DDFF42C0D9FF43C0DAFFDF9C75
:101A840020EE04F04250D9264350DA22DF8C1200B3
:101A9400000E1F6E000E1E6E020E2818D8A41FD052
:101AA40020EE01F01550D9261650DA22080EDF6E0A
:101AB40020EE02F01550D9261650DA22380EDE6ECA
:101AC400020EDD6E15C0D9FF16C0DAFF480EDF6EB8
:101AD40015C0D9FF16C0DAFF000EDB8E12000D50C0
:101AE4000201365D0E503759D8B004D036C20DF01D
:101AF40037C20EF0F6EC0EF020EE02F00F50D926AD
:101B04001050DA22380EDE6E020EDD6E0FC0D9FFE1
:101B140010C0DAFF480EDF6E0FC0D9FF10C0DAFF25
:101B2400000EDB8E12002D0E236E39C057F0FD0E11
:101B34005716D8A43BD039C057F0D89057323F0E2F
:101B440057165750040D000EF324176E020EF4209E
:101B5400186E17C015F018C016F0040E1518156E7F
:101B64001650166E17C0D9FF18C0DAFFDF30E832FE
:101B74000F0B0D0AD8A417D0300E3C6E020E3D6E2A
:101B840020EE02F01750D9261850DA22DECF3EF0AC
:101B9400DDCF3FF0000E416E080E406E0BEC0AF0F4
:101BA40070EC0CF0120022EC0BF012003950FD0B1B
:101BB400040AD8A4120033EC10F01200000E020143
:101BC400386F000E396F38D00C8E2704D8A43FD05C
:101BD40038833DD00C8E3BD00C8E34510F0B000952
:101BE400D8B435D034BF0AD034510F0B3C6E3C50BE
:101BF400020D980EF324D96E000E09D034510F0B48
:101C04003C6E3C50020D0F0EF324D96E000EF420EE
:101C1400DA6EDECF3DF0DDCF3EF03DC0D9FF3EC0F1
:101C2400DAFFDFAE14D03DC0D9FF3EC0DAFFDFA437
:101C34000ED0010E386F0BD030511F0B000AD8B4F0
:101C4400C3D7010AD8B4C6D7030AD8B4C5D70CAED3
:101C54001200380E096E020E0A6E0C80020E0D6E12
:101C640012002150D8A41200010E216E2050D8A4D5
:101C74001200010E206E020E2818D8A415D020EEF2
:101C840001F00F50D9261050DA22000EDF6E0FC07B
:101C9400D9FF10C0DAFF480EDF6E0FC0D9FF10C0A5
:101CA400DAFF000EDB8E12002804D8A41200000E06
:101CB400246E20EE01F01750D9261850DA22080EAF
:101CC400DF6E20EE02F01750D9261850DA22300EBB
:101CD400DE6E020EDD6E17C0D9FF18C0DAFF040EE7
:101CE400DF6E17C0D9FF18C0DAFF000EDB8E010EBD
:101CF400246E20EE01F01550D9261650DA22080E73
:101D0400DF6E20EE02F01550D9261650DA22300E7E
:101D1400DE6E020EDD6E15C0D9FF16C0DAFF800E2E
:101D2400DF6E120002013039E832030B0009D8A437
:101D3400120039D00C8E080E366E120055EC16F0D7
:101D440012005CEC0FF012003B0E096E000E0A6EDE
:101D54000C80010E0D6E0C8E1200E0EC0DF01200E2
:101D64002DEC19F012003A0E3425096E0A6A000EA1
:101D74000A22EED70C8E3A0E3425D96EDA6A000E9A
:101D8400DA2232C2DFFF1200000E496E020E486EE4
:101D9400000E4A6E000E4B6E000E4D6E000E4C6E21
:101DA400B8EC0BF012003151000AD8B4D6D7010AAE
:101DB400D8B4D6D7020AD8B4D3D7060AD8B4BAD777
:101DC400030AD8B4BBD7010AD8B4DED70F0AD8B4F3
:101DD400BBD7010AD8B4B5D7030AD8B4C4D7010A0B
:101DE400D8B4C8D7070A1200080E3C6E0E5010E192
:101DF400080E0D5CD8B00CD00DC03CF02950D8A40E
:101E040002D0010E04D02904D8A402D0020E296EF7
:101E14003C500D5E000E0E5A20EE01F00F50D926F4
:101E24001050DA223CC0DFFF380E0001A86F020E0A
:101E3400A96F0CA01CD03AD009C0F6FF0AC0F7FF66
:101E4400F86AA8C0D9FFA9C0DAFF020EF76403D06C
:101E54000800F55005D0F6CFE1FFF7CFE2FFE750D9
:101E6400DF6E094A0A2A0001A84BA92B3C063C5004
:101E7400D8B41200E1D709C0F6FF0AC0F7FFF86A28
:101E8400A8C0D9FFA9C0DAFF020EF76403D0080086
:101E9400F55005D0F6CFE1FFF7CFE2FFE750DF6E54
:101EA400094A0A2A0001A84BA92B3C063C50D8B485
:101EB4001200E1D70C8E540E3C6E0F0E3D6E000ED8
:101EC4003F6E000E3E6E000E416E020E406E10EC30
:101ED40009F0000E3C6E020E3D6E000E3F6E000EC9
:101EE4003E6E000E416E300E406E10EC09F0648CB4
:101EF400000E506EA50E5024D96EDA6A000EDA2256
:101F0400000EDF6EA20E5024D96EDA6A000EDA22B9
:101F1400000EDF6E502A020E5064ECD73A0E3C6E6F
:101F2400000E3D6E000E3F6E000E3E6E000E416EC2
:101F3400010E406E10EC09F0649C080E0F6E020E48
:101F4400106E000E176E020E186E17C015F018C032
:101F540016F032C23BF03B50D8A403D0100E366EBC
:101F64001200200E366E000E496E010E486E3B0EB6
:101F74004A6E000E4B6E000E4D6E010E4C6EB8ECA8
:101F84000BF0120064980CBE38D004AE0BD0020ED5
:101F9400286E1E50D8B44AEC0DF0000E206E000ED0
:101FA400216E120020EE01F01550D9261650DA22C7
:101FB400080EDF6E20EE02F01550D9261650DA22F4
:101FC400300EDE6E020EDD6E15C0D9FF16C0DAFFCC
:101FD4000C0EDF6E15C0D9FF16C0DAFF000EDB8EC3
:101FE4000FC0D9FF10C0DAFF040EDF6E0FC0D9FF97
:101FF40010C0DAFF000EDB8E1200020130AF10D0E9
:10200400010E286E1F50D8B44AEC0DF0000E206E5D
:10201400000E216E2250D8A4120033EC0EF01200F0
:10202400020E286E20EE01F01550D9261650DA2241
:10203400080EDF6E20EE02F01550D9261650DA2273
:10204400300EDE6E020EDD6E15C0D9FF16C0DAFF4B
:10205400040EDF6E15C0D9FF16C0DAFF000EDB8E4A
:10206400D5D70FC0D9FF10C0DAFF000EDFBC010EB8
:102074003D6E040E0F180F6E1050106E080E3618B9
:10208400D8A40CD0020132517F0B0F015C6F5C515C
:10209400D8B402D0100E01D0040E366E2804D8A491
:1020A4003AD020EE02F00F50D9261050DA22380E22
:1020B400DE6E020EDD6EF6EC0EF0020E2918D8A4C8
:1020C4000DD00FC0D9FF10C0DAFF040EDF6E0FC0B1
:1020D400D9FF10C0DAFF000EDB8E12003D50D8A4E9
:1020E4000DD00FC0D9FF10C0DAFF480EDF6E0FC04D
:1020F400D9FF10C0DAFF000EDB8E12000FC0D9FF2B
:1021040010C0DAFF080EDF6E0FC0D9FF10C0DAFF6F
:10211400000EDB8E120004AE13D007500810D8B4A2
:102124000ED020EE07F001D80AD00500FA6EDE507A
:10213400FD6EDE50FE6EF850FF6EFA501200049EE3
:10214400000E286E1200000E406E000E3F6E740EDC
:102154003F24D96E000E4020DA6EDF503C6E3F50B3
:10216400200F9CEC09F03F4A402A40BEF0D7405073
:1021740004E1140E3F5CD8A0EAD7000E406E000EB6
:102184003F6E600E3F24D96E000E4020DA6EDF50A1
:102194003C6E3F50340F9CEC09F03F4A402A40BE4D
:1021A400F0D7405004E1140E3F5CD8A0EAD7000EEB
:1021B400406E000E3F6E880E3F24D96E000E402004
:1021C400DA6EDF503C6E3F50480F9CEC09F03F4AFA
:1021D400402A40BEF0D7405004E1100E3F5CD8A026
:1021E400EAD72FC03CF0580E9CEC09F02EC03CF00E
:1021F400590E9CEC09F02AC03CF05A0E9CEC09F0F4
:102204002DC03CF05B0E9CEC09F02CC03CF05C0E45
:102214009CEC09F02BC03CF05D0E9CEC09F01BC05B
:102224003CF05E0E9CEC09F01C503C6E5F0E9CEC86
:1022340009F01200446E3C50D8B407D04450020D4B
:102244000F0EF324D96E000E06D04450020D980EE2
:10225400F324D96E000EF420DA6EDECF45F0DDCF24
:1022640046F045504610D8A405D0000E3C6E000E32
:102274003D6E120020EE02F04550D9264650DA2277
:102284003DC0DEFF3EC0DDFF20EE01F04550D92603
:102294004650DA223FC0DFFF45C0D9FF46C0DAFF0F
:1022A400400EDF1645C0D9FF46C0DAFF000EDB86BC
:1022B40045C0D9FF46C0DAFF000EDB8E3C50D8B4CF
:1022C40018D04450020D0F0EF324D96E000EF420E2
:1022D400DA6EDECF40F0DDCF41F0040E4018426EDE
:1022E4004150436E4450020D0F0EF324D96E000E7C
:1022F40017D04450020D980EF324D96E000EF4202A
:10230400DA6EDECF40F0DDCF41F0040E4018426EAD
:102314004150436E4450020D980EF324D96E000EC2
:10232400F420DA6E42C0DEFF43C0DDFF45C03CF05E
:1023340046C03DF01200000E346E000E336E000EE7
:10234400326E020E316E020E306EECEC09F0000EAD
:10235400416E740E4124D96EDA6A000EDA22000E40
:10236400DF6E412A130E4164F4D7000E416E600EF5
:102374004124D96EDA6A000EDA22000EDF6E412A99
:10238400130E4164F4D7000E416E880E4124D96EB9
:10239400DA6A000EDA22000EDF6E412A0F0E416463
:1023A400F4D7400E0001886F200E8A6F020E8D6FE5
:1023B400800E8E6F100E906F010E936F200E956F2E
:1023C400100E976F400E606F200E626F020E656FE5
:1023D400800E666F100E686F010E6B6F200E6D6FAE
:1023E400100E6F6F400E706F200E726F010E746FBF
:1023F400020E766F040E786F080E7A6F100E7C6FE3
:10240400200E7E6F800E806F400E826F010E846FEF
:10241400020E866F030E2F6E020E2E6E030E2A6EB0
:10242400030E2D6E060E2C6E440E2B6E010E1C6ECA
:10243400900E1B6EA5EC10F01200818C3CC043F092
:102444003DC044F0140EE82EFED782CF3EF00F0EAE
:102454003E168150300B3E1043C0D9FF44C0DAFF12
:10246400DF6E434A442A819C140EE82EFED782CFA5
:102474003EF00F0E3E168150300B3E1043C0D9FF84
:1024840044C0DAFFDF6E434A442A818C000E426E58
:10249400000E416E000E406E000E3F6E81B802D0F9
:1024A400010E01D0000E3E6E81BA02D0010E01D0A1
:1024B400000E3E14E8B00DD0C80E3F184010D8A44A
:1024C40005D0000E3D6E010E3C6E12003F4A402ABC
:1024D400E5D782500F0B43C0D9FF44C0DAFFDF6E4B
:1024E400434A442A050E41184210D8A405D0000ED0
:1024F4003D6E000E3C6E1200000E406E000E3F6EEC
:1025040081A802D0010E01D0000E3E6E81BA02D025
:10251400010E01D0000E3E14E8B008D0C80E3F18DA
:102524004010D8B4CED73F4A402AEAD782500F0B86
:1025340043C0D9FF44C0DAFFDF6E434A442A414A0C
:10254400422A42BEA7D74250BCE1060E415CD8B035
:10255400B8D7A0D7818A3CC045F03DC046F0140EE0
:10256400E82EFED782CF3EF00F0E3E168150300B80
:102574003E10406E819A140EE82EFED782CF3EF0B4
:102584000F0E3E168150300B3E103F6E45C0D9FFF2
:1025940046C0DAFF3FC0DFFF454A462A45C0D9FF9F
:1025A40046C0DAFF40C0DFFF454A462A818A000E52
:1025B400446E000E436E000E426E000E416E81B8F2
:1025C40002D0010E01D0000E3E6E81BE02D0010E7B
:1025D40001D0000E3E14E8B00DD0C80E41184210D0
:1025E400D8A405D0000E3D6E010E3C6E1200414A87
:1025F400422AE5D782500F0B406E000E426E000E49
:10260400416E81A802D0010E01D0000E3E6E81BE43
:1026140002D0010E01D0000E3E14E8B008D0C80E5E
:1026240041184210D8B4DED7414A422AEAD7825030
:102634000F0B3F6E45C0D9FF46C0DAFF3FC0DFFF36
:10264400454A462A45C0D9FF46C0DAFF40C0DFFFED
:10265400454A462A050E43184410D8A405D0000E56
:102664003D6E000E3C6E1200434A442A44BEA3D77A
:102674004450B8E1060E435CD8B0B4D79CD720EEE2
:1026840001F01750D9261850DA22DF503D6E3D5024
:10269400055C000E0658D8A005C03DF03D50055E0F
:1026A400000E065A000E3C6E0FD0380E3C24D96E34
:1026B400DA6A020EDA2201C0E1FF02C0E2FFDFCFD4
:1026C400E7FF014A022A3C2A3D503C5CD8A0EDD7E2
:1026D40005500610D8B432D020EE01F01550D9269A
:1026E4001650DA22080EDF6E20EE02F01550D926BD
:1026F4001650DA22380EDE6E020EDD6E17C0D9FFD8
:1027040018C0DAFFDFBC0DD015C0D9FF16C0DAFF40
:10271400480EDF6E15C0D9FF16C0DAFF000EDB8E3F
:10272400120015C0D9FF16C0DAFF080EDF6E15C0FF
:10273400D9FF16C0DAFF000EDB8E120020EE01F086
:102744001550D9261650DA22080EDF6E20EE02F05C
:102754001550D9261650DA22300EDE6E020EDD6ECA
:1027640015C0D9FF16C0DAFF040EDF6E15C0D9FFFD
:1027740016C0DAFF000EDB8E07500810D8B40ED056
:1027840020EE07F001D80AD00500FA6EDE50FD6E87
:10279400DE50FE6EF850FF6EFA501200049E225076
:1027A400D8A4120033EC0EF01200A094000E0F0116
:1027B4005F6F000E626E000E536F540E3C6E0F0E70
:1027C4003D6E000E3F6E000E3E6E000E416E020E18
:1027D400406E10EC09F0160E616E9F0E0F015B6FD8
:1027E4007B0E606E000E446E4450040D000EF32404
:1027F400D96E020EF420DA6EDE6ADE6ADE6ADD6A03
:10280400442A0B0E4464F0D7648C000E0F015C6FF5
:102814006498649C6296000E0C6E000E046E000EAA
:10282400066E000E056E62B6F5D7010E216E010E1E
:10283400206E000E1F6E000E1E6E000E266E000E21
:10284400446E4450020D0F0EF324D96E000EF42092
:10285400DA6E000EDE6E000EDD6E4450020D980E30
:10286400F324D96E000EF420DA6E000EDE6E000E34
:10287400DD6EA50E4424D96EDA6A000EDA22000E4B
:10288400DF6EA20E4424D96EDA6A000EDA22000E3C
:10289400DF6E442A020E4464D4D7080E0F6E020E73
:1028A400106E160E0F01536F020E0201036F300EED
:1028B400026F080E016F040E006F008F000E3B6E56
:1028C400000E00019E6F000E9F6F000EA06F000EA1
:1028D400A16F000E1D6E000E366E12000201305103
:1028E4001F0BE806D8A41200060E3119D8B44CD038
:1028F40053D03B04D8A450D082AE16D03451D8A4BF
:1029040012006C0E096E3F0E0A6E000E0E6E090E5A
:102914000D6EC00E0C6E40D02A0E096E3F0EF4D719
:102924003A0E096E3F0EF0D73451000AD8B4F4D7EA
:10293400010AD8B4F5D730D03B04D8A42DD082AE48
:102944001BD03451D8A41200190E096E3E0E0A6E23
:10295400000E0E6E650EDCD7CE0E096E3E0E0A6EAC
:10296400000E0E6E4A0ED4D77C0E096E3F0E0A6E10
:10297400000E0E6E1D0ECCD73451000AD8B4ECD71D
:10298400010AD8B4F1D708D03351210AD8B4B1D749
:10299400030AD8B4D1D7010A3039E832030BE80668
:1029A400D8A4120023D0A9EC08F01200380E096E46
:1029B400000E0A6E000E0E6E010E0D6EC10E0C6E30
:1029C4001200800E0C6E33C238F01200370E096EFE
:1029D400000E0A6E000E0E6E010E0D6E810E0C6E50
:1029E4001200800E0C6E32C237F012003151010A0F
:1029F400D8B41200030AD8B4D9D7010AD8B4E6D798
:102A04000A0AD8B4D0D7030AD8B4DBD7010AD8A4A9
:102A14001200E7D7010E85EC08F0346E020E85EC47
:102A240008F0336E030E85EC08F0326E040E85EC6C
:102A340008F0316E050E85EC08F0306E000E4A6E1B
:102A4400740E4A24D96EDA6A000EDA224A50200F34
:102A540085EC08F0DF6E4A2A130E4A64F1D7000EA3
:102A64004A6E600E4A24D96EDA6A000EDA224A509F
:102A7400340F85EC08F0DF6E4A2A130E4A64F1D74E
:102A8400000E4A6E880E4A24D96EDA6A000EDA22E3
:102A94004A50480F85EC08F0DF6E4A2A0F0E4A644C
:102AA400F1D7580E85EC08F02F6E590E85EC08F01E
:102AB4002E6E5A0E85EC08F02A6E5B0E85EC08F03B
:102AC4002D6E5C0E85EC08F02C6E5D0E85EC08F026
:102AD4002B6E5F0E85EC08F03D6E3D503F6E3E6AF6
:102AE4005E0E85EC08F0406E40503E101B6E3F5069
:102AF4001C6E440E496E000E4A6E410E4A24D96E75
:102B0400DA6A000EDA224A50080F85EC08F0DF6E0C
:102B1400410E4A24D96EDA6A000EDA22DF504926C1
:102B24004A2A070E4A64E9D7070E85EC08F04918CB
:102B3400D8A4120041C0C0F042C0C2F043C0C4F0E7
:102B440044C0C6F045C0C8F046C0CAF047C0CCF087
:102B540048C0CEF012003650D8A411D0000E646ED6
:102B6400000E606E160E616E9F0E0F015B6F7B0E82
:102B7400606E01D0648664A6FDD7010E366E3604FD
:102B8400D8B464BA08D0000E626E000E606E608025
:102B94006088020E366E62B460A403D0629483EC43
:102BA40009F064A202D0A194120062B060A005D022
:102BB400D7EC13F0040E366E629062B860A802D0AF
:102BC40026EC09F062AC1AD060AC0ED0000E496E4F
:102BD400730E486E000E4A6E000E4B6E000E4D6E64
:102BE400010E4C6EB8EC0BF0629CB7EC08F023506D
:102BF400D8A423062350D8B433EC0EF062BA60AAEA
:102C040002D02DEC0AF062B260A210D07F0E496EA1
:102C14004868000E4A6E000E4B6E000E4D6E010E9B
:102C24004C6EB8EC0BF0000E0F015F6F040E3660B3
:102C340002D0A194120060A634D0000E586E62A691
:102C440030D063CF39F03930E832E8320F0B256EDB
:102C5400629639B406D0A20E2524D96EDA6A000E23
:102C640005D0A50E2524D96EDA6A000EDA220001F9
:102C7400DF702550D8A403D095EC0DF00ED0000ED3
:102C8400496E720E486E390E4A6E000E4B6E000E7F
:102C94004D6E000E4C6EB8EC0BF0582A030E5864BF
:102CA400CED7A1941200800E02013019D8A41200CC
:102CB400C00E0C6E97D082AE09D0DB0E096E3F0EAB
:102CC4000A6E000E0E6E120E0D6E1200C90E096E03
:102CD4003F0EF6D73251D8A446D082AE07D0325137
:102CE400020D170EF324F66E3E0E06D03251020D7D
:102CF400150EF324F66E3E0EF420F76E0900F5CFA0
:102D040009F00A00F5CF0AF0020E09243C6E000E09
:102D14000A203D6E3CC0F6FF3DC0F7FFF86A020E84
:102D2400F76403D00800F55005D0F6CFE1FFF7CFE4
:102D3400E2FFE7500D6E030E09243C6E000E0A20DC
:102D44003D6E3CC0F6FF3DC0F7FFF86A020EF76423
:102D540003D00800F55005D0F6CFE1FFF7CFE2FF2E
:102D6400E7500E6E1200000E0C6E1200030E32615C
:102D74002CD082AE07D03251020D0F0EF324F66E22
:102D84003E0E06D03251020D090EF324F66E3E0EAD
:102D9400F420F76E0900F5CF09F00A00F5CF0AF028
:102DA40009C0F6FF0AC0F7FFF86A020EF76403D001
:102DB4000800F55005D0F6CFE1FFF7CFE2FFE7506A
:102DC4003C6E3C500D6E0E6A1200030E3219D8A4EC
:102DD400CAD70C80BA0E096E000E0A6EBAC00DF086
:102DE4000C8E12003351010AD8B465D7030AD8B443
:102DF40071D7010AD8B4BAD7B6D7829E000E4D6EE9
:102E0400000E0001B76F000EB66F000EB96F000E12
:102E1400B86F3D0E4C6EE10E4B6E400EE82EFED7A1
:102E24004B2EFCD74C2EFAD7D00E9318D8B439D0E9
:102E3400D00E3C6E000E3D6E1FEC12F01F0E4C6E59
:102E4400710E4B6E1E0EE82EFED74B2EFCD74C2E69
:102E5400FAD700D0D00E3C6E000E3D6E1FEC12F07F
:102E64003C043D10D8A40CD00001D1A9828ED1BB62
:102E740002D0010E4D6ED0B543D03CEC09F040D0E9
:102E84000001DC510A0B0A0AD8A4828EDCB102D0FC
:102E9400010E4D6EDCB502D0010E4D6ED2A3EDD7FE
:102EA4002FD0D00E3C6E000E3D6EACEC12F01F0E17
:102EB4004C6E710E4B6E1E0EE82EFED74B2EFCD7B9
:102EC4004C2EFAD700D0D00E3C6E000E3D6EACEC0A
:102ED40012F03C043D10D8A40DD0828E818AF00EED
:102EE40000D0E82EFDD781B802D0010E4D6E81AE20
:102EF400C4D706D0000E0001B76F010EB66FC6D757
:102F0400F4EC0AF0000E85EC08F09B0AD8B402D069
:102F1400010E01D0000E4B6E4C6A4D504B12000E48
:102F24004C124B504C10D8B40ED0000E346E000E20
:102F3400336E000E326E020E316E020E306EECEC09
:102F440009F09DEC11F00CEC15F081EC0BF0120083
:102F54004F6E4F50466E476A4250486E496A800E23
:102F64004826000E49224650485C4950800A4A6E61
:102F74004750800A4A58D8A017D0800E466E000EDB
:102F8400476E4250465E000E475A4F50486E496A9B
:102F94004650485C4950800A4A6E4750800A4A5855
:102FA400D8A002D0800E1200800E4F603CD04F504B
:102FB40042C046F0476A461E471E464A472A465EB6
:102FC400000E475A800E46244B6E000E47204C6E6E
:102FD40043C03CF03D6A4BC03EF04CC03FF0EAECCD
:102FE40008F03CC04DF03DC04EF04DC03CF04EC02A
:102FF4003DF044C03EF045C03FF0EAEC08F03CC070
:1030040050F03DC051F0400E515CD8A004D0400EA9
:10301400516E000E506E50500008506E5150D8A0A2
:10302400E82A4008516E800E4F6436D042504FC09B
:1030340046F0476A465E000E475A810E46244B6EA0
:10304400FF0E47204C6E43C03CF03D6A4BC03EF03F
:103054004CC03FF0EAEC08F03CC04DF03DC04EF0EF
:103064004DC03CF04EC03DF044C03EF045C03FF082
:10307400EAEC08F03CC050F03DC051F0400E515C09
:10308400D8A004D0400E516E000E506EFF0E502496
:10309400506E3F0E5120516E50C046F051C047F063
:1030A400070E486ED89047324632482EFBD746501A
:1030B4001200010E3C6E819AF00E00D0E82EFDD76E
:1030C400818AF00E00D0E82EFDD7819AF00E00D050
:1030D400E82EFDD781B808D00001885102014513BC
:1030E400000189510201461381BE02D0000E3C6EDC
:1030F400818AF00E00D0E82EFDD782B008D0410EB0
:103104002A24D96EDA6A020EDA22000EDF6E82B247
:1031140008D0410E2A24D96EDA6A020EDA22FF0E92
:10312400DF6E82B408D0400E2A24D96EDA6A020E09
:10313400DA22000EDF6E82B608D0400E2A24D96E41
:10314400DA6A020EDA22FF0EDF6E81B808D00001BF
:103154008A510201451300018B510201461381BEBD
:1031640008D000018C510201451300018D51020168
:103174004613819AF00E00D0E82EFDD782A082B2C9
:103184003ED0818AF00E00D0E82EFDD782B008D060
:1031940000019251020145130001935102014613AB
:1031A40082B208D0000190510201451300019151EF
:1031B4000201461382B408D000018E510201451366
:1031C40000018F510201461382B608D000019651C6
:1031D4000201451300019751020146133C50D8A443
:1031E40008D00001945102014513000195510201D8
:1031F4004613819AF00E00D0E82EFDD72AD01B503A
:103204000001B81904E11C50B919D8B418D03C50C5
:10321400D8A410D094510201451300019551020124
:1032240046131B2803E11C28D8B413D00001B84B63
:10323400B92B0FD0000EB96F000EB86F0AD03C50F6
:10324400D8A4F8D796510201451300019751020101
:103254004613818A120002013205D8A40ED03051DF
:103264001F0B0009D8A409D00C8E030E3119D8A461
:1032740002D0010E01D0000E276E3251D8A41200E4
:1032840030511F0B020AD8A4120034510F0B00094D
:10329400D8B4120034510F0B506E030E506012005C
:1032A400200E3618D8A412000C8E34BF18D0345116
:1032B4000F0B506E5050020D980EF324D96E000E71
:1032C400F420DA6EDECF55F0DDCF56F034510F0B1B
:1032D400506E516AA20E5024D96E000E17D034518C
:1032E4000F0B506E5050020D0F0EF324D96E000ECA
:1032F400F420DA6EDECF55F0DDCF56F034510F0BEB
:10330400506E516AA50E5024D96E000E5120DA6E0B
:10331400DF50546E54B006D0FB0E5514556EFF0E9C
:10332400561404D0040E5510556E5650566E34BFC4
:103334000AD034510F0B506E5050020D980EF324E6
:10334400D96E000E09D034510F0B506E5050020D3F
:103354000F0EF324D96E000EF420DA6E55C0DEFF92
:1033640056C0DDFF030E3119D8A42AD055C0D9FFA9
:1033740056C0DAFFDFAE17D034BF09D034510F0B7B
:10338400506E516AA20E5024D96E000E08D03451EA
:103394000F0B506E516AA50E5024D96E000E5120A9
:1033A400DA6E0001DF8255C0D9FF56C0DAFF000E85
:1033B400DB8455C0D9FF56C0DAFF000EDB8E120045
:1033C400040E5518556E5650566E55C0D9FF56C04A
:1033D400DAFFDFAE1BD055C0D9FF56C0DAFF7F0E2F
:1033E400DF1655C0D9FF56C0DAFF000EDB8C000E85
:1033F400496E050E486E55C04AF056C04BF0000E9B
:103404004D6E020E4C6EB8EC0BF006D055C0D9FFD1
:1034140056C0DAFF000EDB8C040E5518556E56505C
:10342400566E54B206D055C0D9FF56C0DAFFDFAE8F
:103434002DD0020134BF09D034510F0B506E516AA4
:10344400A20E5024D96E000E08D034510F0B506ECA
:10345400516AA50E5024D96E000E5120DA6E000177
:10346400DF9255C0D9FF56C0DAFF3B0EDF16000EBF
:10347400496E050E486E55C04AF056C04BF0000E1A
:103484004D6E020E4C6EB8EC0BF006D055C0D9FF51
:1034940056C0DAFF3B0EDF16020134510F0B506E9B
:1034A400516A530E5024526E0F0E5120536E52C067
:1034B400D9FF53C0DAFFFE0EDF161200D00E476E9E
:1034C400000E486EB6EC09F047C019F048C01AF077
:1034D40019041A10D8A496D0D1C052F0030E521673
:1034E400D8A409D000016E510201451300016F51A7
:1034F4000201461329D00001D1B108D0410E2F2476
:10350400D96EDA6A020EDA22000EDF6ED1B308D069
:10351400410E2F24D96EDA6A020EDA22FF0EDF6E14
:10352400D0B108D0400E2E24D96EDA6A020EDA2207
:10353400000EDF6ED0B308D0400E2E24D96EDA6AA6
:10354400020EDA22FF0EDF6ED1C052F00C0E5216BC
:10355400D8A407D000016C510201451300016D513C
:1035640026D00001D1B508D0400E2F24D96EDA6AD6
:10357400020EDA22000EDF6ED1B708D0400E2F24DF
:10358400D96EDA6A020EDA22FF0EDF6ED0B507D0EA
:103594006451020145130001655102014613000103
:1035A400D0B707D0665102014513000167510201EB
:1035B40046130001D1B907D060510201451300013F
:1035C4006151020146130001D1BB07D062510201CF
:1035D400451300016351020146130001D0B907D01D
:1035E40068510201451300016951020146130001AB
:1035F400D0BB12006A510201451300016B51020154
:10360400461312000001D439F00BD811546ED53989
:10361400F00BD911536ED639F00BDA11556E33C055
:1036240042F031C043F0B2C044F0B3C045F054504E
:10363400AAEC17F0546E34C042F031C043F0B4C069
:1036440044F0B5C045F05350AAEC17F0536E32C0A5
:1036540042F030C043F0B0C044F0B1C045F0555022
:10366400AAEC17F0556E2BB0531E2BB2541E2BB47C
:10367400551E400E2E24D96EDA6A020EDA2255C087
:10368400DFFF53C043F254C044F20001DCB307D05F
:1036940070510201451300017151020146130001EA
:1036A400DCB107D0725102014513000173510201CC
:1036B40046130001DCB707D0605102014513000135
:1036C4006151020146130001DCB507D062510201C9
:1036D400451300016351020146130001D2B307D020
:1036E40064510201451300016551020146130001B2
:1036F400D2B107D06651020145130001675102019E
:1037040046130001D3B707D06851020145130001E5
:103714006951020146130001D3B507D06A51020171
:10372400451300016B51020146130001D3B107D0C8
:103734006E510201451300016F510201461300014D
:10374400D3B312006C510201451300016D51020103
:1037540046131200800E536E800E546E800E556E0A
:10376400D00E476E000E486EB6EC09F047C019F053
:1037740048C01AF019041A10D8A46AD0D1C052F063
:10378400030E5216D8A409D000018251020140133D
:1037940000018351020141130DD00001D1B102D0C7
:1037A400000E546ED1A35468D0B102D0000E556EF1
:1037B400D0A35568D1C052F00C0E5216D8A407D02D
:1037C40000018051020140130001815118D0000111
:1037D400D1B502D0000E536ED1A75368D0B507D02F
:1037E4007851020140130001795102014113000193
:1037F400D0B707D07A510201401300017B51020176
:1038040041130001D1B907D07451020140130001E2
:103814007551020141130001D1BB07D07651020159
:10382400401300017751020141130001D0B907D0C0
:103834007C510201401300017D510201411300013A
:10384400D0BB9BD07E510201401300017F5193D025
:103854000001D439F00BD811546ED539F00BD911BD
:10386400536ED639F00BDA11556E33C042F031C0C5
:1038740043F0B2C044F0B3C045F05450AAEC17F082
:10388400546E34C042F031C043F0B4C044F0B5C00B
:1038940045F05350AAEC17F0536E32C042F030C0DA
:1038A40043F0B0C044F0B1C045F05550AAEC17F055
:1038B400556E0001DCB307D08451020140130001AE
:1038C4008551020141130001DCB107D08651020188
:1038D400401300018751020141130001DCB707D0F6
:1038E400745102014013000175510201411300019A
:1038F400DCB507D076510201401300017751020173
:1039040041130001D2B307D07851020140130001E2
:103914007951020141130001D2B107D07A51020159
:10392400401300017B51020141130001D3B707D0BA
:103934007C510201401300017D5102014113000139
:10394400D3B507D07E510201401300017F5102011B
:1039540041130001D3B107D0825102014013000189
:103964008351020141130001D3B307D080510201F6
:10397400401300018151020141132BB8531E2BBA8D
:10398400541E2BBC551E020E2D18D8A40DD0400E6B
:103994002D24D96EDA6A020EDA2254C03CF0535058
:1039A400C7EC0AF0DF6E10D0400E2D24D96EDA6A0F
:1039B400020EDA2253C0DFFF410E2D24D96EDA6ADB
:1039C400020EDA2254C0DFFF020E2C18D8A41CD039
:1039D4002BAE0DD0400E2C24D96EDA6A020EDA22F8
:1039E400800E3C6E5550C7EC0AF0DF6E1200400E9C
:1039F4002C24D96EDA6A020EDA2255C03CF0800E0D
:103A0400C7EC0AF0DF6E1200400E2C24D96EDA6A7D
:103A1400020EDA2255C0DFFF12001F0E36641200B8
:103A240064B212000001AE51AF11D8B406D0AEC0DA
:103A3400D9FFAFC0DAFFDFBE5BD082AE29D0010E62
:103A44000201406F7F0E416F7F0E426F7F0E436F06
:103A54007F0E446F0F0E456F000E466F000E476FCA
:103A6400D00E9318D8A405D081BC06D05BEC18F016
:103A740003D081AE60EC1AF0010E3C6E400E3D6E38
:103A8400020E3E6E080E3F6E010E1CEC11F02CD09F
:103A9400000E0201406F000E416F080E426F800E4F
:103AA400436F800E446F800E456F800E466F000E8C
:103AB400476FD00E9318D8A40AD081BC0AD0000155
:103AC400B605B711D8A405D0ACEC1BF002D081AE7A
:103AD400FBD7010E3C6E400E3D6E020E3E6E070E8D
:103AE4003F6E010E1CEC11F03CC0AEF03DC0AFF0D7
:103AF40082BE12000001AA51AB11D8B409D0AAC0E9
:103B0400D9FFABC0DAFFDFAE03D03504D8A412006E
:103B14000201C051D8B41BD1C0C280F218D14FECFD
:103B24000AF044D1F2EC0BF041D1C7EC08F03ED1DD
:103B3400C1C231F0C2C230F0C3C234F0C4C233F0E7
:103B4400C5C232F081EC0BF08FEC08F02FD1000EDF
:103B54005C6E000E5B6EC10E5B24D96E020E5C209F
:103B6400DA6E880E5B24E16E000E5C20E26EDFCF1D
:103B7400E7FF5B4A5C2A5CBEEED75C5004E1100EA2
:103B84005B5CD8A0E8D7D1C22AF00201D251D3C2DB
:103B940056F0576A56C057F0566A56101B6E575067
:103BA4001C6ED2D7000E5C6E000E5B6EC10E5B24E1
:103BB400D96E020E5C20DA6E600E5B24E16E000E9C
:103BC4005C20E26EDFCFE7FF5B4A5C2A5CBEEED787
:103BD4005C5004E1140E5B5CD8A0E8D7D5C22FF08A
:103BE400D6C22EF0D7C256F00F0E56162B50F00B3D
:103BF40026D0000E5C6E000E5B6EC10E5B24D96E87
:103C0400020E5C20DA6E740E5B24E16E000E5C2002
:103C1400E26EDFCFE7FF5B4A5C2A5CBEEED75C5006
:103C240004E1140E5B5CD8A0E8D7D5C22DF0D6C24F
:103C34002CF0D7C256F0F00E56162B500F0B561020
:103C44002B6E82D79DEC11F08FEC08F0AFD09DEC79
:103C54000AF0ACD0B7EC0CF0A9D0ECEC09F0A5EC70
:103C640010F072D7000E5C6E000E5B6E810E5B244A
:103C7400D96E020E5C20DA6E5B5085EC08F0DF6EC4
:103C84005B4A5C2A5CBEF2D75C5005E1200E5B5CAB
:103C9400D8B08CD0EBD78AD0000E5C6E000E5B6E71
:103CA400FF0E3C6E5B509CEC09F05B4A5C2A5CBEE8
:103CB400F7D75C5005E1200E5B5CD8B045D7F0D750
:103CC40043D73CEC09F072D0440E5A6E000E5C6E81
:103CD400010E5B6EC00E5B24D96E020E5C20DA6EA0
:103CE400DF503C6E5B50070F9CEC09F0C00E5B2468
:103CF400D96E020E5C20DA6EDF505A265B4A5C2ACB
:103D04005CBEE8D75C5004E1090E5B5CD8A0E2D746
:103D14000201C951566E576A5A50586E596AFF0EBD
:103D2400581A000E591A565058180AE15750591883
:103D3400D8A406D05AC03CF0070E9CEC09F004D776
:103D44009BEC08F033D0C051D8A4FAD72FD0C0517F
:103D5400010AD8B4E4D6030AD8B4E4D6010AD8B424
:103D6400E4D6070AD8B4E4D6010AD8B476D7030A4D
:103D7400D8B478D7010AD8B48FD70E0AD8B4A1D74B
:103D8400880AD8B4E4D6030AD8B40CD7010AD8B444
:103D940030D7070AD8B456D7010AD8B458D7030A7B
:103DA400D8B458D71E0AD8B48FD7CDD70001AC5198
:103DB400AD11D8B406D0ACC0D9FFADC0DAFFDFBEB8
:103DC4000FD0010E3C6E800E3D6E020E3E6E400E14
:103DD4003F6E020E1CEC11F03CC0ACF03DC0ADF0E7
:103DE400000E356E000E3C6EC00E3D6E020E3E6E31
:103DF400400E3F6E020E1CEC11F03CC0AAF03DC018
:103E0400ABF0120000F73F7E3EB53FFB3FED3F991C
:103E14003F183F5A3F05010904A101A10275089505
:103E240005150026FF00350046FF0009300930095A
:103E340030093009318102750495012507463B019B
:103E440065140900814265007501950A2501450143
:103E540005091901290A81020600FF7501950A2541
:103E640001450109018102C0A1027508950446FFBC
:103E74000026FF0009029102C0C050034D00490012
:103E840043004F004D0053004F00460054002000F3
:103E940044004500500054002E002C002000440033
:103EA40045004D00500041002000500055004200E4
:103EB4004C00490043004100540049004F004E00AB
:103EC400200049004E0043002E0005010905A10110
:103ED40015002501350045017501950D05091901E8
:103EE400290D81029503810105012507463B0175D2
:103EF4000495016514093981426500950181012603
:103F0400FF0046FF0009300931093209357508956B
:103F1400048102C009024200020100A03209040027
:103F2400000103000000092111010001224A0007D9
:103F34000581034000010904010002030000000997
:103F44002111010001221D00070582034000010721
:103F540005020340000109022200010100A0320908
:103F64000400000103000000092111010001226581
:103F7400000705810340000A0600FF0901A1011999
:103F8400012940150026FF0075089540810019019C
:103F940029409100C01C0336004200200063006FDA
:103FA400006E00740072006F006C006C006500729B
:103FB40000140358004500310041004A002D00550B
:103FC40000530042001201000200000008A7170578
:103FD400000100010203011201000200000008A315
:103FE4000C24000001010203010A035300450047A9
:0C3FF40000410004030904040309040058
:020000040020DA
:08000000FFFFFFFFFFFFFFFF00
:020000040030CA
:0E00000000120314FF0089FF03C003E0034059
:00000001FF
