:020000040000FA
:0408000007EF04F00A
:0A0808005E825E92110013EF0AF009
:020816001001CF
:10132E00010E296E12003D6E3DC0A9FFA69EA69C21
:10133E00A680A6B0FED7A85012004F0E0201816FF4
:10134E004B0E826F000E3E6E030E3D6E69EC0AF080
:10135E001200450E0201816F520E826F520E836F84
:10136E00000E3E6E040E3D6E69EC0AF01200C00EC9
:10137E000001986F020E996F000E9D6F080E9C6F04
:10138E002E0E9E6F130E9F6F9B8F1200010E00018B
:10139E00A627000EA723A823A9231A50D8A412000B
:1013AE00112A1150D8A412001168120025C081F222
:1013BE0024C082F228C083F227C084F226C085F2B0
:1013CE00000E3E6E060E3D6E69EC0AF01200000E27
:1013DE0096EC0BF00CEC13F045EC15F07BEC16F0E4
:1013EE00200E2A6001D0FAD764B2F8D728EC1DF08F
:1013FE00F5D73D503F02F3CF41F0F4CF42F03D50D0
:10140E004002F35042263E503F02F350422641C066
:10141E003DF042C03EF0120000EE60F0780EEE6A33
:10142E00E806FDE100EE01F03C0EEE6AE806FDE195
:10143E005E905E92000EF86E0001EEEF09F03DC078
:10144E0043F03EC044F008D043C0D9FF44C0DAFF99
:10145E003FC0DFFF434A442A4106D8A04206412836
:10146E00F3E14228D8B41200EFD760846298648208
:10147E00010E1A6E000E116E000E4A6E750E496E3A
:10148E00000E4B6E000E4C6E000E4E6E000E4D6E2C
:10149E00AFEC0CF01200F29CF29E8068000E816E92
:1014AE00000E826E8968000E8A6E000E8B6E000E24
:1014BE007E6E000E7F6EF00E936E0F0E946E0EEF1C
:1014CE0000F012003DC03FF03EC040F040BE06D0DE
:1014DE0040500FE1170E3F5CD8B01200800E3F2433
:1014EE00D96E020E4020DA6E000EDF6E3F4A402AA1
:1014FE00EDD712003DC03FF03EC040F040BE06D0DA
:10150E0040500FE1400E3F5CD8B01200800E3F24D9
:10151E00D96E020E4020DA6E000EDF6E3F4A402A70
:10152E00EDD71200000E1A6E000E4A6E740E496E42
:10153E00000E4B6E000E4C6E000E4E6E000E4D6E7B
:10154E00AFEC0CF06492609401D0629462B4FDD75B
:10155E00000E116E12003E6E3EC0A9FF3DC0A8FFE8
:10156E00A69EA69CA684000EF2BE010E3F6EF29EB3
:10157E00550EA76EAA0EA76EA6823F50D8A4F28E65
:10158E00A1A8FED7A198A6941200486E45A405D036
:10159E00000E3D6E4850F8EC0DF045A205D0010E40
:1015AE003D6E4850F8EC0DF0530E4824466E476AD7
:1015BE000F0E472246C0D9FF47C0DAFF45C0DFFFF6
:1015CE0012009A0E3D6E000EB2EC0AF028C03DF0ED
:1015DE00010EB2EC0AF027C03DF0020EB2EC0AF09A
:1015EE0026C03DF0030EB2EC0AF025C03DF0040E0D
:1015FE00B2EC0AF024C03DF0050EB2EC0AF0120077
:10160E003FC045F040C046F03DC043F03EC044F000
:10161E0010D045C0D9FF46C0DAFFDF50476E454AAD
:10162E00462A43C0D9FF44C0DAFF47C0DFFF434A12
:10163E00442A4106D8A042064128EBE14228D8B4FC
:10164E001200E7D70F0153A11DD00FC0D9FF10C054
:10165E00DAFF800EDE18D8A414D007C0D9FF08C058
:10166E00DAFF840EDE18D8A40CD00FC0D9FF10C03C
:10167E00DAFF0C0EDF6E0FC0D9FF10C0DAFF000EBE
:10168E00DB8E5391629A1200000E426E000E416E76
:10169E00880E4124D96E000E4220DA6E810E41244E
:1016AE00E16E020E4220E26EDFCFE7FF414A422A90
:1016BE0042BEEED7425004E1100E415CD8A0E8D7EE
:1016CE001EC091F2000E3E6E120E3D6E69EC0AF0D7
:1016DE001200000E0201816F000E826F020E816FEA
:1016EE00010E826F160EF66E080EF76E0800F5CF1D
:1016FE0083F2160EF66E080EF76E0900F5CF41F066
:10170E000900F5CF42F042C041F0426A4150846F69
:10171E00000E3E6E050E3D6E69EC0AF012003D6E37
:10172E001DD0000E816E000E826E000E8A6E000EAF
:10173E008B6E000E7E6E000E7F6EF00E936E0F0E91
:10174E00946E0F0E946EF19EF00E786E81BC03D0E7
:10175E00D00E936E1200B00E936E12003D50000A22
:10176E00D8B4DFD7010AD8B41200030A12003E6EB5
:10177E00400E3E600CD0400E3D6002D0070E21D0D0
:10178E00C00E3D6402D0050E1CD0060E1AD0C00E3F
:10179E003E640CD0400E3D6002D0010E12D0C00E41
:1017AE003D6402D0030E0DD0020E0BD0400E3D60F4
:1017BE0002D0000E06D0C00E3D6402D0040E01D041
:1017CE00080E3F6E3F501200160E0001C26F030E40
:1017DE00C36F530EC46F000EC56F4E0EC66F000E54
:1017EE00C76F2D0EC86F000EC96F2D0ECA6F000E7B
:1017FE00CB6F2D0ECC6F000ECD6F2D0ECE6F000E5B
:10180E00CF6F2D0ED06F000ED16F2D0ED26F000E3A
:10181E00D36F2D0ED46F000ED56F2D0ED66F000E1A
:10182E00D76F1200020E1C18D8A403D0ADEC14F022
:10183E001200000E1C6E1850D8A41FD020EE01F01E
:10184E000D50D9260E50DA22080EDF6E20EE02F071
:10185E000D50D9260E50DA22300EDE6E020EDD6EDF
:10186E000DC0D9FF0EC0DAFF0C0EDF6E0DC0D9FF12
:10187E000EC0DAFF000EDB8E1200000E186E120084
:10188E00000E0001B66F000EB76F000EB46F000EA3
:10189E00B56F000EB26F000EB36F000E296E000E04
:1018AE003E6E000E3D6E81EC0AF01A0E456E010E74
:1018BE00CCEC0AF082BE12001E0E456E020ECCEC6F
:1018CE000AF0000E3D6EC00E3E6E020E3F6E400ED2
:1018DE00406E020E8BEC12F03DC0B2F03EC0B3F083
:1018EE001200200E3E6E000E3D6E285080083F6E98
:1018FE00000ED8A0E82A0008406E25EC0DF03DC081
:10190E00BCF03EC0BDF0200E3E6E000E3D6E275068
:10191E0080083F6E000ED8A0E82A0008406E25EC25
:10192E000DF03DC0BAF03EC0BBF0200E3E6E000E74
:10193E003D6E265080083F6E000ED8A0E82A0008A3
:10194E00406E25EC0DF03DC0B8F03EC0B9F012006F
:10195E0010D000F01200010E96EC0BF01200020EE9
:10196E0096EC0BF0120047EC0CF01200DFEC15F0C9
:10197E00120049C04FF04AC050F05050000AD8B47F
:10198E0004D07F0AD8A412001AD04F50010AD8B43E
:10199E00EAD7030AD8B41200010AD8B4E7D7060A68
:1019AE00D8B41200770AD8B4D4D7010AD8B412002A
:1019BE00070AD8B4D4D7010AD8A41200CCD74F50F6
:1019CE00FF0A1200BEC081F2000E3E6E000E3D6E8A
:1019DE002B0E3D24D96E000E3E20DA6E820E3D2473
:1019EE00E16E020E3E20E26EDFCFE7FF3D4A3E2A59
:1019FE003EBEEED73E5004E10D0E3D5CD8A0E8D7BA
:101A0E00000E3E6E000E3D6E400E3D24D96E020E4F
:101A1E003E20DA6E8F0E3D24E16E020E3E20E26E07
:101A2E00DFCFE7FF3D4A3E2A3EBEEED73E5005E1F0
:101A3E00080E3D5CD8B01200E7D71200000E426EC1
:101A4E0040AE06D03F6C401ED8B0402A010E426E0A
:101A5E003EAE06D03D6C3E1ED8B03E2A010E421A56
:101A6E00000E446E000E436E3F504010D8B41CD092
:101A7E00010E416E04D0D8903F364036412A40AE1A
:101A8E00FAD7D890433644363F503D5C40503E58CE
:101A9E00D8A005D03F503D5E40503E5A4380D8906E
:101AAE0040323F32412EEDD74250D8B404D0436C71
:101ABE00441ED8B0442A43C03DF044C03EF012004C
:101ACE00000E1D6E000E166E000E136E000E126EC0
:101ADE00000E186E000E1C6E07C0D9FF08C0DAFF8C
:101AEE007F0EDF16040E0718076E0850086E07C02B
:101AFE00D9FF08C0DAFF7F0EDF16040E0718076E37
:101B0E000850086E0DC0D9FF0EC0DAFF7F0EDF162B
:101B1E00000E046E000E066E000E056E000E000125
:101B2E009B6F000E9D6F000E9C6F8CEC0FF0000EE5
:101B3E004A6E030E496E000E4B6E000E4C6E000E7A
:101B4E004E6E000E4D6EAFEC0CF029EC11F0120043
:101B5E00000E426E000E416E740E4124D96E000EC0
:101B6E004220DA6E810E4124E16E020E4220E26EB8
:101B7E00DFCFE7FF414A422A42BEEED7425004E190
:101B8E00140E415CD8A0E8D7000E426E000E416ED6
:101B9E00600E4124D96E000E4220DA6E950E41245D
:101BAE00E16E020E4220E26EDFCFE7FF414A422A8B
:101BBE0042BEEED7425004E1140E415CD8A0E8D7E5
:101BCE0023C0A9F222C0AAF221C0ABF220C0ACF20F
:101BDE001FC0ADF2000E3E6E2E0E3D6E69EC0AF089
:101BEE001200426E000E436E020E446E3D503E6E6B
:101BFE003F6AD8903E363F364250406E416AD8908A
:101C0E0040364136D890403641363E5040263F5001
:101C1E004122D89040364136D89040364136405019
:101C2E0043264150442243C0D9FF44C0DAFFDF9E11
:101C3E003D50D8A407D04250020DA00EF324D96E09
:101C4E00000E06D04250020D070EF324D96E000E80
:101C5E00F420DA6E43C0DEFF44C0DDFF43C0D9FF7F
:101C6E0044C0DAFFDF9C20EE04F04350D9264450E6
:101C7E00DA22DF8C1200000E136E000E126E020EB0
:101C8E001C18D8A41FD020EE01F00D50D9260E50EE
:101C9E00DA22080EDF6E20EE02F00D50D9260E501D
:101CAE00DA22380EDE6E020EDD6E0DC0D9FF0EC0CA
:101CBE00DAFF480EDF6E0DC0D9FF0EC0DAFF000E40
:101CCE00DB8E120005500201365D06503759D8B032
:101CDE0004D036C205F037C206F0EEEC0FF020EE5F
:101CEE0002F00750D9260850DA22380EDE6E020EA8
:101CFE00DD6E07C0D9FF08C0DAFF480EDF6E07C0E1
:101D0E00D9FF08C0DAFF000EDB8E12002D0E176E03
:101D1E003AC058F0FD0E5816D8A43BD03AC058F031
:101D2E00D89058323F0E58165850040D000EF3241A
:101D3E000F6E020EF420106E0FC00DF010C00EF0DC
:101D4E00040E0D180D6E0E500E6E0FC0D9FF10C082
:101D5E00DAFFDF30E8320F0B0D0AD8A417D0300EA1
:101D6E003D6E020E3E6E20EE02F00F50D926105040
:101D7E00DA22DECF3FF0DDCF40F0000E426E080ECD
:101D8E00416E07EC0BF067EC0DF0120019EC0CF045
:101D9E0012003A50FD0B040AD8A4120099EC11F06F
:101DAE001200000E0201386F000E396F38D0048E0B
:101DBE001B04D8A43FD038833DD0048E3BD0048E74
:101DCE0034510F0B0009D8B435D034BF0AD034517A
:101DDE000F0B3D6E3D50020DA00EF324D96E000E7A
:101DEE0009D034510F0B3D6E3D50020D070EF324FA
:101DFE00D96E000EF420DA6EDECF3EF0DDCF3FF06E
:101E0E003EC0D9FF3FC0DAFFDFAE14D03EC0D9FFCF
:101E1E003FC0DAFFDFA40ED0010E386F0BD0305169
:101E2E001F0B000AD8B4C3D7010AD8B4C6D7030A09
:101E3E00D8B4C5D704AE1200380E016E020E026E73
:101E4E000480020E056E12001550D8A41200010E69
:101E5E00156E1450D8A41200010E146E020E1C182A
:101E6E00D8A415D020EE01F00750D9260850DA225A
:101E7E00000EDF6E07C0D9FF08C0DAFF480EDF6E16
:101E8E0007C0D9FF08C0DAFF000EDB8E12001C045B
:101E9E00D8A41200000E186E20EE01F00F50D926B5
:101EAE001050DA22080EDF6E20EE02F00F50D92607
:101EBE001050DA22300EDE6E020EDD6E0FC0D9FF2C
:101ECE0010C0DAFF040EDF6E0FC0D9FF10C0DAFFAC
:101EDE00000EDB8E010E186E20EE01F00D50D9268D
:101EEE000E50DA22080EDF6E20EE02F00D50D926CB
:101EFE000E50DA22300EDE6E020EDD6E0DC0D9FFF0
:101F0E000EC0DAFF800EDF6E120002013039E832A9
:101F1E00030B0009D8A4120039D0048E080E2A6EC5
:101F2E00120023EC17F0120054EC10F012003C0ECD
:101F3E00016E000E026E0480010E056E048E1200FC
:101F4E00D8EC0EF012004AEC19F012003B0E3425BC
:101F5E00016E026A000E0222EED7048E3B0E34256D
:101F6E00D96EDA6A000EDA2232C2DFFF1200000EDC
:101F7E004A6E020E496E000E4B6E000E4C6E000E37
:101F8E004E6E000E4D6EAFEC0CF012003151000A89
:101F9E00D8B4D6D7010AD8B4D6D7020AD8B4D3D774
:101FAE00060AD8B4BAD7030AD8B4BBD7010AD8B434
:101FBE00DED70F0AD8B4BBD7010AD8B4B5D7030AF7
:101FCE00D8B4C4D7010AD8B4C8D7070A1200080E6D
:101FDE003D6E065010E1080E055CD8B00CD005C061
:101FEE003DF01D50D8A402D0010E04D01D04D8A47B
:101FFE0002D0020E1D6E3D50055E000E065A20EEFA
:10200E0001F00750D9260850DA223DC0DFFF380E06
:10201E000001B06F020EB16F04A01CD03AD001C007
:10202E00F6FF02C0F7FFF86AB0C0D9FFB1C0DAFF01
:10203E00020EF76403D00800F55005D0F6CFE1FF8D
:10204E00F7CFE2FFE750DF6E014A022A0001B04BE4
:10205E00B12B3D063D50D8B41200E1D701C0F6FFBA
:10206E0002C0F7FFF86AB0C0D9FFB1C0DAFF020EA6
:10207E00F76403D00800F55005D0F6CFE1FFF7CF97
:10208E00E2FFE750DF6E014A022A0001B04BB12B8E
:10209E003D063D50D8B41200E1D7048E540E3D6E6D
:1020AE000F0E3E6E000E406E000E3F6E000E426E24
:1020BE00020E416E26EC0AF0000E3D6E020E3E6ED2
:1020CE00000E406E000E3F6E000E426E300E416EE0
:1020DE0026EC0AF0648C000E516EAD0E5124D96EB2
:1020EE00DA6A000EDA22000EDF6EAA0E5124D96EC5
:1020FE00DA6A000EDA22000EDF6E512A020E5164E9
:10210E00ECD73B0E3D6E000E3E6E000E406E000E86
:10211E003F6E000E426E010E416E26EC0AF0649C7C
:10212E00080E076E020E086E000E0F6E020E106E77
:10213E000FC00DF010C00EF032C23CF03C50D8A4CF
:10214E0003D0100E2A6E1200200E2A6E000E4A6E5A
:10215E00010E496E3C0E4B6E000E4C6E000E4E6E16
:10216E00010E4D6EAFEC0CF01200000E416E000E23
:10217E00406E740E4024D96E000E4120DA6EDF5090
:10218E003D6E4050200FB2EC0AF0404A412A41BE4B
:10219E00F0D7415004E1140E405CD8A0EAD7000EEF
:1021AE00416E000E406E600E4024D96E000E41202E
:1021BE00DA6EDF503D6E4050340FB2EC0AF0404AFA
:1021CE00412A41BEF0D7415004E1140E405CD8A024
:1021DE00EAD7000E416E000E406E880E4024D96E76
:1021EE00000E4120DA6EDF503D6E4050480FB2ECCB
:1021FE000AF0404A412A41BEF0D7415004E1100E88
:10220E00405CD8A0EAD723C03DF0580EB2EC0AF0DD
:10221E0022C03DF0590EB2EC0AF01EC03DF05A0E2F
:10222E00B2EC0AF021C03DF05B0EB2EC0AF020C019
:10223E003DF05C0EB2EC0AF01FC03DF05D0EB2EC4C
:10224E000AF01200649804BE39D000019BAF0BD087
:10225E00020E1C6E1250D8B442EC0EF0000E146E2C
:10226E00000E156E120020EE01F00D50D9260E5004
:10227E00DA22080EDF6E20EE02F00D50D9260E5037
:10228E00DA22300EDE6E020EDD6E0DC0D9FF0EC0EC
:10229E00DAFF0C0EDF6E0DC0D9FF0EC0DAFF000E96
:1022AE00DB8E07C0D9FF08C0DAFF040EDF6E07C051
:1022BE00D9FF08C0DAFF000EDB8E1200020130AF2C
:1022CE0010D0010E1C6E1350D8B442EC0EF0000E5E
:1022DE00146E000E156E1650D8A412002BEC0FF0D3
:1022EE001200020E1C6E20EE01F00D50D9260E507B
:1022FE00DA22080EDF6E20EE02F00D50D9260E50B7
:10230E00DA22300EDE6E020EDD6E0DC0D9FF0EC06B
:10231E00DAFF040EDF6E0DC0D9FF0EC0DAFF000E1D
:10232E00DB8ED5D707C0D9FF08C0DAFF000EDFBCA1
:10233E00010E3E6E040E0718076E0850086E080E4A
:10234E002A18D8A40CD0020132517F0B0F015C6FFA
:10235E005C51D8B402D0100E01D0040E2A6E1C04AB
:10236E00D8A43AD020EE02F00750D9260850DA222F
:10237E00380EDE6E020EDD6EEEEC0FF0020E1D1844
:10238E00D8A40DD007C0D9FF08C0DAFF040EDF6E47
:10239E0007C0D9FF08C0DAFF000EDB8E12003E50D8
:1023AE00D8A40DD007C0D9FF08C0DAFF480EDF6EE3
:1023BE0007C0D9FF08C0DAFF000EDB8E120007C07F
:1023CE00D9FF08C0DAFF080EDF6E07C0D9FF08C0BC
:1023DE00DAFF000EDB8E120000019BAF14D09E516F
:1023EE009F11D8B40ED020EE9EF001D80AD0050071
:1023FE00FA6EDE50FD6EDE50FE6EF850FF6EFA5035
:10240E00120000019B9F000E1C6E1200000E286E23
:10241E00000E276E000E266E020E256E020E246E24
:10242E00E8EC0AF0000E426E740E4224D96EDA6A9F
:10243E00000EDA22000EDF6E422A130E4264F4D72B
:10244E00000E426E600E4224D96EDA6A000EDA2257
:10245E00000EDF6E422A130E4264F4D7000E426E57
:10246E00880E4224D96EDA6A000EDA22000EDF6E72
:10247E00422A0F0E4264F4D7400E0001886F200EE0
:10248E008A6F020E8D6F800E8E6F100E906F010E82
:10249E00936F200E956F100E976F400E606F200E8B
:1024AE00626F020E656F800E666F100E686F010E02
:1024BE006B6F200E6D6F100E6F6F400E706F200ED3
:1024CE00726F010E746F020E766F040E786F080E27
:1024DE007A6F100E7C6F200E7E6F800E806F400E16
:1024EE00826F010E846F020E866F030E236E020E34
:1024FE00226E030E1E6E030E216E060E206E440E0D
:10250E001F6EBCEC10F01200456E3D50D8B407D0D3
:10251E004550020D070EF324D96E000E06D045501D
:10252E00020DA00EF324D96E000EF420DA6EDECF6B
:10253E0046F0DDCF47F046504710D8A405D0000E28
:10254E003D6E000E3E6E120020EE02F04650D92671
:10255E004750DA223EC0DEFF3FC0DDFF20EE01F025
:10256E004650D9264750DA2240C0DFFF46C0D9FF79
:10257E0047C0DAFF400EDF1646C0D9FF47C0DAFF6C
:10258E00000EDB8646C0D9FF47C0DAFF000EDB8E99
:10259E003D50D8B418D04550020D070EF324D96E15
:1025AE00000EF420DA6EDECF41F0DDCF42F0040EE5
:1025BE004118436E4250446E4550020D070EF324EF
:1025CE00D96E000E17D04550020DA00EF324D96E11
:1025DE00000EF420DA6EDECF41F0DDCF42F0040EB5
:1025EE004118436E4250446E4550020DA00EF32426
:1025FE00D96E000EF420DA6E43C0DEFF44C0DDFF5C
:10260E0046C03DF047C03EF01200829E000E4A6E5C
:10261E003D0E496EE10E486E400EE82EFED7482E56
:10262E00FCD7492EFAD7D00E9318D8B437D02B0E2C
:10263E003D6E000E3E6E8FEC13F01F0E496E710E46
:10264E00486E1E0EE82EFED7482EFCD7492EFAD71E
:10265E0000D02B0E3D6E000E3E6E8FEC13F03D043F
:10266E003E10D8A40BD02CA8828E2CBA02D0010E0C
:10267E004A6E2BB420D052EC0AF01DD037500A0B04
:10268E000A0AD8A4828E37B002D0010E4A6E37B431
:10269E0002D0010E4A6E2DA2EED70DD0818AF00E19
:1026AE0000D0E82EFDD781B802D0010E4A6E81AE61
:1026BE0052EC0AF0828EEBEC0BF0000E9AEC09F065
:1026CE009A0AD8B402D0010E01D0000E486E496AA3
:1026DE004A504812000E491248504910D8B413D02F
:1026EE00000E286E000E276E000E266E020E256E50
:1026FE00020E246E000E0001C16F000EC06FE8ECDA
:10270E000AF00DEC12F01CEC14F078EC0CF0120048
:10271E00818C3DC044F03EC045F0140EE82EFED72D
:10272E0082CF3FF00F0E3F168150300B3F1044C04A
:10273E00D9FF45C0DAFFDF6E444A452A819C140E4C
:10274E00E82EFED782CF3FF00F0E3F168150300B92
:10275E003F1044C0D9FF45C0DAFFDF6E444A452A18
:10276E00818C000E436E000E426E000E416E000E06
:10277E00406E81B802D0010E01D0000E3F6E81BABC
:10278E0002D0010E01D0000E3F14E8B00DD0C80EDD
:10279E0040184110D8A405D0000E3E6E010E3D6EBD
:1027AE001200404A412AE5D782500F0B44C0D9FF90
:1027BE0045C0DAFFDF6E444A452A050E4218431023
:1027CE00D8A405D0000E3E6E000E3D6E1200000E17
:1027DE00416E000E406E81A802D0010E01D0000E97
:1027EE003F6E81BA02D0010E01D0000E3F14E8B048
:1027FE0008D0C80E40184110D8B4CED7404A412A4E
:10280E00EAD782500F0B44C0D9FF45C0DAFFDF6E06
:10281E00444A452A424A432A43BEA7D74350BCE105
:10282E00060E425CD8B0B8D7A0D7010E9AEC09F0CC
:10283E00286E020E9AEC09F0276E030E9AEC09F040
:10284E00266E040E9AEC09F0256E050E9AEC09F030
:10285E00246E000E476E740E4724D96EDA6A000E8F
:10286E00DA224750200F9AEC09F0DF6E472A130E3A
:10287E004764F1D7000E476E600E4724D96EDA6AB0
:10288E00000EDA224750340F9AEC09F0DF6E472A19
:10289E00130E4764F1D7000E476E880E4724D96E8B
:1028AE00DA6A000EDA224750480F9AEC09F0DF6E12
:1028BE00472A0F0E4764F1D7580E9AEC09F0236E93
:1028CE00590E9AEC09F0226E5A0E9AEC09F01E6E11
:1028DE005B0E9AEC09F0216E5C0E9AEC09F0206EFC
:1028EE005D0E9AEC09F01F6E440E466E000E476E9A
:1028FE003E0E4724D96EDA6A000EDA224750080FD0
:10290E009AEC09F0DF6E3E0E4724D96EDA6A000E9D
:10291E00DA22DF504626472A070E4764E9D7070E0C
:10292E009AEC09F04618D8A412003EC0C8F03FC079
:10293E00CAF040C0CCF041C0CEF042C0D0F043C08F
:10294E00D2F044C0D4F045C0D6F0120020EE01F013
:10295E000F50D9261050DA22DF503E6E3E50000145
:10296E009C5D000E9D59D8A09CC03EF03E509C5FD1
:10297E00000E9D5B000E3D6E0FD0380E3D24D96EBD
:10298E00DA6A020EDA2298C0E1FF99C0E2FFDFCFC9
:10299E00E7FF984B992B3D2A3E503D5CD8A0EDD7D2
:1029AE009C519D11D8B432D020EE01F00D50D92695
:1029BE000E50DA22080EDF6E20EE02F00D50D926F0
:1029CE000E50DA22380EDE6E020EDD6E0FC0D9FF0B
:1029DE0010C0DAFFDFBC0DD00DC0D9FF0EC0DAFF7C
:1029EE00480EDF6E0DC0D9FF0EC0DAFF000EDB8E73
:1029FE0012000DC0D9FF0EC0DAFF080EDF6E0DC03B
:102A0E00D9FF0EC0DAFF000EDB8E120020EE01F0B1
:102A1E000D50D9260E50DA22080EDF6E20EE02F08F
:102A2E000D50D9260E50DA22300EDE6E020EDD6EFD
:102A3E000DC0D9FF0EC0DAFF040EDF6E0DC0D9FF38
:102A4E000EC0DAFF000EDB8E9E519F11D8B40ED051
:102A5E0020EE9EF001D80AD00500FA6EDE50FD6E13
:102A6E00DE50FE6EF850FF6EFA50120000019B9F72
:102A7E001650D8A412002BEC0FF01200A094000EEA
:102A8E000F015F6F000E626E000E536F540E3D6E9F
:102A9E000F0E3E6E000E406E000E3F6E000E426E2A
:102AAE00020E416E26EC0AF0160E616E9F0E0F019D
:102ABE005B6F7B0E606E000E456E4550040D000E72
:102ACE00F324D96E020EF420DA6EDE6ADE6ADE6A56
:102ADE00DD6A452A0B0E4564F0D7648C000E0F019B
:102AEE005C6F6498649C6296000E046E000E00018A
:102AFE009B6F000E9D6F000E9C6F62B6F4D7010E99
:102B0E00156E010E146E000E136E000E126E000E78
:102B1E001A6E000E456E4550020D070EF324D96E47
:102B2E00000EF420DA6E000EDE6E000EDD6E4550E5
:102B3E00020DA00EF324D96E000EF420DA6E000EF4
:102B4E00DE6E000EDD6EAD0E4524D96EDA6A000E15
:102B5E00DA22000EDF6EAA0E4524D96EDA6A000E56
:102B6E00DA22000EDF6E452A020E4564D4D7080E17
:102B7E00076E020E086E160E0F01536F020E020143
:102B8E00036F300E026F080E016F040E006F008F80
:102B9E00000E3C6E000E0001A66F000EA76F000E19
:102BAE00A86F000EA96F000E116E000E2A6E120095
:102BBE00020130511F0BE806D8A41200060E31197F
:102BCE00D8B44CD053D03C04D8A450D082AE16D03A
:102BDE003451D8A412006C0E016E3F0E026E000E20
:102BEE00066E090E056EC00E046E40D02A0E016EE2
:102BFE003F0EF4D73A0E016E3F0EF0D73451000A55
:102C0E00D8B4F4D7010AD8B4F5D730D03C04D8A440
:102C1E002DD082AE1BD03451D8A41200190E016EE5
:102C2E003E0E026E000E066E650EDCD7CE0E016EE7
:102C3E003E0E026E000E066E4A0ED4D77C0E016E4C
:102C4E003F0E026E000E066E1D0ECCD73451000ADA
:102C5E00D8B4ECD7010AD8B4F1D708D03351210A31
:102C6E00D8B4B1D7030AD8B4D1D7010A3039E83273
:102C7E00030BE806D8A4120023D0BEEC09F0120014
:102C8E00390E016E000E026E000E066E010E056EFE
:102C9E00C10E046E1200800E046E33C239F01200A3
:102CAE00380E016E000E026E000E066E010E056EDF
:102CBE00810E046E1200800E046E32C238F01200C5
:102CCE003151010AD8B41200030AD8B4D9D7010A77
:102CDE00D8B4E6D70A0AD8B4D0D7030AD8B4DBD70B
:102CEE00010AD8A41200E7D72A50D8A411D0000E9A
:102CFE00646E000E606E160E616E9F0E0F015B6F9E
:102D0E007B0E606E01D0648664A6FDD7010E2A6E1E
:102D1E002A04D8B464BA08D0000E626E000E606E3B
:102D2E0060806088020E2A6E62B460A403D0629442
:102D3E0099EC0AF064A202D0A194120062B060A0D5
:102D4E0005D045EC15F0040E2A6E629062B860A8AC
:102D5E0002D03CEC0AF062AC1AD060AC0ED0000E81
:102D6E004A6E730E496E000E4B6E000E4C6E000EC8
:102D7E004E6E010E4D6EAFEC0CF0629CCDEC09F078
:102D8E001750D8A417061750D8B42BEC0FF062BA10
:102D9E0060AA02D029EC0BF062B260A210D07F0EB6
:102DAE004A6E4968000E4B6E000E4C6E000E4E6E53
:102DBE00010E4D6EAFEC0CF0000E0F015F6F040EA6
:102DCE002A6002D0A194120060A634D0000E596E73
:102DDE0062A630D063CF3AF03A30E832E8320F0BC9
:102DEE00196E62963AB406D0AA0E1924D96EDA6A12
:102DFE00000E05D0AD0E1924D96EDA6A000EDA2255
:102E0E000001DF701950D8A403D08DEC0EF00ED057
:102E1E00000E4A6E720E496E3A0E4B6E000E4C6EDE
:102E2E00000E4E6E000E4D6EAFEC0CF0592A030ED6
:102E3E005964CED7A1941200800E02013019D8A485
:102E4E001200C00E046E97D082AE09D0DB0E016E5A
:102E5E003F0E026E000E066E120E056E1200C90EA9
:102E6E00016E3F0EF6D73251D8A446D082AE07D0AF
:102E7E003251020D170EF324F66E3E0E06D032516D
:102E8E00020D150EF324F66E3E0EF420F76E0900B9
:102E9E00F5CF01F00A00F5CF02F0020E01243D6ECF
:102EAE00000E02203E6E3DC0F6FF3EC0F7FFF86AF0
:102EBE00020EF76403D00800F55005D0F6CFE1FFFF
:102ECE00F7CFE2FFE750056E030E01243D6E000EB4
:102EDE0002203E6E3DC0F6FF3EC0F7FFF86A020EBE
:102EEE00F76403D00800F55005D0F6CFE1FFF7CF19
:102EFE00E2FFE750066E1200000E046E1200030E83
:102F0E0032612CD082AE07D03251020D0F0EF32457
:102F1E00F66E3E0E06D03251020D090EF324F66EF9
:102F2E003E0EF420F76E0900F5CF01F00A00F5CF42
:102F3E0002F001C0F6FF02C0F7FFF86A020EF76456
:102F4E0003D00800F55005D0F6CFE1FFF7CFE2FF32
:102F5E00E7503D6E3D50056E066A1200030E3219A3
:102F6E00D8A4CAD70480C20E016E000E026EC2C073
:102F7E0005F0048E12003351010AD8B465D7030A46
:102F8E00D8B471D7010AD8B4BAD7B6D7506E50504C
:102F9E00476E486A4350496E4A6A800E4926000EB3
:102FAE004A224750495C4A50800A4B6E4850800A6C
:102FBE004B58D8A017D0800E476E000E486E435067
:102FCE00475E000E485A5050496E4A6A4750495C57
:102FDE004A50800A4B6E4850800A4B58D8A002D0F7
:102FEE00800E1200800E50603CD0505043C047F00F
:102FFE00486A471E481E474A482A475E000E485AEE
:10300E00800E47244C6E000E48204D6E44C03DF09D
:10301E003E6A4CC03FF04DC040F000EC0AF03DC09F
:10302E004EF03EC04FF04EC03DF04FC03EF045C09A
:10303E003FF046C040F000EC0AF03DC051F03EC0FB
:10304E0052F0400E525CD8A004D0400E526E000ECC
:10305E00516E51500008516E5250D8A0E82A4008C7
:10306E00526E800E506436D0435050C047F0486ABE
:10307E00475E000E485A810E47244C6EFF0E4820C4
:10308E004D6E44C03DF03E6A4CC03FF04DC040F026
:10309E0000EC0AF03DC04EF03EC04FF04EC03DF089
:1030AE004FC03EF045C03FF046C040F000EC0AF085
:1030BE003DC051F03EC052F0400E525CD8A004D03C
:1030CE00400E526E000E516EFF0E5124516E3F0E89
:1030DE005220526E51C047F052C048F0070E496E52
:1030EE00D89048324732492EFBD747501200010E76
:1030FE003D6E819AF00E00D0E82EFDD7818AF00E3B
:10310E0000D0E82EFDD7819AF00E00D0E82EFDD724
:10311E0081B808D000018851020145130001895180
:10312E000201461381BE02D0000E3D6E818AF00E62
:10313E0000D0E82EFDD782B008D0410E1E24D96EE5
:10314E00DA6A020EDA22000EDF6E82B208D0410E6B
:10315E001E24D96EDA6A020EDA22FF0EDF6E82B4F8
:10316E0008D0400E1E24D96EDA6A020EDA22000E44
:10317E00DF6E82B608D0400E1E24D96EDA6A020EB9
:10318E00DA22FF0EDF6E81B808D000018A510201EB
:10319E00451300018B510201461381BE08D0000178
:1031AE008C510201451300018D5102014613819A83
:1031BE00F00E00D0E82EFDD782A082B23ED0818ADA
:1031CE00F00E00D0E82EFDD782B008D0000192514B
:1031DE0002014513000193510201461382B208D039
:1031EE000001905102014513000191510201461355
:1031FE0082B408D000018E510201451300018F5197
:10320E000201461382B608D0000196510201451301
:10321E0000019751020146133D50D8A408D0000179
:10322E009451020145130001955102014613819AF2
:10323E00F00E00D0E82EFDD724D0900E0001C0195C
:10324E0003E1C105D8B413D03D50D8A40BD094518E
:10325E000201451300019551020146130001C04BB6
:10326E00C12B0FD0000EC16F000EC06F0AD03D50A3
:10327E00D8A4F8D7965102014513000197510201C7
:10328E004613818A120002013205D8A40ED03051A5
:10329E001F0B0009D8A409D0048E030E3119D8A42F
:1032AE0002D0010E01D0000E1B6E3251D8A41200B6
:1032BE0030511F0B020AD8A4120034510F0B000913
:1032CE00D8B4120034510F0B516E030E5160120020
:1032DE00200E2A18D8A41200048E34BF18D03451F0
:1032EE000F0B516E5150020DA00EF324D96E000E2D
:1032FE00F420DA6EDECF56F0DDCF57F034510F0BDF
:10330E00516E526AAA0E5124D96E000E17D0345146
:10331E000F0B516E5150020D070EF324D96E000E95
:10332E00F420DA6EDECF56F0DDCF57F034510F0BAE
:10333E00516E526AAD0E5124D96E000E5220DA6EC5
:10334E00DF50556E55B006D0FB0E5614566EFF0E5E
:10335E00571404D0040E5610566E5750576E34BF85
:10336E000AD034510F0B516E5150020DA00EF324A2
:10337E00D96E000E09D034510F0B516E5150020D03
:10338E00070EF324D96E000EF420DA6E56C0DEFF5F
:10339E0057C0DDFF030E3119D8A42AD056C0D9FF6D
:1033AE0057C0DAFFDFAE17D034BF09D034510F0B40
:1033BE00516E526AAA0E5124D96E000E08D03451A5
:1033CE000F0B516E526AAD0E5124D96E000E522063
:1033DE00DA6E0001DF8256C0D9FF57C0DAFF000E49
:1033EE00DB8456C0D9FF57C0DAFF000EDB8E120009
:1033FE00040E5618566E5750576E56C0D9FF57C00A
:10340E00DAFFDFAE1BD056C0D9FF57C0DAFF7F0EF2
:10341E00DF1656C0D9FF57C0DAFF000EDB8C000E48
:10342E004A6E050E496E56C04BF057C04CF0000E5A
:10343E004E6E020E4D6EAFEC0CF006D056C0D9FF9C
:10344E0057C0DAFF000EDB8C040E5618566E57501E
:10345E00576E55B206D056C0D9FF57C0DAFFDFAE51
:10346E002DD0020134BF09D034510F0B516E526A68
:10347E00AA0E5124D96E000E08D034510F0B516E86
:10348E00526AAD0E5124D96E000E5220DA6E000132
:10349E00DF9256C0D9FF57C0DAFF3B0EDF16000E83
:1034AE004A6E050E496E56C04BF057C04CF0000EDA
:1034BE004E6E020E4D6EAFEC0CF006D056C0D9FF1C
:1034CE0057C0DAFF3B0EDF16020134510F0B516E5F
:1034DE00526A530E5124536E0F0E5220546E53C027
:1034EE00D9FF54C0DAFFFE0EDF1612002B0E3D6E12
:1034FE00000E3E6E8FEC13F03DC0BEF03EC0BFF02E
:10350E000001BE05BF11D8A494D02CC053F0030EF9
:10351E005316D8A408D06E510201451300016F5105
:10352E000201461328D02CB008D0410E2324D96EA8
:10353E00DA6A020EDA22000EDF6E2CB208D0410ECD
:10354E002324D96EDA6A020EDA22FF0EDF6E2BB05A
:10355E0008D0400E2224D96EDA6A020EDA22000E4C
:10356E00DF6E2BB208D0400E2224D96EDA6A020E1C
:10357E00DA22FF0EDF6E2CC053F00C0E5316D8A4B9
:10358E0007D000016C510201451300016D5126D088
:10359E002CB408D0400E2324D96EDA6A020EDA2239
:1035AE00000EDF6E2CB608D0400E2324D96EDA6AD8
:1035BE00020EDA22FF0EDF6E2BB408D0000164512A
:1035CE000201451300016551020146132BB608D0C6
:1035DE0000016651020145130001675102014613B5
:1035EE002CB808D000016051020145130001615151
:1035FE00020146132CBA08D0000162510201451394
:10360E0000016351020146132BB808D00001685126
:10361E000201451300016951020146132BBA120033
:10362E0000016A510201451300016B51020146135C
:10363E0012002F38F00B3310556E3038F00B34105B
:10364E00546E3138F00B3510566E27C043F025C03E
:10365E0044F0BAC045F0BBC046F05550CDEC17F063
:10366E00556E28C043F025C044F0BCC045F0BDC027
:10367E0046F05450CDEC17F0546E26C043F024C0E3
:10368E0044F0B8C045F0B9C046F05650CDEC17F036
:10369E00566E1FB0541E1FB2551E1FB4561E400E3E
:1036AE002224D96EDA6A020EDA2256C0DFFF54C027
:1036BE0043F255C044F237B208D0000170510201F6
:1036CE004513000171510201461337B008D00001B5
:1036DE00725102014513000173510201461337B6B0
:1036EE0008D0000160510201451300016151020131
:1036FE00461337B408D00001625102014513000190
:10370E006351020146132DB208D00001645102012B
:10371E00451300016551020146132DB008D000017A
:10372E0066510201451300016751020146132EB680
:10373E0008D00001685102014513000169510201D0
:10374E0046132EB408D000016A5102014513000140
:10375E006B51020146132EB008D000016E510201CA
:10376E00451300016F51020146132EB212000001E3
:10377E006C510201451300016D51020146131200F6
:10378E00800E546E800E556E800E566E2B0E3D6E54
:10379E00000E3E6E8FEC13F03DC0BEF03EC0BFF08B
:1037AE000001BE05BF11D8A468D02CC053F0030E83
:1037BE005316D8A408D08251020140130001835140
:1037CE00020141130CD02CB002D0000E556E2CA26B
:1037DE0055682BB002D0000E566E2BA256682CC028
:1037EE0053F00C0E5316D8A407D0000180510201DD
:1037FE0040130001815118D02CB402D0000E546E2B
:10380E002CA654682BB408D0000178510201401345
:10381E0000017951020141132BB608D000017A51F3
:10382E000201401300017B51020141132CB808D054
:10383E000001745102014013000175510201411340
:10384E002CBA08D0000176510201401300017751C5
:10385E00020141132BB808D000017C510201401324
:10386E0000017D51020141132BBA9BD000017E5104
:10387E000201401300017F5192D02F38F00B33100C
:10388E00556E3038F00B3410546E3138F00B351055
:10389E00566E27C043F025C044F0BAC045F0BBC0F9
:1038AE0046F05550CDEC17F0556E28C043F025C0AC
:1038BE0044F0BCC045F0BDC046F05450CDEC17F0FE
:1038CE00546E26C043F024C044F0B8C045F0B9C0D1
:1038DE0046F05650CDEC17F0566E37B208D00001B8
:1038EE00845102014013000185510201411337B08A
:1038FE0008D00001865102014013000187510201D8
:10390E00411337B608D00001745102014013000173
:10391E0075510201411337B408D0000176510201EE
:10392E00401300017751020141132DB208D000015E
:10393E0078510201401300017951020141132DB05B
:10394E0008D000017A510201401300017B5102019F
:10395E0041132EB608D000017C5102014013000124
:10396E007D51020141132EB408D000017E51020197
:10397E00401300017F51020141132EB008D0000107
:10398E0082510201401300018351020141132EB2F4
:10399E0008D0000180510201401300018151020143
:1039AE0041131FB8541E1FBA551E1FBC561E020EC1
:1039BE002118D8A40DD0400E2124D96EDA6A020E39
:1039CE00DA2255C03DF05450BEEC0BF0DF6E10D035
:1039DE00400E2124D96EDA6A020EDA2254C0DFFFBD
:1039EE00410E2124D96EDA6A020EDA2255C0DFFFAB
:1039FE00020E2018D8A41CD01FAE0DD0400E2024CD
:103A0E00D96EDA6A020EDA22800E3D6E5650BEEC88
:103A1E000BF0DF6E1200400E2024D96EDA6A020E11
:103A2E00DA2256C03DF0800EBEEC0BF0DF6E1200B7
:103A3E00400E2024D96EDA6A020EDA2256C0DFFF5B
:103A4E0012001F0E2A64120064B212000001B65159
:103A5E00B711D8B406D0B6C0D9FFB7C0DAFFDFBEF3
:103A6E004ED082AE29D0010E0201406F7F0E416F03
:103A7E007F0E426F7F0E436F7F0E446F0F0E456FAA
:103A8E00000E466F000E476FD00E9318D8A405D0C7
:103A9E0081BC06D07EEC18F003D081AE7DEC1AF01E
:103AAE00010E3D6E400E3E6E020E3F6E080E406ED3
:103ABE00010E8BEC12F01FD0000E0201406F000EB3
:103ACE00416F080E426F800E436F800E446F800E62
:103ADE00456F800E466F000E476F81AEC7EC1BF030
:103AEE00010E3D6E400E3E6E020E3F6E070E406E94
:103AFE00010E8BEC12F03DC0B6F03EC0B7F082BEA8
:103B0E0012000001B251B311D8B409D0B2C0D9FF1E
:103B1E00B3C0DAFFDFAE03D02904D8A4120002012D
:103B2E00C051D8B40FD1C0C280F20CD170EC0BF0E2
:103B3E0038D1E9EC0CF035D1DDEC09F032D1C1C24F
:103B4E0025F0C2C224F0C3C228F0C4C227F0C5C2F9
:103B5E0026F078EC0CF0A4EC09F023D1000E5D6E8B
:103B6E00000E5C6EC10E5C24D96E020E5D20DA6E04
:103B7E00880E5C24E16E000E5D20E26EDFCFE7FF63
:103B8E005C4A5D2A5DBEEED75D5004E1100E5C5CB2
:103B9E00D8A0E8D7D1C21EF0DED7000E5D6E000EA3
:103BAE005C6EC10E5C24D96E020E5D20DA6E600E64
:103BBE005C24E16E000E5D20E26EDFCFE7FF5C4A13
:103BCE005D2A5DBEEED75D5004E1140E5C5CD8A09C
:103BDE00E8D7D5C223F0D6C222F0D7C257F00F0EC7
:103BEE0057161F50F00B26D0000E5D6E000E5C6E49
:103BFE00C10E5C24D96E020E5D20DA6E740E5C244A
:103C0E00E16E000E5D20E26EDFCFE7FF5C4A5D2ABB
:103C1E005DBEEED75D5004E1140E5C5CD8A0E8D713
:103C2E00D5C221F0D6C220F0D7C257F0F00E5716EB
:103C3E001F500F0B57101F6E8ED70DEC12F0A4EC09
:103C4E0009F0AFD04BEC0BF0ACD0AFEC0DF0A9D02F
:103C5E00E8EC0AF0BCEC10F07ED7000E5D6E000EA4
:103C6E005C6E810E5C24D96E020E5D20DA6E5C50A5
:103C7E009AEC09F0DF6E5C4A5D2A5DBEF2D75D50AC
:103C8E0005E1200E5C5CD8B08CD0EBD78AD0000E4C
:103C9E005D6E000E5C6EFF0E3D6E5C50B2EC0AF077
:103CAE005C4A5D2A5DBEF7D75D5005E1200E5C5C77
:103CBE00D8B051D7F0D74FD752EC0AF072D0440E8D
:103CCE005B6E000E5D6E010E5C6EC00E5C24D96ED6
:103CDE00020E5D20DA6EDF503D6E5C50070FB2ECC7
:103CEE000AF0C00E5C24D96E020E5D20DA6EDF5033
:103CFE005B265C4A5D2A5DBEE8D75D5004E1090E85
:103D0E005C5CD8A0E2D70201C951576E586A5B506D
:103D1E00596E5A6AFF0E591A000E5A1A57505918F0
:103D2E000AE158505A18D8A406D05BC03DF0070ED1
:103D3E00B2EC0AF010D7B0EC09F033D0C051D8A4D1
:103D4E00FAD72FD0C051010AD8B4F0D6030AD8B48E
:103D5E00F0D6010AD8B4F0D6070AD8B4F0D6010AC4
:103D6E00D8B476D7030AD8B478D7010AD8B48FD787
:103D7E000E0AD8B4A1D7880AD8B4F0D6030AD8B49C
:103D8E000CD7010AD8B430D7070AD8B456D7010ACF
:103D9E00D8B458D7030AD8B458D71E0AD8B48FD778
:103DAE00CDD70001B451B511D8B406D0B4C0D9FFE7
:103DBE00B5C0DAFFDFBE0FD0010E3D6E800E3E6E37
:103DCE00020E3F6E400E406E020E8BEC12F03DC0A6
:103DDE00B4F03EC0B5F0000E296E000E3D6EC00E62
:103DEE003E6E020E3F6E400E406E020E8BEC12F0D7
:103DFE003DC0B2F03EC0B3F0120000F73F7E3EB5BC
:103E0E003FFB3FED3F993F183F5A3F05010904A183
:103E1E0001A10275089505150026FF00350046FF25
:103E2E0000093009300930093009318102750495D5
:103E3E00012507463B0165140900814265007501A5
:103E4E00950A2501450105091901290A8102060075
:103E5E00FF7501950A2501450109018102C0A102E4
:103E6E007508950446FF0026FF0009029102C0C0A6
:103E7E0050034D00490043004F004D0053004F00CA
:103E8E0046005400200044004500500054002E000F
:103E9E002C002000440045004D0050004100200041
:103EAE005000550042004C004900430041005400B0
:103EBE0049004F004E00200049004E0043002E00E6
:103ECE0005010905A1011500250135004501750102
:103EDE00950D05091901290D810295038101050131
:103EEE002507463B01750495016514093981426524
:103EFE00009501810126FF0046FF000930093109B6
:103F0E00320935750895048102C00902420002018A
:103F1E0000A0320904000001030000000921110174
:103F2E000001224A00070581034000010904010037
:103F3E000203000000092111010001221D000705E6
:103F4E00820340000107050203400001090222001E
:103F5E00010100A032090400000103000000092144
:103F6E00110100012265000705810340000A0600C9
:103F7E00FF0901A10119012940150026FF0075084E
:103F8E0095408100190129409100C01C0336004262
:103F9E0000200063006F006E00740072006F006CF2
:103FAE00006C00650072001403580045003100419A
:103FBE00004A002D0055005300420012010002007D
:103FCE00000008A7170500010001020301120100FD
:103FDE000200000008A30C24000001010203010AE4
:103FEE00035300450047004100040309040403097C
:023FFE000400BD
:020000040020DA
:08000000FFFFFFFFFFFFFFFF00
:020000040030CA
:0E00000000120314FF0089FF03C003E0034059
:00000001FF
