:020000040000FA
:0408000007EF04F00A
:0A0808005D825D92110090EF0BF08D
:02081600600080
:10162800010E286E12003C6E3CC0A9FFA69EA69C27
:10163800A680A6B0FED7A85012004F0E0201816FF7
:101648004B0E826F000E3D6E030E3C6EE6EC0BF007
:101658001200450E0201816F520E826F520E836F87
:10166800000E3D6E040E3C6EE6EC0BF01200C00E50
:101678000001986F020E996F000E9D6F080E9C6F07
:10168800280E9E6F160E9F6F9B8F1200010E000191
:10169800A627000EA723A823A9231C50D8A412000C
:1016A800132A1350D8A412001368120024C081F220
:1016B80023C082F227C083F226C084F225C085F2B7
:1016C800000E3D6E060E3C6EE6EC0BF01200000EAE
:1016D800EEEC0CF058EC13F095EC16F0CFEC17F09C
:1016E800200E296001D0FAD764B2F8D766EC1DF055
:1016F800F5D73C503E02F3CF40F0F4CF41F03C50D8
:101708003F02F35041263D503E02F350412640C06F
:101718003CF041C03DF0120000EE60F0740EEE6A3D
:10172800E806FDE100EE01F03B0EEE6AE806FDE199
:101738005D905D92000EF86E00016BEF0BF03CC0FF
:1017480042F03DC043F008D042C0D9FF43C0DAFFA1
:101758003EC0DFFF424A432A4006D8A0410640283F
:10176800F3E14128D8B41200EFD76084629864820C
:10177800010E1C6E000E136E000E496E750E486E3B
:10178800000E4A6E000E4B6E000E4D6E000E4C6E33
:10179800DAEC0DF01200F29CF29E8068000E816E69
:1017A800000E826E8968000E8A6E000E8B6E000E27
:1017B8007E6E000E7F6EF00E936E0F0E946E0EEF1F
:1017C80000F012003CC03EF03DC03FF03FBE06D0E6
:1017D8003F500FE1170E3E5CD8B01200800E3E2439
:1017E800D96E020E3F20DA6E000EDF6E3E4A3F2AA7
:1017F800EDD712003CC03EF03DC03FF03FBE06D0E2
:101808003F500FE1400E3E5CD8B01200800E3E24DF
:10181800D96E020E3F20DA6E000EDF6E3E4A3F2A76
:10182800EDD71200000E1C6E000E496E740E486E45
:10183800000E4A6E000E4B6E000E4D6E000E4C6E82
:10184800DAEC0DF06492609401D0629462B4FDD732
:10185800000E136E12003D6E3DC0A9FF3CC0A8FFEC
:10186800A69EA69CA684000EF2BE010E3E6EF29EB7
:10187800550EA76EAA0EA76EA6823E50D8A4F28E69
:10188800A1A8FED7A198A6941200476E44A405D03B
:10189800000E3C6E4750DAEC0EF044A205D0010E63
:1018A8003C6E4750DAEC0EF0530E4724456E466AFC
:1018B8000F0E462245C0D9FF46C0DAFF44C0DFFFFD
:1018C80012005A0E3C6E000E2FEC0CF027C03CF0B4
:1018D800010E2FEC0CF026C03CF0020E2FEC0CF0A1
:1018E80025C03CF0030E2FEC0CF024C03CF0040E95
:1018F8002FEC0CF023C03CF0050E2FEC0CF012007E
:101908003EC044F03FC045F03CC042F03DC043F00B
:1019180010D044C0D9FF45C0DAFFDF50466E444AB4
:10192800452A42C0D9FF43C0DAFF46C0DFFF424A1A
:10193800432A4006D8A041064028EBE14128D8B404
:101948001200E7D70F0153A11DD00FC0D9FF10C057
:10195800DAFF800EDE18D8A414D007C0D9FF08C05B
:10196800DAFF840EDE18D8A40CD00FC0D9FF10C03F
:10197800DAFF0C0EDF6E0FC0D9FF10C0DAFF000EC1
:10198800DB8E5391629A1200000E0201816F000EE5
:10199800826F020E816F010E826F160EF66E080EB0
:1019A800F76E0800F5CF83F2160EF66E080EF76E86
:1019B8000900F5CF40F00900F5CF41F041C040F0F3
:1019C800416A4050846F000E3D6E050E3C6EE6EC99
:1019D8000BF012003C6E1DD0000E816E000E826E60
:1019E800000E8A6E000E8B6E000E7E6E000E7F6EED
:1019F800F00E936E0F0E946E0F0E946EF19EF00E15
:101A0800786E81BC03D0D00E936E1200B00E936E28
:101A180012003C50000AD8B4DFD7010AD8B412002B
:101A2800030A1200160E0001BE6F030EBF6F530E9D
:101A3800C06F000EC16F4E0EC26F000EC36F2D0E29
:101A4800C46F000EC56F2D0EC66F000EC76F2D0E2A
:101A5800C86F000EC96F2D0ECA6F000ECB6F2D0E0A
:101A6800CC6F000ECD6F2D0ECE6F000ECF6F2D0EEA
:101A7800D06F000ED16F2D0ED26F000ED36F1200F3
:101A8800020E1E18D8A403D065EC15F01200000E43
:101A98001E6E1A50D8A41FD020EE01F00D50D92682
:101AA8000E50DA22080EDF6E20EE02F00D50D92615
:101AB8000E50DA22300EDE6E020EDD6E0DC0D9FF3A
:101AC8000EC0DAFF0C0EDF6E0DC0D9FF0EC0DAFFB4
:101AD800000EDB8E1200000E1A6E1200000E0001BE
:101AE800B66F000EB76F000EB46F000EB56F000E24
:101AF800B26F000EB36F000E286E000E3D6E000E22
:101B08003C6EFEEC0BF01A0E446E010E49EC0CF024
:101B180082BE12001E0E446E020E49EC0CF0000E3E
:101B28003C6EC00E3D6E020E3E6E400E3F6E020EC3
:101B3800D2EC13F03CC0B2F03DC0B3F01200200E5E
:101B48003D6E000E3C6E275080083E6E000ED8A0F9
:101B5800E82A00083F6E50EC0EF03CC0BCF03DC0D7
:101B6800BDF0200E3D6E000E3C6E265080083E6E85
:101B7800000ED8A0E82A00083F6E50EC0EF03CC0DA
:101B8800BAF03DC0BBF0200E3D6E000E3C6E2550F5
:101B980080083E6E000ED8A0E82A00083F6E50EC80
:101BA8000EF03CC0B8F03DC0B9F0120010D000F003
:101BB8001200010EEEEC0CF01200020EEEEC0CF02E
:101BC800120072EC0DF01200FDEC15F0120048C086
:101BD8004EF049C04FF04F50000AD8B404D07F0AE5
:101BE800D8A412001AD04E50010AD8B4EAD7030A72
:101BF800D8B41200010AD8B4E7D7060AD8B412003C
:101C0800770AD8B4D4D7010AD8B41200070AD8B4CE
:101C1800D4D7010AD8A41200CCD74E50FF0A12001C
:101C280011C081F2000E3D6E000E3C6E2A0E3C245F
:101C3800D96E000E3D20DA6E820E3C24E16E020E53
:101C48003D20E26EDFCFE7FF3C4A3D2A3DBEEED79E
:101C58003D5004E10D0E3C5CD8A0E8D7000E3D6E67
:101C6800000E3C6E400E3C24D96E020E3D20DA6E0A
:101C78008F0E3C24E16E020E3D20E26EDFCFE7FFBF
:101C88003C4A3D2A3DBEEED73D5005E1080E3C5C7E
:101C9800D8B01200E7D71200000E416E3FAE06D052
:101CA8003E6C3F1ED8B03F2A010E416E3DAE06D0B5
:101CB8003C6C3D1ED8B03D2A010E411A000E436E01
:101CC800000E426E3E503F10D8B41CD0010E406E3C
:101CD80004D0D8903E363F36402A3FAEFAD7D89047
:101CE800423643363E503C5C3F503D58D8A005D064
:101CF8003E503C5E3F503D5A4280D8903F323E3283
:101D0800402EEDD74150D8B404D0426C431ED8B011
:101D1800432A42C03CF043C03DF01200000E1F6E43
:101D2800000E186E000E156E000E146E000E1A6E60
:101D3800000E1E6E07C0D9FF08C0DAFF7F0EDF163F
:101D4800040E0718076E0850086E07C0D9FF08C0B0
:101D5800DAFF7F0EDF16040E0718076E0850086EAC
:101D68000DC0D9FF0EC0DAFF7F0EDF16000E046E1D
:101D7800000E066E000E056E000E00019B6F000E31
:101D88009D6F000E9C6FCCEC10F0000E496E030E98
:101D9800486E000E4A6E000E4B6E000E4D6E000E21
:101DA8004C6EDAEC0DF0FCEC11F01200416E000EF6
:101DB800426E020E436E3C503D6E3E6AD8903D36F0
:101DC8003E3641503F6E406AD8903F364036D890F4
:101DD8003F3640363D503F263E504022D8903F3651
:101DE8004036D8903F3640363F5042264050432236
:101DF80042C0D9FF43C0DAFFDF9E3C50D8A407D0C9
:101E08004150020DA00EF324D96E000E06D04150A9
:101E1800020D070EF324D96E000EF420DA6E42C0CC
:101E2800DEFF43C0DDFF42C0D9FF43C0DAFFDF9CBD
:101E380020EE04F04250D9264350DA22DF8C1200FB
:101E4800000E156E000E146E020E1E18D8A41FD0B8
:101E580020EE01F00D50D9260E50DA22080EDF6E62
:101E680020EE02F00D50D9260E50DA22380EDE6E22
:101E7800020EDD6E0DC0D9FF0EC0DAFF480EDF6E10
:101E88000DC0D9FF0EC0DAFF000EDB8E1200055020
:101E98000201365D06503759D8B004D036C205F075
:101EA80037C206F02EEC11F020EE02F00750D926CA
:101EB8000850DA22380EDE6E020EDD6E07C0D9FF3A
:101EC80008C0DAFF480EDF6E07C0D9FF08C0DAFF86
:101ED800000EDB8E12002D0E196E39C057F0FD0E64
:101EE8005716D8A43BD039C057F0D89057323F0E78
:101EF80057165750040D000EF3240F6E020EF420EF
:101F0800106E0FC00DF010C00EF0040E0D180D6EFF
:101F18000E500E6E0FC0D9FF10C0DAFFDF30E83266
:101F28000F0B0D0AD8A417D0300E3C6E020E3D6E72
:101F380020EE02F00F50D9261050DA22DECF3EF004
:101F4800DDCF3FF0000E416E080E406E84EC0CF0C1
:101F580092EC0EF0120044EC0DF012003950FD0B1B
:101F6800040AD8A412006CEC12F01200000E020150
:101F7800386F000E396F38D0048E1D04D8A43FD0B6
:101F880038833DD0048E3BD0048E34510F0B0009AA
:101F9800D8B435D034BF0AD034510F0B3C6E3C5006
:101FA800020DA00EF324D96E000E09D034510F0B88
:101FB8003C6E3C50020D070EF324D96E000EF4203F
:101FC800DA6EDECF3DF0DDCF3EF03DC0D9FF3EC03A
:101FD800DAFFDFAE14D03DC0D9FF3EC0DAFFDFA480
:101FE8000ED0010E386F0BD030511F0B000AD8B439
:101FF800C3D7010AD8B4C6D7030AD8B4C5D704AE24
:102008001200380E016E020E026E0480020E056E7A
:102018001200000E406E000E3F6E740E3F24D96E03
:10202800000E4020DA6EDF503C6E3F50200F2FEC40
:102038000CF03F4A402A40BEF0D7405004E1140E4D
:102048003F5CD8A0EAD7000E406E000E3F6E600ECF
:102058003F24D96E000E4020DA6EDF503C6E3F50B0
:10206800340F2FEC0CF03F4A402A40BEF0D74050C6
:1020780004E1140E3F5CD8A0EAD7000E406E000EB3
:102088003F6E880E3F24D96E000E4020DA6EDF5076
:102098003C6E3F50480F2FEC0CF03F4A402A40BEA0
:1020A800F0D7405004E1100E3F5CD8A0EAD722C018
:1020B8003CF0580E2FEC0CF021C03CF0590E2FECE0
:1020C8000CF020C03CF05A0E2FEC0CF01200175008
:1020D800D8A41200010E176E1650D8A41200010ED3
:1020E800166E020E1E18D8A415D020EE01F0075067
:1020F800D9260850DA22000EDF6E07C0D9FF08C0C3
:10210800DAFF480EDF6E07C0D9FF08C0DAFF000EFD
:10211800DB8E12001E04D8A41200000E1A6E20EEE8
:1021280001F00F50D9261050DA22080EDF6E20EE8B
:1021380002F00F50D9261050DA22300EDE6E020E51
:10214800DD6E0FC0D9FF10C0DAFF040EDF6E0FC0BE
:10215800D9FF10C0DAFF000EDB8E010E1A6E20EEDA
:1021680001F00D50D9260E50DA22080EDF6E20EE4F
:1021780002F00D50D9260E50DA22300EDE6E020E15
:10218800DD6E0DC0D9FF0EC0DAFF800EDF6E1200C3
:1021980002013039E832030B0009D8A4120039D003
:1021A800048E080E296E120077EC18F0120094ECD9
:1021B80011F012003B0E016E000E026E0480010E3B
:1021C800056E048E1200BAEC0FF01200EFEC1AF054
:1021D80012003A0E3425016E026A000E0222EED772
:1021E800048E3A0E3425D96EDA6A000EDA2232C22B
:1021F800DFFF1200000E496E020E486E000E4A6E96
:10220800000E4B6E000E4D6E000E4C6EDAEC0DF0AB
:1022180012003151000AD8B4D6D7010AD8B4D6D79B
:10222800020AD8B4D3D7060AD8B4BAD7030AD8B49E
:10223800BBD7010AD8B4DED70F0AD8B4BBD7010A76
:10224800D8B4B5D7030AD8B4C4D7010AD8B4C8D704
:10225800070A1200080E3C6E065010E1080E055CD5
:10226800D8B00CD005C03CF01F50D8A402D0010E45
:1022780004D01F04D8A402D0020E1F6E3C50055E85
:10228800000E065A20EE01F00750D9260850DA222F
:102298003CC0DFFF380E0001B06F020EB16F04A022
:1022A8001CD03AD001C0F6FF02C0F7FFF86AB0C0F0
:1022B800D9FFB1C0DAFF020EF76403D00800F55069
:1022C80005D0F6CFE1FFF7CFE2FFE750DF6E014A16
:1022D800022A0001B04BB12B3C063C50D8B4120086
:1022E800E1D701C0F6FF02C0F7FFF86AB0C0D9FF16
:1022F800B1C0DAFF020EF76403D00800F55005D02C
:10230800F6CFE1FFF7CFE2FFE750DF6E014A022A7E
:102318000001B04BB12B3C063C50D8B41200E1D7B9
:10232800048E540E3C6E0F0E3D6E000E3F6E000E76
:102338003E6E000E416E020E406EA3EC0BF0000ED6
:102348003C6E020E3D6E000E3F6E000E3E6E000E9D
:10235800416E300E406EA3EC0BF0648C000E506E94
:10236800AD0E5024D96EDA6A000EDA22000EDF6E46
:10237800AA0E5024D96EDA6A000EDA22000EDF6E39
:10238800502A020E5064ECD73A0E3C6E000E3D6E99
:10239800000E3F6E000E3E6E000E416E010E406E46
:1023A800A3EC0BF0649C080E076E020E086E000E7C
:1023B8000F6E020E106E0FC00DF010C00EF032C27C
:1023C8003BF03B50D8A403D0100E296E1200200E0B
:1023D800296E000E496E010E486E3B0E4A6E000EC5
:1023E8004B6E000E4D6E010E4C6EDAEC0DF01200C5
:1023F800649804BE39D000019BAF0BD0020E1E6E4C
:102408001450D8B424EC0FF0000E166E000E176EA0
:10241800120020EE01F00D50D9260E50DA22080ED7
:10242800DF6E20EE02F00D50D9260E50DA22300E63
:10243800DE6E020EDD6E0DC0D9FF0EC0DAFF0C0E87
:10244800DF6E0DC0D9FF0EC0DAFF000EDB8E07C0AD
:10245800D9FF08C0DAFF040EDF6E07C0D9FF08C035
:10246800DAFF000EDB8E1200020130AF10D0010E31
:102478001E6E1550D8B424EC0FF0000E166E000E28
:10248800176E1850D8A412006BEC10F01200020E50
:102498001E6E20EE01F00D50D9260E50DA22080EDD
:1024A800DF6E20EE02F00D50D9260E50DA22300EE3
:1024B800DE6E020EDD6E0DC0D9FF0EC0DAFF040E0F
:1024C800DF6E0DC0D9FF0EC0DAFF000EDB8ED5D748
:1024D80007C0D9FF08C0DAFF000EDFBC010E3D6E51
:1024E800040E0718076E0850086E080E2918D8A49D
:1024F8000CD0020132517F0B0F015C6F5C51D8B4D4
:1025080002D0100E01D0040E296E1E04D8A43AD0B1
:1025180020EE02F00750D9260850DA22380EDE6E77
:10252800020EDD6E2EEC11F0020E1F18D8A40DD08D
:1025380007C0D9FF08C0DAFF040EDF6E07C0D9FF55
:1025480008C0DAFF000EDB8E12003D50D8A40DD073
:1025580007C0D9FF08C0DAFF480EDF6E07C0D9FFF1
:1025680008C0DAFF000EDB8E120007C0D9FF08C0D2
:10257800DAFF080EDF6E07C0D9FF08C0DAFF000EC9
:10258800DB8E120000019BAF14D09E519F11D8B46E
:102598000ED020EE9EF001D80AD00500FA6EDE506B
:1025A800FD6EDE50FE6EF850FF6EFA50120000010C
:1025B8009B9F000E1E6E1200000E276E000E266EE8
:1025C800000E256E020E246E020E236E65EC0CF0D2
:1025D800000E416E740E4124D96EDA6A000EDA22BA
:1025E800000EDF6E412A130E4164F4D7000E416ECF
:1025F800600E4124D96EDA6A000EDA22000EDF6E10
:10260800412A130E4164F4D7000E416E880E41240E
:10261800D96EDA6A000EDA22000EDF6E412A0F0E3A
:102628004164F4D7400E0001886F200E8A6F020EB5
:102638008D6F800E8E6F100E906F010E936F200EAF
:10264800956F100E976F400E606F200E626F020E2E
:10265800656F800E666F100E686F010E6B6F200E2F
:102668006D6F100E6F6F400E706F200E726F100E30
:10267800746F200E766F400E786F800E7A6F010EA1
:102688007D6F020E7F6F080E816F040E836F100E30
:10269800846F200E866F030E226E020E216E030ECB
:1026A800206E0DEC10F01200829E000E496E3D0E59
:1026B800486EE10E476E400EE82EFED7472EFCD737
:1026C800482EFAD7D00E9318D8B433D02A0E3C6EC1
:1026D800000E3D6ED8EC14F01F0E486E710E476E5A
:1026E8001E0EE82EFED7472EFCD7482EFAD700D06C
:1026F8002A0E3C6E000E3D6ED8EC14F03C043D10E2
:10270800D8A40BD02BA8828E2BBA02D0010E496E0A
:102718002AB41CD0CFEC0BF019D036500A0B0A0A99
:10272800D8A4828E36B602D0010E496E2CA2F2D7FA
:102738000DD0818AF00E00D0E82EFDD781B802D0E6
:10274800010E496E81AECFEC0BF0828E16EC0DF0C7
:10275800000E17EC0BF05A0AD8B402D0010E01D0C3
:10276800000E476E486A49504712000E48124750FB
:102778004810D8B40ED0000E276E000E266E000E3C
:10278800256E020E246E020E236E65EC0CF0E0EC52
:1027980012F053EC14F0A3EC0DF01200446E3C5010
:1027A800D8B407D04450020D070EF324D96E000E9A
:1027B80006D04450020DA00EF324D96E000EF4206A
:1027C800DA6EDECF45F0DDCF46F045504610D8A48E
:1027D80005D0000E3C6E000E3D6E120020EE02F099
:1027E8004550D9264650DA223DC0DEFF3EC0DDFF07
:1027F80020EE01F04550D9264650DA223FC0DFFFCF
:1028080045C0D9FF46C0DAFF400EDF1645C0D9FFE4
:1028180046C0DAFF000EDB8645C0D9FF46C0DAFFA6
:10282800000EDB8E3C50D8B418D04450020D070E71
:10283800F324D96E000EF420DA6EDECF40F0DDCF3F
:1028480041F0040E4018426E4150436E4450020D50
:10285800070EF324D96E000E17D04450020DA00EB7
:10286800F324D96E000EF420DA6EDECF40F0DDCF0F
:1028780041F0040E4018426E4150436E4450020D20
:10288800A00EF324D96E000EF420DA6E42C0DEFFEB
:1028980043C0DDFF45C03CF046C03DF01200010ECC
:1028A80017EC0BF0276E020E17EC0BF0266E030EDA
:1028B80017EC0BF0256E040E17EC0BF0246E050ECA
:1028C80017EC0BF0236E000E466E740E4624D96E7C
:1028D800DA6A000EDA224650200F17EC0BF0DF6E92
:1028E800462A130E4664F1D7000E466E600E462443
:1028F800D96EDA6A000EDA224650340F17EC0BF064
:10290800DF6E462A130E4664F1D7000E466E880E17
:102918004624D96EDA6A000EDA224650480F17ECC0
:102928000BF0DF6E462A0F0E4664F1D7580E17ECEF
:102938000BF0226E590E17EC0BF0216E5A0E17ECA5
:102948000BF0206E440E456E000E466E3D0E46247A
:10295800D96EDA6A000EDA224650080F17EC0BF02F
:10296800DF6E3D0E4624D96EDA6A000EDA22DF5099
:102978004526462A070E4664E9D7070E17EC0BF0E2
:102988004518D8A412003DC0C4F03EC0C6F03FC0F0
:10299800C8F040C0CAF041C0CCF042C0CEF043C03D
:1029A800D0F044C0D2F01200818C3CC043F03DC04E
:1029B80044F0140EE82EFED782CF3EF00F0E3E16DE
:1029C8008150300B3E1043C0D9FF44C0DAFFDF6EA0
:1029D800434A442A819C140EE82EFED782CF3EF04B
:1029E8000F0E3E168150300B3E1043C0D9FF44C035
:1029F800DAFFDF6E434A442A818C000E426E000ED5
:102A0800416E000E406E000E3F6E81B802D0010E7E
:102A180001D0000E3E6E81BA02D0010E01D0000E28
:102A28003E14E8B00DD0C80E3F184010D8A405D009
:102A3800000E3D6E010E3C6E12003F4A402AE5D75B
:102A480082500F0B43C0D9FF44C0DAFFDF6E434A00
:102A5800442A050E41184210D8A405D0000E3D6E38
:102A6800000E3C6E1200000E406E000E3F6E81A8F4
:102A780002D0010E01D0000E3E6E81BA02D0010EC6
:102A880001D0000E3E14E8B008D0C80E3F18401020
:102A9800D8B4CED73F4A402AEAD782500F0B43C05A
:102AA800D9FF44C0DAFFDF6E434A442A414A422A2A
:102AB80042BEA7D74250BCE1060E415CD8B0B8D799
:102AC800A0D720EE01F00F50D9261050DA22DF509F
:102AD8003D6E3D5000019C5D000E9D59D8A09CC0E4
:102AE8003DF03D509C5F000E9D5B000E3C6E0FD08C
:102AF800380E3C24D96EDA6A020EDA2298C0E1FF59
:102B080099C0E2FFDFCFE7FF984B992B3C2A3D5055
:102B18003C5CD8A0EDD79C519D11D8B432D020EEA2
:102B280001F00D50D9260E50DA22080EDF6E20EE85
:102B380002F00D50D9260E50DA22380EDE6E020E43
:102B4800DD6E0FC0D9FF10C0DAFFDFBC0DD00DC09D
:102B5800D9FF0EC0DAFF480EDF6E0DC0D9FF0EC0D8
:102B6800DAFF000EDB8E12000DC0D9FF0EC0DAFFAF
:102B7800080EDF6E0DC0D9FF0EC0DAFF000EDB8E27
:102B8800120020EE01F00D50D9260E50DA22080E60
:102B9800DF6E20EE02F00D50D9260E50DA22300EEC
:102BA800DE6E020EDD6E0DC0D9FF0EC0DAFF040E18
:102BB800DF6E0DC0D9FF0EC0DAFF000EDB8E9E510E
:102BC8009F11D8B40ED020EE9EF001D80AD005008F
:102BD800FA6EDE50FD6EDE50FE6EF850FF6EFA5053
:102BE800120000019B9F1850D8A412006BEC10F043
:102BF8001200020130511F0BE806D8A41200060E7D
:102C08003119D8B448D04FD03B04D8A44CD082AEA8
:102C180016D03451D8A41200570E016E3F0E026E22
:102C2800000E066E090E056EC00E046E3CD0150E21
:102C3800016E3F0EF4D7250E016E3F0EF0D73451CA
:102C4800000AD8B4F4D7010AD8B4F5D72CD03B047D
:102C5800D8A429D082AE17D03451D8A412009E0E21
:102C6800016E3E0E026E000E066E650EDCD7390E42
:102C7800016E3E0EF7D7670E016E3F0E026E000E14
:102C8800066E1D0ED0D73451000AD8B4F0D7010A09
:102C9800D8B4F1D708D03351210AD8B4B5D7030A2C
:102CA800D8B4D5D7010A3039E832030BE806D8A4DE
:102CB800120023D03BEC0BF01200380E016E000E10
:102CC800026E000E066E010E056EC10E046E120035
:102CD800800E046E33C238F01200370E016E000EFB
:102CE800026E000E066E010E056E810E046E120055
:102CF800800E046E32C237F012003151010AD8B486
:102D08001200030AD8B4D9D7010AD8B4E6D70A0AF8
:102D1800D8B4D0D7030AD8B4DBD7010AD8A4120094
:102D2800E7D7A094000E0F015F6F000E626E000ED1
:102D3800536F540E3C6E0F0E3D6E000E3F6E000E2C
:102D48003E6E000E416E020E406EA3EC0BF0160EA6
:102D5800616E9F0E0F015B6F7B0E606E000E446EFE
:102D68004450040D000EF324D96E020EF420DA6EDE
:102D7800DE6ADE6ADE6ADD6A442A0B0E4464F0D736
:102D8800648C000E0F015C6F6498649C6296000E60
:102D9800046E000E00019B6F000E9D6F000E9C6F6D
:102DA80062B6F4D7010E176E010E166E000E156E80
:102DB800000E146E000E1C6E000E446E4450020D80
:102DC800070EF324D96E000EF420DA6E000EDE6EC4
:102DD800000EDD6E4450020DA00EF324D96E000ED5
:102DE800F420DA6E000EDE6E000EDD6EAD0E4424A9
:102DF800D96EDA6A000EDA22000EDF6EAA0E4424BB
:102E0800D96EDA6A000EDA22000EDF6E442A020E4C
:102E18004464D4D7080E076E020E086E160E0F0112
:102E2800536F020E0201036F300E026F080E016F1E
:102E3800040E006F008F000E3B6E000E0001A66F9F
:102E4800000EA76F000EA86F000EA96F000E136E7C
:102E5800000E296E1200819AF00E00D0E82EFDD7E0
:102E6800818AF00E00D0E82EFDD7819AF00E00D0AE
:102E7800E82EFDD781B808D000018851020145131A
:102E8800000189510201461381BE08D00001945106
:102E9800020145130001955102014613818AF00E83
:102EA80000D0E82EFDD782B008D0410E2024D96E7C
:102EB800DA6A020EDA22000EDF6E82B208D0410E04
:102EC8002024D96EDA6A020EDA22FF0EDF6E82B48F
:102ED80008D0400E2024D96EDA6A020EDA22000EDB
:102EE800DF6E82B608D0400E2024D96EDA6A020E50
:102EF800DA22FF0EDF6E81B808D000018A51020184
:102F0800451300018B510201461381BE08D0000110
:102F18008C510201451300018D5102014613819A1B
:102F2800F00E00D0E82EFDD782A082B232D0818A7E
:102F3800F00E00D0E82EFDD782B008D000019251E3
:102F480002014513000193510201461382B208D0D1
:102F580000019051020145130001915102014613ED
:102F680082B408D000018E510201451300018F512F
:102F78000201461382B608D000019651020145139A
:102F88000001975102014613819AF00E00D0E82EF5
:102F9800FDD7818A12002950D8A411D0000E646E82
:102FA800000E606E160E616E9F0E0F015B6F7B0E3A
:102FB800606E01D0648664A6FDD7010E296E2904CF
:102FC800D8B464BA08D0000E626E000E606E6080DD
:102FD8006088020E296E62B460A403D0629416EC75
:102FE8000CF064A202D0A194120062B060A005D0D7
:102FF80095EC16F0040E296E629062B860A802D0B3
:10300800B9EC0BF062AC1AD060AC0ED0000E496E71
:10301800730E486E000E4A6E000E4B6E000E4D6E1B
:10302800010E4C6EDAEC0DF0629C4AEC0BF0195074
:10303800D8A419061950D8B46BEC10F062BA60AA7B
:1030480002D0A6EC0CF062B260A210D07F0E496EDE
:103058004868000E4A6E000E4B6E000E4D6E010E53
:103068004C6EDAEC0DF0000E0F015F6F040E296054
:1030780002D0A194120060A634D0000E586E62A649
:1030880030D063CF39F03930E832E8320F0B1B6E9D
:10309800629639B406D0AA0E1B24D96EDA6A000EDD
:1030A80005D0AD0E1B24D96EDA6A000EDA220001B3
:1030B800DF701B50D8A403D06FEC0FF00ED0000EB9
:1030C800496E720E486E390E4A6E000E4B6E000E37
:1030D8004D6E000E4C6EDAEC0DF0582A030E586453
:1030E800CED7A1941200800E02013019D8A4120084
:1030F800C00E046E97D082AE09D0DA0E016E3F0E74
:10310800026E000E066E120E056E1200C80E016EDB
:103118003F0EF6D73251D8A446D082AE07D03251EE
:10312800020D370EF324F66E3E0E06D03251020D14
:10313800350EF324F66E3E0EF420F76E0900F5CF37
:1031480001F00A00F5CF02F0020E01243C6E000ED9
:1031580002203D6E3CC0F6FF3DC0F7FFF86A020E44
:10316800F76403D00800F55005D0F6CFE1FFF7CF9C
:10317800E2FFE750056E030E01243C6E000E0220AC
:103188003D6E3CC0F6FF3DC0F7FFF86A020EF764DB
:1031980003D00800F55005D0F6CFE1FFF7CFE2FFE6
:1031A800E750066E1200000E046E1200030E326124
:1031B8002CD082AE07D03251020D2F0EF324F66EBA
:1031C8003E0E06D03251020D290EF324F66E3E0E45
:1031D800F420F76E0900F5CF01F00A00F5CF02F0F0
:1031E80001C0F6FF02C0F7FFF86A020EF76403D0C9
:1031F8000800F55005D0F6CFE1FFF7CFE2FFE75022
:103208003C6E3C50056E066A1200030E3219D8A4B3
:10321800CAD70480BE0E016E000E026EBEC005F055
:10322800048E12003351010AD8B465D7030AD8B402
:1032380071D7010AD8B4BAD7B6D74F6E4F50466E79
:10324800476A4250486E496A800E4826000E492255
:103258004650485C4950800A4A6E4750800A4A588E
:10326800D8A017D0800E466E000E476E4250465EBC
:10327800000E475A4F50486E496A4650485C4950BC
:10328800800A4A6E4750800A4A58D8A002D0800E59
:103298001200800E4F603CD04F5042C046F0476A43
:1032A800461E471E464A472A465E000E475A800E6B
:1032B80046244B6E000E47204C6E43C03CF03D6ADE
:1032C8004BC03EF04CC03FF07DEC0BF03CC04DF0E5
:1032D8003DC04EF04DC03CF04EC03DF044C03EF005
:1032E80045C03FF07DEC0BF03CC050F03DC051F0C4
:1032F800400E515CD8A004D0400E516E000E506EA6
:1033080050500008506E5150D8A0E82A4008516E1D
:10331800800E4F6436D042504FC046F0476A465E32
:10332800000E475A810E46244B6EFF0E47204C6E06
:1033380043C03CF03D6A4BC03EF04CC03FF07DECD2
:103348000BF03CC04DF03DC04EF04DC03CF04EC0BF
:103358003DF044C03EF045C03FF07DEC0BF03CC072
:1033680050F03DC051F0400E515CD8A004D0400E42
:10337800516E000E506EFF0E5024506E3F0E5120BD
:10338800516E50C046F051C047F0070E486ED890B5
:1033980047324632482EFBD7465012002A0E3C6E62
:1033A800000E3D6ED8EC14F03CC011F03DC012F098
:1033B80011041210D8A474D02BC052F0030E521668
:1033C800D8A409D00001825102014513000183519C
:1033D8000201461312D02BB003D0000E0201446F35
:1033E8002BB202D0020144692AB003D0000E0201B8
:1033F800426F2AB202D0020142692BC052F00C0E71
:103408005216D8A407D000018051020145130001CB
:1034180081511BD02BB403D0000E0201436F2BB691
:1034280002D0020143692AB408D000017851020190
:10343800451300017951020146132AB608D000014C
:103448007A510201451300017B51020146132BB842
:1034580008D00001745102014513000175510201A1
:1034680046132BBA08D0000176510201451300011A
:103478007751020146132AB808D000017C51020195
:10348800451300017D51020146132ABA12000001BA
:103498007E510201451300017F51020146131200BB
:1034A8002E38F00B3210546E2F38F00B3310536E49
:1034B8003038F00B3410556E26C042F024C043F06B
:1034C800BAC044F0BBC045F0545021EC19F0546E1A
:1034D80027C042F024C043F0BCC044F0BDC045F052
:1034E800535021EC19F0536E25C042F023C043F02D
:1034F800B8C044F0B9C045F0555021EC19F0556EEC
:1035080055C042F253C043F254C044F236B208D018
:10351800000184510201451300018551020146133F
:1035280036B008D0000186510201451300018751C9
:103538000201461336B608D0000174510201451342
:10354800000175510201461336B408D000017651C6
:103558000201451300017751020146132CB208D02D
:103568000001785102014513000179510201461307
:103578002CB008D000017A510201451300017B519B
:10358800020146132DB608D000017C5102014513F3
:1035980000017D51020146132DB408D000017E516F
:1035A8000201451300017F51020146132DB008D0D6
:1035B80000018251020145130001835102014613A3
:1035C8002DB2120000018051020145130001815102
:1035D80002014613120002013205D8A40ED0305160
:1035E8001F0B0009D8A409D0048E030E3119D8A4E2
:1035F80002D0010E01D0000E1D6E3251D8A4120067
:1036080030511F0B020AD8A4120034510F0B0009C5
:10361800D8B4120034510F0B506E030E50601200D4
:10362800200E2918D8A41200048E34BF18D03451A3
:103638000F0B506E5050020DA00EF324D96E000EE1
:10364800F420DA6EDECF55F0DDCF56F034510F0B93
:10365800506E516AAA0E5024D96E000E17D03451FC
:103668000F0B506E5050020D070EF324D96E000E4A
:10367800F420DA6EDECF55F0DDCF56F034510F0B63
:10368800506E516AAD0E5024D96E000E5120DA6E7C
:10369800DF50546E54B006D0FB0E5514556EFF0E15
:1036A800561404D0040E5510556E5650566E34BF3D
:1036B8000AD034510F0B506E5050020DA00EF32457
:1036C800D96E000E09D034510F0B506E5050020DB8
:1036D800070EF324D96E000EF420DA6E55C0DEFF13
:1036E80056C0DDFF030E3119D8A42AD055C0D9FF22
:1036F80056C0DAFFDFAE17D034BF09D034510F0BF4
:10370800506E516AAA0E5024D96E000E08D034515A
:103718000F0B506E516AAD0E5024D96E000E512019
:10372800DA6E0001DF8255C0D9FF56C0DAFF000EFD
:10373800DB8455C0D9FF56C0DAFF000EDB8E1200BD
:10374800040E5518556E5650566E55C0D9FF56C0C2
:10375800DAFFDFAE1BD055C0D9FF56C0DAFF7F0EA7
:10376800DF1655C0D9FF56C0DAFF000EDB8C000EFD
:10377800496E050E486E55C04AF056C04BF0000E13
:103788004D6E020E4C6EDAEC0DF006D055C0D9FF26
:1037980056C0DAFF000EDB8C040E5518556E5650D5
:1037A800566E54B206D055C0D9FF56C0DAFFDFAE08
:1037B8002DD0020134BF09D034510F0B506E516A1D
:1037C800AA0E5024D96E000E08D034510F0B506E3B
:1037D800516AAD0E5024D96E000E5120DA6E0001E8
:1037E800DF9255C0D9FF56C0DAFF3B0EDF16000E38
:1037F800496E050E486E55C04AF056C04BF0000E93
:103808004D6E020E4C6EDAEC0DF006D055C0D9FFA5
:1038180056C0DAFF3B0EDF16020134510F0B506E13
:10382800516A530E5024526E0F0E5120536E52C0DF
:10383800D9FF53C0DAFFFE0EDF1612002A0E3C6EC7
:10384800000E3D6ED8EC14F03CC011F03DC012F0F3
:1038580011041210D8A495D02BC052F0030E5216A2
:10386800D8A409D000016E510201451300016F511F
:103878000201461328D02BB008D0410E2224D96E5D
:10388800DA6A020EDA22000EDF6E2BB208D0410E81
:103898002224D96EDA6A020EDA22FF0EDF6E2AB00F
:1038A80008D0400E2124D96EDA6A020EDA22000E00
:1038B800DF6E2AB208D0400E2124D96EDA6A020ED1
:1038C800DA22FF0EDF6E2BC052F00C0E5216D8A46F
:1038D80007D000016C510201451300016D5126D03B
:1038E8002BB408D0400E2224D96EDA6A020EDA22EE
:1038F800000EDF6E2BB608D0400E2224D96EDA6A8D
:10390800020EDA22FF0EDF6E2AB408D000016451DD
:103918000201451300016551020146132AB608D079
:103928000001665102014513000167510201461367
:103938002BB808D000016051020145130001615104
:10394800020146132BBA08D0000162510201451347
:1039580000016351020146132AB808D000016851DA
:103968000201451300016951020146132ABA1200E7
:1039780000016A510201451300016B51020146130F
:1039880012002E38F00B3210546E2F38F00B331013
:10399800536E3038F00B3410556E26C042F024C0F8
:1039A80043F0BAC044F0BBC045F0545021EC19F0C4
:1039B800546E27C042F024C043F0BCC044F0BDC0E0
:1039C80045F0535021EC19F0536E25C042F023C046
:1039D80043F0B8C044F0B9C045F0555021EC19F097
:1039E800556E400E2124D96EDA6A020EDA2255C0CD
:1039F800DFFF53C043F254C044F236B208D000018E
:103A0800705102014513000171510201461336B08D
:103A180008D00001725102014513000173510201DF
:103A2800461336B608D00001605102014513000163
:103A380061510201461336B408D0000162510201F7
:103A4800451300016351020146132CB208D000014E
:103A580064510201451300016551020146132CB05F
:103A680008D00001665102014513000167510201A7
:103A780046132DB608D00001685102014513000114
:103A88006951020146132DB408D000016A510201A0
:103A9800451300016B51020146132DB008D00001F7
:103AA8006E510201451300016F51020146132DB2F8
:103AB800120000016C510201451300016D51020111
:103AC800461312001F0E2964120064B2120000018E
:103AD800B651B711D8B406D0B6C0D9FFB7C0DAFF0F
:103AE800DFBE44D082AE1FD0010E0201406F7F0EB0
:103AF800416F7F0E426F7F0E436F7F0E446F0F0E34
:103B0800456F000E466F000E476FD00E9318D8A46D
:103B180005D081BC1CD02FEC17F019D081BE17D06E
:103B280022EC1CF014D0010E0201406F7F0E416F91
:103B38007F0E426F7F0E436F7F0E446F0F0E456FEF
:103B4800000E466F000E476F81AED2EC19F0010EE1
:103B58003C6E400E3D6E020E3E6E080E3F6E010E2C
:103B6800D2EC13F03CC0B6F03DC0B7F082BE1200F4
:103B78000001B251B311D8B409D0B2C0D9FFB3C053
:103B8800DAFFDFAE03D02804D8A412000201C05126
:103B9800D8B4F4D0C0C280F2F1D0C8EC0CF014D183
:103BA80014EC0EF011D15AEC0BF00ED1C1C224F076
:103BB800C2C223F0C3C227F0C4C226F0C5C225F092
:103BC800A3EC0DF021EC0BF0FFD0000E5C6E000EA4
:103BD8005B6EC10E5B24D96E020E5C20DA6E880E15
:103BE8005B24E16E000E5C20E26EDFCFE7FF5B4AEC
:103BF8005C2A5CBEEED75C5004E1100E5B5CD8A07A
:103C0800E8D7D1C220F0DED7000E5C6E000E5B6EE6
:103C1800C10E5B24D96E020E5C20DA6E600E5B2446
:103C2800E16E000E5C20E26EDFCFE7FF5B4A5C2AA4
:103C38005CBEEED75C5004E1140E5B5CD8A0E8D7FC
:103C4800D5C222F0D6C221F0BDD7000E5C6E000EA0
:103C58005B6EC10E5B24D96E020E5C20DA6E740EA8
:103C68005B24E16E000E5C20E26EDFCFE7FF5B4A6B
:103C78005C2A5CBEEED75C50A5E1140E5B5CD8B044
:103C8800A1D7E7D7E0EC12F021EC0BF09DD065EC62
:103C98000CF00DEC10F096D7000E5C6E000E5B6E0B
:103CA800810E5B24D96E020E5C20DA6E5B5017EC35
:103CB8000BF0DF6E5B4A5C2A5CBEF2D75C5005E114
:103CC800200E5B5CD8B080D0EBD77ED0000E5C6E47
:103CD800000E5B6EFF0E3C6E5B502FEC0CF05B4AE7
:103CE8005C2A5CBEF7D75C5005E1200E5B5CD8B05F
:103CF80069D7F0D767D7440E5A6E000E5C6E010E76
:103D08005B6EC00E5B24D96E020E5C20DA6EDF504B
:103D18003C6E5B50070F2FEC0CF0C00E5B24D96E85
:103D2800020E5C20DA6EDF505A265B4A5C2A5CBEC3
:103D3800E8D75C5004E1090E5B5CD8A0E2D7020129
:103D4800C951566E576A5A50586E596AFF0E581A1A
:103D5800000E591A565058180AE157505918D8A445
:103D680006D05AC03CF0070E2FEC0CF02BD72DECE8
:103D78000BF02AD0C051D8A4FAD726D0C051010AD6
:103D8800D8B40BD7030AD8B40BD7010AD8B40BD7C9
:103D9800070AD8B40BD7010AD8B479D7030AD8B41C
:103DA8007BD7010AD8B492D7860AD8B40ED7030AAB
:103DB800D8B42AD7010AD8B448D7070AD8B462D7E2
:103DC8001C0AD8B498D7D6D70001B451B511D8B4C5
:103DD80006D0B4C0D9FFB5C0DAFFDFBE0FD0010EE0
:103DE8003C6E800E3D6E020E3E6E400E3F6E020E21
:103DF800D2EC13F03CC0B4F03DC0B5F0000E286E14
:103E0800000E3C6EC00E3D6E020E3E6E400E3F6EC2
:103E1800020ED2EC13F03CC0B2F03DC0B3F0120079
:103E280000F63FB43FA03FFA3FEC3F843F033F45D5
:103E38003F05010904A101A1027508950515002691
:103E4800FF00350046FF0009300930093209300902
:103E5800318102750495012507463B016514090067
:103E6800814265007501950A250145010509190179
:103E7800290A81020600FF7501950A2501450109F5
:103E8800018102C0A1027508950446FF0026FF00C3
:103E980009029102C0C005010904A101A102750827
:103EA8009505150026FF00350046FF00093009304A
:103EB8000930093009318102750495012507463B0F
:103EC8000165140900814265007501950A250145BF
:103ED8000105091901290A81020600FF7501950AE1
:103EE8002501450109018102C0A102750895044612
:103EF800FF0026FF0009029102C0C0090242000229
:103F08000100A0320904000001030000000921118A
:103F18000100012265000705810340000A09040128
:103F2800000203000000092111010001221D000701
:103F3800058203400001070502034000010902222F
:103F480000010100A032090400000103000000097B
:103F580021110100012265000705810340000A06BE
:103F680000FF0901A10119012940150026FF00756C
:103F78000895408100190129409100C01C033600B2
:103F88004200200063006F006E00740072006F0032
:103F98006C006C0065007200140358004500310085
:103FA80041004A002D0055005300420014034D0003
:103FB800490043004F004D0053004F004600540095
:103FC8001201000200000008A30C1C0000010102FD
:103FD80003011201000200000008A30C24000001E4
:103FE800010203010A03530045004700410004038E
:073FF80009040403090400A1
:020000040020DA
:08000000FFFFFFFFFFFFFFFF00
:020000040030CA
:0E00000000120314FF0089FF03C003E0034059
:00000001FF
