:020000040000FA
:0408000007EF04F00A
:0A0808005E825E921100F8EF07F027
:020816003001AF
:100EE800010E356E1200406E40C03DF0600E97EC6A
:100EF80008F012003D6E3DC0A9FFA69EA69CA680E4
:100F0800A6B0FED7A85012004F0E0201816F4B0EFB
:100F1800826F000E3E6E030E3D6E4EEC08F012001E
:100F2800450E0201816F520E826F520E836F000EC2
:100F38003E6E040E3D6E4EEC08F01200C00E016EBF
:100F4800020E026E000E066E080E056EE80E076EA3
:100F58000E0E086E048E1200010E00019E27000E70
:100F68009F23A023A1232650D8A412001D2A1D5078
:100F7800D8A412001D681200000E70EC09F0C2EC33
:100F880014F0DCEC12F01AEC14F0200E376001D0EB
:100F9800FAD764B2F8D7A2EC1CF0F5D731C081F2C9
:100FA80030C082F234C083F233C084F232C085F29A
:100FB80036C086F2000E3E6E070E3D6E4EEC08F00F
:100FC80012003D503F02F3CF41F0F4CF42F03D50C4
:100FD8004002F35042263E503F02F350422641C0A1
:100FE8003DF042C03EF0120000EE60F07E0EEE6A68
:100FF800E806FDE100EE01F03C0EEE6AE806FDE1D0
:101008005E905E92000EF86E0001C0EF07F03DC0E2
:1010180043F03EC044F008D043C0D9FF44C0DAFFD3
:101028003FC0DFFF434A442A4106D8A04206412870
:10103800F3E14228D8B41200EFD760846298648242
:10104800010E266E000E1D6E000E4A6E750E496E5C
:10105800000E4B6E000E4C6E000E4E6E000E4D6E66
:10106800B3EC0AF01200F29CF29E8068000E816ECA
:10107800000E826E8968000E8A6E000E8B6E000E5E
:101088007E6E000E7F6EF00E936E0F0E946E0EEF56
:1010980000F012003DC03FF03EC040F040BE06D018
:1010A80040500FE1170E3F5CD8B01200800E3F246D
:1010B800D96E020E4020DA6E000EDF6E3F4A402ADB
:1010C800EDD712003DC03FF03EC040F040BE06D014
:1010D80040500FE1400E3F5CD8B01200800E3F2414
:1010E800D96E020E4020DA6E000EDF6E3F4A402AAB
:1010F800EDD71200000E266E000E4A6E740E496E71
:10110800000E4B6E000E4C6E000E4E6E000E4D6EB5
:10111800B3EC0AF06492609401D0629462B4FDD793
:10112800000E1D6E12003E6E3EC0A9FF3DC0A8FF16
:10113800A69EA69CA684000EF2BE010E3F6EF29EED
:10114800550EA76EAA0EA76EA6823F50D8A4F28E9F
:10115800A1A8FED7A198A6941200D00E9318D8A4DF
:101168000BD048C03DF049C03EF0B1EC11F03DC095
:1011780048F03EC049F0120048C03DF049C03EF07A
:1011880024EC11F03DC048F03EC049F01200486E12
:1011980045A405D0000E3D6E4850FBEC0BF045A26F
:1011A80005D0010E3D6E4850FBEC0BF0530E482461
:1011B800466E476A0F0E472246C0D9FF47C0DAFF7E
:1011C80045C0DFFF12009C0E3D6E000E97EC08F044
:1011D80034C03DF0010E97EC08F033C03DF0020E2C
:1011E80097EC08F032C03DF0030E97EC08F031C0E0
:1011F8003DF0040E97EC08F030C03DF0050E97EC7A
:1012080008F012003FC045F040C046F03DC043F032
:101218003EC044F010D045C0D9FF46C0DAFFDF50C9
:10122800476E454A462A43C0D9FF44C0DAFF47C043
:10123800DFFF434A442A4106D8A042064128EBE191
:101248004228D8B41200E7D70F0153A11DD017C008
:10125800D9FF18C0DAFF800EDE18D8A414D00FC04A
:10126800D9FF10C0DAFF840EDE18D8A40CD017C03E
:10127800D9FF18C0DAFF0C0EDF6E17C0D9FF18C0EF
:10128800DAFF000EDB8E5391629A1200000E020103
:10129800816F000E826F020E816F010E826F160E33
:1012A800F66E080EF76E0800F5CF83F2160EF66E8E
:1012B800080EF76E0900F5CF41F00900F5CF42F0AE
:1012C80042C041F0426A4150846F000E3E6E050EE6
:1012D8003D6E4EEC08F012003D6E1DD0000E816E82
:1012E800000E826E000E8A6E000E8B6E000E7E6EF1
:1012F800000E7F6EF00E936E0F0E946E0F0E946EAE
:10130800F19EF00E786E81BC03D0D00E936E120061
:10131800B00E936E12003D50000AD8B4DFD7010A10
:10132800D8B41200030A1200000E426E000E416E7D
:10133800880E4124D96E000E4220DA6E810E4124B7
:10134800E16E020E4220E26EDFCFE7FF414A422AF9
:1013580042BEEED7425004E1100E415CD8A0E8D757
:101368002AC091F21BC092F21C500201936F000E2A
:101378003E6E140E3D6E4EEC08F012003E6E400EAE
:101388003E600CD0400E3D6002D0070E21D0C00E4A
:101398003D6402D0050E1CD0060E1AD0C00E3E6465
:1013A8000CD0400E3D6002D0010E12D0C00E3D643C
:1013B80002D0030E0DD0020E0BD0400E3D6002D0BD
:1013C800000E06D0C00E3D6402D0040E01D0080EF7
:1013D8003F6E3F501200160E0001BA6F030EBB6F2E
:1013E800530EBC6F000EBD6F4E0EBE6F000EBF6F6A
:1013F8002D0EC06F000EC16F2D0EC26F000EC36F91
:101408002D0EC46F000EC56F2D0EC66F000EC76F70
:101418002D0EC86F000EC96F2D0ECA6F000ECB6F50
:101428002D0ECC6F000ECD6F2D0ECE6F000ECF6F30
:101438001200020E2818D8A403D046EC12F01200AD
:10144800000E286E2450D8A41FD020EE01F01550AD
:10145800D9261650DA22080EDF6E20EE02F015505B
:10146800D9261650DA22300EDE6E020EDD6E15C059
:10147800D9FF16C0DAFF0C0EDF6E15C0D9FF16C0F3
:10148800DAFF000EDB8E1200000E246E1200000E32
:101498000001AE6F000EAF6F000EAC6F000EAD6FA7
:1014A800000EAA6F000EAB6F000E356E000E3E6E7A
:1014B800000E3D6E66EC08F01A0E456E010ECBEC80
:1014C80008F082BE12001E0E456E020ECBEC08F02C
:1014D800000E3D6EC00E3E6E020E3F6E400E406E18
:1014E800020E1CEC10F03DC0AAF03EC0ABF012009A
:1014F800200E3E6E000E3D6E345080083F6E000E8A
:10150800D8A0E82A0008406E29EC0BF03DC0B4F0E2
:101518003EC0B5F0200E3E6E000E3D6E3350800882
:101528003F6E000ED8A0E82A0008406E29EC0BF0A8
:101538003DC0B2F03EC0B3F0200E3E6E000E3D6ED0
:10154800325080083F6E000ED8A0E82A0008406E8E
:1015580029EC0BF03DC0B0F03EC0B1F0120010D045
:1015680000F01200010E70EC09F01200020E70EC8F
:1015780009F012004BEC0AF01200D0EC17F0120040
:1015880049C04FF04AC050F05050000AD8B404D0B7
:101598007F0AD8A412001AD04F50010AD8B4EAD74B
:1015A800030AD8B41200010AD8B4E7D7060AD8B497
:1015B8001200770AD8B4D4D7010AD8B41200070A9F
:1015C800D8B4D4D7010AD8A41200CCD74F50FF0AF8
:1015D800120019C081F2000E3E6E000E3D6ED00E54
:1015E8003D24D96E000E3E20DA6E820E3D24E16E57
:1015F800020E3E20E26EDFCFE7FF3D4A3E2A3EBEA6
:10160800EED73E5004E10D0E3D5CD8A0E8D7000EA1
:101618003E6E000E3D6E400E3D24D96E020E3E20F9
:10162800DA6E8F0E3D24E16E020E3E20E26EDFCFB1
:10163800E7FF3D4A3E2A3EBEEED73E5005E1080E82
:101648003D5CD8B01200E7D71200000E426E40AEE3
:1016580006D03F6C401ED8B0402A010E426E3EAE06
:1016680006D03D6C3E1ED8B03E2A010E421A000E2E
:10167800446E000E436E3F504010D8B41CD0010E8B
:10168800416E04D0D8903F364036412A40AEFAD752
:10169800D890433644363F503D5C40503E58D8A021
:1016A80005D03F503D5E40503E5A4380D89040326E
:1016B8003F32412EEDD74250D8B404D0436C441E7B
:1016C800D8B0442A43C03DF044C03EF01200000E9A
:1016D800296E000E226E000E1F6E000E1E6E000E8A
:1016E800246E000E286E0FC0D9FF10C0DAFF7F0EDF
:1016F800DF16040E0F180F6E1050106E0FC0D9FFB2
:1017080010C0DAFF7F0EDF16040E0F180F6E105090
:10171800106E15C0D9FF16C0DAFF7F0EDF16000E57
:101728000C6E000E0E6E000E0D6E000E046E000E96
:10173800066E000E056E8FEC0DF0000E4A6E030E5D
:10174800496E000E4B6E000E4C6E000E4E6E000E73
:101758004D6EB3EC0AF0BFEC0EF01200000E426EB4
:10176800000E416E740E4124D96E000E4220DA6ECE
:10177800810E4124E16E020E4220E26EDFCFE7FFC8
:10178800414A422A42BEEED7425004E1140E415C5F
:10179800D8A0E8D7000E426E000E416E600E4124BC
:1017A800D96E000E4220DA6E950E4124E16E020ECB
:1017B8004220E26EDFCFE7FF414A422A42BEEED71F
:1017C800425004E1140E415CD8A0E8D72FC0A9F21A
:1017D8002EC0AAF22DC0ABF22CC0ACF22BC0ADF2D9
:1017E800000E3E6E2E0E3D6E4EEC08F01200426E5C
:1017F800000E436E020E446E3D503E6E3F6AD89016
:101808003E363F364250406E416AD89040364136A7
:10181800D890403641363E5040263F504122D8901D
:1018280040364136D89040364136405043264150E4
:10183800442243C0D9FF44C0DAFFDF9E3D50D8A4FC
:1018480007D04250020D980EF324D96E000E06D030
:101858004250020D0F0EF324D96E000EF420DA6EFA
:1018680043C0DEFF44C0DDFF43C0D9FF44C0DAFFF8
:10187800DF9C20EE04F04350D9264450DA22DF8C56
:101888001200000E1F6E000E1E6E020E2818D8A43D
:101898001FD020EE01F01550D9261650DA22080E76
:1018A800DF6E20EE02F01550D9261650DA22380ED7
:1018B800DE6E020EDD6E15C0D9FF16C0DAFF480EC7
:1018C800DF6E15C0D9FF16C0DAFF000EDB8E1200DE
:1018D8000D500201365D0E503759D8B004D036C2CB
:1018E8000DF037C20EF0F1EC0DF020EE02F00F50C3
:1018F800D9261050DA22380EDE6E020EDD6E0FC0C9
:10190800D9FF10C0DAFF480EDF6E0FC0D9FF10C034
:10191800DAFF000EDB8E12002D0E236E3AC058F04F
:10192800FD0E5816D8A43BD03AC058F0D89058327B
:101938003F0E58165850040D000EF324176E020E71
:10194800F420186E17C015F018C016F0040E1518FC
:10195800156E1650166E17C0D9FF18C0DAFFDF30A3
:10196800E8320F0B0D0AD8A417D0300E3D6E020EC8
:101978003E6E20EE02F01750D9261850DA22DECF3C
:101988003FF0DDCF40F0000E426E080E416E06ECCF
:1019980009F06BEC0BF012001DEC0AF012003A5043
:1019A800FD0B040AD8A412002EEC0FF01200000E52
:1019B8000201386F000E396F38D00C8E2704D8A476
:1019C8003FD038833DD00C8E3BD00C8E34510F0B5A
:1019D8000009D8B435D034BF0AD034510F0B3D6E4E
:1019E8003D50020D980EF324D96E000E09D03451E3
:1019F8000F0B3D6E3D50020D0F0EF324D96E000EF5
:101A0800F420DA6EDECF3EF0DDCF3FF03EC0D9FFE6
:101A18003FC0DAFFDFAE14D03EC0D9FF3FC0DAFFC7
:101A2800DFA40ED0010E386F0BD030511F0B000A07
:101A3800D8B4C3D7010AD8B4C6D7030AD8B4C5D70F
:101A48000CAE1200380E096E020E0A6E0C80020EE1
:101A58000D6E12002150D8A41200010E216E2050E4
:101A6800D8A41200010E206E020E2818D8A415D092
:101A780020EE01F00F50D9261050DA22000EDF6E4A
:101A88000FC0D9FF10C0DAFF480EDF6E0FC0D9FFB4
:101A980010C0DAFF000EDB8E12002804D8A4120052
:101AA800000E246E20EE01F01750D9261850DA22C5
:101AB800080EDF6E20EE02F01750D9261850DA22F1
:101AC800300EDE6E020EDD6E17C0D9FF18C0DAFFC9
:101AD800040EDF6E17C0D9FF18C0DAFF000EDB8EC8
:101AE800010E246E20EE01F01550D9261650DA2288
:101AF800080EDF6E20EE02F01550D9261650DA22B5
:101B0800300EDE6E020EDD6E15C0D9FF16C0DAFF8C
:101B1800800EDF6E120002013039E832030B000933
:101B2800D8A4120039D00C8E080E376E1200F0ECD3
:101B380016F0120057EC0EF012003C0E096E000E63
:101B48000A6E0C80010E0D6E0C8E1200DBEC0CF090
:101B58001200C0EC18F012003B0E3425096E0A6A18
:101B6800000E0A22EED70C8E3B0E3425D96EDA6AA7
:101B7800000EDA2232C2DFFF1200000E4A6E020E99
:101B8800496E000E4B6E000E4C6E000E4E6E000E2F
:101B98004D6EB3EC0AF012003151000AD8B4D6D712
:101BA800010AD8B4D6D7020AD8B4D3D7060AD8B40B
:101BB800BAD7030AD8B4BBD7010AD8B4DED70F0AFC
:101BC800D8B4BBD7010AD8B4B5D7030AD8B4C4D798
:101BD800010AD8B4C8D7070A1200080E3D6E0E5085
:101BE80010E1080E0D5CD8B00CD00DC03DF02950A6
:101BF800D8A402D0010E04D02904D8A402D0020E21
:101C0800296E3D500D5E000E0E5A20EE01F00F5069
:101C1800D9261050DA223DC0DFFF380E0001A86F28
:101C2800020EA96F0CA01CD03AD009C0F6FF0AC05A
:101C3800F7FFF86AA8C0D9FFA9C0DAFF020EF76457
:101C480003D00800F55005D0F6CFE1FFF7CFE2FF4B
:101C5800E750DF6E094A0A2A0001A84BA92B3D0666
:101C68003D50D8B41200E1D709C0F6FF0AC0F7FF0B
:101C7800F86AA8C0D9FFA9C0DAFF020EF76403D03A
:101C88000800F55005D0F6CFE1FFF7CFE2FFE750A7
:101C9800DF6E094A0A2A0001A84BA92B3D063D50D0
:101CA800D8B41200E1D70C8E540E3D6E0F0E3E6E66
:101CB800000E406E000E3F6E000E426E020E416E28
:101CC8000BEC08F0000E3D6E020E3E6E000E406EEC
:101CD800000E3F6E000E426E300E416E0BEC08F0A7
:101CE800648C000E516EA50E5124D96EDA6A000E6E
:101CF800DA22000EDF6EA20E5124D96EDA6A000EC7
:101D0800DA22000EDF6E512A020E5164ECD73B0E28
:101D18003D6E000E3E6E000E406E000E3F6E000ED1
:101D2800426E010E416E0BEC08F0649C080E0F6EBB
:101D3800020E106E000E176E020E186E17C015F008
:101D480018C016F032C23CF03C50D8A403D0100E94
:101D5800376E1200200E376E000E4A6E010E496E65
:101D68003C0E4B6E000E4C6E000E4E6E010E4D6E0C
:101D7800B3EC0AF0120064980CBE38D004AE0BD055
:101D8800020E286E1E50D8B445EC0CF0000E206EE2
:101D9800000E216E120020EE01F01550D9261650C3
:101DA800DA22080EDF6E20EE02F01550D926165002
:101DB800DA22300EDE6E020EDD6E15C0D9FF16C0B7
:101DC800DAFF0C0EDF6E15C0D9FF16C0DAFF000E61
:101DD800DB8E0FC0D9FF10C0DAFF040EDF6E0FC014
:101DE800D9FF10C0DAFF000EDB8E1200020130AFFF
:101DF80010D0010E286E1F50D8B445EC0CF0000E20
:101E0800206E000E216E2250D8A412002EEC0DF088
:101E18001200020E286E20EE01F01550D926165039
:101E2800DA22080EDF6E20EE02F01550D926165081
:101E3800DA22300EDE6E020EDD6E15C0D9FF16C036
:101E4800DAFF040EDF6E15C0D9FF16C0DAFF000EE8
:101E5800DB8ED5D70FC0D9FF10C0DAFF000EDFBC6C
:101E6800010E3E6E040E0F180F6E1050106E080E05
:101E78003718D8A40CD0020132517F0B0F015C6FC8
:101E88005C51D8B402D0100E01D0040E376E28046D
:101E9800D8A43AD020EE02F00F50D9261050DA22FA
:101EA800380EDE6E020EDD6EF1EC0DF0020E291812
:101EB800D8A40DD00FC0D9FF10C0DAFF040EDF6E12
:101EC8000FC0D9FF10C0DAFF000EDB8E12003E50A3
:101ED800D8A40DD00FC0D9FF10C0DAFF480EDF6EAE
:101EE8000FC0D9FF10C0DAFF000EDB8E12000FC042
:101EF800D9FF10C0DAFF080EDF6E0FC0D9FF10C07F
:101F0800DAFF000EDB8E120004AE13D00750081063
:101F1800D8B40ED020EE07F001D80AD00500FA6E2A
:101F2800DE50FD6EDE50FE6EF850FF6EFA50120065
:101F3800049E000E286E1200000E416E000E406EC8
:101F4800740E4024D96E000E4120DA6EDF503D6ECB
:101F58004050200F97EC08F0404A412A41BEF0D784
:101F6800415004E1140E405CD8A0EAD7000E416E3F
:101F7800000E406E600E4024D96E000E4120DA6ECD
:101F8800DF503D6E4050340F97EC08F0404A412A2C
:101F980041BEF0D7415004E1140E405CD8A0EAD706
:101FA800000E416E000E406E880E4024D96E000E61
:101FB8004120DA6EDF503D6E4050480F97EC08F034
:101FC800404A412A41BEF0D7415004E1100E405C1E
:101FD800D8A0EAD72FC03DF0580E97EC08F02EC0D5
:101FE8003DF0590E97EC08F02AC03DF05A0E97ECD8
:101FF80008F02DC03DF05B0E97EC08F02CC03DF0CA
:102008005C0E97EC08F02BC03DF05D0E97EC08F0E5
:102018001BC03DF05E0E97EC08F01C503D6E5F0E45
:1020280097EC08F036C03DF0600E97EC08F012000F
:10203800456E3D50D8B407D04550020D0F0EF3241D
:10204800D96E000E06D04550020D980EF324D96EB5
:10205800000EF420DA6EDECF46F0DDCF47F04650B2
:102068004710D8A405D0000E3D6E000E3E6E12003B
:1020780020EE02F04650D9264750DA223EC0DEFF55
:102088003FC0DDFF20EE01F04650D9264750DA2246
:1020980040C0DFFF46C0D9FF47C0DAFF400EDF1659
:1020A80046C0D9FF47C0DAFF000EDB8646C0D9FF1D
:1020B80047C0DAFF000EDB8E3D50D8B418D045502B
:1020C800020D0F0EF324D96E000EF420DA6EDECF67
:1020D80041F0DDCF42F0040E4118436E4250446E89
:1020E8004550020D0F0EF324D96E000E17D045503F
:1020F800020D980EF324D96E000EF420DA6EDECFAE
:1021080041F0DDCF42F0040E4118436E4250446E58
:102118004550020D980EF324D96E000EF420DA6EA5
:1021280043C0DEFF44C0DDFF46C03DF047C03EF07F
:102138001200000E346E000E336E000E326E020E68
:10214800316E020E306EE7EC08F0000E426E740E2F
:102158004224D96EDA6A000EDA22000EDF6E422AB5
:10216800130E4264F4D7000E426E600E4224D96EFC
:10217800DA6A000EDA22000EDF6E422A130E42647B
:10218800F4D7000E426E880E4224D96EDA6A000E29
:10219800DA22000EDF6E422A0F0E4264F4D7400E98
:1021A8000001886F200E8A6F020E8D6F800E8E6F71
:1021B800100E906F010E936F200E956F100E976F93
:1021C800400E606F200E626F020E656F800E666FA4
:1021D800100E686F010E6B6F200E6D6F100E6F6F13
:1021E800400E706F200E726F010E746F020E766FC4
:1021F800040E786F080E7A6F100E7C6F200E7E6FBB
:10220800800E806F400E826F010E846F020E866F03
:10221800030E2F6E020E2E6E030E2A6E030E2D6E07
:10222800060E2C6E440E2B6E010E1C6E900E1B6E4D
:10223800A0EC0FF0010E366E010E77EC07F01200DD
:10224800818C3DC044F03EC045F0140EE82EFED708
:1022580082CF3FF00F0E3F168150300B3F1044C025
:10226800D9FF45C0DAFFDF6E444A452A819C140E27
:10227800E82EFED782CF3FF00F0E3F168150300B6D
:102288003F1044C0D9FF45C0DAFFDF6E444A452AF3
:10229800818C000E436E000E426E000E416E000EE1
:1022A800406E81B802D0010E01D0000E3F6E81BA97
:1022B80002D0010E01D0000E3F14E8B00DD0C80EB8
:1022C80040184110D8A405D0000E3E6E010E3D6E98
:1022D8001200404A412AE5D782500F0B44C0D9FF6B
:1022E80045C0DAFFDF6E444A452A050E42184310FE
:1022F800D8A405D0000E3E6E000E3D6E1200000EF2
:10230800416E000E406E81A802D0010E01D0000E71
:102318003F6E81BA02D0010E01D0000E3F14E8B022
:1023280008D0C80E40184110D8B4CED7404A412A28
:10233800EAD782500F0B44C0D9FF45C0DAFFDF6EE1
:10234800444A452A424A432A43BEA7D74350BCE1E0
:10235800060E425CD8B0B8D7A0D7818A3DC046F0F7
:102368003EC047F0140EE82EFED782CF3FF00F0E86
:102378003F168150300B3F10416E819A140EE82EA3
:10238800FED782CF3FF00F0E3F168150300B3F1023
:10239800406E46C0D9FF47C0DAFF40C0DFFF464A5B
:1023A800472A46C0D9FF47C0DAFF41C0DFFF464A87
:1023B800472A818A000E456E000E446E000E436E59
:1023C800000E426E81B802D0010E01D0000E3F6EA1
:1023D80081BE02D0010E01D0000E3F14E8B00DD02E
:1023E800C80E42184310D8A405D0000E3E6E010E48
:1023F8003D6E1200424A432AE5D782500F0B416EC8
:10240800000E436E000E426E81A802D0010E01D06C
:10241800000E3F6E81BE02D0010E01D0000E3F14A7
:10242800E8B008D0C80E42184310D8B4DED7424AE4
:10243800432AEAD782500F0B406E46C0D9FF47C0E7
:10244800DAFF40C0DFFF464A472A46C0D9FF47C0E7
:10245800DAFF41C0DFFF464A472A050E44184510F7
:10246800D8A405D0000E3E6E000E3D6E1200444A00
:10247800452A45BEA3D74550B8E1060E445CD8B0FE
:10248800B4D79CD720EE01F01750D9261850DA227D
:10249800DF503E6E3E50055C000E0658D8A005C0C1
:1024A8003EF03E50055E000E065A000E3D6E0FD0FF
:1024B800380E3D24D96EDA6A020EDA2201C0E1FF35
:1024C80002C0E2FFDFCFE7FF014A022A3D2A3E5061
:1024D8003D5CD8A0EDD705500610D8B432D020EE18
:1024E80001F01550D9261650DA22080EDF6E20EEBC
:1024F80002F01550D9261650DA22380EDE6E020E7A
:10250800DD6E17C0D9FF18C0DAFFDFBC0DD015C0CB
:10251800D9FF16C0DAFF480EDF6E15C0D9FF16C006
:10252800DAFF000EDB8E120015C0D9FF16C0DAFFE5
:10253800080EDF6E15C0D9FF16C0DAFF000EDB8E5D
:10254800120020EE01F01550D9261650DA22080E96
:10255800DF6E20EE02F01550D9261650DA22300E22
:10256800DE6E020EDD6E15C0D9FF16C0DAFF040E4E
:10257800DF6E15C0D9FF16C0DAFF000EDB8E0750DC
:102588000810D8B40ED020EE07F001D80AD0050004
:10259800FA6EDE50FD6EDE50FE6EF850FF6EFA5099
:1025A8001200049E2250D8A412002EEC0DF0120046
:1025B800A094000E0F015F6F000E626E000E536F45
:1025C800540E3D6E0F0E3E6E000E406E000E3F6EB6
:1025D800000E426E020E416E0BEC08F0160E616E94
:1025E8009F0E0F015B6F7B0E606E000E456E4550AF
:1025F800040D000EF324D96E020EF420DA6EDE6AA2
:10260800DE6ADE6ADD6A452A0B0E4564F0D7648C03
:10261800000E0F015C6F6498649C6296000E0C6E4D
:10262800000E046E000E066E000E056E62B6F5D73B
:10263800010E216E010E206E000E1F6E000E1E6E22
:10264800000E266E000E456E4550020D0F0EF32447
:10265800D96E000EF420DA6E000EDE6E000EDD6E0E
:102668004550020D980EF324D96E000EF420DA6E50
:10267800000EDE6E000EDD6EA50E4524D96EDA6AF8
:10268800000EDA22000EDF6EA20E4524D96EDA6A39
:10269800000EDA22000EDF6E452A020E4564D4D7FA
:1026A800080E0F6E020E106E160E0F01536F020EFB
:1026B8000201036F300E026F080E016F040E006FE7
:1026C800008F000E3C6E000E00019E6F000E9F6F83
:1026D800000EA06F000EA16F000E1D6E000E376E6B
:1026E8001200010E7EEC07F0346E020E7EEC07F04D
:1026F800336E030E7EEC07F0326E040E7EEC07F0AC
:10270800316E050E7EEC07F0306E000E4B6E740EC7
:102718004B24D96EDA6A000EDA224B50200F7EEC79
:1027280007F0DF6E4B2A130E4B64F1D7000E4B6E89
:10273800600E4B24D96EDA6A000EDA224B50340F41
:102748007EEC07F0DF6E4B2A130E4B64F1D7000EB8
:102758004B6E880E4B24D96EDA6A000EDA224B5083
:10276800480F7EEC07F0DF6E4B2A0F0E4B64F1D753
:10277800580E7EEC07F02F6E590E7EEC07F02E6E89
:102788005A0E7EEC07F02A6E5B0E7EEC07F02D6E7B
:102798005C0E7EEC07F02C6E5D0E7EEC07F02B6E67
:1027A8005F0E7EEC07F03E6E3E50406E3F6A5E0E56
:1027B8007EEC07F0416E41503F101B6E40501C6E7E
:1027C800600E7EEC07F0366E440E4A6E000E4B6EBD
:1027D800420E4B24D96EDA6A000EDA224B50080FEB
:1027E8007EEC07F0DF6E420E4B24D96EDA6A000EDB
:1027F800DA22DF504A264B2A070E4B64E9D7070E28
:102808007EEC07F04A18D8A4120042C0C0F043C0BA
:10281800C2F044C0C4F045C0C6F046C0C8F047C0C6
:10282800CAF048C0CCF049C0CEF012003750D8A446
:1028380011D0000E646E000E606E160E616E9F0E53
:102848000F015B6F7B0E606E01D0648664A6FDD7B6
:10285800010E376E3704D8B464BA08D0000E626E21
:10286800000E606E60806088020E376E62B460A4ED
:1028780003D062947EEC08F064A202D0A194120006
:1028880062B060A005D0DCEC12F0040E376E6290E6
:1028980062B860A802D021EC08F062AC1AD060AC33
:1028A8000ED0000E4A6E730E496E000E4B6E000E6F
:1028B8004C6E000E4E6E010E4D6EB3EC0AF0629C2B
:1028C800B0EC07F02350D8A423062350D8B42EEC3C
:1028D8000DF062BA60AA02D028EC09F062B260A2D8
:1028E80010D07F0E4A6E4968000E4B6E000E4C6E7B
:1028F800000E4E6E010E4D6EB3EC0AF0000E0F0185
:102908005F6F040E376002D0A194120060A634D025
:10291800000E596E62A630D063CF3AF03A30E832F2
:10292800E8320F0B256E62963AB406D0A20E252423
:10293800D96EDA6A000E05D0A50E2524D96EDA6A9A
:10294800000EDA220001DF702550D8A403D090ECE5
:102958000CF00ED0000E4A6E720E496E3A0E4B6E97
:10296800000E4C6E000E4E6E000E4D6EB3EC0AF06B
:10297800592A030E5964CED7A1941200829E000EE4
:102988004E6E000E0001B76F000EB66F000EB96FE5
:10299800000EB86F3D0E4D6EE10E4C6E400EE82EE7
:1029A800FED74C2EFCD74D2EFAD7D00E9318D8B49C
:1029B80039D0D00E3D6E000E3E6E24EC11F01F0E85
:1029C8004D6E710E4C6E1E0EE82EFED74C2EFCD7A7
:1029D8004D2EFAD700D0D00E3D6E000E3E6E24EC80
:1029E80011F03D043E10D8A40CD00001D1A9828E6C
:1029F800D1BB02D0010E4E6ED0B543D037EC08F0F3
:102A080040D00001DC510A0B0A0AD8A4828EDCB13E
:102A180002D0010E4E6EDCB502D0010E4E6ED2A36E
:102A2800EDD72FD0D00E3D6E000E3E6EB1EC11F0FA
:102A38001F0E4D6E710E4C6E1E0EE82EFED74C2EDC
:102A4800FCD74D2EFAD700D0D00E3D6E000E3E6E4C
:102A5800B1EC11F03D043E10D8A40DD0828E818ACD
:102A6800F00E00D0E82EFDD781B802D0010E4E6ED0
:102A780081AEC4D706D0000E0001B76F010EB66F45
:102A8800C6D7EFEC09F0000E7EEC07F09C0AD8B42C
:102A980002D0010E01D0000E4C6E4D6A4E504C1201
:102AA800000E4D124C504D10D8B40ED0000E346E9E
:102AB800000E336E000E326E020E316E020E306E54
:102AC800E7EC08F09DEC10F075EC13F07CEC0AF0E4
:102AD8001200506E5050476E486A4350496E4A6A19
:102AE800800E4926000E4A224750495C4A50800A07
:102AF8004B6E4850800A4B58D8A017D0800E476EAE
:102B0800000E486E4350475E000E485A5050496EBA
:102B18004A6A4750495C4A50800A4B6E4850800ABE
:102B28004B58D8A002D0800E1200800E50603CD0C6
:102B3800505043C047F0486A471E481E474A482A33
:102B4800475E000E485A800E47244C6E000E4820FF
:102B58004D6E44C03DF03E6A4CC03FF04DC040F061
:102B6800E5EC07F03DC04EF03EC04FF04EC03DF0E2
:102B78004FC03EF045C03FF046C040F0E5EC07F0DE
:102B88003DC051F03EC052F0400E525CD8A004D077
:102B9800400E526E000E516E51500008516E525048
:102BA800D8A0E82A4008526E800E506436D04350B0
:102BB80050C047F0486A475E000E485A810E4724C5
:102BC8004C6EFF0E48204D6E44C03DF03E6A4CC02E
:102BD8003FF04DC040F0E5EC07F03DC04EF03EC080
:102BE8004FF04EC03DF04FC03EF045C03FF046C0EC
:102BF80040F0E5EC07F03DC051F03EC052F0400E09
:102C0800525CD8A004D0400E526E000E516EFF0EDA
:102C18005124516E3F0E5220526E51C047F052C09F
:102C280048F0070E496ED89048324732492EFBD7F4
:102C380047501200010E3D6E819AF00E00D0E82E2A
:102C4800FDD7818AF00E00D0E82EFDD7819AF00ECC
:102C580000D0E82EFDD781B808D0000188510201C4
:102C68004513000189510201461381BE02D0000EAE
:102C78003D6E818AF00E00D0E82EFDD782B008D0D4
:102C8800410E2A24D96EDA6A020EDA22000EDF6EAD
:102C980082B208D0410E2A24D96EDA6A020EDA22EC
:102CA800FF0EDF6E82B408D0400E2A24D96EDA6A8D
:102CB800020EDA22000EDF6E82B608D0400E2A24F9
:102CC800D96EDA6A020EDA22FF0EDF6E81B808D0FA
:102CD80000018A510201451300018B51020146137C
:102CE80081BE08D000018C510201451300018D51AD
:102CF80002014613819AF00E00D0E82EFDD782A07B
:102D080082B23ED0818AF00E00D0E82EFDD782B084
:102D180008D00001925102014513000193510201AC
:102D2800461382B208D000019051020145130001F8
:102D380091510201461382B408D000018E5102015C
:102D4800451300018F510201461382B608D00001D5
:102D580096510201451300019751020146133D5057
:102D6800D8A408D0000194510201451300019551DF
:102D780002014613819AF00E00D0E82EFDD72AD022
:102D88001B500001B81904E11C50B919D8B418D067
:102D98003D50D8A410D0945102014513000195511B
:102DA800020146131B2803E11C28D8B413D00001E4
:102DB800B84BB92B0FD0000EB96F000EB86F0AD000
:102DC8003D50D8A4F8D796510201451300019751F8
:102DD80002014613818A1200800E02013019D8A41C
:102DE8001200C00E0C6ECDD082AE09D0DB0E096E7B
:102DF8003F0E0A6E000E0E6E120E0D6E1200C90EF8
:102E0800096E3F0EF6D73251D8A47CD082AE07D0D7
:102E18003251020D510EF324F66E3D0E3CD0325164
:102E2800020D4F0EF324F66E3D0EF420F76E0900E6
:102E3800F5CF09F00A00F5CF0AF0020E3618D8A42B
:102E48000ED03251020D4D0EF324F66E3D0EF420D5
:102E5800F76E0900F5CF09F00A00F5CF0AF0030E66
:102E68003618D8A40ED03251020D4B0EF324F66E4C
:102E78003D0EF420F76E0900F5CF09F00A00F5CFF2
:102E88000AF0040E3618D8A40ED03251020D490E9D
:102E9800F324F66E3D0EF420F76E0900F5CF09F025
:102EA8000A00F5CF0AF0020E09243D6E000E0A2032
:102EB8003E6E3DC0F6FF3EC0F7FFF86A020EF764AB
:102EC80003D00800F55005D0F6CFE1FFF7CFE2FFB9
:102ED800E7500D6E030E09243D6E000E0A203E6E6B
:102EE8003DC0F6FF3EC0F7FFF86A020EF76403D054
:102EF8000800F55005D0F6CFE1FFF7CFE2FFE75025
:102F08000E6E1200000E0C6E1200030E32612CD0F1
:102F180082AE07D03251020D430EF324F66E3D0EF9
:102F280006D03251020D3D0EF324F66E3D0EF4200C
:102F3800F76E0900F5CF09F00A00F5CF0AF009C0CD
:102F4800F6FF0AC0F7FFF86A020EF76403D008001C
:102F5800F55005D0F6CFE1FFF7CFE2FFE7503D6E21
:102F68003D500D6E0E6A1200030E3219D8A4CAD74E
:102F78000C80BA0E096E000E0A6EBAC00DF00C8EE7
:102F880012003351010AD8B42FD7030AD8B43BD75B
:102F9800010AD8B4BAD7B6D7020130511F0BE806D8
:102FA800D8A41200060E3119D8B4A0D0A7D03C047A
:102FB800D8A4A4D082AE6AD03451D8A412006C0E22
:102FC800096E3F0E0A6E000E0E6E090E0D6EC00ED3
:102FD8000C6E94D02A0E096E3F0E0A6E000E0E6E0D
:102FE800090E0D6EC00E0C6E020E3618D8A40AD04B
:102FF800E80E096E3E0E0A6E000E0E6E090E0D6E7C
:10300800C00E0C6E030E3618D8A40AD0A60E096E90
:103018003E0E0A6E000E0E6E090E0D6EC00E0C6E80
:10302800040E3618D8A46AD0640E096E3E0ECAD7AC
:103038003A0E096E3F0E0A6E000E0E6E090E0D6EE8
:10304800C00E0C6E020E3618D8A40AD0F80E096EFF
:103058003E0E0A6E000E0E6E090E0D6EC00E0C6E40
:10306800030E3618D8A40AD0B60E096E3E0E0A6EA4
:10307800000E0E6E090E0D6EC00E0C6E040E361884
:10308800D8A43CD0740E096E3E0E9CD73451000A69
:10309800D8B4A0D7010AD8B4CBD730D03C04D8A430
:1030A8002DD082AE1BD03451D8A41200530E096E15
:1030B8003D0E0A6E000E0E6E650E88D7080E096E5C
:1030C8003E0E0A6E000E0E6E4A0E80D77C0E096EFA
:1030D8003F0E0A6E000E0E6E1D0E78D73451000A90
:1030E800D8B4ECD7010AD8B4F1D708D03351210AA3
:1030F800D8B45DD7030AD8B4D1D7010A3039E83239
:10310800030BE806D8A4120023D0A2EC07F01200A3
:10311800390E096E000E0A6E000E0E6E010E0D6E4F
:10312800C10E0C6E1200800E0C6E33C239F0120004
:10313800380E096E000E0A6E000E0E6E010E0D6E30
:10314800810E0C6E1200800E0C6E32C238F0120026
:103158003151010AD8B41200030AD8B4D9D7010AE8
:10316800D8B4E6D70A0AD8B4D0D7030AD8B4DBD77C
:10317800010AD8A41200E7D702013205D8A40ED05C
:1031880030511F0B0009D8A409D00C8E030E311939
:10319800D8A402D0010E01D0000E276E3251D8A457
:1031A800120030511F0B020AD8A4120034510F0B21
:1031B8000009D8B4120034510F0B516E030E516040
:1031C8001200200E3718D8A412000C8E34BF18D065
:1031D80034510F0B516E5150020D980EF324D96ED5
:1031E800000EF420DA6EDECF56F0DDCF57F0345102
:1031F8000F0B516E526AA20E5124D96E000E17D0D1
:1032080034510F0B516E5150020D0F0EF324D96E2D
:10321800000EF420DA6EDECF56F0DDCF57F03451D1
:103228000F0B516E526AA50E5124D96E000E522012
:10323800DA6EDF50556E55B006D0FB0E5614566E3A
:10324800FF0E571404D0040E5610566E5750576E82
:1032580034BF0AD034510F0B516E5150020D980EE5
:10326800F324D96E000E09D034510F0B516E515012
:10327800020D0F0EF324D96E000EF420DA6E56C03C
:10328800DEFF57C0DDFF030E3119D8A42AD056C07F
:10329800D9FF57C0DAFFDFAE17D034BF09D0345199
:1032A8000F0B516E526AA20E5124D96E000E08D02F
:1032B80034510F0B516E526AA50E5124D96E000E6F
:1032C8005220DA6E0001DF8256C0D9FF57C0DAFFFC
:1032D800000EDB8456C0D9FF57C0DAFF000EDB8E24
:1032E8001200040E5618566E5750576E56C0D9FF26
:1032F80057C0DAFFDFAE1BD056C0D9FF57C0DAFF80
:103308007F0EDF1656C0D9FF57C0DAFF000EDB8CE0
:10331800000E4A6E050E496E56C04BF057C04CF071
:10332800000E4E6E020E4D6EB3EC0AF006D056C07B
:10333800D9FF57C0DAFF000EDB8C040E5618566E04
:103348005750576E55B206D056C0D9FF57C0DAFF4E
:10335800DFAE2DD0020134BF09D034510F0B516EAE
:10336800526AA20E5124D96E000E08D034510F0BA8
:10337800516E526AA50E5124D96E000E5220DA6E93
:103388000001DF9256C0D9FF57C0DAFF3B0EDF16A7
:10339800000E4A6E050E496E56C04BF057C04CF0F1
:1033A800000E4E6E020E4D6EB3EC0AF006D056C0FB
:1033B800D9FF57C0DAFF3B0EDF16020134510F0B5D
:1033C800516E526A530E5124536E0F0E5220546E92
:1033D80053C0D9FF54C0DAFFFE0EDF161200D00E1C
:1033E800486E000E496EB1EC08F048C019F049C0AB
:1033F8001AF019041A10D8A496D0D1C053F0030EAD
:103408005316D8A409D000016E51020145130001DA
:103418006F510201461329D00001D1B108D0410EE5
:103428002F24D96EDA6A020EDA22000EDF6ED1B3CB
:1034380008D0410E2F24D96EDA6A020EDA22FF0E66
:10344800DF6ED0B108D0400E2E24D96EDA6A020E93
:10345800DA22000EDF6ED0B308D0400E2E24D96ECB
:10346800DA6A020EDA22FF0EDF6ED1C053F00C0EBC
:103478005316D8A407D000016C510201451300016E
:103488006D5126D00001D1B508D0400E2F24D96E39
:10349800DA6A020EDA22000EDF6ED1B708D0400ECB
:1034A8002F24D96EDA6A020EDA22FF0EDF6ED0B54B
:1034B80007D064510201451300016551020146130A
:1034C8000001D0B707D066510201451300016751CA
:1034D800020146130001D1B907D06051020145131A
:1034E80000016151020146130001D1BB07D06251AE
:1034F8000201451300016351020146130001D0B9CE
:1035080007D06851020145130001695102014613B1
:103518000001D0BB12006A510201451300016B5132
:103528000201461312000001D439F00BD811556E70
:10353800D539F00BD911546ED639F00BDA11566E15
:1035480033C043F031C044F0B2C045F0B3C046F0D8
:1035580055506DEC15F0556E34C043F031C044F051
:10356800B4C045F0B5C046F054506DEC15F0546E3B
:1035780032C043F030C044F0B0C045F0B1C046F0AE
:1035880056506DEC15F0566E2BB0541E2BB2551ECE
:103598002BB4561E400E2E24D96EDA6A020EDA2299
:1035A80056C0DFFF54C043F255C044F20001DCB3FB
:1035B80007D07051020145130001715102014613F1
:1035C8000001DCB107D072510201451300017351AB
:1035D800020146130001DCB707D060510201451310
:1035E80000016151020146130001DCB507D06251A8
:1035F8000201451300016351020146130001D2B3D1
:1036080007D06451020145130001655102014613B8
:103618000001D2B107D0665102014513000167517C
:10362800020146130001D3B707D0685102014513C0
:1036380000016951020146130001D3B507D06A5150
:103648000201451300016B51020146130001D3B179
:1036580007D06E510201451300016F510201461354
:103668000001D3B312006C510201451300016D51E2
:10367800020146131200800E546E800E556E800EA5
:10368800566ED00E486E000E496EB1EC08F048C078
:1036980019F049C01AF019041A10D8A46AD0D1C078
:1036A80053F0030E5316D8A409D000018251020129
:1036B800401300018351020141130DD00001D1B123
:1036C80002D0000E556ED1A35568D0B102D0000EBD
:1036D800566ED0A35668D1C053F00C0E5316D8A41A
:1036E80007D000018051020140130001815118D018
:1036F8000001D1B502D0000E546ED1A75468D0B5E0
:1037080007D0785102014013000179510201411399
:103718000001D0B707D07A510201401300017B5154
:10372800020141130001D1B907D0745102014013BD
:1037380000017551020141130001D1BB07D0765138
:103748000201401300017751020141130001D0B971
:1037580007D07C510201401300017D510201411341
:103768000001D0BB9BD07E510201401300017F5164
:1037780093D00001D439F00BD811556ED539F00B20
:10378800D911546ED639F00BDA11566E33C043F0A6
:1037980031C044F0B2C045F0B3C046F055506DECAE
:1037A80015F0556E34C043F031C044F0B4C045F054
:1037B800B5C046F054506DEC15F0546E32C043F06D
:1037C80030C044F0B0C045F0B1C046F056506DEC82
:1037D80015F0566E0001DCB307D084510201401386
:1037E80000018551020141130001DCB107D0865167
:1037F8000201401300018751020141130001DCB7A7
:1038080007D07451020140130001755102014113A0
:103818000001DCB507D07651020140130001775151
:10382800020141130001D2B307D0785102014013BD
:1038380000017951020141130001D2B107D07A5138
:103848000201401300017B51020141130001D3B76B
:1038580007D07C510201401300017D510201411340
:103868000001D3B507D07E510201401300017F51FA
:10387800020141130001D3B107D082510201401364
:1038880000018351020141130001D3B307D08051D5
:103898000201401300018151020141132BB8541E4B
:1038A8002BBA551E2BBC561E020E2D18D8A40DD0AF
:1038B800400E2D24D96EDA6A020EDA2255C03DF088
:1038C8005450C2EC09F0DF6E10D0400E2D24D96E92
:1038D800DA6A020EDA2254C0DFFF410E2D24D96EB7
:1038E800DA6A020EDA2255C0DFFF020E2C18D8A4BD
:1038F8001CD02BAE0DD0400E2C24D96EDA6A020EE5
:10390800DA22800E3D6E5650C2EC09F0DF6E1200CE
:10391800400E2C24D96EDA6A020EDA2256C03DF027
:10392800800EC2EC09F0DF6E1200400E2C24D96E16
:10393800DA6A020EDA2256C0DFFF12001F0E376461
:10394800120064B212000001AE51AF11D8B406D013
:10395800AEC0D9FFAFC0DAFFDFBE5BD082AE29D0E0
:10396800010E0201406F7F0E416F7F0E426F7F0E86
:10397800436F7F0E446F0F0E456F000E466F000EAB
:10398800476FD00E9318D8A405D081BC06D01EEC82
:1039980016F003D081AEF3EC19F0010E3D6E400E27
:1039A8003E6E020E3F6E080E406E010E1CEC10F0CB
:1039B8002CD0000E0201406F000E416F080E426FBE
:1039C800800E436F800E446F800E456F800E466FE9
:1039D800000E476FD00E9318D8A40AD081BC0AD025
:1039E8000001B605B711D8A405D03FEC1BF002D0F2
:1039F80081AEFBD7010E3D6E400E3E6E020E3F6E4D
:103A0800070E406E010E1CEC10F03DC0AEF03EC03B
:103A1800AFF082BE12000001AA51AB11D8B409D090
:103A2800AAC0D9FFABC0DAFFDFAE03D03504D8A4F3
:103A380012000201C051D8B41FD1C0C280F21CD1FB
:103A48004AEC09F04BD1EDEC0AF048D1D2EC07F082
:103A580045D1C1C231F0C2C230F0C3C234F0C4C2D1
:103A680033F0C5C232F07CEC0AF088EC07F036D1AE
:103A7800C15177EC07F0F9D7000E5D6E000E5C6E51
:103A8800C10E5C24D96E020E5D20DA6E880E5C24AD
:103A9800E16E000E5D20E26EDFCFE7FF5C4A5D2A33
:103AA8005DBEEED75D5004E1100E5C5CD8A0E8D78F
:103AB800D1C22AF00201D251D3C257F0586A57C076
:103AC80058F0576A57101B6E58501C6ECED7000E10
:103AD8005D6E000E5C6EC10E5C24D96E020E5D2018
:103AE800DA6E600E5C24E16E000E5D20E26EDFCFC0
:103AF800E7FF5C4A5D2A5DBEEED75D5004E1140E17
:103B08005C5CD8A0E8D7D5C22FF0D6C22EF0D7C2B9
:103B180057F00F0E57162B50F00B26D0000E5D6E87
:103B2800000E5C6EC10E5C24D96E020E5D20DA6E4A
:103B3800740E5C24E16E000E5D20E26EDFCFE7FFBD
:103B48005C4A5D2A5DBEEED75D5004E1140E5C5CF4
:103B5800D8A0E8D7D5C22DF0D6C22CF0D7C257F0DE
:103B6800F00E57162B500F0B57102B6E7ED79DEC6F
:103B780010F088EC07F0B2D098EC09F0AFD0B2ECB6
:103B88000BF0ACD0E7EC08F0A0EC0FF06ED7000E0D
:103B98005D6E000E5C6E810E5C24D96E020E5D2097
:103BA800DA6E5C507EEC07F0DF6E5C4A5D2A5DBE23
:103BB800F2D75D5005E1200E5C5CD8B08FD0EBD712
:103BC8008DD0000E5D6E000E5C6EFF0E3D6E5C507B
:103BD80097EC08F05C4A5D2A5DBEF7D75D5005E1B9
:103BE800200E5C5CD8B041D7F0D73FD737EC08F04F
:103BF80075D0440E5B6E000E5D6E010E5C6EC00EDD
:103C08005C24D96E020E5D20DA6EDF503D6E5C508A
:103C1800070F97EC08F0C00E5C24D96E020E5D20E9
:103C2800DA6EDF505B265C4A5D2A5DBEE8D75D50E0
:103C380004E1090E5C5CD8A0E2D70201C951576EB5
:103C4800586A5B50596E5A6AFF0E591A000E5A1A72
:103C5800575059180AE158505A18D8A406D05BC0D2
:103C68003DF0070E97EC08F000D794EC07F036D03B
:103C7800C051D8A4FAD732D0C051010AD8B4E0D67E
:103C8800030AD8B4E0D6010AD8B4E0D6070AD8B4F3
:103C9800E0D6010AD8B476D7030AD8B478D7010A8F
:103CA800D8B48FD70E0AD8B4A1D7890AD8B4E0D629
:103CB800010AD8B4E1D6030AD8B409D7010AD8B49E
:103CC8002DD7070AD8B453D7010AD8B455D7030A51
:103CD800D8B455D71E0AD8B48CD7CAD70001AC516E
:103CE800AD11D8B406D0ACC0D9FFADC0DAFFDFBE85
:103CF8000FD0010E3D6E800E3E6E020E3F6E400EDE
:103D0800406E020E1CEC10F03DC0ACF03EC0ADF0B1
:103D1800000E356E000E3D6EC00E3E6E020E3F6EFA
:103D2800400E406E020E1CEC10F03DC0AAF03EC0E2
:103D3800ABF0120000F73FB83DB53FFB3FED3F99B0
:103D48003F523E943ED63E183F5A3F05010904A112
:103D580001A10275089505150026FF00350046FFEC
:103D6800000930093009300930093181027504959C
:103D7800012507463B01651409008142650075016C
:103D8800950A2501450105091901290A810206003C
:103D9800FF7501950A2501450109018102C0A102AB
:103DA8007508950446FF0026FF0009029102C0C06D
:103DB80050034D00490043004F004D0053004F0091
:103DC80046005400200044004500500054002E00D6
:103DD8002C002000440045004D0050004100200008
:103DE8005000550042004C00490043004100540077
:103DF80049004F004E00200049004E0043002E00AD
:103E080005010905A10115002501350045017501C8
:103E1800950D05091901290D8102950381010501F7
:103E28002507463B017504950165140939814265EA
:103E3800009501810126FF0046FF0009300931097C
:103E4800320935750895048102C009024200020151
:103E580000A032090400000103000000092111013B
:103E68000001224A000705810340000809040100F7
:103E78000203000000092111010001221D000705AD
:103E880082034000010705020340000109024200C5
:103E9800020100A03209040000010300000009210A
:103EA80011010001224A00070581034000040904AA
:103EB80001000203000000092111010001221D0078
:103EC80007058203400001070502034000010902BB
:103ED8004200020100A032090400000103000000B2
:103EE800092111010001224A00070581034000024F
:103EF8000904010002030000000921110100012248
:103F08001D00070582034000010705020340000168
:103F180009024200020100A0320904000001030066
:103F28000000092111010001224A00070581034010
:103F38000001090401000203000000092111010029
:103F480001221D0007058203400001070502034006
:103F5800000109022200010100A032090400000149
:103F680003000000092111010001226500070581F5
:103F78000340000A0600FF0901A1011901294015A3
:103F88000026FF007508954081001901294091001D
:103F9800C01C0336004200200063006F006E0074EE
:103FA8000072006F006C006C00650072001403580A
:103FB800004500310041004A002D005500530042E1
:103FC800001201000200000008A717050001000107
:103FD8000203011201000200000008A30C240000E3
:103FE80001010203010A0353004500470041000490
:083FF80003090404030904009D
:020000040020DA
:08000000FFFFFFFFFFFFFFFF00
:020000040030CA
:0E00000000120314FF0089FF03C003E0034059
:00000001FF
