:020000040000FA
:0408000007EF04F00A
:0A0808005E825E921100E4EF0CF036
:0208160020813F
:1018D200010E366E12003D6E3DC0A9FFA69EA69C6B
:1018E200A680A6B0FED7A85012004F0E0201816F4B
:1018F2004B0E826F000E3E6E030E3D6E3AEC0DF003
:101902001200450E0201816F520E826F520E836FDA
:10191200000E3E6E040E3D6E3AEC0DF01200C00E4B
:10192200016E020E026E000E066E080E056ED20EDB
:10193200076E180E086E048E1200010E00019E271B
:10194200000E9F23A023A1232A50D8A41200212AEB
:101952002150D8A412002168120032C081F231C095
:1019620082F235C083F234C084F233C085F2000EB5
:101972003E6E060E3D6E3AEC0DF01200000E67EC64
:101982000EF026EC15F0DEEC18F077EC19F0200ED4
:10199200376001D0FAD764B2F8D7FAEC1DF0F5D768
:1019A2003D503F02F3CF41F0F4CF42F03D504002B0
:1019B200F35042263E503F02F350422641C03DF0D2
:1019C20042C03EF0120000EE60F0730EEE6AE806CE
:1019D200FDE100EE01F03C0EEE6AE806FDE15E90EC
:1019E2005E92000EF86E0001BFEF0CF03DC043F0B6
:1019F2003EC044F008D043C0D9FF44C0DAFF3FC024
:101A0200DFFF434A442A4106D8A042064128F3E1B7
:101A12004228D8B41200EFD7608462986482010E23
:101A22002A6E000E216E000E4A6E750E496E000E71
:101A32004B6E000E4C6E000E4E6E000E4D6E7DEC27
:101A42000FF01200F29CF29E8068000E816E000E72
:101A5200826E8968000E8A6E000E8B6E000E7E6E9C
:101A6200000E7F6EF00E936E0F0E946E0EEF00F06E
:101A720012003DC03FF03EC040F040BE06D0405094
:101A82000FE1170E3F5CD8B01200800E3F24D96ED2
:101A9200020E4020DA6E000EDF6E3F4A402AEDD77A
:101AA20012003DC03FF03EC040F040BE06D0405064
:101AB2000FE1400E3F5CD8B01200800E3F24D96E79
:101AC200020E4020DA6E000EDF6E3F4A402AEDD74A
:101AD2001200000E2A6E000E4A6E740E496E000E3F
:101AE2004B6E000E4C6E000E4E6E000E4D6E7DEC77
:101AF2000FF06492609401D0629462B4FDD7000E3C
:101B0200216E12003E6E3EC0A9FF3DC0A8FFA69EF8
:101B1200A69CA684000EF2BE010E3F6EF29E550EEA
:101B2200A76EAA0EA76EA6823F50D8A4F28EA1A8D5
:101B3200FED7A198A6941200486E45A405D0000EC7
:101B42003D6E4850BFEC10F045A205D0010E3D6E2F
:101B52004850BFEC10F0530E4824466E476A0F0EF1
:101B6200472246C0D9FF47C0DAFF45C0DFFF120057
:101B7200A50E3D6E000E83EC0DF035C03DF0010E5A
:101B820083EC0DF034C03DF0020E83EC0DF033C057
:101B92003DF0030E83EC0DF032C03DF0040E83ECF9
:101BA2000DF031C03DF0050E83EC0DF012003FC088
:101BB20045F040C046F03DC043F03EC044F010D076
:101BC20045C0D9FF46C0DAFFDF50476E454A462A74
:101BD20043C0D9FF44C0DAFF47C0DFFF434A442A6B
:101BE2004106D8A042064128EBE14228D8B41200AF
:101BF200E7D70F0153A11DD017C0D9FF18C0DAFFD4
:101C0200800EDE18D8A414D00FC0D9FF10C0DAFF9E
:101C1200840EDE18D8A40CD017C0D9FF18C0DAFF82
:101C22000C0EDF6E17C0D9FF18C0DAFF000EDB8E74
:101C32005391629A1200000E426E000E416E880E9F
:101C42004124D96E000E4220DA6E810E4124E16EEB
:101C5200020E4220E26EDFCFE7FF414A422A42BE35
:101C6200EED7425004E1100E415CD8A0E8D72EC056
:101C720091F2000E3E6E120E3D6E3AEC0DF0120025
:101C8200000E0201816F000E826F020E816F010E43
:101C9200826F160EF66E080EF76E0800F5CF83F20D
:101CA200160EF66E080EF76E0900F5CF41F0090028
:101CB200F5CF42F042C041F0426A4150846F000EBB
:101CC2003E6E050E3D6E3AEC0DF012003D6E1DD0DB
:101CD200000E816E000E826E000E8A6E000E8B6EFA
:101CE200000E7E6E000E7F6EF00E936E0F0E946EDF
:101CF2000F0E946EF19EF00E786E81BC03D0D00E62
:101D0200936E1200B00E936E12003D50000AD8B4CA
:101D1200DFD7010AD8B41200030A12003E6E400E49
:101D22003E600CD0400E3D6002D0070E21D0C00EA6
:101D32003D6402D0050E1CD0060E1AD0C00E3E64C1
:101D42000CD0400E3D6002D0010E12D0C00E3D6498
:101D520002D0030E0DD0020E0BD0400E3D6002D019
:101D6200000E06D0C00E3D6402D0040E01D0080E53
:101D72003F6E3F501200160E0001B06F030EB16F9E
:101D8200530EB26F000EB36F4E0EB46F000EB56FEE
:101D92002D0EB66F000EB76F2D0EB86F000EB96F15
:101DA2002D0EBA6F000EBB6F2D0EBC6F000EBD6FF5
:101DB2002D0EBE6F000EBF6F2D0EC06F000EC16FD5
:101DC2002D0EC26F000EC36F2D0EC46F000EC56FB5
:101DD2001200020E2C18D8A403D048EC18F01200FE
:101DE200000E2C6E2850D8A41FD020EE01F0155002
:101DF200D9261650DA22080EDF6E20EE02F01550B8
:101E0200D9261650DA22300EDE6E020EDD6E15C0B5
:101E1200D9FF16C0DAFF0C0EDF6E15C0D9FF16C04F
:101E2200DAFF000EDB8E1200000E286E1200000E8A
:101E32001D6E000E1E6E000E1B6E000E1C6E000E3E
:101E4200196E000E1A6E000E366E000E3E6E000EF9
:101E52003D6E52EC0DF01A0E456E010E9DEC0DF02A
:101E62001E0E456E020E9DEC0DF0000E3D6EC00E74
:101E72003E6E020E3F6E400E406E020E9BEC15F05F
:101E82003DC019F03EC01AF01200200E3E6E000E48
:101E92003D6E355080083F6E000ED8A0E82A00083B
:101EA200406EF3EC0FF03DC0AEF03EC0AFF0200E3E
:101EB2003E6E000E3D6E345080083F6E000ED8A07C
:101EC200E82A0008406EF3EC0FF03DC0ACF03EC0D3
:101ED200ADF0200E3E6E000E3D6E335080083F6E18
:101EE200000ED8A0E82A0008406EF3EC0FF03DC0C7
:101EF200AAF03EC0ABF0120010D000F01200010EAA
:101F020067EC0EF01200020E67EC0EF0120018ECF5
:101F12000FF01200A1EC16F0120049C04FF04AC0B7
:101F220050F05050000AD8B404D07F0AD8A412004E
:101F32001AD04F50010AD8B4EAD7030AD8B4120013
:101F4200010AD8B4E7D7060AD8B41200770AD8B47F
:101F5200D4D7010AD8B41200070AD8B4D4D7010AD8
:101F6200D8A41200CCD74F50FF0A12001FC081F232
:101F7200000E3E6E000E3D6EC60E3D24D96E000E62
:101F82003E20DA6E820E3D24E16E020E3E20E26EAB
:101F9200DFCFE7FF3D4A3E2A3EBEEED73E5004E188
:101FA2000D0E3D5CD8A0E8D7000E3E6E000E3D6ED1
:101FB200400E3D24D96E020E3E20DA6E8F0E3D2475
:101FC200E16E020E3E20E26EDFCFE7FF3D4A3E2A7F
:101FD2003EBEEED73E5005E1080E3D5CD8B0120081
:101FE200E7D71200000E426E40AE06D03F6C401E94
:101FF200D8B0402A010E426E3EAE06D03D6C3E1E67
:10200200D8B03E2A010E421A000E446E000E436EF4
:102012003F504010D8B41CD0010E416E04D0D8906D
:102022003F364036412A40AEFAD7D890433644363E
:102032003F503D5C40503E58D8A005D03F503D5ED9
:1020420040503E5A4380D89040323F32412EEDD725
:102052004250D8B404D0436C441ED8B0442A43C082
:102062003DF044C03EF01200000E426E000E416E82
:10207200740E4124D96E000E4220DA6E810E412484
:10208200E16E020E4220E26EDFCFE7FF414A422AB2
:1020920042BEEED7425004E1140E415CD8A0E8D70C
:1020A200000E426E000E416E600E4124D96E000E8B
:1020B2004220DA6E950E4124E16E020E4220E26E5B
:1020C200DFCFE7FF414A422A42BEEED7425004E147
:1020D200140E415CD8A0E8D730C0A9F22FC0AAF2F2
:1020E200000E3E6E2B0E3D6E3AEC0DF01200000E0D
:1020F2002D6E000E266E000E236E000E226E000E56
:10210200286E000E2C6E0FC0D9FF10C0DAFF7F0EB2
:10211200DF16040E0F180F6E1050106E0FC0D9FF8D
:1021220010C0DAFF7F0EDF16040E0F180F6E10506C
:10213200106E15C0D9FF16C0DAFF7F0EDF16000E33
:102142000C6E000E0E6E000E0D6E000E046E000E72
:10215200066E000E056EB1EC12F0000E4A6E030E12
:10216200496E000E4B6E000E4C6E000E4E6E000E4F
:102172004D6E7DEC0FF045EC14F01200426E000E35
:10218200436E020E446E3D503E6E3F6AD8903E361C
:102192003F364250406E416AD89040364136D89020
:1021A200403641363E5040263F504122D89040367C
:1021B2004136D89040364136405043264150442261
:1021C20043C0D9FF44C0DAFFDF9E3D50D8A407D0F8
:1021D2004250020D980EF324D96E000E06D04250E2
:1021E200020D0F0EF324D96E000EF420DA6E43C0F6
:1021F200DEFF44C0DDFF43C0D9FF44C0DAFFDF9CED
:1022020020EE04F04350D9264450DA22DF8C12002B
:10221200000E236E000E226E020E2C18D8A41FD0C0
:1022220020EE01F01550D9261650DA22080EDF6E84
:1022320020EE02F01550D9261650DA22380EDE6E44
:10224200020EDD6E15C0D9FF16C0DAFF480EDF6E32
:1022520015C0D9FF16C0DAFF000EDB8E12000D503A
:102262000201365D0E503759D8B004D036C20DF097
:1022720037C20EF077EC13F020EE02F00F50D926A1
:102282001050DA22380EDE6E020EDD6E0FC0D9FF5C
:1022920010C0DAFF480EDF6E0FC0D9FF10C0DAFFA0
:1022A200000EDB8E12002D0E276E3AC058F0FD0E86
:1022B2005816D8A43BD03AC058F0D89058323F0EA6
:1022C20058165850040D000EF324176E020EF42017
:1022D200186E17C015F018C016F0040E1518156EFA
:1022E2001650166E17C0D9FF18C0DAFFDF30E83279
:1022F2000F0B0D0AD8A417D0300E3D6E020E3E6EA3
:1023020020EE02F01750D9261850DA22DECF3FF025
:10231200DDCF40F0000E426E080E416ED8EC0DF09B
:1023220078EC10F01200EAEC0EF012003A50FD0BBD
:10233200040AD8A41200B4EC14F01200000E020138
:10234200386F000E396F38D00C8E2B04D8A43FD0D2
:1023520038833DD00C8E3BD00C8E34510F0B0009CC
:10236200D8B435D034BF0AD034510F0B3D6E3D5036
:10237200020D980EF324D96E000E09D034510F0BC2
:102382003D6E3D50020D0F0EF324D96E000EF42067
:10239200DA6EDECF3EF0DDCF3FF03EC0D9FF3FC068
:1023A200DAFFDFAE14D03EC0D9FF3FC0DAFFDFA4B0
:1023B2000ED0010E386F0BD030511F0B000AD8B46B
:1023C200C3D7010AD8B4C6D7030AD8B4C5D70CAE4E
:1023D2001200380E096E020E0A6E0C80020E0D6E8D
:1023E2001200000E416E000E406E740E4024D96E33
:1023F200000E4120DA6EDF503D6E4050200F83EC1C
:102402000DF0404A412A41BEF0D7415004E1140E7A
:10241200405CD8A0EAD7000E416E000E406E600EFE
:102422004024D96E000E4120DA6EDF503D6E4050DE
:10243200340F83EC0DF0404A412A41BEF0D741509F
:1024420004E1140E405CD8A0EAD7000E416E000EE3
:10245200406E880E4024D96E000E4120DA6EDF50A5
:102462003D6E4050480F83EC0DF0404A412A41BE78
:10247200F0D7415004E1100E405CD8A0EAD730C03A
:102482003DF0580E83EC0DF02FC03DF0590E83EC59
:102492000DF02EC03DF05A0E83EC0DF012002550C7
:1024A200D8A41200010E256E2450D8A41200010EE9
:1024B200246E020E2C18D8A415D020EE01F00F5075
:1024C200D9261050DA22000EDF6E0FC0D9FF10C0DD
:1024D200DAFF480EDF6E0FC0D9FF10C0DAFF000E20
:1024E200DB8E12002C04D8A41200000E286E20EEFF
:1024F20001F01750D9261850DA22080EDF6E20EEAE
:1025020002F01750D9261850DA22300EDE6E020E73
:10251200DD6E17C0D9FF18C0DAFF040EDF6E17C0D8
:10252200D9FF18C0DAFF000EDB8E010E286E20EEF6
:1025320001F01550D9261650DA22080EDF6E20EE71
:1025420002F01550D9261650DA22300EDE6E020E37
:10255200DD6E15C0D9FF16C0DAFF800EDF6E1200E5
:1025620002013039E832030B0009D8A4120039D035
:102572000C8E080E376E1200B6EC17F01200DDEC6E
:1025820013F012003C0E096E000E0A6E0C80010E52
:102592000D6E0C8E12009FEC11F0120079EC1BF004
:1025A20012003B0E3425096E0A6A000E0A22EED78B
:1025B2000C8E3B0E3425D96EDA6A000EDA2232C254
:1025C200DFFF1200000E4A6E020E496E000E4B6EC5
:1025D200000E4C6E000E4E6E000E4D6E7DEC0FF036
:1025E20012003151000AD8B4D6D7010AD8B4D6D7CE
:1025F200020AD8B4D3D7060AD8B4BAD7030AD8B4D1
:10260200BBD7010AD8B4DED70F0AD8B4BBD7010AA8
:10261200D8B4B5D7030AD8B4C4D7010AD8B4C8D736
:10262200070A1200000E356E000E346E000E336E75
:10263200020E326E020E316EB9EC0DF0000E426ED9
:10264200740E4224D96EDA6A000EDA22000EDF6EB0
:10265200422A130E4264F4D7000E426E600E4224E8
:10266200D96EDA6A000EDA22000EDF6E422A130EEB
:102672004264F4D7000E426E880E4224D96EDA6AA2
:10268200000EDA22000EDF6E422A0F0E4264F4D7E9
:10269200040E0001886F020E8A6F200E8C6F080EE6
:1026A2008E6F010E906F100E926F020E956F100ECC
:1026B200976F040E606F020E626F010E646F080E58
:1026C200666F200E686F100E6A6F020E6D6F100E2D
:1026D2006F6F040E706F020E726F030E306E060E75
:1026E2002F6E030E2E6EF2EC11F01200080E3D6EEC
:1026F2000E5010E1080E0D5CD8B00CD00DC03DF0AC
:102702002D50D8A402D0010E04D02D04D8A402D09A
:10271200020E2D6E3D500D5E000E0E5A20EE01F09F
:102722000F50D9261050DA223DC0DFFF380E0001CB
:10273200A86F020EA96F0CA01CD03AD009C0F6FFF8
:102742000AC0F7FFF86AA8C0D9FFA9C0DAFF020ED3
:10275200F76403D00800F55005D0F6CFE1FFF7CFBC
:10276200E2FFE750DF6E094A0A2A0001A84BA92BB3
:102772003D063D50D8B41200E1D709C0F6FF0AC0A9
:10278200F7FFF86AA8C0D9FFA9C0DAFF020EF76402
:1027920003D00800F55005D0F6CFE1FFF7CFE2FFF6
:1027A200E750DF6E094A0A2A0001A84BA92B3D0611
:1027B2003D50D8B41200E1D70C8E540E3D6E0F0E70
:1027C2003E6E000E406E000E3F6E000E426E020E16
:1027D200416EF7EC0CF0000E3D6E020E3E6E000EE6
:1027E200406E000E3F6E000E426E300E416EF7ECF0
:1027F2000CF0648C000E516EA50E5124D96EDA6A6B
:10280200000EDA22000EDF6EA20E5124D96EDA6AB1
:10281200000EDA22000EDF6E512A020E5164ECD74E
:102822003B0E3D6E000E3E6E000E406E000E3F6E81
:10283200000E426E010E416EF7EC0CF0649C080E25
:102842000F6E020E106E000E176E020E186E17C07B
:1028520015F018C016F032C23CF03C50D8A403D098
:10286200100E376E1200200E376E000E4A6E010EE9
:10287200496E3C0E4B6E000E4C6E000E4E6E010EFB
:102882004D6E7DEC0FF0120064980CBE38D004AE91
:102892000BD0020E2C6E2250D8B409EC11F0000EAF
:1028A200246E000E256E120020EE01F01550D9267E
:1028B2001650DA22080EDF6E20EE02F01550D926ED
:1028C2001650DA22300EDE6E020EDD6E15C0D9FF12
:1028D20016C0DAFF0C0EDF6E15C0D9FF16C0DAFF84
:1028E200000EDB8E0FC0D9FF10C0DAFF040EDF6EC0
:1028F2000FC0D9FF10C0DAFF000EDB8E12000201FA
:1029020030AF10D0010E2C6E2350D8B409EC11F068
:10291200000E246E000E256E2650D8A4120050EC34
:1029220012F01200020E2C6E20EE01F01550D92684
:102932001650DA22080EDF6E20EE02F01550D9266C
:102942001650DA22300EDE6E020EDD6E15C0D9FF91
:1029520016C0DAFF040EDF6E15C0D9FF16C0DAFF0B
:10296200000EDB8ED5D70FC0D9FF10C0DAFF000EE4
:10297200DFBC010E3E6E040E0F180F6E1050106E6B
:10298200080E3718D8A40CD0020132517F0B0F0168
:102992005C6F5C51D8B402D0100E01D0040E376EB9
:1029A2002C04D8A43AD020EE02F00F50D9261050B1
:1029B200DA22380EDE6E020EDD6E77EC13F0020EB6
:1029C2002D18D8A40DD00FC0D9FF10C0DAFF040E05
:1029D200DF6E0FC0D9FF10C0DAFF000EDB8E1200CF
:1029E2003E50D8A40DD00FC0D9FF10C0DAFF480E58
:1029F200DF6E0FC0D9FF10C0DAFF000EDB8E1200AF
:102A02000FC0D9FF10C0DAFF080EDF6E0FC0D9FF6A
:102A120010C0DAFF000EDB8E120004AE13D0075096
:102A22000810D8B40ED020EE07F001D80AD0050065
:102A3200FA6EDE50FD6EDE50FE6EF850FF6EFA50FA
:102A42001200049E000E2C6E1200828E000E4A6E40
:102A52003D0E496EE10E486E400EE82EFED7482E1E
:102A6200FCD7492EFAD7D00E9318D8B42ED0C60E62
:102A72003D6E000E3E6E29EC17F01F0E496E710E70
:102A8200486E1E0EE82EFED7482EFCD7492EFAD7E6
:102A920000D0C60E3D6E000E3E6E29EC17F03D04CE
:102AA2003E10D8A40AD00001C7BB02D0010E4A6E64
:102AB200C6B518D023EC0DF015D00001D2B702D064
:102AC200010E4A6EC8A3F6D70DD0818AF00E00D04F
:102AD200E82EFDD781B802D0010E4A6E81AE23ECFA
:102AE2000DF0828EBCEC0EF0000E6CEC0CF0A50A20
:102AF200D8B402D0010E01D0000E486E496A4A5085
:102B02004812000E491248504910D8B40ED0000E97
:102B1200356E000E346E000E336E020E326E020EF1
:102B2200316EB9EC0DF013EC13F01CEC16F046EC20
:102B32000FF01200456E3D50D8B407D04550020D3B
:102B42000F0EF324D96E000E06D04550020D980EDA
:102B5200F324D96E000EF420DA6EDECF46F0DDCF1C
:102B620047F046504710D8A405D0000E3D6E000E27
:102B72003E6E120020EE02F04650D9264750DA226D
:102B82003EC0DEFF3FC0DDFF20EE01F04650D926F9
:102B92004750DA2240C0DFFF46C0D9FF47C0DAFF04
:102BA200400EDF1646C0D9FF47C0DAFF000EDB86B3
:102BB20046C0D9FF47C0DAFF000EDB8E3D50D8B4C5
:102BC20018D04550020D0F0EF324D96E000EF420DA
:102BD200DA6EDECF41F0DDCF42F0040E4118436ED3
:102BE2004250446E4550020D0F0EF324D96E000E72
:102BF20017D04550020D980EF324D96E000EF42022
:102C0200DA6EDECF41F0DDCF42F0040E4118436EA2
:102C12004250446E4550020D980EF324D96E000EB8
:102C2200F420DA6E43C0DEFF44C0DDFF46C03DF053
:102C320047C03EF01200010E6CEC0CF0356E020E35
:102C42006CEC0CF0346E030E6CEC0CF0336E040E74
:102C52006CEC0CF0326E050E6CEC0CF0316E000E6A
:102C6200476E740E4724D96EDA6A000EDA22475094
:102C7200200F6CEC0CF0DF6E472A130E4764F1D77D
:102C8200000E476E600E4724D96EDA6A000EDA2211
:102C92004750340F6CEC0CF0DF6E472A130E47647A
:102CA200F1D7000E476E880E4724D96EDA6A000EFD
:102CB200DA224750480F6CEC0CF0DF6E472A0F0EF9
:102CC2004764F1D7580E6CEC0CF0306E590E6CEC78
:102CD2000CF02F6E5A0E6CEC0CF02E6E440E466EFB
:102CE200000E476E3E0E4724D96EDA6A000EDA22D3
:102CF2004750080F6CEC0CF0DF6E3E0E4724D96E85
:102D0200DA6A000EDA22DF504626472A070E4764A7
:102D1200E9D7070E6CEC0CF04618D8A412003EC09E
:102D2200B6F03FC0B8F040C0BAF041C0BCF042C0FB
:102D3200BEF043C0C0F044C0C2F045C0C4F01200AF
:102D4200020130511F0BE806D8A41200060E3119F9
:102D5200D8B438D03FD03C04D8B410D03BD05D0EAC
:102D6200096E3F0E0A6E000E0E6E090E0D6EC00E3B
:102D72000C6E30D06D0E096E3F0EF4D73451000A3E
:102D8200D8B4EDD7010AD8B4F5D724D03C04D8B4CE
:102D920011D020D0F50E096E3E0E0A6E000E0E6E98
:102DA200560EE4D7B10E096E3F0E0A6E000E0E6E7D
:102DB2001D0EDCD73451000AD8B4ECD7010AD8B4BE
:102DC200F1D708D03351210AD8B4C5D7030AD8B4F1
:102DD200DDD7010A3039E832030BE806D8A4120025
:102DE20023D090EC0CF01200390E096E000E0A6E20
:102DF200000E0E6E010E0D6EC10E0C6E1200800ED4
:102E02000C6E33C239F01200380E096E000E0A6ED3
:102E1200000E0E6E010E0D6E810E0C6E1200800EF3
:102E22000C6E32C238F012003151010AD8B41200CD
:102E3200030AD8B4D9D7010AD8B4E6D70A0AD8B453
:102E4200D0D7030AD8B4DBD7010AD8A41200E7D737
:102E5200818C3DC044F03EC045F0140EE82EFED7F2
:102E620082CF3FF00F0E3F168150300B3F1044C00F
:102E7200D9FF45C0DAFFDF6E444A452A819C140E11
:102E8200E82EFED782CF3FF00F0E3F168150300B57
:102E92003F1044C0D9FF45C0DAFFDF6E444A452ADD
:102EA200818C000E436E000E426E000E416E000ECB
:102EB200406E81B802D0010E01D0000E3F6E81BA81
:102EC20002D0010E01D0000E3F14E8B00DD0C80EA2
:102ED20040184110D8A405D0000E3E6E010E3D6E82
:102EE2001200404A412AE5D782500F0B44C0D9FF55
:102EF20045C0DAFFDF6E444A452A050E42184310E8
:102F0200D8A405D0000E3E6E000E3D6E1200000EDB
:102F1200416E000E406E81A802D0010E01D0000E5B
:102F22003F6E81BA02D0010E01D0000E3F14E8B00C
:102F320008D0C80E40184110D8B4CED7404A412A12
:102F4200EAD782500F0B44C0D9FF45C0DAFFDF6ECB
:102F5200444A452A424A432A43BEA7D74350BCE1CA
:102F6200060E425CD8B0B8D7A0D7800E0201301945
:102F7200D8A41200C00E0C6E7FD0E80E096E3F0E70
:102F82000A6E000E0E6E120E0D6E12003251D8A491
:102F92003DD03251020DF30EF324F66E3E0EF420B4
:102FA200F76E0900F5CF09F00A00F5CF0AF0020E1C
:102FB20009243D6E000E0A203E6E3DC0F6FF3EC063
:102FC200F7FFF86A020EF76403D00800F55005D047
:102FD200F6CFE1FFF7CFE2FFE7500D6E030E0924B3
:102FE2003D6E000E0A203E6E3DC0F6FF3EC0F7FF6A
:102FF200F86A020EF76403D00800F55005D0F6CF48
:10300200E1FFF7CFE2FFE7500E6E1200000E0C6EEA
:103012001200030E326123D03251020DED0EF32461
:10302200F66E3E0EF420F76E0900F5CF09F00A00A5
:10303200F5CF0AF009C0F6FF0AC0F7FFF86A020EE0
:10304200F76403D00800F55005D0F6CFE1FFF7CFC3
:10305200E2FFE7503D6E3D500D6E0E6A1200030E08
:103062003219D8A4D3D70C80B00E096E000E0A6EA6
:10307200B0C00DF00C8E12003351010AD8B47DD7C6
:10308200030AD8B483D7010AD8B4C3D7BFD720EE76
:1030920001F01750D9261850DA22DF503E6E3E500A
:1030A200055C000E0658D8A005C03EF03E50055EF5
:1030B200000E065A000E3D6E0FD0380E3D24D96E1A
:1030C200DA6A020EDA2201C0E1FF02C0E2FFDFCFBC
:1030D200E7FF014A022A3D2A3E503D5CD8A0EDD7C7
:1030E20005500610D8B432D020EE01F01550D92682
:1030F2001650DA22080EDF6E20EE02F01550D926A5
:103102001650DA22380EDE6E020EDD6E17C0D9FFBF
:1031120018C0DAFFDFBC0DD015C0D9FF16C0DAFF28
:10312200480EDF6E15C0D9FF16C0DAFF000EDB8E27
:10313200120015C0D9FF16C0DAFF080EDF6E15C0E7
:10314200D9FF16C0DAFF000EDB8E120020EE01F06E
:103152001550D9261650DA22080EDF6E20EE02F044
:103162001550D9261650DA22300EDE6E020EDD6EB2
:1031720015C0D9FF16C0DAFF040EDF6E15C0D9FFE5
:1031820016C0DAFF000EDB8E07500810D8B40ED03E
:1031920020EE07F001D80AD00500FA6EDE50FD6E6F
:1031A200DE50FE6EF850FF6EFA501200049E26505A
:1031B200D8A4120050EC12F01200A094000E0F01DD
:1031C2005F6F000E626E000E536F540E3D6E0F0E57
:1031D2003E6E000E406E000E3F6E000E426E020EFC
:1031E200416EF7EC0CF0160E616E9F0E0F015B6FD5
:1031F2007B0E606E000E456E4550040D000EF324EA
:10320200D96E020EF420DA6EDE6ADE6ADE6ADD6AEA
:10321200452A0B0E4564F0D7648C000E0F015C6FDB
:103222006498649C6296000E0C6E000E046E000E92
:10323200066E000E056E62B6F5D7010E256E010E02
:10324200246E000E236E000E226E000E2A6E000EF9
:10325200456E4550020D0F0EF324D96E000EF42078
:10326200DA6E000EDE6E000EDD6E4550020D980E17
:10327200F324D96E000EF420DA6E000EDE6E000E1C
:10328200DD6EA50E4524D96EDA6A000EDA22000E32
:10329200DF6EA20E4524D96EDA6A000EDA22000E23
:1032A200DF6E452A020E4564D4D7080E0F6E020E59
:1032B200106E160E0F01536F020E0201036F300ED5
:1032C200026F080E016F040E006F008F000E3C6E3D
:1032D200000E00019E6F000E9F6F000EA06F000E89
:1032E200A16F000E216E000E376E12003750D8A467
:1032F20011D0000E646E000E606E160E616E9F0E8F
:103302000F015B6F7B0E606E01D0648664A6FDD7F1
:10331200010E376E3704D8B464BA08D0000E626E5C
:10332200000E606E60806088020E376E62B460A428
:1033320003D062946AEC0DF064A202D0A194120050
:1033420062B060A005D0DEEC18F0040E376E629019
:1033520062B860A802D00DEC0DF062AC1AD060AC7D
:103362000ED0000E4A6E730E496E000E4B6E000EAA
:103372004C6E000E4E6E010E4D6E7DEC0FF0629C97
:103382009EEC0CF02750D8A427062750D8B450EC56
:1033920012F062BA60AA02D0FAEC0DF062B260A238
:1033A20010D07F0E4A6E4968000E4B6E000E4C6EB6
:1033B200000E4E6E010E4D6E7DEC0FF0000E0F01F1
:1033C2005F6F040E376002D0A194120060A634D061
:1033D200000E596E62A630D063CF3AF03A30E8322E
:1033E200E8320F0B296E62963AB406D0A20E292457
:1033F200D96EDA6A000E05D0A50E2924D96EDA6AD2
:10340200000EDA220001DF702950D8A403D054EC58
:1034120011F00ED0000E4A6E720E496E3A0E4B6ECD
:10342200000E4C6E000E4E6E000E4D6E7DEC0FF0D7
:10343200592A030E5964CED7A1941200800E406E11
:10344200800E416E819AF00E00D0E82EFDD7818A5F
:10345200F00E00D0E82EFDD7819AF00E00D0E82EB3
:10346200FDD781B808D00001885102014013000144
:1034720089510201411381BE08D000019451020119
:1034820040130001955102014113818AF00E00D0D0
:10349200E82EFDD782B002D0000E416E82A24168B2
:1034A20082B402D0000E406E82A6406881B808D075
:1034B20000018A510201401300018B5102014113A4
:1034C20081BE08D000018C510201401300018D51D0
:1034D20002014113819AF00E00D0E82EFDD782A09E
:1034E20082B232D0818AF00E00D0E82EFDD782B0AF
:1034F20008D00001925102014013000193510201D0
:10350200411382B208D00001905102014013000120
:1035120091510201411382B408D000018E5102017F
:10352200401300018F510201411382B608D00001FD
:103532009651020140130001975102014113819AF1
:10354200F00E00D0E82EFDD7818A020E2E18D8A4E4
:103552000DD0400E2E24D96EDA6A020EDA2241C054
:103562003DF040508FEC0EF0DF6E1200400E2E2424
:10357200D96EDA6A020EDA2240C0DFFF410E2E2433
:10358200D96EDA6A020EDA2241C0DFFF1200506EF3
:103592005050476E486A4350496E4A6A800E492627
:1035A200000E4A224750495C4A50800A4B6E4850EE
:1035B200800A4B58D8A017D0800E476E000E486E76
:1035C2004350475E000E485A5050496E4A6A47506F
:1035D200495C4A50800A4B6E4850800A4B58D8A02A
:1035E20002D0800E1200800E50603CD0505043C07A
:1035F20047F0486A471E481E474A482A475E000E5F
:10360200485A800E47244C6E000E48204D6E44C02E
:103612003DF03E6A4CC03FF04DC040F0D1EC0CF0A2
:103622003DC04EF03EC04FF04EC03DF04FC03EF0A8
:1036320045C03FF046C040F0D1EC0CF03DC051F027
:103642003EC052F0400E525CD8A004D0400E526EE2
:10365200000E516E51500008516E5250D8A0E82A07
:103662004008526E800E506436D0435050C047F02E
:10367200486A475E000E485A810E47244C6EFF0E80
:1036820048204D6E44C03DF03E6A4CC03FF04DC0F4
:1036920040F0D1EC0CF03DC04EF03EC04FF04EC0B9
:1036A2003DF04FC03EF045C03FF046C040F0D1EC87
:1036B2000CF03DC051F03EC052F0400E525CD8A01A
:1036C20004D0400E526E000E516EFF0E5124516E08
:1036D2003F0E5220526E51C047F052C048F0070EC2
:1036E200496ED89048324732492EFBD747501200D4
:1036F20002013205D8A40ED030511F0B0009D8A404
:1037020009D00C8E030E3119D8A402D0010E01D0BB
:10371200000E2B6E3251D8A4120030511F0B020A38
:10372200D8A4120034510F0B0009D8B4120034513E
:103732000F0B516E030E51601200200E3718D8A4E1
:1037420012000C8E34BF18D034510F0B516E5150F1
:10375200020D980EF324D96E000EF420DA6EDECF3D
:1037620056F0DDCF57F034510F0B516E526AA20E54
:103772005124D96E000E17D034510F0B516E515097
:10378200020D0F0EF324D96E000EF420DA6EDECF96
:1037920056F0DDCF57F034510F0B516E526AA50E21
:1037A2005124D96E000E5220DA6EDF50556E55B09C
:1037B20006D0FB0E5614566EFF0E571404D0040E9C
:1037C2005610566E5750576E34BF0AD034510F0BF5
:1037D200516E5150020D980EF324D96E000E09D08D
:1037E20034510F0B516E5150020D0F0EF324D96E4E
:1037F200000EF420DA6E56C0DEFF57C0DDFF030E66
:103802003119D8A42AD056C0D9FF57C0DAFFDFAE8B
:1038120017D034BF09D034510F0B516E526AA20E29
:103822005124D96E000E08D034510F0B516E526ADA
:10383200A50E5124D96E000E5220DA6E0001DF82ED
:1038420056C0D9FF57C0DAFF000EDB8456C0D9FF3D
:1038520057C0DAFF000EDB8E1200040E5618566EA9
:103862005750576E56C0D9FF57C0DAFFDFAE1BD094
:1038720056C0D9FF57C0DAFF7F0EDF1656C0D9FFF8
:1038820057C0DAFF000EDB8C000E4A6E050E496E41
:1038920056C04BF057C04CF0000E4E6E020E4D6EED
:1038A2007DEC0FF006D056C0D9FF57C0DAFF000EEC
:1038B200DB8C040E5618566E5750576E55B206D012
:1038C20056C0D9FF57C0DAFFDFAE2DD0020134BF98
:1038D20009D034510F0B516E526AA20E5124D96E87
:1038E200000E08D034510F0B516E526AA50E5124AE
:1038F200D96E000E5220DA6E0001DF9256C0D9FF57
:1039020057C0DAFF3B0EDF16000E4A6E050E496EF7
:1039120056C04BF057C04CF0000E4E6E020E4D6E6C
:103922007DEC0FF006D056C0D9FF57C0DAFF3B0E30
:10393200DF16020134510F0B516E526A530E51249D
:10394200536E0F0E5220546E53C0D9FF54C0DAFF8B
:10395200FE0EDF161200800E546E800E556E800E23
:10396200566EC60E3D6E000E3E6E29EC17F03DC03F
:103972001FF03EC020F01F042010D8A46AD0C7C098
:1039820053F0030E5316D8A409D000016E51020160
:10399200401300016F51020141130DD00001C7B164
:1039A20002D0000E556EC7A35568C6B102D0000EF4
:1039B200566EC6A35668C7C053F00C0E5316D8A451
:1039C20007D000016C510201401300016D5118D063
:1039D2000001C7B502D0000E546EC7A75468C6B521
:1039E20007D06451020140130001655102014113E5
:1039F2000001C6B707D066510201401300016751AA
:103A0200020141130001C7B907D0605102014013FE
:103A120000016151020141130001C7BB07D062518D
:103A22000201401300016351020141130001C6B9B2
:103A320007D068510201401300016951020141138C
:103A42000001C6BB9BD06A510201401300016B51B9
:103A520093D00001CA39F00BCE11556ECB39F00B61
:103A6200CF11546ECC39F00BD011566E34C043F0E6
:103A720032C044F0ACC045F0ADC046F05550C8EC81
:103A82001AF0556E35C043F032C044F0AEC045F076
:103A9200AFC046F05450C8EC1AF0546E33C043F035
:103AA20031C044F0AAC045F0ABC046F05650C8EC55
:103AB2001AF0566E0001D2B307D0705102014013C2
:103AC20000017151020141130001D2B107D07251BC
:103AD2000201401300017351020141130001D2B7E8
:103AE20007D06051020140130001615102014113EC
:103AF2000001D2B507D062510201401300016351A7
:103B0200020141130001C8B307D0645102014013FE
:103B120000016551020141130001C8B107D066518D
:103B22000201401300016751020141130001C9B7AC
:103B320007D068510201401300016951020141138B
:103B42000001C9B507D06A510201401300016B514F
:103B5200020141130001C9B107D06E5102014013A5
:103B620000016F51020141130001C9B307D06C512A
:103B72000201401300016D5102014113020E30187F
:103B8200D8A40DD0400E3024D96EDA6A020EDA22A1
:103B920055C03DF054508FEC0EF0DF6E10D0400E49
:103BA2003024D96EDA6A020EDA2254C0DFFF410EE7
:103BB2003024D96EDA6A020EDA2255C0DFFF020E15
:103BC2002F18D8A40DD0400E2F24D96EDA6A020E17
:103BD200DA2256C03DF0800E8FEC0EF0DF6E12003E
:103BE200400E2F24D96EDA6A020EDA2256C0DFFFA7
:103BF20012001F0E3764120064B212001D501E1014
:103C0200D8B406D01DC0D9FF1EC0DAFFDFBE2CD04B
:103C1200000E0201406F000E416F080E426F800ECF
:103C2200436F800E446F800E456F800E466F000E0C
:103C3200476FD00E9318D8A405D081BC06D01FECD4
:103C42001AF003D081AEACEC1CF0010E3D6E400EBA
:103C52003E6E020E3F6E080E406E010E9BEC15F09A
:103C62003DC01DF03EC01EF019501A10D8B409D044
:103C720019C0D9FF1AC0DAFFDFAE03D03604D8A4C8
:103C820012000201C051D8B4DCD0C0C280F2D9D037
:103C920041EC0EF0FFD0B7EC0FF0FCD0AEEC0CF024
:103CA200F9D0C1C232F0C2C231F0C3C235F0C4C2CF
:103CB20034F0C5C233F046EC0FF076EC0CF0EAD0EB
:103CC200000E5D6E000E5C6EC10E5C24D96E020E9B
:103CD2005D20DA6E880E5C24E16E000E5D20E26EDD
:103CE200DFCFE7FF5C4A5D2A5DBEEED75D5004E19F
:103CF200100E5C5CD8A0E8D7D1C22EF0DED7000E41
:103D02005D6E000E5C6EC10E5C24D96E020E5D20EB
:103D1200DA6E600E5C24E16E000E5D20E26EDFCF93
:103D2200E7FF5C4A5D2A5DBEEED75D5004E1140EEA
:103D32005C5CD8A0E8D7D5C230F0D6C22FF0BDD790
:103D420013EC13F076EC0CF0A5D01CEC0EF0A2D024
:103D520035EC10F09FD0B9EC0DF0F2EC11F0ADD7CC
:103D6200000E5D6E000E5C6E810E5C24D96E020E3A
:103D72005D20DA6E5C506CEC0CF0DF6E5C4A5D2A02
:103D82005DBEF2D75D5005E1200E5C5CD8B082D0FA
:103D9200EBD780D0000E5D6E000E5C6EFF0E3D6EA6
:103DA2005C5083EC0DF05C4A5D2A5DBEF7D75D5036
:103DB20084E1200E5C5CD8B080D7F0D7440E5B6EF5
:103DC200000E5D6E010E5C6EC00E5C24D96E020E9A
:103DD2005D20DA6EDF503D6E5C50070F83EC0DF014
:103DE200C00E5C24D96E020E5D20DA6EDF505B26B7
:103DF2005C4A5D2A5DBEE8D75D5004E1090E5C5C59
:103E0200D8A0E2D70201C951576E586A5B50596E69
:103E12005A6AFF0E591A000E5A1A575059180AE1D7
:103E220058505A18D8A406D05BC03DF0070E83EC58
:103E32000DF043D782EC0CF02DD0C051D8A4FAD7A4
:103E420029D0C051010AD8B423D7030AD8B423D742
:103E5200010AD8B423D7070AD8B423D7010AD8B4A1
:103E62007AD7030AD8B47CD7010AD8B493D7860A82
:103E7200D8B426D7030AD8B442D7060AD8B460D732
:103E8200010AD8B462D7030AD8B462D71E0AD8B4DA
:103E920095D7D3D71B501C10D8B406D01BC0D9FF5E
:103EA2001CC0DAFFDFBE0FD0010E3D6E800E3E6EEB
:103EB200020E3F6E400E406E020E9BEC15F03DC0AE
:103EC2001BF03EC01CF0000E366E000E3D6EC00EA2
:103ED2003E6E020E3F6E400E406E020E9BEC15F0DF
:103EE2003DC019F03EC01AF0120000FA3FCE3F8DDD
:103EF2003F4B3F05010905A101150025013500458C
:103F02000175019510050919012910810205012584
:103F120007463B0175049501651409398142650024
:103F22009501810126FF0046FF000930093109325F
:103F320009357508950481020600FF092095018163
:103F4200020A212695089102C009024200020100DC
:103F5200A032090400000103000000092111010040
:103F6200012256000705810340000A0904010002EC
:103F720003000000092111010001221D0007058232
:103F82000340000107050203400001240350004FD3
:103F9200004B004B0045004E00200043004F004EF6
:103FA20000540052004F004C004C004500520006E5
:103FB20000FF0901A10119012940150026FF007522
:103FC2000895408100190129409100C01A03480058
:103FD2004F0052004900200043004F002E002C00E9
:103FE2004C005400440012010002000000080D0FB2
:0D3FF2009200000101020301040309040014
:020000040020DA
:08000000FFFFFFFFFFFFFFFF00
:020000040030CA
:0E00000000120314FF0089FF03C003E0034059
:00000001FF
