:020000040000FA
:0408000007EF04F00A
:0A0808005E825E921100D4EF16F03C
:0208160000815F
:1009000000F009E609BE095F0905010905A1011505
:1009100000250135004501750195100509190129CA
:1009200010810205012507463B01750495016514F8
:100930000939814265009501810126FF0046FF00CB
:10094000093009310932093575089504810206001C
:10095000FF0920950181020A212695089102C0090C
:10096000024200020100A03209040000010300005D
:1009700000092111010001225600070581034000F2
:100980000A0904010002030000000921110100010D
:10099000221D0007058203400001070502034000F5
:1009A000010600FF0901A10119012940150026FFD8
:1009B00000750895408100190129409100C0160377
:1009C000440058002000500072006F0020005000CA
:1009D0006100640012010002000000080D0F920087
:1009E0000001010203010A0348004F0052004900C0
:0509F0000403090400EE
:1009F6001F0E3764120064B212001D501E10D8B4C8
:100A060006D01DC0D9FF1EC0DAFFDFBE2CD0000EF7
:100A16000201406F000E416F080E426F800E436F59
:100A2600800E446F800E456F800E466F000E476F36
:100A3600D00E9318D8A405D081BC06D049EC0AF094
:100A460003D081AE6BEC06F0010E3D6E400E3E6E9D
:100A5600020E3F6E080E406E010E44EC0EF03DC0D5
:100A66001DF03EC01EF019501A10D8B409D019C096
:100A7600D9FF1AC0DAFFDFAE03D03604D8A41200BD
:100A86000201C051D8B4D6D0C0C280F2D3D089EC0E
:100A960015F0F3D02AEC14F0F0D00CEC17F0EDD0F2
:100AA600C1C232F0C2C231F0C3C235F0C4C234F0A2
:100AB600C5C233F0A0EC14F049EC17F0DED0000EFE
:100AC6005D6E000E5C6EC10E5C24D96E020E5D205A
:100AD600DA6E880E5C24E16E000E5D20E26EDFCFDA
:100AE600E7FF5C4A5D2A5DBEEED75D5004E1100E5D
:100AF6005C5CD8A0E8D7D1C22EF0DED7000E5D6EC2
:100B0600000E5C6EC10E5C24D96E020E5D20DA6E9C
:100B1600600E5C24E16E000E5D20E26EDFCFE7FF23
:100B26005C4A5D2A5DBEEED75D5004E1140E5C5C46
:100B3600D8A0E8D7D5C230F0D6C22FF0BDD7E9ECA1
:100B460010F049EC17F099D0F3EC15F010EC12F018
:100B5600B3D7000E5D6E000E5C6E810E5C24D96EFE
:100B6600020E5D20DA6E5C5055EC17F0DF6E5C4AC3
:100B76005D2A5DBEF2D75D5005E1200E5C5CD8B003
:100B86007CD0EBD77AD0000E5D6E000E5C6EFF0E49
:100B96003D6E5C502EEC16F05C4A5D2A5DBEF7D7C2
:100BA6005D508AE1200E5C5CD8B086D7F0D7440E43
:100BB6005B6E000E5D6E010E5C6EC00E5C24D96E1F
:100BC600020E5D20DA6EDF503D6E5C50070F2EEC94
:100BD60016F0C00E5C24D96E020E5D20DA6EDF5070
:100BE6005B265C4A5D2A5DBEE8D75D5004E1090ECE
:100BF6005C5CD8A0E2D70201C951576E586A5B50B7
:100C0600596E5A6AFF0E591A000E5A1A5750591839
:100C16000AE158505A18D8A406D05BC03DF0070E1A
:100C26002EEC16F049D73BEC17F027D0C051D8A4CC
:100C3600FAD723D0C051010AD8B429D7030AD8B4A9
:100C460029D7010AD8B429D7070AD8B429D7010A5F
:100C5600D8B47AD7030AD8B47CD7010AD8B493D7C4
:100C6600860AD8B42CD7030AD8B448D7060AD8B40B
:100C760066D71C0AD8B49BD7D9D71B501C10D8B43A
:100C860006D01BC0D9FF1CC0DAFFDFBE0FD0010E95
:100C96003D6E800E3E6E020E3F6E400E406E020EA0
:100CA60044EC0EF03DC01BF03EC01CF0000E366E4C
:100CB600000E3D6EC00E3E6E020E3F6E400E406E42
:100CC600020E44EC0EF03DC019F03EC01AF01200C0
:100CD600C60E3D6E000E3E6EAAEC0CF03DC01FF037
:100CE6003EC020F01F042010D8A496D0C7C053F0F1
:100CF600030E5316D8A409D000016E510201401309
:100D060000016F510201411329D00001C7B108D07B
:100D1600410E3024D96EDA6A020EDA22000EDF6E38
:100D2600C7B308D0410E3024D96EDA6A020EDA2231
:100D3600FF0EDF6EC6B108D0400E2F24D96EDA6AD8
:100D4600020EDA22000EDF6EC6B308D0400E2F2444
:100D5600D96EDA6A020EDA22FF0EDF6EC7C053F0D2
:100D66000C0E5316D8A407D000016C510201401393
:100D760000016D5126D00001C7B508D0400E3024C1
:100D8600D96EDA6A020EDA22000EDF6EC7B708D015
:100D9600400E3024D96EDA6A020EDA22FF0EDF6EBA
:100DA600C6B507D064510201401300016551020126
:100DB60041130001C6B707D0665102014013000176
:100DC6006751020141130001C7B907D06051020102
:100DD600401300016151020141130001C7BB07D056
:100DE60062510201401300016351020141130001E7
:100DF600C6B907D0685102014013000169510201CA
:100E060041130001C6BB12006A51020140130001E2
:100E16006B510201411312000001CA39F00BCE11C9
:100E2600556ECB39F00BCF11546ECC39F00BD01177
:100E3600566E34C043F032C044F0ACC045F0ADC08D
:100E460046F05550F0EC08F0556E35C043F032C010
:100E560044F0AEC045F0AFC046F05450F0EC08F098
:100E6600546E33C043F031C044F0AAC045F0ABC065
:100E760046F05650F0EC08F0566E400E2F24D96E10
:100E8600DA6A020EDA2256C0DFFF400E3024D96E2F
:100E9600DA6A020EDA2254C0DFFF410E3024D96E20
:100EA600DA6A020EDA2255C0DFFF0001D2B307D09C
:100EB60070510201401300017151020141130001FA
:100EC600D2B107D0725102014013000173510201E1
:100ED60041130001D2B707D060510201401300014F
:100EE6006151020141130001D2B507D062510201DE
:100EF600401300016351020141130001C8B307D03A
:100F060064510201401300016551020141130001C1
:100F1600C8B107D0665102014013000167510201B2
:100F260041130001C9B707D06851020140130001FF
:100F36006951020141130001C9B507D06A51020186
:100F4600401300016B51020141130001C9B107D0E2
:100F56006E510201401300016F510201411300015D
:100F6600C9B312006C510201401300016D51020118
:100F76004113120002013205D8A40ED030511F0BC6
:100F86000009D8A409D00C8E030E3119D8A402D0BA
:100F9600010E01D0000E2B6E3251D8A41200305132
:100FA6001F0B020AD8A4120034510F0B0009D8B443
:100FB600120034510F0B516E030E51601200200EB9
:100FC6003718D8A412000C8E34BF18D034510F0B2A
:100FD600516E5150020D980EF324D96E000EF42076
:100FE600DA6EDECF56F0DDCF57F034510F0B516E6F
:100FF600526AA20E5124D96E000E17D034510F0B2F
:10100600516E5150020D0F0EF324D96E000EF420CE
:10101600DA6EDECF56F0DDCF57F034510F0B516E3E
:10102600526AA50E5124D96E000E5220DA6EDF5098
:10103600556E55B006D0FB0E5614566EFF0E57145D
:1010460004D0040E5610566E5750576E34BF0AD051
:1010560034510F0B516E5150020D980EF324D96E78
:10106600000E09D034510F0B516E5150020D0F0E68
:10107600F324D96E000EF420DA6E56C0DEFF57C098
:10108600DDFF030E3119D8A42AD056C0D9FF57C0A8
:10109600DAFFDFAE17D034BF09D034510F0B516ED3
:1010A600526AA20E5124D96E000E08D034510F0B8D
:1010B600516E526AA50E5124D96E000E5220DA6E78
:1010C6000001DF8256C0D9FF57C0DAFF000EDB846D
:1010D60056C0D9FF57C0DAFF000EDB8E1200040E91
:1010E6005618566E5750576E56C0D9FF57C0DAFF7E
:1010F600DFAE1BD056C0D9FF57C0DAFF7F0EDF1612
:1011060056C0D9FF57C0DAFF000EDB8C000E4A6EC0
:10111600050E496E56C04BF057C04CF0000E4E6E91
:10112600020E4D6E66EC14F006D056C0D9FF57C0BD
:10113600DAFF000EDB8C040E5618566E5750576EAB
:1011460055B206D056C0D9FF57C0DAFFDFAE2DD054
:10115600020134BF09D034510F0B516E526AA20EF0
:101166005124D96E000E08D034510F0B516E526ABD
:10117600A50E5124D96E000E5220DA6E0001DF92C0
:1011860056C0D9FF57C0DAFF3B0EDF16000E4A6E77
:10119600050E496E56C04BF057C04CF0000E4E6E11
:1011A600020E4D6E66EC14F006D056C0D9FF57C03D
:1011B600DAFF3B0EDF16020134510F0B516E526AF5
:1011C600530E5124536E0F0E5220546E53C0D9FF46
:1011D60054C0DAFFFE0EDF161200506E5050476EF6
:1011E600486A4350496E4A6A800E4926000E4A22D2
:1011F6004750495C4A50800A4B6E4850800A4B580B
:10120600D8A017D0800E476E000E486E4350475E3A
:10121600000E485A5050496E4A6A4750495C4A5037
:10122600800A4B6E4850800A4B58D8A002D0800ED8
:101236001200800E50603CD0505043C047F0486AC0
:10124600471E481E474A482A475E000E485A800EE7
:1012560047244C6E000E48204D6E44C03DF03E6A59
:101266004CC03FF04DC040F0E7EC16F03DC04EF0EC
:101276003EC04FF04EC03DF04FC03EF045C03FF07F
:1012860046C040F0E7EC16F03DC051F03EC052F0CB
:10129600400E525CD8A004D0400E526E000E516E25
:1012A60051500008516E5250D8A0E82A4008526E9C
:1012B600800E506436D0435050C047F0486A475EAF
:1012C600000E485A810E47244C6EFF0E48204D6E84
:1012D60044C03DF03E6A4CC03FF04DC040F0E7ECE4
:1012E60016F03DC04EF03EC04FF04EC03DF04FC030
:1012F6003EF045C03FF046C040F0E7EC16F03DC07A
:1013060051F03EC052F0400E525CD8A004D0400EC0
:10131600526E000E516EFF0E5124516E3F0E52203A
:10132600526E51C047F052C048F0070E496ED89031
:1013360048324732492EFBD7475012003750D8A4BF
:1013460011D0000E646E000E606E160E616E9F0E5A
:101356000F015B6F7B0E606E01D0648664A6FDD7BD
:10136600010E376E3704D8B464BA08D0000E626E28
:10137600000E606E60806088020E376E62B460A4F4
:1013860003D0629448EC16F064A202D0A194120035
:1013960062B060A005D0E9EC0AF0040E376E6290E8
:1013A60062B860A802D0A8EC16F062AC1AD060ACA5
:1013B6000ED0000E4A6E730E496E000E4B6E000E76
:1013C6004C6E000E4E6E010E4D6E66EC14F0629C75
:1013D6001DEC17F02750D8A427062750D8B4AFEC39
:1013E60011F062BA60AA02D0AFEC15F062B260A248
:1013F60010D07F0E4A6E4968000E4B6E000E4C6E82
:10140600000E4E6E010E4D6E66EC14F0000E0F01CE
:101416005F6F040E376002D0A194120060A634D02C
:10142600000E596E62A630D063CF3AF03A30E832F9
:10143600E8320F0B296E62963AB406D0A20E292422
:10144600D96EDA6A000E05D0A50E2924D96EDA6A9D
:10145600000EDA220001DF702950D8A403D0C1ECB7
:1014660012F00ED0000E4A6E720E496E3A0E4B6E98
:10147600000E4C6E000E4E6E000E4D6E66EC14F0B5
:10148600592A030E5964CED7A1941200819AF00E00
:1014960000D0E82EFDD7818AF00E00D0E82EFDD7C9
:1014A600819AF00E00D0E82EFDD781B808D0000151
:1014B600885102014013000189510201411381BE86
:1014C60008D0000194510201401300019551020118
:1014D6004113818AF00E00D0E82EFDD782B008D0E5
:1014E600410E2E24D96EDA6A020EDA22000EDF6E63
:1014F60082B208D0410E2E24D96EDA6A020EDA22A2
:10150600FF0EDF6E82B408D0400E2E24D96EDA6A42
:10151600020EDA22000EDF6E82B608D0400E2E24AE
:10152600D96EDA6A020EDA22FF0EDF6E81B808D0B3
:1015360000018A510201401300018B51020141133F
:1015460081BE08D000018C510201401300018D516B
:1015560002014113819AF00E00D0E82EFDD782A039
:1015660082B232D0818AF00E00D0E82EFDD782B04A
:1015760008D000019251020140130001935102016B
:10158600411382B208D000019051020140130001BC
:1015960091510201411382B408D000018E5102011B
:1015A600401300018F510201411382B608D0000199
:1015B6009651020140130001975102014113819A8D
:1015C600F00E00D0E82EFDD7818A1200A094000EFE
:1015D6000F015F6F000E626E000E536F540E3D6E6C
:1015E6000F0E3E6E000E406E000E3F6E000E426EF7
:1015F600020E416EBEEC16F0160E616E9F0E0F01C6
:101606005B6F7B0E606E000E456E4550040D000E3E
:10161600F324D96E020EF420DA6EDE6ADE6ADE6A22
:10162600DD6A452A0B0E4564F0D7648C000E0F0167
:101636005C6F6498649C6296000E0C6E000E046EDD
:10164600000E066E000E056E62B6F5D7010E256E0B
:10165600010E246E000E236E000E226E000E2A6E00
:10166600000E456E4550020D0F0EF324D96E000E86
:10167600F420DA6E000EDE6E000EDD6E4550020DB1
:10168600980EF324D96E000EF420DA6E000EDE6E8C
:10169600000EDD6EA50E4524D96EDA6A000EDA223A
:1016A600000EDF6EA20E4524D96EDA6A000EDA222B
:1016B600000EDF6E452A020E4564D4D7080E0F6E63
:1016C600020E106E160E0F01536F020E0201036F0B
:1016D600300E026F080E016F040E006F008F000EB1
:1016E6003C6E000E00019E6F000E9F6F000EA06FF5
:1016F600000EA16F000E216E000E376E120020EE56
:1017060001F01750D9261850DA22DF503E6E3E50AF
:10171600055C000E0658D8A005C03EF03E50055E9A
:10172600000E065A000E3D6E0FD0380E3D24D96EBF
:10173600DA6A020EDA2201C0E1FF02C0E2FFDFCF61
:10174600E7FF014A022A3D2A3E503D5CD8A0EDD76C
:1017560005500610D8B432D020EE01F01550D92627
:101766001650DA22080EDF6E20EE02F01550D9264A
:101776001650DA22380EDE6E020EDD6E17C0D9FF65
:1017860018C0DAFFDFBC0DD015C0D9FF16C0DAFFCE
:10179600480EDF6E15C0D9FF16C0DAFF000EDB8ECD
:1017A600120015C0D9FF16C0DAFF080EDF6E15C08D
:1017B600D9FF16C0DAFF000EDB8E120020EE01F014
:1017C6001550D9261650DA22080EDF6E20EE02F0EA
:1017D6001550D9261650DA22300EDE6E020EDD6E58
:1017E60015C0D9FF16C0DAFF040EDF6E15C0D9FF8B
:1017F60016C0DAFF000EDB8E07500810D8B40ED0E4
:1018060020EE07F001D80AD00500FA6EDE50FD6E14
:10181600DE50FE6EF850FF6EFA501200049E2650FF
:10182600D8A41200AFEC11F01200800E020130199C
:10183600D8A41200C00E0C6E7FD0D40E096E090E0D
:101846000A6E000E0E6E120E0D6E12003251D8A4E4
:101856003DD03251020D070EF324F66E090EF42028
:10186600F76E0900F5CF09F00A00F5CF0AF0020E6F
:1018760009243D6E000E0A203E6E3DC0F6FF3EC0B6
:10188600F7FFF86A020EF76403D00800F55005D09A
:10189600F6CFE1FFF7CFE2FFE7500D6E030E092406
:1018A6003D6E000E0A203E6E3DC0F6FF3EC0F7FFBD
:1018B600F86A020EF76403D00800F55005D0F6CF9B
:1018C600E1FFF7CFE2FFE7500E6E1200000E0C6E3E
:1018D6001200030E326123D03251020D010EF324A1
:1018E600F66E090EF420F76E0900F5CF09F00A002E
:1018F600F5CF0AF009C0F6FF0AC0F7FFF86A020E34
:10190600F76403D00800F55005D0F6CFE1FFF7CF16
:10191600E2FFE7503D6E3D500D6E0E6A1200030E5B
:101926003219D8A4D3D70C80B00E096E000E0A6EF9
:10193600B0C00DF00C8E12003351010AD8B47DD719
:10194600030AD8B483D7010AD8B4C3D7BFD7818CCA
:101956003DC044F03EC045F0140EE82EFED782CFBF
:101966003FF00F0E3F168150300B3F1044C0D9FF99
:1019760045C0DAFFDF6E444A452A819C140EE82EE4
:10198600FED782CF3FF00F0E3F168150300B3F102F
:1019960044C0D9FF45C0DAFFDF6E444A452A818C30
:1019A600000E436E000E426E000E416E000E406E3B
:1019B60081B802D0010E01D0000E3F6E81BA02D06E
:1019C600010E01D0000E3F14E8B00DD0C80E40182D
:1019D6004110D8A405D0000E3E6E010E3D6E1200D9
:1019E600404A412AE5D782500F0B44C0D9FF45C073
:1019F600DAFFDF6E444A452A050E42184310D8A482
:101A060005D0000E3E6E000E3D6E1200000E416EB9
:101A1600000E406E81A802D0010E01D0000E3F6E6E
:101A260081BA02D0010E01D0000E3F14E8B008D0F2
:101A3600C80E40184110D8B4CED7404A412AEAD73A
:101A460082500F0B44C0D9FF45C0DAFFDF6E444A0F
:101A5600452A424A432A43BEA7D74350BCE1060E55
:101A6600425CD8B0B8D7A0D7020130511F0BE806A8
:101A7600D8A41200060E3119D8B438D03FD03C0491
:101A8600D8B410D03BD0710E096E090E0A6E000E46
:101A96000E6E090E0D6EC00E0C6E30D0810E096EE4
:101AA600090EF4D73451000AD8B4EDD7010AD8B4D8
:101AB600F5D724D03C04D8B411D020D0090E096E35
:101AC600090E0A6E000E0E6E560EE4D7A10E096EB2
:101AD600090E0A6E000E0E6E1D0EDCD73451000A7A
:101AE600D8B4ECD7010AD8B4F1D708D03351210ABB
:101AF600D8B4C5D7030AD8B4DDD7010A3039E832DD
:101B0600030BE806D8A4120023D02DEC17F0120020
:101B1600390E096E000E0A6E000E0E6E010E0D6E67
:101B2600C10E0C6E1200800E0C6E33C239F012001C
:101B3600380E096E000E0A6E000E0E6E010E0D6E48
:101B4600810E0C6E1200800E0C6E32C238F012003E
:101B56003151010AD8B41200030AD8B4D9D7010A00
:101B6600D8B4E6D70A0AD8B4D0D7030AD8B4DBD794
:101B7600010AD8A41200E7D7010E55EC17F0356E0E
:101B8600020E55EC17F0346E030E55EC17F0336E5B
:101B9600040E55EC17F0326E050E55EC17F0316E4B
:101BA600000E476E740E4724D96EDA6A000EDA22EA
:101BB6004750200F55EC17F0DF6E472A130E476487
:101BC600F1D7000E476E600E4724D96EDA6A000E12
:101BD600DA224750340F55EC17F0DF6E472A130E02
:101BE6004764F1D7000E476E880E4724D96EDA6A2D
:101BF600000EDA224750480F55EC17F0DF6E472AE1
:101C06000F0E4764F1D7580E55EC17F0306E590E8B
:101C160055EC17F02F6E5A0E55EC17F02E6E440E3B
:101C2600466E000E476E3E0E4724D96EDA6A000EE7
:101C3600DA224750080F55EC17F0DF6E3E0E4724A8
:101C4600D96EDA6A000EDA22DF504626472A070ED8
:101C56004764E9D7070E55EC17F04618D8A41200CA
:101C66003EC0B6F03FC0B8F040C0BAF041C0BCF0CC
:101C760042C0BEF043C0C0F044C0C2F045C0C4F08C
:101C86001200456E3D50D8B407D04550020D0F0ED8
:101C9600F324D96E000E06D04550020D980EF3249B
:101CA600D96E000EF420DA6EDECF46F0DDCF47F0B7
:101CB60046504710D8A405D0000E3D6E000E3E6E6D
:101CC600120020EE02F04650D9264750DA223EC0D6
:101CD600DEFF3FC0DDFF20EE01F04650D92647501B
:101CE600DA2240C0DFFF46C0D9FF47C0DAFF400E08
:101CF600DF1646C0D9FF47C0DAFF000EDB8646C0B6
:101D0600D9FF47C0DAFF000EDB8E3D50D8B418D09D
:101D16004550020D0F0EF324D96E000EF420DA6E34
:101D2600DECF41F0DDCF42F0040E4118436E425043
:101D3600446E4550020D0F0EF324D96E000E17D0D7
:101D46004550020D980EF324D96E000EF420DA6E7B
:101D5600DECF41F0DDCF42F0040E4118436E425013
:101D6600446E4550020D980EF324D96E000EF420F1
:101D7600DA6E43C0DEFF44C0DDFF46C03DF047C01B
:101D86003EF01200828E000E4A6E3D0E496EE10E46
:101D9600486E400EE82EFED7482EFCD7492EFAD7BD
:101DA600D00E9318D8B42ED0C60E3D6E000E3E6EE1
:101DB600AAEC0CF01F0E496E710E486E1E0EE82E30
:101DC600FED7482EFCD7492EFAD700D0C60E3D6E58
:101DD600000E3E6EAAEC0CF03D043E10D8A40AD0CC
:101DE6000001C7BB02D0010E4A6EC6B518D091ECF1
:101DF60016F015D00001D2B702D0010E4A6EC8A364
:101E0600F6D70DD0818AF00E00D0E82EFDD781B826
:101E160002D0010E4A6E81AE91EC16F0828E33EC42
:101E260015F0000E55EC17F0A50AD8B402D0010E35
:101E360001D0000E486E496A4A504812000E4912F7
:101E460048504910D8B40ED0000E356E000E346ED0
:101E5600000E336E020E326E020E316EF3EC15F08A
:101E6600E9EC10F0BFEC0DF0A0EC14F012000FC07E
:101E7600D9FF10C0DAFF000EDFBC010E3E6E040E65
:101E86000F180F6E1050106E080E3718D8A40CD00D
:101E9600020132517F0B0F015C6F5C51D8B402D046
:101EA600100E01D0040E376E2C04D8A43AD020EEC2
:101EB60002F00F50D9261050DA22380EDE6E020ECE
:101EC600DD6E83EC10F0020E2D18D8A40DD00FC0D5
:101ED600D9FF10C0DAFF040EDF6E0FC0D9FF10C0A5
:101EE600DAFF000EDB8E12003E50D8A40DD00FC0D4
:101EF600D9FF10C0DAFF480EDF6E0FC0D9FF10C041
:101F0600DAFF000EDB8E12000FC0D9FF10C0DAFF19
:101F1600080EDF6E0FC0D9FF10C0DAFF000EDB8E91
:101F2600120004AE13D007500810D8B40ED020EE1D
:101F360007F001D80AD00500FA6EDE50FD6EDE50BD
:101F4600FE6EF850FF6EFA501200049E000E2C6EC4
:101F5600120064980CBE38D004AE0BD0020E2C6E64
:101F66002250D8B40CEC13F0000E246E000E256E31
:101F7600120020EE01F01550D9261650DA22080E6E
:101F8600DF6E20EE02F01550D9261650DA22300EFA
:101F9600DE6E020EDD6E15C0D9FF16C0DAFF0C0E1E
:101FA600DF6E15C0D9FF16C0DAFF000EDB8E0FC03C
:101FB600D9FF10C0DAFF040EDF6E0FC0D9FF10C0C4
:101FC600DAFF000EDB8E1200020130AF10D0010ED8
:101FD6002C6E2350D8B40CEC13F0000E246E000EB9
:101FE600256E2650D8A41200AFEC11F01200020E96
:101FF6002C6E20EE01F01550D9261650DA22080E66
:10200600DF6E20EE02F01550D9261650DA22300E79
:10201600DE6E020EDD6E15C0D9FF16C0DAFF040EA5
:10202600DF6E15C0D9FF16C0DAFF000EDB8ED5D7DE
:102036000C8E540E3D6E0F0E3E6E000E406E000E60
:102046003F6E000E426E020E416EBEEC16F0000EA2
:102056003D6E020E3E6E000E406E000E3F6E000E8E
:10206600426E300E416EBEEC16F0648C000E516E60
:10207600A50E5124D96EDA6A000EDA22000EDF6E42
:10208600A20E5124D96EDA6A000EDA22000EDF6E35
:10209600512A020E5164ECD73B0E3D6E000E3E6E89
:1020A600000E406E000E3F6E000E426E010E416E37
:1020B600BEEC16F0649C080E0F6E020E106E000E3B
:1020C600176E020E186E17C015F018C016F032C241
:1020D6003CF03C50D8A403D0100E376E1200200EF0
:1020E600376E000E4A6E010E496E3C0E4B6E000EA8
:1020F6004C6E000E4E6E010E4D6E66EC14F0120024
:10210600080E3D6E0E5010E1080E0D5CD8B00CD0D6
:102116000DC03DF02D50D8A402D0010E04D02D04E0
:10212600D8A402D0020E2D6E3D500D5E000E0E5A42
:1021360020EE01F00F50D9261050DA223DC0DFFF05
:10214600380E0001A86F020EA96F0CA01CD03AD061
:1021560009C0F6FF0AC0F7FFF86AA8C0D9FFA9C0F0
:10216600DAFF020EF76403D00800F55005D0F6CF6B
:10217600E1FFF7CFE2FFE750DF6E094A0A2A0001C6
:10218600A84BA92B3D063D50D8B41200E1D709C093
:10219600F6FF0AC0F7FFF86AA8C0D9FFA9C0DAFFA0
:1021A600020EF76403D00800F55005D0F6CFE1FF24
:1021B600F7CFE2FFE750DF6E094A0A2A0001A84B73
:1021C600A92B3D063D50D8B41200E1D7000E356E5E
:1021D600000E346E000E336E020E326E020E316E3B
:1021E600F3EC15F0000E426E740E4224D96EDA6AD4
:1021F600000EDA22000EDF6E422A130E4264F4D776
:10220600000E426E600E4224D96EDA6A000EDA22A1
:10221600000EDF6E422A130E4264F4D7000E426EA1
:10222600880E4224D96EDA6A000EDA22000EDF6EBC
:10223600422A0F0E4264F4D7040E0001886F020E84
:102246008A6F200E8C6F080E8E6F010E906F100E27
:10225600926F020E956F100E976F040E606F020E4E
:10226600626F010E646F080E666F200E686F100EA7
:102276006A6F020E6D6F100E6F6F040E706F020E96
:10228600726F030E306E060E2F6E030E2E6E10EC5E
:1022960012F0120002013039E832030B0009D8A40B
:1022A600120039D00C8E080E376E120018EC0CF0A6
:1022B60012001BEC10F012003C0E096E000E0A6EA6
:1022C6000C80010E0D6E0C8E12006EEC12F01200D8
:1022D600BDEC07F012003B0E3425096E0A6A000EAB
:1022E6000A22EED70C8E3B0E3425D96EDA6A000E22
:1022F600DA2232C2DFFF1200000E4A6E020E496E6B
:10230600000E4B6E000E4C6E000E4E6E000E4D6EA5
:1023160066EC14F012003151000AD8B4D6D7010A7F
:10232600D8B4D6D7020AD8B4D3D7060AD8B4BAD7FF
:10233600030AD8B4BBD7010AD8B4DED70F0AD8B47B
:10234600BBD7010AD8B4B5D7030AD8B4C4D7010A93
:10235600D8B4C8D7070A12002550D8A41200010E17
:10236600256E2450D8A41200010E246E020E2C18DD
:10237600D8A415D020EE01F00F50D9261050DA223D
:10238600000EDF6E0FC0D9FF10C0DAFF480EDF6EF9
:102396000FC0D9FF10C0DAFF000EDB8E12002C042E
:1023A600D8A41200000E286E20EE01F01750D92690
:1023B6001850DA22080EDF6E20EE02F01750D926EA
:1023C6001850DA22300EDE6E020EDD6E17C0D9FF0F
:1023D60018C0DAFF040EDF6E17C0D9FF18C0DAFF87
:1023E600000EDB8E010E286E20EE01F01550D92668
:1023F6001650DA22080EDF6E20EE02F01550D926AE
:102406001650DA22300EDE6E020EDD6E15C0D9FFD2
:1024160016C0DAFF800EDF6E1200000E416E000E4F
:10242600406E740E4024D96E000E4120DA6EDF50E5
:102436003D6E4050200F2EEC16F0404A412A41BE18
:10244600F0D7415004E1140E405CD8A0EAD7000E44
:10245600416E000E406E600E4024D96E000E412083
:10246600DA6EDF503D6E4050340F2EEC16F0404AC7
:10247600412A41BEF0D7415004E1140E405CD8A079
:10248600EAD7000E416E000E406E880E4024D96ECB
:10249600000E4120DA6EDF503D6E4050480F2EECA4
:1024A60016F0404A412A41BEF0D7415004E1100ED1
:1024B600405CD8A0EAD730C03DF0580E2EEC16F09E
:1024C6002FC03DF0590E2EEC16F02EC03DF05A0EE0
:1024D6002EEC16F01200000E0201386F000E396F56
:1024E60038D00C8E2B04D8A43FD038833DD00C8E28
:1024F6003BD00C8E34510F0B0009D8B435D034BF05
:102506000AD034510F0B3D6E3D50020D980EF32448
:10251600D96E000E09D034510F0B3D6E3D50020DA1
:102526000F0EF324D96E000EF420DA6EDECF3EF0E5
:10253600DDCF3FF03EC0D9FF3FC0DAFFDFAE14D09B
:102546003EC0D9FF3FC0DAFFDFA40ED0010E386FC0
:102556000BD030511F0B000AD8B4C3D7010AD8B428
:10256600C6D7030AD8B4C5D70CAE1200380E096E0A
:10257600020E0A6E0C80020E0D6E12002D0E276ED4
:102586003AC058F0FD0E5816D8A43BD03AC058F0C1
:10259600D89058323F0E58165850040D000EF324AA
:1025A600176E020EF420186E17C015F018C016F03C
:1025B600040E1518156E1650166E17C0D9FF18C0E2
:1025C600DAFFDF30E8320F0B0D0AD8A417D0300E31
:1025D6003D6E020E3E6E20EE02F01750D9261850C0
:1025E600DA22DECF3FF0DDCF40F0000E426E080E5D
:1025F600416ED1EC15F0A1EC13F0120005EC15F0CC
:1026060012003A50FD0B040AD8A412003AEC0FF05F
:102616001200000E236E000E226E020E2C18D8A495
:102626001FD020EE01F01550D9261650DA22080EDA
:10263600DF6E20EE02F01550D9261650DA22380E3B
:10264600DE6E020EDD6E15C0D9FF16C0DAFF480E2B
:10265600DF6E15C0D9FF16C0DAFF000EDB8E120042
:102666000D500201365D0E503759D8B004D036C22F
:102676000DF037C20EF083EC10F020EE02F00F5092
:10268600D9261050DA22380EDE6E020EDD6E0FC02D
:10269600D9FF10C0DAFF480EDF6E0FC0D9FF10C099
:1026A600DAFF000EDB8E1200426E000E436E020E43
:1026B600446E3D503E6E3F6AD8903E363F3642509D
:1026C600406E416AD89040364136D8904036413601
:1026D6003E5040263F504122D89040364136D89051
:1026E60040364136405043264150442243C0D9FF2C
:1026F60044C0DAFFDF9E3D50D8A407D04250020DF9
:10270600980EF324D96E000E06D04250020D0F0E1D
:10271600F324D96E000EF420DA6E43C0DEFF44C007
:10272600DDFF43C0D9FF44C0DAFFDF9C20EE04F092
:102736004350D9264450DA22DF8C1200000E2D6E4B
:10274600000E266E000E236E000E226E000E286E00
:10275600000E2C6E0FC0D9FF10C0DAFF7F0EDF16F9
:10276600040E0F180F6E1050106E0FC0D9FF10C058
:10277600DAFF7F0EDF16040E0F180F6E1050106E64
:1027860015C0D9FF16C0DAFF7F0EDF16000E0C6EDD
:10279600000E0E6E000E0D6E000E046E000E066E1E
:1027A600000E056E4DEC11F0000E4A6E030E496EDA
:1027B600000E4B6E000E4C6E000E4E6E000E4D6EF1
:1027C60066EC14F0ACEC0FF01200000E426E40AE58
:1027D60006D03F6C401ED8B0402A010E426E3EAE77
:1027E60006D03D6C3E1ED8B03E2A010E421A000E9F
:1027F600446E000E436E3F504010D8B41CD0010EFC
:10280600416E04D0D8903F364036412A40AEFAD7C2
:10281600D890433644363F503D5C40503E58D8A091
:1028260005D03F503D5E40503E5A4380D8904032DE
:102836003F32412EEDD74250D8B404D0436C441EEB
:10284600D8B0442A43C03DF044C03EF012001FC039
:1028560081F2000E3E6E000E3D6EC60E3D24D96E10
:10286600000E3E20DA6E820E3D24E16E020E3E2000
:10287600E26EDFCFE7FF3D4A3E2A3EBEEED73E5030
:1028860004E10D0E3D5CD8A0E8D7000E3E6E000EAA
:102896003D6E400E3D24D96E020E3E20DA6E8F0E3E
:1028A6003D24E16E020E3E20E26EDFCFE7FF3D4A99
:1028B6003E2A3EBEEED73E5005E1080E3D5CD8B03E
:1028C6001200E7D7120010D000F01200010E61ECE2
:1028D60015F01200020E61EC15F01200D7EC14F0A0
:1028E600120037EC0DF0120049C04FF04AC050F00C
:1028F6005050000AD8B404D07F0AD8A412001AD0C7
:102906004F50010AD8B4EAD7030AD8B41200010A14
:10291600D8B4E7D7060AD8B41200770AD8B4D4D701
:10292600010AD8B41200070AD8B4D4D7010AD8A429
:102936001200CCD74F50FF0A1200200E3E6E000E3A
:102946003D6E355080083F6E000ED8A0E82A00087C
:10295600406EE8EC13F03DC0AEF03EC0AFF0200E86
:102966003E6E000E3D6E345080083F6E000ED8A0BD
:10297600E82A0008406EE8EC13F03DC0ACF03EC01B
:10298600ADF0200E3E6E000E3D6E335080083F6E59
:10299600000ED8A0E82A0008406EE8EC13F03DC00F
:1029A600AAF03EC0ABF01200000E1D6E000E1E6EA9
:1029B600000E1B6E000E1C6E000E196E000E1A6EB7
:1029C600000E366E000E3E6E000E3D6E61EC16F089
:1029D6001A0E456E010E12EC16F01E0E456E020E14
:1029E60012EC16F0000E3D6EC00E3E6E020E3F6EED
:1029F600400E406E020E44EC0EF03DC019F03EC093
:102A06001AF01200020E2C18D8A403D082EC0BF098
:102A16001200000E2C6E2850D8A41FD020EE01F014
:102A26001550D9261650DA22080EDF6E20EE02F077
:102A36001550D9261650DA22300EDE6E020EDD6EE5
:102A460015C0D9FF16C0DAFF0C0EDF6E15C0D9FF10
:102A560016C0DAFF000EDB8E1200000E286E120082
:102A6600160E0001B06F030EB16F530EB26F000E5B
:102A7600B36F4E0EB46F000EB56F2D0EB66F000E0F
:102A8600B76F2D0EB86F000EB96F2D0EBA6F000E10
:102A9600BB6F2D0EBC6F000EBD6F2D0EBE6F000EF0
:102AA600BF6F2D0EC06F000EC16F2D0EC26F000ED0
:102AB600C36F2D0EC46F000EC56F12003D6E1DD084
:102AC600000E816E000E826E000E8A6E000E8B6EF8
:102AD600000E7E6E000E7F6EF00E936E0F0E946EDD
:102AE6000F0E946EF19EF00E786E81BC03D0D00E60
:102AF600936E1200B00E936E12003D50000AD8B4C9
:102B0600DFD7010AD8B41200030A1200000E020130
:102B1600816F000E826F020E816F010E826F160E9C
:102B2600F66E080EF76E0800F5CF83F2160EF66EF7
:102B3600080EF76E0900F5CF41F00900F5CF42F017
:102B460042C041F0426A4150846F000E3E6E050E4F
:102B56003D6E79EC16F012000F0153A11DD017C07F
:102B6600D9FF18C0DAFF800EDE18D8A414D00FC023
:102B7600D9FF10C0DAFF840EDE18D8A40CD017C017
:102B8600D9FF18C0DAFF0C0EDF6E17C0D9FF18C0C8
:102B9600DAFF000EDB8E5391629A12003FC045F0B9
:102BA60040C046F03DC043F03EC044F010D045C0A2
:102BB600D9FF46C0DAFFDF50476E454A462A43C072
:102BC600D9FF44C0DAFF47C0DFFF434A442A410623
:102BD600D8A042064128EBE14228D8B41200E7D734
:102BE600A50E3D6E000E2EEC16F035C03DF0010E22
:102BF6002EEC16F034C03DF0020E2EEC16F033C06B
:102C06003DF0030E2EEC16F032C03DF0040E2EEC15
:102C160016F031C03DF0050E2EEC16F01200486E8F
:102C260045A405D0000E3D6E485057EC13F045A262
:102C360005D0010E3D6E485057EC13F0530E482454
:102C4600466E476A0F0E472246C0D9FF47C0DAFFD5
:102C560045C0DFFF12003E6E3EC0A9FF3DC0A8FF83
:102C6600A69EA69CA684000EF2BE010E3F6EF29EA4
:102C7600550EA76EAA0EA76EA6823F50D8A4F28E56
:102C8600A1A8FED7A198A6941200000E2A6E000EE7
:102C96004A6E740E496E000E4B6E000E4C6E000EA0
:102CA6004E6E000E4D6E66EC14F06492609401D088
:102CB600629462B4FDD7000E216E12003DC03FF053
:102CC6003EC040F040BE06D040500FE1400E3F5C93
:102CD600D8B01200800E3F24D96E020E4020DA6E64
:102CE600000EDF6E3F4A402AEDD712003DC03FF08E
:102CF6003EC040F040BE06D040500FE1170E3F5C8C
:102D0600D8B01200800E3F24D96E020E4020DA6E33
:102D1600000EDF6E3F4A402AEDD71200F29CF29E6B
:102D26008068000E816E000E826E8968000E8A6EC3
:102D3600000E8B6E000E7E6E000E7F6EF00E936E92
:102D46000F0E946E0EEF00F012006084629864829B
:102D5600010E2A6E000E216E000E4A6E750E496E29
:102D6600000E4B6E000E4C6E000E4E6E000E4D6E3B
:102D760066EC14F012003DC043F03EC044F008D0AB
:102D860043C0D9FF44C0DAFF3FC0DFFF434A442AAD
:102D96004106D8A042064128F3E14228D8B41200E1
:102DA600EFD700EE60F0730EEE6AE806FDE100EE86
:102DB60001F03C0EEE6AE806FDE15E905E92000EC2
:102DC600F86E0001FAEF16F03D503F02F3CF41F0E6
:102DD600F4CF42F03D504002F35042263E503F02AF
:102DE600F350422641C03DF042C03EF01200000EB4
:102DF60061EC15F0C5EC0EF0E9EC0AF0A1EC09F077
:102E0600200E376001D0FAD764B2F8D7FBEC04F095
:102E1600F5D732C081F231C082F235C083F234C0B8
:102E260084F233C085F2000E3E6E060E3D6E79ECDE
:102E360016F01200010E00019E27000E9F23A0230C
:102E4600A1232A50D8A41200212A2150D8A4120066
:102E560021681200C00E016E020E026E000E066E92
:102E6600080E056EBE0E076E2E0E086E048E12003C
:102E7600450E0201816F520E826F520E836F000E55
:102E86003E6E040E3D6E79EC16F012004F0E0201F6
:102E9600816F4B0E826F000E3E6E030E3D6E79EC17
:102EA60016F012003D6E3DC0A9FFA69EA69CA68008
:0E2EB600A6B0FED7A8501200010E366E120014
:020000040020DA
:08000000FFFFFFFFFFFFFFFF00
:020000040030CA
:0E00000000120314FF0089FF03C003E0034059
:00000001FF
